:100000000C94EF000C9461340C9461340C946134C2
:100010000C9461340C9461340C9461340C9461340C
:100020000C94C12E0C9461340C9461340C946134A2
:100030000C9461340C9461340C9461340C946134EC
:100040000C9461340C9461340C9461340C946134DC
:100050000C9461340C9461340C9461340C946134CC
:100060000C94C7250C9461340C94912E0C94612E41
:100070000C9461340C9461340C94E7270C94613433
:100080000C9485200C9461340C9461340C94492AAE
:100090000C9461340C9461340C9461340C9461348C
:1000A0000C9461340C9461340C9461340C9461347C
:1000B0000C9461340C9495270C9427260C9461348D
:1000C0000C9461340C9461340C9461340C9461345C
:1000D0000C9461340C9461340C9461340C9461344C
:1000E0000C9461340C9461340C9461340C94E526C6
:1000F0000C9461340C9461340C9461340C9461342C
:100100000C9461347A2C7E2C822C822C822C822CB2
:10011000822C822C822C822C902C902C902C902C37
:10012000902C902C9C2C9C2C9C2C9C2CA92DAD2D87
:10013000AD2DAD2DAD2DAD2DAD2DB92DB92DB92DCB
:10014000B92DB92DB92DC52DC52DC52DC52DC52D43
:10015000C52DC52DD92DDD2DDD2DDD2DDD2DDD2D83
:10016000DD2DE92DE92DE92DE92DE92DE92DF52DDF
:10017000F52DF52DF52DF52DF52DF52D092E0D2E41
:100180000D2E0D2E0D2E0D2E0D2E192E192E192E73
:10019000192E192E192E252E252E252E252E252EEB
:1001A000252E252E392E3D2E3D2E3D2E3D2E3D2E2B
:1001B0003D2E492E492E492E492E492E492E552E87
:1001C000552E552E552E552E552E552E40005E1867
:1001D000805E185E5F0069245E5F5EBE8000809175
:1001E00001108F7C8060806898ED94BF809301102F
:1001F00011241FBECFEFCDBFDFE7DEBFECECF1E097
:1002000041E019C0B791A79137912791079107FD58
:100210000EC097918791EF01F92FE82F0BBF079040
:100220000D92A217B307D9F7FE011BBE04C01D92A1
:10023000A217B307E1F7ED3DF40721F70E94DF189D
:080240000C94C632F894FFCFC4
:100248004C6F677320466F6C646572006C6F675FF4
:10025800312E63737600546573742031002C00507E
:10026800696E73202825642E2564292050696E2024
:10027800256320766F6C746167652C20000A004244
:100288006F7468204C6F7720546573742C00252E8A
:1002980032662C0050696E204120686967682F50CB
:1002A800696E2042206C6F772C0050696E204120C7
:1002B8006C6F772F50696E204220686967682C0040
:1002C800426F7468204869676820546573742C000D
:1002D80025752C005800743500686F6D6500530053
:0702E8007436004F4B790052
:1002EF006765742025732E25732E2573256325636B
:1002FF0025630025732E25732E7478743D22257384
:10030F00222563256325630025732E25732E7661C1
:10031F006C3D256425632563256300706167652047
:10032F002573256325632563006765742025732571
:10033F00632563256300256C750066756E633A202F
:0A034F00256C7500727463256400CC
:05035900002D002E0044
:10035E002F923F924F925F926F927F928F929F92C7
:10036E00AF92BF92CF92DF92EF92FF920F931F93B5
:10037E00CF93DF93CDB7DEB7A197CDBFDEBF7C01A4
:10038E006A8B7B8BD42E1C86198A1091145EDC012D
:10039E005A968C9181110DC08091FF5D9091005EF7
:1003AE00A091015EB091025EF70180839183A283DA
:1003BE00B38340E050E0BA01C7010E943F2D6A8925
:1003CE007B8940E0C7010E949E15823009F044C32C
:1003DE0080E007C03196EA8BFB8B8F5F883F08F079
:1003EE003DC3EA89FB8990819111F4CFD7011C9608
:1003FE006D907C901D976A8A7B8A09C08F3209F4B2
:10040E002FC38C3509F42EC33196EA8BFB8BEA8908
:10041E00FB8980818111F2CF6A8A7B8AF701408144
:10042E00518162817381C7010E943F2D6A897B8948
:10043E009E012F5E3F4FAE014F5F5F4FC7010E947F
:10044E00EE17823009F010C3D70150961D921C9200
:10045E00519759968C91882309F408C30FE4809F15
:10046E00012D1124069506959989992361F0402F47
:10047E0050E06DE070E090E00E94D1328E8F8823C4
:10048E0019F00F5F01C01E8EB1E0B00FB98F00647E
:10049E000F8FCE0101960E947A3188A3F701408119
:1004AE00518162817381C7010E943F2D00E0C12CF2
:1004BE00A12CB12C212C312C2101812C912C1C8AA8
:1004CE001D8A1E8A1F8A088F6A8E7B8E7C2C098D50
:1004DE00D9A2C12CD12C42C0FFEFAF1ABF0AFC012A
:1004EE00EE0FFF1FE295F295F07FFE27E07FFE27CD
:1004FE00EF5FFF4B2081222311F0253EE1F4739430
:10050E00211431044104510499F4D70118962D9009
:10051E003D904D905C901B9750968D909C9051976E
:10052E00B1E08B1A9108F701C480D5808E8B9F8B1A
:10053E00071105C00EC0712C212C312C2101019602
:10054E0002C080E090E0212F30E08217930720F266
:10055E0002C0F1E0F88F288D211105C0C7010E945D
:10056E006325882371F3CC8ADD8AC72C6A8C7B8C39
:10057E00D9A0398DC31609F43FC0F701808191814E
:10058E00A281B3810297A105B105B0F1AB20A09471
:10059E0099F183E00E94A21C9B01AC016D877E87BE
:1005AE008F87988B623071058105910508F460C2C2
:1005BE00D7016D917D918D919C9106E00E946C14F6
:1005CE00662309F457C22091F75D3091F85D409192
:1005DE00F95D5091FA5D6D857E858F8598890E94B3
:1005EE006C14662309F448C26D857E858F859889C3
:1005FE0040E00E948B2BC98CB98DCB123FC2EC8987
:10060E00FD89CF01A0E0B0E0F70184839583A68336
:10061E00B7832086318642865386808A918AB4E0DB
:10062E00DB1225C04091F75D5091F85D6091F95D48
:10063E007091FA5DCE010D960E94DC28811120C2C8
:10064E006D857E858F85988940E00E948B2B6D8508
:10065E007E858F8598890E941F2F6A8F7B8F8C8F46
:10066E009D8F672B682B692B09F40CC208C01D8661
:10067E001E861F86188A1A8E1B8E1C8E1D8EC70113
:10068E000E946325811100C2812C1C8A188E312C88
:10069E00212C4E885F88BE8C982EA12EDE8A35C105
:1006AE008A2D90E04816590639F4C7010E94632539
:1006BE008111ECC1412C512C8201000F111F0295AA
:1006CE001295107F1027007F102740E060E270E047
:1006DE00C8010E941E32D988DD2009F476C0E1E0FF
:1006EE00EC1508F072C06A8A7B8AF801EF5FFF4B47
:1006FE002F8D20833EEF3C0D3F8FD70159964C91A5
:10070E004E3098F0B98D2B2F30E02C19310953EF64
:10071E005203C001539F900D1124840F911D8B190C
:10072E009109860D971D8A8B9B8B22E0AE014E5E42
:10073E005F4F6AE070E0C80101960E940E2D22E024
:10074E00AE014E5E5F4F6CE070E0C8010E960E94E7
:10075E000E2D22E0AE014E5E5F4F64E070E0C801E8
:10076E004C960E940E2DBB2029F1811023C0E4E08F
:10077E00EB1520F08B2C880C839411C0FAE0FB153E
:10078E0030F08B2D90E00296882E880C08C02CE05D
:10079E002B1528F08B2D90E00396882E880CC8011F
:1007AE00880D911DFC01EF5FFF4B1082FC01EE5F87
:1007BE00FF4B1082F801E45FFF4B8FE08083F8015E
:1007CE00E25FFF4B18A1108373C021E0C21270C00C
:1007DE003E89343031F480E1F801E45FFF4B8083D1
:1007EE0005C080E2F801E45FFF4B80830E94633412
:1007FE00F8013D96EF5FFF4B80830E945534382EF3
:10080E00292EF801E15FFF4B8083F801E05FFF4B7B
:10081E009083F801E95EFF4B8083F801E85EFF4BA1
:10082E0090830E9458348C8B988FF801EF5EFF4BAB
:10083E008083F801EE5EFF4B9083F801E75EFF4B7D
:10084E008083F801E65EFF4B90833D852E859F8564
:10085E008889F801E55EFF4B3083F801E45EFF4BBB
:10086E0020832091165E223041F4F801EB5EFF4B9F
:10087E009083F801EA5EFF4B8083D11005C088E1BA
:10088E00F801E35FFF4B808340E010C0A42FB0E07F
:10089E00FD01E00FF11F81E090E08C0F9D1FA80F6E
:1008AE00B91F8C91EF5FFF4B80834F5F4B3070F31E
:1008BE008A2D90E001974816590619F091E0C91259
:1008CE0020C0D70118964D915D916D917C911B972B
:1008DE0050968D919C9151978A019B01080F191F7B
:1008EE00211D311DC901B80161507109810991099C
:1008FE0041E050E40E94132180910040853009F0C0
:10090E00C7C0CA941FEF411A510AC110C9CE092D92
:10091E00DE8824E0D212BDC00F2EFFEEAF2EFDE515
:10092E00BF2EF02DD50158966D917C91599740E0D0
:10093E0080E090E00E941E320F2EF1E0CF2EF0E408
:10094E00DF2EF02D8EE2F601808340E26AE070E049
:10095E0081E090E00E941E3280E1D6011B968C93BE
:10096E001B97832C56963C925697922C57962C9208
:10097E0057971C8958961C935897388C59963C92C9
:10098E0059973D852E859F8588895A963C935A970F
:10099E005B962C93D50197962C91223019F4F60183
:1009AE00948B858B0F2EF1E0CF2EF0E4DF2EF02D01
:1009BE008EE2F60180A381A340E269E070E082E25C
:1009CE0090E00E941E3280E1D6019B968C939B97FD
:1009DE00D6968C92D697D7969C92D797D8961C93EC
:1009EE00D897D9963C928091165E8230F9F4F70131
:1009FE0040815181628173818091FF5D9091005E93
:100A0E00A091015EB091025E481759076A077B07F5
:100A1E0021F41082118212821382F7018281E1E0A9
:100A2E00F0E484ABD70113968C9185ABF7018081EE
:100A3E00E1E0F0E482AFD70111968C9183AFAF0164
:100A4E006A8D7B8D8C8D9D8D0E941321809100402F
:100A5E008530F9F00CE01DC005E01BC008E019C0A0
:100A6E0003E017C003E015C005E013C007E011C096
:100A7E0004E00FC00CE00DC00CE00BC007E009C095
:100A8E00082F07C007E005C00CE003C00CE001C052
:100A9E000CE0802FA196CDBFDEBFDF91CF911F91CD
:100AAE000F91FF90EF90DF90CF90BF90AF909F90FF
:100ABE008F907F906F905F904F903F902F90089502
:100ACE00AAE9B0E0EDE6F5E00C94D8306C017A01BD
:100ADE00C756DF4F68837983C959D040A12CB12CFA
:100AEE0066246A94762C90E8492E512C25E2222E0B
:100AFE00C756DF4F68817981C959D040FB0180818B
:100B0E00882309F471C3CF57DF4F18821982C15859
:100B1E00D040CD57DF4F68827982C358D040CB5733
:100B2E00DF4F18821982C558D04081E090E08C0FBB
:100B3E009D1FC957DF4F88839983C758D040C75729
:100B4E00DF4F48825982C958D040FB0100E010E0C7
:100B5E008191811116C001151105C1F0A801C601C0
:100B6E000E948730C756DF4F88819981C959D0407E
:100B7E00800F911FC756DF4F88839983C959D04084
:100B8E0005C0853241F30F5F1F4FE2CFC756DF4FCF
:100B9E00E881F981C959D0408081853209F012C3AC
:100BAE004F019FEF891A990AC756DF4F88829982A3
:100BBE00C959D040C756DF4F88819981C959D04055
:100BCE00DC012C912B3241F4CF57DF4F2881398134
:100BDE00C158D04024600BC02C32BCF02D3249F5E8
:100BEE00CF57DF4F28813981C158D0402160CF5770
:100BFE00DF4F28833983C158D0400196C756DF4F47
:100C0E0088839983C959D040D5CF203241F4CF572C
:100C1E00DF4F28813981C158D0402860E8CF233278
:100C2E0091F4CF57DF4F28813981C158D0402061D0
:100C3E00DECF203341F4CF57DF4F28813981C158A1
:100C4E00D0402260D4CF2A3289F50196C756DF4FA5
:100C5E0088839983C959D040D701ED91FC911197A2
:100C6E00CF0102968D939C9380819181CB57DF4F5C
:100C7E0088839983C558D04097FF35C0CF57DF4F33
:100C8E0028813981C158D040B1E02B27CF57DF4F93
:100C9E0028833983C158D040919581959109CB57BE
:100CAE00DF4F88839983C558D0401DC00E94012C08
:100CBE00CB57DF4F88839983C558D040C756DF4F37
:100CCE00E881F981C959D0408081082E000C990B1A
:100CDE00C0970A9740F43196C756DF4FE883F983E1
:100CEE00C959D040EBCFCF57DF4F88819981C1587A
:100CFE00D04080FF07C08D7FCF57DF4F8883998309
:100D0E00C158D040C756DF4FE881F981C959D0404C
:100D1E0080818E3209F046C0CD57DF4F188219827E
:100D2E00C358D040CF010196C756DF4F88839983B1
:100D3E00C959D04021812A32C1F43296C756DF4FAD
:100D4E00E883F983C959D040D701ED91FC911197F1
:100D5E00CF0102968D939C9380819181CD57DF4F69
:100D6E0088839983C358D0401DC00E94012CCD5753
:100D7E00DF4F88839983C358D040C756DF4FE88131
:100D8E00F981C959D0408081082E000C990BC0976B
:100D9E000A9740F43196C756DF4FE883F983C95955
:100DAE00D040EBCFCE0187569F4F0E94EF2F382EAB
:100DBE00C756DF4FE881F981C959D0408081082E8E
:100DCE00000C990B0E940E338936910509F456C01A
:100DDE00B4F48336910509F46BC144F48532910560
:100DEE0009F4A2C18136910529F1B4C18436910569
:100DFE0009F444C0883691050CF436C1ABC1803776
:100E0E00910509F4C4C04CF48E36910509F420C145
:100E1E008F36910509F47AC09DC18537910509F485
:100E2E0051C08837910509F495C08337910509F0B3
:100E3E0091C15DC1632D70E0A701CE0185579F4F13
:100E4E000E940F30892B09F4B0C1C756DF4FE881DD
:100E5E00F981C959D040CF010196C756DF4F88831B
:100E6E009983C959D0402081AE0145575F4FBE01CD
:100E7E006F577F4FC6010E945E3494C1632D70E0A0
:100E8E00970141E050E0CE0185579F4F0E94E91B2C
:100E9E00892B09F48AC1C756DF4F88819981C959B8
:100EAE00D0400196C756DF4F88839983C959D040E9
:100EBE00AE0145575F4FBE016F577F4FC6010E946F
:100ECE002A1B70C1632D70E0970140E050E0CE0107
:100EDE0085579F4F0E94E91B892B09F466C1C7569F
:100EEE00DF4F88819981C959D0400196C756DF4F8F
:100EFE0088839983C959D040AE0145575F4FBE01D3
:100F0E006F577F4FC6010E943E274CC1632D70E084
:100F1E00970140E050E0CE0185579F4F0E94E91B9C
:100F2E00892B09F442C1C756DF4F88819981C9596F
:100F3E00D0400196C756DF4F88839983C959D04058
:100F4E00AE0145575F4FBE016F577F4FC6010E94DE
:100F5E002E2428C1632D70E0970140E050E0CE01B1
:100F6E0085579F4F0E94E91B892B09F41EC1C75656
:100F7E00DF4FE881F981C959D040CF010196C7569C
:100F8E00DF4F88839983C959D040208157C097017C
:100F9E0040E050E060EF70E0CE0185579F4F0E9419
:100FAE00E91B892B09F401C1C756DF4F888199814E
:100FBE00C959D0400196C756DF4F88839983C959C6
:100FCE00D04086E0E9E5FEE5DE01AD56BF4F01906B
:100FDE000D928A95E1F7C557DF4F2881CB58D04047
:100FEE00C457DF4F3881CC58D040C357DF4F4881AC
:100FFE00CD58D040C257DF4F5881CE58D040C15740
:10100E00DF4F6881CF58D040C057DF4F7881C0592D
:10101E00D040CF56DF4F8881C159D040CE56DF4FDA
:10102E009881C259D040A0E00E94A33231F420E052
:10103E0030E0AE014D565F4FAFC028E7AE014557C9
:10104E005F4FBE016F577F4FC6010E94F411AAC0B9
:10105E00632D70E09701A501400F511FCE018557FA
:10106E009F4F0E945823A1C0632D70E0A701CE01AF
:10107E0085579F4F0E940F30892B09F496C0C75693
:10108E00DF4FE881F981C959D040CF010196C7568B
:10109E00DF4F88839983C959D0402081AE014557CF
:1010AE005F4FBE016F577F4FC6010E9401097AC084
:1010BE00B0E83B127AC0C756DF4F88819981C95973
:1010CE00D0400196C756DF4F88839983C959D040C7
:1010DE00D701ED91FC911197CF0102968D939C93C0
:1010EE008081C557DF4F8883CB58D04050C0B0E8C1
:1010FE003B125BC0C756DF4F88819981C959D040DA
:10110E000196C756DF4F88839983C959D040D701BE
:10111E00ED91FC911197CF0102968D939C93408196
:10112E00518120E030E038C0B0E83B123EC0C756D7
:10113E00DF4F88819981C959D0400196C756DF4F3C
:10114E0088839983C959D040C557DF4F2882CB5821
:10115E00D0401DC0C557DF4F2882CB58D040C75650
:10116E00DF4F88829982C959D040CF57DF4F1882FE
:10117E001982C158D040CB57DF4F18821982C558FB
:10118E00D040CD57DF4F68827982C358D04021E0DE
:10119E0030E0AE0145575F4FBE016F577F4FC6011E
:1011AE000E94A82C800F911F0EC0C756DF4F88815A
:1011BE009981C959D0400196C756DF4F88839983CC
:1011CE00C959D040C8018501080F191F0A151B0502
:1011DE004CF48FE490E08093ED439093EE438FEFC9
:1011EE009FEF03C0580184CCC501C656DF4FE2E124
:0411FE000C94F1302C
:10120200A6E2B0E0E7E0F9E00C94D8308E8F9F8F31
:10121200688F798F122FFB010190F081E02DE98711
:10122200FA87FB01C280D380248135812B8B3C8BD2
:101232008085918588A399A326803780FA018080D2
:101242009180A280B38020E030E0A901C501B40101
:101252000E943B3487FF06C0B7FAB094B7F8B09447
:101262008DE204C0598552FFF0C28BE2F101808306
:101272002B893C89215031092F83388741E050E086
:10128200498B5A8B06C08B899C898F839887198AD0
:101292001A8AD501C401BF770097E0E8AE07EFE7ED
:1012A200BE07B1F4212F110F330B21543109898963
:1012B2009A89820D931D2A31310518F462E47EE584
:1012C20002C066E47EE50E94063386E49EE5ADC276
:1012D2000197A048BF47B0F0212F110F330B2154C3
:1012E200310989899A89820D931D2A31310518F4B1
:1012F2006AE47EE502C06EE47EE50E9406338EE477
:101302009EE593C220E030E0A901C501B4010E942C
:101312003B341B821C82882309F46CC020E82D8395
:101322003FE33E8319821A8220E030E040E251E43A
:101332006B817C818D819E810E945134F62E072F14
:101342008D879B87A50194010E94403418166CF08A
:1013520049815A814F5F5F4F49835A83FB820C83D5
:101362005D855D838B858E83DFCF1B861C862B81FB
:101372003C814D815E81C501B4010E943B3487FFEF
:101382003FC0E981FA81E43DFE4F04F54B855C855F
:10139200452BE1F420E030E040E85AE5C501B40114
:1013A2000E9451344B015C0120E030E040E85AE5F4
:1013B2006B817C818D819E810E9451346B837C8301
:1013C2008D839E8381E090E08B879C8720E030E0D4
:1013D20040E251E46B817C818D819E810E944D347B
:1013E2006B837C838D839E83E981FA813197E983C4
:1013F200FA83BDCFF0E8FD832FE32E8319821A8290
:10140200412F110F550B4AA35BA3CA010E940E3351
:101412008B8FD7FC03C0CDA2DEA204C086E090E091
:101422008DA39EA39B8D973641F4CD2809F012C25D
:10143200E1E0F0E0EDA3FEA30DC28B8D8D8B06C023
:1014420029813A8137FF19C296E69D8BEDA1FEA153
:101452003196EDA3FEA3FD89F636B9F429813A81CE
:1014620037FF08C01B821C8230E83D834FE34E8366
:1014720019821A825B8D573641F08DA19EA1E981B6
:10148200FA818E0F9F1F8DA39EA3FB81FB872C8168
:101492002D873D813E8B4E814A8F750164011C8EE2
:1014A2001D8EEC8DFD8D2DA13EA1E217F307B9F142
:1014B2002B853D854E895A8DC701B6010E944D3458
:1014C2000E94F21F2B013C010E9424336CA387016E
:1014D200760117FB109517F910952B853D854E89DE
:1014E2005A8DC301B2010E94541F6B017C01F7FAAD
:1014F200F094F7F8F09420E030E040E251E46B859C
:101502007D858E899A8D0E944D346B877D878E8B67
:101512009A8F8C8D9D8D01968C8F9D8FC2CF20E0EE
:1015220030E040EA50E46B857D858E899A8D0E9479
:1015320051342B013C019B01AC01C701B6010E9451
:101542003B3487FD0BC0A3019201C701B6010E9483
:101552003B34811106C03CA130FD03C0412C512C0B
:101562003201A3019201C501B4010E941E334B0155
:101572005C014D89453619F069807A8002C0612C80
:10158200712C23018DA19EA1481A590AC988DA88B3
:1015920000E010E01B861C86E985FA85E071FF27D2
:1015A200EE8BFF8B6414750431F4EB85FC85EF2B15
:1015B20009F496C0A1C0CC8EDD8EE88DF98D8085B0
:1015C20091850597C816D90680F72B813C814D81FC
:1015D2005E81C501B4010E944D340E94F21F6D87E5
:1015E2007E878F87988B0E942433CB012E893F8977
:1015F200232B69F4892B59F43B8D373641F477FE5E
:1016020006C0A8014F5F5F4F4C8F5D8F3FC08B8537
:101612009C85892BA9F477FE13C09FEFC91AD90ABA
:10162200EC8DFD8DE20DF31D2EE220834F81588556
:10163200415051094F83588781E090E08B879C8706
:10164200F101EC0DFD1D0C8F1D8F4C8D5D8D452B19
:1016520049F090E391932C8D3D8D215031092C8FCF
:101662003D8FF3CFC8018C0D9D1D2F813885201B26
:10167200310B6C015FEFC51AD50AF101E80FF91FB2
:10168200605D6083C90101978F839887850174012A
:1016920017FB109517F910952B813C814D815E81C6
:1016A2006D857E858F8598890E94541F4B015C0150
:1016B200B7FAB094B7F8B09420E030E040E251E4D9
:1016C2006B817C818D819E810E944D346B837C83F2
:1016D2008D839E8391E0691A71080C8D1D8D62CFF6
:1016E200F985F4FF09C0F101EC0DFD1D8EE2808346
:1016F20096012F5F3F4F6901A1014C0D5D1D4B8784
:101702005C87FA011082FD89F53609F061C0E8A113
:10171200F9A1E20DF31D3197108229813A8137FF39
:1017220008C031952195310929833A8301E010E0FF
:1017320002C000E010E0E8A1F9A13197E20DF31D2B
:1017420022E030E08AE0E82EF12CCF0182199309E1
:1017520049815A81452B91F089819A81B7010E9472
:10176200A231805D829369837A83215031094F814E
:101772005885415051094F835887E7CF12161306F7
:101782005CF3FC013197E20DF31D012B11F42BE206
:1017920001C02DE220830297B101680F791F2AA1AF
:1017A2003BA1215431092A31310510F025E601C04F
:1017B20025E4FB0120832F813885225031092F83B4
:1017C2003887C816D90624F48B859C850E94063377
:1017D200398531FF29C030FD27C04F815885141645
:1017E200150614F5C1010E945932820D931D9C0108
:1017F2002219330949895A89241735074CF0FC010B
:101802002081EF81F885E80FF91F20830197EFCF40
:101812004F81588560E370E089899A89820D931D12
:101822000E94E4321B8A1C8AC1010E945932098536
:101832001A852B893C89AC01B1018E8D9F8D0E9446
:101842003928A696E2E10C94F130598553FF1BCD5D
:1018520080E20CCD89819A818C3F9F4F5CF0298177
:101862003A814DA15EA1241735070CF4E9CD55E666
:101872005D8B0BCEF5E6FD8B08CE36E63D8B05CEB5
:101882008F929F92AF92BF92CF92DF92EF92FF928E
:101892000F931F93CF93DF93CDB7DEB7C457D10910
:1018A200CDBFDEBF2FEF82E597E021508040904010
:1018B200E1F700C000000E94B50E8093BD5E811169
:1018C20042C2E5961CAE1DAE1EAE1FAEE597BE012E
:1018D2006F587F4FCE018B599F4F0E94FE2468E4C0
:1018E20072E881ED93E40E9445348093BD5E68E422
:1018F20072E881ED93E40E94702D8093BD5E8111A8
:1019020028C064E572E881ED93E40E944934809333
:10191200BD5E81ED93E40E944D308093615E9093B1
:10192200625E00E010E00EC062E373E481ED93E4D6
:101932000E94C8168093BD5E82E393E40E946933DD
:101942000F5F1F4F8091615E9091625E08171907C9
:1019520058F368E472E881ED93E40E94702D44E547
:1019620052E862E373E481ED93E40E94042A8093D7
:10197200BD5E8111E8C182E393E40E94F6326EE516
:1019820072E882E393E40E94383165E672E882E30A
:1019920093E40E943831E12CF12C41C0E016F106AB
:1019A20099F11F9281E48F931F930F93FF92EF920D
:1019B2000F2EF7E6CF2EF2E8DF2EF02DDF92CF9238
:1019C2005E01E3E3AE0EB11CBF92AF920E94C93139
:1019D2001F9282E48F931F930F93FF92EF92DF92F5
:1019E200CF92CE0101966C019F938F930E94C931D1
:1019F200B50182E393E40E943831B60182E393E4B5
:101A02000E943831CDBFDEBF0F5F1F4F02C000E022
:101A120010E00431110514F2FFEFEF1AFF0A24E17E
:101A2200E216F104A4F365E872E882E393E40E940B
:101A3200383167E872E882E393E40E943831C12CBE
:101A4200D12C4DC0CE14DF04E1F184E18C9D8001E4
:101A52008D9D100D11240E0D1F1D02951295107FE4
:101A62001027007F102701511C4BF80181818F93B1
:101A720080818F930F2EF8ED8F2EF2E89F2EF02D9E
:101A82009F928F925E01F3E3AF0EB11CBF92AF92B1
:101A92000E94C931B50182E393E40E943831F80112
:101AA20081858F9380858F939F928F92BF92AF9201
:101AB2000E94C931B50182E393E40E943831CDBF5F
:101AC200DEBF9FEFE91AF90A02C0E12CF12CE4E132
:101AD200EE16F1040CF4B6CFFFEFCF1ADF0A24E1C1
:101AE200C216D10494F365E872E882E393E40E949B
:101AF20038316CE972E882E393E40E943831C12CF8
:101B0200D12C4DC0CE14DF04E1F184E18C9D800123
:101B12008D9D100D11240E0D1F1D02951295107F23
:101B22001027007F102701511C4BF80185818F93EC
:101B320084818F930F2EF8ED8F2EF2E89F2EF02DD9
:101B42009F928F925E01F3E3AF0EB11CBF92AF92F0
:101B52000E94C931B50182E393E40E943831F80151
:101B620085858F9384858F939F928F92BF92AF9238
:101B72000E94C931B50182E393E40E943831CDBF9E
:101B8200DEBF9FEFE91AF90A02C0E12CF12CE4E171
:101B9200EE16F1040CF4B6CFFFEFCF1ADF0A24E100
:101BA200C216D10494F365E872E882E393E40E94DA
:101BB200383162EB72E882E393E40E943831C12C3F
:101BC200D12C4DC0CE14DF04E1F184E18C9D800163
:101BD2008D9D100D11240E0D1F1D02951295107F63
:101BE2001027007F102701511C4BF80183818F932E
:101BF20082818F930F2EF8ED8F2EF2E89F2EF02D1B
:101C02009F928F925E01F3E3AF0EB11CBF92AF922F
:101C12000E94C931B50182E393E40E943831F80190
:101C220083858F9382858F939F928F92BF92AF927B
:101C32000E94C931B50182E393E40E943831CDBFDD
:101C4200DEBF9FEFE91AF90A02C0E12CF12CE4E1B0
:101C5200EE16F1040CF4B6CFFFEFCF1ADF0A24E13F
:101C6200C216D10494F365E872E882E393E40E9419
:101C7200383168EC72E882E393E40E943831C12C77
:101C8200D12C4DC0CE14DF04E1F184E18C9D8001A2
:101C92008D9D100D11240E0D1F1D02951295107FA2
:101CA2001027007F102701511C4BF80187818F9369
:101CB20086818F930F2EF8ED8F2EF2E89F2EF02D56
:101CC2009F928F925E01F3E3AF0EB11CBF92AF926F
:101CD2000E94C931B50182E393E40E943831F801D0
:101CE20087858F9386858F939F928F92BF92AF92B3
:101CF2000E94C931B50182E393E40E943831CDBF1D
:101D0200DEBF9FEFE91AF90A02C0E12CF12CE4E1EF
:101D1200EE16F1040CF4B6CFFFEFCF1ADF0A24E17E
:101D2200C216D10494F365E872E882E393E40E9458
:101D3200383165E872E882E393E40E94383182E345
:101D420093E40E94D02ACC58DF4FCDBFDEBFDF9193
:101D5200CF911F910F91FF90EF90DF90CF90BF90A6
:081D6200AF909F908F9008954F
:101D6A002F923F924F925F926F927F928F929F92A1
:101D7A00AF92BF92CF92DF92EF92FF920F931F938F
:101D8A00CF93DF93CFEEDDE5188A198A1A8A1B8A68
:101D9A00188219821A821B821FA2212C312C0E94BE
:101DAA00541D8EA38111ACC141E050E460E070E0A3
:101DBA00CB010E940B228093155E8111A3C1309141
:101DCA0000422091FF41832F922FA0E0B0E08A3A8F
:101DDA0025E59207A105B10509F096C13091BD41EB
:101DEA002091BE41832F922F8A35EAE59E07A105ED
:101DFA00B10599F0892B8A2B8B2B99F042C0FC01F3
:101E0A00E295F295F07FFE27E07FFE27ED53FE4B29
:101E1A00208121110CC0019607C080E090E020E0EB
:101E2A0003C080E090E020E08430910540F3829581
:101E3A009295907F9827807F9827FC01E953FE4B63
:101E4A00E081DC01A853BE4B3C91532FDC01A75320
:101E5A00BE4BEC01C653DE4B4E2F6C9178814093FA
:101E6A00EF5D5093F05D6093F15D7093F25D212C0C
:101E7A00312C222309F44AC1452B462B472B09F45E
:101E8A0047C10FEE1DE5F80160817181828193815E
:101E9A0041E050E40E940B22F80186A381113AC165
:101EAA00309100422091FF41832F922FA22DB32D12
:101EBA008A3A9545A105B10509F02EC1E1E0F0E4A1
:101ECA0033852485632F722F3093075E2093085E33
:101EDA00611522E0720709F021C18585D80198961B
:101EEA008C93989736852785E32EF22E408931897F
:101EFA002289832F922FC388D4880C2D1D2D222D41
:101F0A00332D4801C688D7884C2C5D2C622C732C43
:101F1A005201C0A0D1A022A033A01496CC9214974B
:101F2A001596DC92159716962C92169717963C9250
:101F3A00E114F10409F4F4C0880F991F829592956F
:101F4A00907F9827807F98270E948E316093095E40
:101F5A0070930A5EAB2869F0D301C201AA27BB2796
:101F6A008093FB5D9093FC5DA093FD5DB093FE5D55
:101F7A000CC0E1E0F0E474A165A196A187A1EFEE9F
:101F8A00FDE57487658796878787EFEEFDE54484CC
:101F9A00558466847784628D738D50E0449DC001B8
:101FAA00459D900D549D900D11248E0D9F1D860FF9
:101FBA00971F868F978F892839F022273327D02EAB
:101FCA00512F222E332E08C0EFEEFDE5D480558125
:101FDA00D681C7812D2E3C2E0D2D152F222D332D66
:101FEA0058016901A81AB90AC108D108C601B50180
:101FFA000E944E2B4B015C01CFEEDDE568A570E037
:10200A0080E090E00E94502B9B01AC01C501B40115
:10201A000E944D3420E030E040E05FE30E941D332F
:10202A000E94F02E6C8B7D8B8E8B9F8B653F2FE0F1
:10203A0072078105910518F41092165E33C0653F48
:10204A007F4F8105910578F4EFEEFDE581E087A3E6
:10205A0082E084A38FEF9FEFA0E0B0E080879187B2
:10206A00A287B3871FC0EFEEFDE582E087A384E075
:10207A0084A38FEF9FEFAFEFBFE080879187A2879E
:10208A00B387A1E0B0E49C963C919C979D962C91D5
:10209A009D979E969C919E979F968C91308B218BB3
:1020AA00928B838B8091165E81508230D8F5EFEE49
:1020BA00FDE5268D378D828D938D281B390B808106
:1020CA009181A281B381280F391F248F358F8E0DFC
:1020DA009F1D80A391A34485558566857785480F02
:1020EA00591F42A353A3808D918D969587959295FA
:1020FA0082958F7089279F70892785A380E013C0F6
:10210A0081E011C082E00FC084E00DC083E00BC003
:10211A0083E009C082E007C084E005C086E003C00E
:10212A0084E001C085E0DF91CF911F910F91FF906C
:10213A00EF90DF90CF90BF90AF909F908F907F905D
:0C214A006F905F904F903F902F90089591
:102156004F925F926F927F928F929F92AF92BF92B1
:10216600CF92DF92EF92FF920F931F93CF93DF935D
:1021760000D000D0CDB7DEB78C017B015A014901F2
:1021860019821A821B821C82F90110821182FC01BB
:1021960084A1882309F40CC180859185A285B38525
:1021A600892B8A2B8B2B89F54091F75D5091F85D31
:1021B6006091F95D7091FA5DCE0101960E94DC286E
:1021C6008111FBC049805A806B807C80F801408673
:1021D6005186628673864486558666867786C301EF
:1021E600B2010E941F2FF801608F718F828F938F2B
:1021F600148E158E41E0C301B2010E948B2B6CE058
:10220600C8010E94EC228111D8C0F80185A188235B
:1022160099F015A2808D918DA28DB38D248D358D6B
:10222600BC01CD01620F731F811D911D41E050E479
:102236000E940B228111BEC0F80186A18823D9F025
:102246004485558566857785CE0101960E94DC28F2
:102256008111B3C0F80116A269817A818B819C81B4
:1022660064877587868797870E941F2FF801608F7E
:10227600718F828F938FC12CD12C91C0F801868DDE
:10228600978D8115924008F46AC0F801168E178E54
:1022960013A2C8010E94D02A81118FC0F801848D33
:1022A600958D0196848F958F15A221E023A3209109
:1022B600175E30E08217930750F184859585A685D1
:1022C600B78589839A83AB83BC83C8010E948D2A14
:1022D600F80186A18823D9F049815A816B817C81D6
:1022E600CE0101960E94DC28811167C0F80116A272
:1022F60069817A818B819C816487758786879787B8
:102306000E941F2FF801608F718F828F938FF801C3
:10231600408151816281738184819581A681B781D3
:10232600481759076A077B0798F4808D918DA28D0F
:10233600B38D248D358DBC01CD01620F731F811DB8
:10234600911D41E050E40E940B22882341F034C0E5
:1023560040E060E072E080E090E00E941E32F8010A
:10236600868D978D9C012F5F3F4F268F378FF70104
:102376002081FC01EF5FFF4B2083F8018081918172
:10238600A281B3810196A11DB11D80839183A28391
:10239600B383FFEFCF1ADF0AC70101967C01CA1487
:1023A600DB0408F46BCFF401C082D18280E005C063
:1023B60087E003C08CE001C08CE02496CDBFDEBF71
:1023C600DF91CF911F910F91FF90EF90DF90CF900B
:1023D600BF90AF909F908F907F906F905F904F903F
:0223E600089558
:1023E800A4E1B0E0EAEFF1E10C94D8308F8398874C
:1023F80069837A834B8B5C8B122FDB011296ED91EC
:10240800FC91139714962D913C9115972D833E833B
:10241800CD90DC90119716962D903C901797F7FD6C
:1024280003C0E894C1F802C0E1E0F0E0C6018071A1
:10243800992789879A87C4FE1FC0AB89BC892C91CC
:1024480011963C91119712964C91129713965C91A4
:10245800139714966C91149715967C911597169668
:102468008C91169717969C91A0E00E94A33221F0B8
:102478008D819E81029702C08D819E819601287070
:1024880033272B873C87C3FC0197AB89BC894C90C9
:1024980011965C90119712966C90129713967C90F7
:1024A800139714968C90149715969C9015971696DA
:1024B800AC9016971796BC90A981BA811896ED90A2
:1024C800FC901997B1E0EB1AF108D101AE0DBF1DD0
:1024D8001C928B839C839F01281B390B2D873E8779
:1024E800C601827099278F87988B812F012E000C47
:1024F800990BDC01A154B109A98BBA8B32E0E31620
:10250800F10434F489859A85892B09F04CC073C08D
:102518009201A301B401C501A0E00E94A33281F198
:10252800B1E0EB1AF108C2018F7099278A30910542
:1025380014F4C09602C0895A9F4FE989FA897A979C
:1025480048F49C012062215631092A31310510F4E2
:102558000E94ED32F101EE0DFF1D80832B813C813D
:10256800215031092B833C839201A301B401C50199
:1025780004E00E94313029013A014B015C01BECFD1
:102588008D859E85AB81BC818A0F9B1F1816190605
:102598003CF21A161B060CF0B5CFEF85F889EF2B25
:1025A80009F0BECFAFCFAB89BC892C9111963C9175
:1025B800119712964C91129713965C911397149653
:1025C8006C91149715967C91159716968C91169781
:1025D80017969C91A0E00E94A33269F0F101EE0DDC
:1025E800FF1D31971083B2E0EB1AF108F101EE0DEF
:1025F800FF1D80E38083EB85FC85EF2B41F0F1E044
:10260800EF1AF108F101EE0DFF1D80E28083A98128
:10261800BA8118964D915C911997415051094E19FC
:102628005F09B1016E0D7F1D86012D813E818F816D
:1026380098850E9439289C01EF81F88580819181D5
:1026480090FF09C0A981BA8112968D919C91139728
:10265800821793070CF4C9016496E2E10C94F130F7
:10266800EF92FF920F931F93CF93DF9300E014E054
:10267800F801148260E274E0FB01148240E454E043
:10268800FA01148220E634E0F9011482C0E8D4E0AB
:102698001C82A0EAB4E014961C9214970F2EF0EC5A
:1026A800EF2EF4E0FF2EF02DF701148280E8F801F8
:1026B80080838CEFFB018083FA0180838FEFF9011F
:1026C800808388838CE38C938EEFF7018083F801F5
:1026D800108A118A128A138A148A158A168A84E043
:1026E800878BFB01108A118A828B838B848B858B65
:1026F800868B878BFA01108A118A828B838B848B55
:10270800858B868B878BF901808B818B828B838B62
:10271800848B858B868B878B888B898B8A8B8B8B1D
:102728008C8B8D8B8E8B8F8B50961C9250975196DD
:102738001C92519752968C93529753968C93539719
:1027480054968C93549755968C93559756961C92FD
:10275800569757961C92F701108A818B828B838B30
:10276800848B858B868B878BE0EEF5E01186118252
:1027780010821482168217821086158212821382A2
:10278800128687E694E30E946E3388E694E30E94FB
:10279800733389E694E30E9478338AE694E30E94CF
:1027A8007D338BE694E30E9482338CE694E30E94A7
:1027B80087338DE694E30E948C338EE694E30E947F
:1027C80091338FE694E30E94963380E794E30E9466
:1027D8009B3381E794E30E94A03382E794E30E944D
:1027E800A53383E794E30E94AA3384E794E30E9425
:1027F800AF3385E794E30E94B43386E794E30E94FD
:10280800B93387E794E30E94BE3388E794E30E94D4
:10281800C33389E794E30E94C8338AE794E30E94AC
:10282800CD338BE794E30E94D2338CE794E30E9484
:10283800D7338DE794E30E94DC338EE794E30E945C
:10284800E1338FE794E30E94E63380E894E30E9443
:10285800EB3381E894E30E94F03382E894E30E942A
:10286800F53383E894E30E94FA3384E894E30E9402
:10287800FF3385E894E30E94043486E894E30E94D9
:10288800093487E894E30E940E3488E894E30E94B0
:10289800133489E894E30E9418348AE894E30E9488
:1028A8001D348BE894E30E9422348CE894E30E9460
:1028B80027348DE894E30E942C348EE894E30E9438
:1028C8003134DF91CF911F910F91FF90EF900895D0
:1028D8003F924F925F926F927F928F929F92AF92A8
:1028E800BF92CF92DF92EF92FF920F931F93CF93F5
:1028F800DF93CDB7DEB72897CDBFDEBF6B017C0174
:1029080029833A834B835C83302E2B013C01009052
:10291800165E04C0440C551C661C771C0A94D2F73A
:102928000091075E1091085E980140E050E0C301F5
:10293800B2010E94AD2F49015A01029FC001039FB5
:10294800900D129F900D11248201081B190B1092F3
:102958005F5E1092605E60910F5E7091105E620F14
:10296800731F80E090E041E050E40E940B22811147
:10297800BEC00F2EFDE04F2EF02D341431F00F2E77
:10298800F7E05F2EF02D351033C0F801EF5FFF4BF5
:102998008081F801EE5FFF4BC080D12CDC2CCC2469
:1029A8000D2C000CEE08FF08C82A8091165E8230B4
:1029B800F9F4F801ED5FFF4B808190E0A0E0B0E012
:1029C800DC0199278827C82AD92AEA2AFB2AF8018C
:1029D800EC5FFF4B808190E0A0E0B0E0B82FAA2721
:1029E80099278827C82AD92AEA2AFB2A8FE0F822B9
:1029F8009DE0391205C0C114D104E104F10431F499
:102A08000F2EF6E04F2EF02D341076C08091165E12
:102A1800823009F040C0F801EF5FFF4B9081F80168
:102A2800EE5FFF4B208130E0322F2227A901330FC0
:102A3800660B770B2A013B01492AF801ED5FFF4B32
:102A48009081492F50E060E070E0BA015527442793
:102A5800442A552A662A772AF801EC5FFF4B408101
:102A680050E060E070E0742F66275527442744291A
:102A7800552966297729442755276627707F498075
:102A88005A806B807C80442A552A662A772A498294
:102A98005A826B827C82F801EF5FFF4B598050822B
:102AA800F801EE5FFF4B6A806082823051F4F801D2
:102AB800ED5FFF4B7B807082F801EC5FFF4B8C81F0
:102AC800808360910F5E7091105E860E971EB40130
:102AD80080E090E041E050E40E94132180910040A2
:102AE800853079F060E070E080E090E00EC060E052
:102AF80070E080E090E009C06C2D7D2D8E2D9F2D1B
:102B080004C06C2D7D2D8E2D9F2D2896CDBFDEBF48
:102B1800DF91CF911F910F91FF90EF90DF90CF90B1
:102B2800BF90AF909F908F907F906F905F904F90E5
:042B38003F9008952D
:102B3C006F927F928F929F92AF92BF92CF92DF92C1
:102B4C00EF92FF920F931F93CF93DF936C01EB01E6
:102B5C00A42E712C812CFC0164877587108A118A34
:102B6C00128A138A00E0EBC0F0E21F9F700111245F
:102B7C00F701EF5FFF4B8081882309F4EBC0853EA2
:102B8C0009F4D4C08E3209F4D1C0F701E45FFF4BD5
:102B9C00B08088E0B81609F4C9C0EFE0BE1211C0CD
:102BAC00F1E0AF1609F4C2C089E0A81609F4BEC062
:102BBC00612F70E08FEE9CE50E947529662463946A
:102BCC00B5C0662019F0E1E0AE1206C04FEE5CE530
:102BDC006A2D812F0E943A2CF9E0AF1207C0F60142
:102BEC00848995890196848B958BA0C0F601828986
:102BFC0093890196828B938B88818F3211F08C355F
:102C0C00D9F4F60184859585019684879587898109
:102C1C00811112C08091FF5D9091005EA091015EC8
:102C2C00B091025E80839183A283B383EFEEFCE5C7
:102C3C008FE28083118296C0F601C485D58520E091
:102C4C0018C03FEB380F3A3108F4805E3FEB390F78
:102C5C003A3108F4905E891317C02F5F2196888152
:102C6C008F3219F001E08C3521F4219691E001E0CE
:102C7C000FC08881882359F0E22FF0E0E151F34A2C
:102C8C0090819111DECF04C090E000E001C090E093
:102C9C00E22FF0E0E151F34A8081811103C0888179
:102CAC00882321F0911102C0011100E00023E9F109
:102CBC00F1E0AF16E1F08AE0A816C9F0F701E55E85
:102CCC00FF4B9081F701E45EFF4B80812091165EF3
:102CDC00223041F4F701EB5EFF4B7080F701EA5EA6
:102CEC00FF4B8080F601908381837282838288817E
:102CFC00811106C0F8E0AF1235C0B4FE2FC032C04F
:102D0C00F601C487D5876081718182819381648348
:102D1C007583868397830E941F2FF60160877187C6
:102D2C0082879387108A118A0AC0612C1F5F01C0A9
:102D3C0010E08091145E181708F416CF01C0612CB6
:102D4C00C6010E946325982E882391F368949924D8
:102D5C0091F808C06894992491F804C00F2EF9E0FA
:102D6C009F2EF02D892DDF91CF911F910F91FF9008
:102D7C00EF90DF90CF90BF90AF909F908F907F900F
:042D8C006F900895A7
:102D9000CF92DF92EF92FF920F931F93CF93DF9327
:102DA0007C016B01FC01808D882339F080915F5E8E
:102DB0009091605EE816F906B9F0F701808591857B
:102DC000A285B38520893189BC01CD01620F731FB3
:102DD000811D911D41E050E40E940B228111EEC043
:102DE000E0925F5EF092605ED0E0F701C08DC8C0F7
:102DF000F0E2CF9F80011124F801EF5FFF4B80814B
:102E0000882309F4DDC0853E09F4B9C08E3209F487
:102E1000B6C0F801E45FFF4B8081F60182A38830E1
:102E200009F4ADC08F3089F5F7018689978900973D
:102E300039F02289338901972817390708F49FC090
:102E40006C2F70E08FEE9CE50E947529D1111BC09C
:102E5000F70180859185A285B385F601808B918BE2
:102E6000A28BB38BC0A3F70180899189F601848F6F
:102E7000958FF70184819581A681B781F6018487BA
:102E80009587A687B787D1E07AC0D1110BC04FEEE6
:102E90005CE560E08C2F0E943A2CF601108A118AC2
:102EA000128A138AF701828993890196828B938B08
:102EB000268937898217930708F460C0F801E35E1A
:102EC000FF4B3081F801E25EFF4B2081F801E15EAB
:102ED000FF4B9081F801E05EFF4B8081F601348367
:102EE00025839683878390E080E0F801E75EFF4BBF
:102EF0003081F801E65EFF4B2081F601368B278B8F
:102F0000F801E95EFF4B3081F801E85EFF4B20815C
:102F1000F601348B258BF801E55EFF4B3081F8011B
:102F2000E45EFF4B20814091165E423041F4F8018F
:102F3000EB5EFF4B9081F801EA5EFF4B8081F70169
:102F4000438D442321F03083218392838383F601D0
:102F50003087218792878387F701C08F8689978979
:102F6000009721F4CF5FC08F80E02FC0F701228946
:102F700033898217930731F1D0E001C0D0E0CF5FF1
:102F80008091145EC81708F433CFF70180899189C6
:102F90000196808B918BC7010E946325811114C01B
:102FA000F701108E80899189009719F00197808B25
:102FB000918BE0925F5EF092605E17CF8CE005C06F
:102FC00082E003C080E001C082E0DF91CF911F91D9
:0C2FD0000F91FF90EF90DF90CF900895DC
:102FDC00AF92BF92CF92DF92EF92FF920F931F931B
:102FEC00CF93DF935C01EA017901FB0100E010E073
:102FFC0030E040E090E02BC08E3211F44F5F8F0137
:10300C00983018F58032E1F08F32D1F08C35C1F068
:10301C008E32B1F08032A0F02FE9280F2A3110F453
:10302C00805207C02FEB280F2A3118F421E0D7016A
:10303C002C936E01C90ED11CD6018C939F5F05C0D9
:10304C008E3219F081E0D7018C933F5F31968081ED
:10305C00882311F03F3F81F6F501318F01151105E1
:10306C0039F09801261B370B283031050CF4922FC0
:10307C00423018F081E0D7018C93423038F498300C
:10308C0039F481E0F701808331E00AC030E008C0F8
:10309C0030E006C0FE01E90FF11D80E280839F5FE6
:1030AC009B30C0F380E018C00F5F1F4F833098F443
:1030BC00D8019C91903221F491E0F70190830CC0DF
:1030CC002FE9290F2A3108F49052E82FF0E03896B6
:1030DC00EC0FFD1F90838F5FD8019C91992311F009
:1030EC004111E2CF853018F081E0F7018083311176
:1030FC0044C041E0BE01C5010E949E154FC01A306C
:10310C0019F4EA9402E004C0143611F4EA9403E0D2
:10311C008EE7FE01EE0DF11D8083812F18C0E02F8C
:10312C00F0E0EE0DF11DEC0FFD1F9DEC899F912D34
:10313C001124969596959695392F330F232F220FA0
:10314C00220F230F821B805D80830150892F011178
:10315C00E6CF87E0082F0E19D5014D915D916D9149
:10316C007C91C5010E943F2D41E0BE01C5010E942A
:10317C009E15823061F01F5F07C080E001E010E017
:10318C000F2EF6E0EF2EF02D1F3F09F0B8CF1F3FAA
:10319C0021F0E11003C087E001C087E0DF91CF91FF
:1031AC001F910F91FF90EF90DF90CF90BF90AF9059
:0231BC00089574
:1031BE00CF93DF9300D0CDB7DEB70E9416330E94B7
:1031CE002D320E94B6310E945333789419821A829E
:1031DE0000E010E005C0C8010E94722C0F5F1F4F67
:1031EE0004311105C4F300E010E005C0C8010E94CF
:1031FE00D12D0F5F1F4F04311105C4F300E010E015
:10320E0013C00E151F0521F0B701C8010E949721AA
:10321E002FEFE21AF20A02C0E12CF12C34E1E31690
:10322E00F1047CF30F5F1F4F04311105ACF3809155
:10323E00BD5E813059F402E02CED32E840E050E002
:10324E006EED72E881EE92E80E946B1A82E393E4CF
:10325E000E944D336A3071058105910558F002E0E8
:10326E0026EE32E840E050E068EE72E881EE92E839
:10327E000E946B1A0E9447338823C9F089818111FD
:10328E0027C002E02BEE32E840E050E06EED72E82F
:10329E0081EE92E80E946B1A0E94410C81E08983B4
:1032AE008A81882311F01A82C2CF1A8211C08A81B4
:1032BE0081110EC002E02CED32E840E050E06EEDE0
:1032CE0072E881EE92E80E946B1A81E08A8319827D
:1032DE00E12CF12C2FC0E016F10609F1B801C7015F
:1032EE000E94021E811118C0E0ECF4E081E085839B
:1032FE009FEF25EA3EE0915020403040E1F700C0BC
:10330E00000086838FEF95EA2EE08150904020409A
:10331E00E1F700C0000003C081E08093C6040F5F98
:10332E001F4F02C000E010E004311105A4F23FEF80
:0E333E00E31AF30A84E1E816F104A4F39BCF2E
:10334C004F925F926F927F928F929F92AF92BF92A9
:10335C00CF92DF92EF92FF920F931F93CF93DF9355
:10336C00CDB7DEB72A97CDBFDEBF89879A874A01D2
:10337C005B01FC0184819581A681B7818417950737
:10338C00A607B70708F48DC00FEE1DE5D8015896B7
:10339C00ED90FC905997970140E050E0C501B401C5
:1033AC000E94AD2F2D833E834F83588729833A8308
:1033BC004B835C83ED81FE81EE9EC001EF9E900DF0
:1033CC00FE9E900D11249401281B390BA985BA85FA
:1033DC005E962D933C935F97F80140A4512C612C81
:1033EC00712C69817A818B819C81A30192010E944D
:1033FC00AD2F622F732F842F952FC22ED32EE42E38
:10340C00F52EC114D104E104F10481F0A301920161
:10341C000E94FE312D813E814F815885261B370B32
:10342C00480B590B29833A834B835C832401350168
:10343C0049855A85FA0180859185A285B385848753
:10344C009587A687B7871AC0A985BA851C968D90D3
:10345C009D90AD90BC901F97CD010E948D2AE9855F
:10346C00FA8586A1882329F084869586A686B78658
:10347C000AC0B1E0CB1AD108E108F108C114D1049B
:10348C00E104F10409F781E0E985FA8585A3298136
:10349C003A81248F358F408251826282738216A2C8
:1034AC0011A22A96CDBFDEBFDF91CF911F910F9154
:1034BC00FF90EF90DF90CF90BF90AF909F908F9048
:0A34CC007F906F905F904F9008957D
:1034D600DF92EF92FF920F931F93CF93DF93CDB7B7
:1034E600DEB7E297CDBFDEBFE82ED92E162FF72E18
:1034F600822F932F0130D9F41F928FEF8F931F9253
:103506008F931F928F935F934F937F936F93DF9267
:10351600EF928FEE92E89F938F93CE0101969F9341
:103526008F930E94DB31AC01CDBFDEBF70C002308D
:10353600D9F41F924FEF4F931F924F931F924F93C1
:103546003F932F937F936F93DF92EF9282E093E8FE
:103556009F938F93CE0101969F938F930E94DB31A9
:10356600AC01CDBFDEBF53C00330E9F40E94012C8D
:103576001F922FEF2F931F922F931F922F939F939C
:103586008F93FF921F93DF92EF9287E193E89F93C9
:103596008F93CE0101969F938F930E94DB31AC01EE
:1035A600CDBFDEBF34C00430B9F41F928FEF8F93C6
:1035B6001F928F931F928F93DF92EF928AE293E886
:1035C6009F938F93CE0101969F938F930E94DB3139
:1035D600AC01CDBFDEBF1BC00530B9F41F928FEF23
:1035E6008F931F928F931F928F937F936F9388E38E
:1035F60093E89F938F93CE0101969F938F930E949A
:10360600DB31AC01CDBFDEBF02C040E050E020E0C0
:1036160030E00FC09091240895FFFCCFE1E0F0E088
:10362600EC0FFD1FE20FF31F9081909322082F5F8E
:103636003F4F2417350774F3E296CDBFDEBFDF9107
:0E364600CF911F910F91FF90EF90DF900895AC
:10365400ADE0B0E0E0E3FBE10C94D83089879A87D1
:103664006B837C83FA01DB011296CD90DC90139777
:1036740014968D919C9115978D839E83ED90FC906B
:103684001197E982FA8216960D90BC91A02DAF8312
:10369400B887208031804280538064807580868022
:1036A40097808101B42DF52DE62D7B868C869D8631
:1036B4009101A201B301C401A0E00E94A3324CF421
:1036C4000E940E328901B42FF52FE62F7B878C8759
:1036D4009D87D7FC04C0E894E1F8E982FA8291015D
:1036E400A201B301C401A0E0ED80FE800E94A332D8
:1036F4001CF0898182FF04C081E0E81AF10805C04A
:1037040083FF03C091E0E91AF108CE0101965C0140
:103714008AE0C82ED12C2B2F3F2F4E2F5B856C8532
:103724007D858B819C810E94AF1EFC019101A201C9
:10373400B301C401A0E00E94A3321CF0898182FF7E
:1037440012C031970F8118850E0F1F1F9101A2011E
:10375400B301C401A0E00E94A33214F08BE201C0C3
:103764008DE2D80108C083FF07C03197AF81B885C7
:10377400AE0FBF1F80E28C9309811A81AB81BC819B
:1037840018964D915C911997415051094E1B5F0B4E
:103794006F8178856E0F7F1F2D813E8189859A8583
:1037A4000E9439289C01E985FA858081918190FFE6
:1037B40009C0AB81BC8112968D919C91139782179D
:0E37C40093070CF4C9012D96E2E10C94F1304C
:1037D2000F931F93CF93DF93FC01D90168387105D2
:1037E20031F194F461387105B1F12CF4603871054E
:1037F20009F478C09FC06238710509F459C0643871
:10380200710509F46FC096C0603A710509F448C0A9
:103812002CF46039710509F44BC08CC0603C710511
:1038220009F476C0603F710509F472C083C0CD917E
:10383200DC911197CE0102968D939C93452B39F022
:103842009881892F880F880B908381835BC0888140
:103852008083118268C0CD91DC911197CE010496CC
:103862008D939C93452B99F088819981AA81BB8184
:10387200AC01BD01770F440B542FBA0180839183B1
:10388200A283B383448345834683478328C0088148
:1038920019812A813B81008311832283338345C0AE
:1038A200CD91DC911197CE0102968D939C9323C00A
:1038B200CD91DC911197CE0108968D939C937881DE
:1038C20069815A814B813C812D819E818F817083D8
:1038D200618352834383348325839683878381E084
:1038E20090E02AC0CD91DC911197CE0102968D9382
:1038F2009C93452BA1F099812881892F880F880BF1
:103902002083918382838383848385838683E6CF26
:10391200CD91DC911197CE0102968D939C930881F3
:1039220019810083118312821382148215821682F6
:103932001782D5CF80E090E0DF91CF911F910F9158
:023942000895E6
:103944003F924F925F926F927F928F929F92AF922B
:10395400BF92CF92DF92EF92FF920F931F93CF9378
:10396400DF93382EC091075ED091085EC12CD12C14
:10397400760100E010E0812C912C5401412C512C53
:1039840032015FC060910F5E7091105E600F711F15
:1039940080E090E041E050E40E940B22811167C076
:1039A40080E090E048C02091165E2230A9F4FC012A
:1039B400EF5FFF4BC080FC01EE5FFF4BD080FC014A
:1039C400ED5FFF4BE080FC013396EF5FFF4B049605
:1039D400F0802FE0F2220CC0213051F4FC01EF5FA3
:1039E400FF4BC080FC013196EF5FFF4B0296D08005
:1039F400C114D104E104F10441F42FEF421A520A34
:103A0400620A720A23E03216B9F12FEF821A920A7F
:103A1400A20AB20A4091035E5091045E6091055E71
:103A24007091065E4E5F5F4F6F4F7F4F481559058B
:103A34006A057B0520F08C179D0708F4B4CF0F5F4F
:103A44001F4FC801A0E0B0E04091FB5D5091FC5DC8
:103A54006091FD5D7091FE5D84179507A607B70719
:103A640008F490CF642D752D862D972D09C060E044
:103A740070E080E090E004C0682D792D8A2D9B2DA4
:103A8400DF91CF911F910F91FF90EF90DF90CF9036
:103A9400BF90AF909F908F907F906F905F904F906A
:043AA4003F900895B2
:103AA8001F93CF93DF93CDB7DEB72597CDBFDEBF8A
:103AB8000E94A4308FE697E10197F1F700C000005B
:103AC8000E94733210E004C08FEF0E9464331F5FBE
:103AD8001A30D0F310E018C00E94673224E940E0A1
:103AE80050E0BA0180E00E94682F0E948B328983DF
:103AF8000E9473321F5F1B3038F0E0E0F4E08481ED
:103B08008860848311E072C08981813029F70E941E
:103B1800673226E84AEA51E060E070E088E00E94F7
:103B2800682FCE0101960E9421310E94733289814B
:103B3800813009F042C0E0E4F9E08081897F808328
:103B4800E1E4F9E08081806180838C81813009F033
:103B580042C08D818A3A09F040C00E94673220E055
:103B680040E050E0BA018AE30E94682FCE01019636
:103B78000E9421310E9473320E94102B182F81114C
:103B88002EC00E94673220E040E050E0BA018AE38C
:103B98000E94682FCE0101960E9421310E94733243
:103BA8008A818823F4F486FF04C083E08093B75E9B
:103BB8001DC082E08093B75E19C08530A1F481E012
:103BC8008093B75E0E94102B182F82FD0EC08823A9
:103BD80069F011E00BC014E009C013E007C011E060
:103BE80005C015E003C012E001C016E0812F25963C
:0C3BF800CDBFDEBFDF91CF911F9108957B
:103C04000F931F93CF93DF93EC018B010E94A12D9F
:103C1400C8010E94A12DCE010E94012EC8010E945C
:103C2400312E8C2F0E94653124E12C9FF0012D9FB1
:103C3400F00D1124E00FF11FE295F295F07FFE27BD
:103C4400E07FFE27E151FC4B24813581821B930BDD
:103C54009C0122F422273327281B390B293E3340A9
:103C64000CF06FC0802F0E94653124E12C9FF0017D
:103C74002D9FF00D1124E00FF11FE295F295F07FD6
:103C8400FE27E07FFE27E151FC4B24853585821B0E
:103C9400930B9C0122F422273327281B390B293E3E
:103CA40033400CF050C0CE010E94312EC8010E9456
:103CB400012E8C2F0E94653124E12C9FF0012D9F51
:103CC400F00D1124E00FF11FE295F295F07FFE272D
:103CD400E07FFE27E151FC4B22813381821B930B51
:103CE4009C0122F422273327281B390B293E334019
:103CF40064F5802F0E94653124E12C9FF0012D9FF3
:103D0400F00D1124E00FF11FE295F295F07FFE27EC
:103D1400E07FFE27E151FC4B22853385821B930B08
:103D24009C0122F422273327281B390B293E3340D8
:103D340074F4CE010E94D12DC8010E94D12D81E0DE
:103D440007C080E005C080E003C080E001C080E0DF
:0A3D5400DF91CF911F910F910895A8
:103D5E00A2E1B0E0E5EBFEE10C94D830FC010A8B59
:103D6E001B832C83732E642E552E462E7D83CC867C
:103D7E00D886AE82BF82868197818A879B87D5013E
:103D8E004D915C91228133818085918501971C0133
:103D9E0037FF02C021E030E0EA85FB85E80FF91F0E
:103DAE0010824701E1E0F0E0E983FA83C9018E1940
:103DBE009F098D879E87DA01A270BB27AF87B88BCC
:103DCE00B885BB0FBB0BB98B1214130474F0A98109
:103DDE00BA81AB2B09F05CC0AE81BF818D919C91F5
:103DEE0011978F7E8D939C9353C02A893B814C8172
:103DFE00572D662D752D842D9D81A0E00E94A33236
:103E0E00B1F1E1E02E1A3108FC85F987AF2EB884A6
:103E1E00C988DC2CEC2CFC2C0C2D1C2D2A893B810A
:103E2E004C81572D662D752D842D9D810E944B3210
:103E3E00C90129839A83EA85FB85E20DF31D805D16
:103E4E00808381E0881A91082A893B814C81572D05
:103E5E00662D752D842D9D810E944D322A8B3B83BC
:103E6E004C83752E662E572E482E9D83ADCF8D8595
:103E7E009E85880D991D181619061CF21814190422
:103E8E000CF0A5CFEF85F889EF2B09F0BACF9FCFB5
:0A3E9E00C1016296E2E10C94F130DC
:103EA800A5E1B0E0EAE5FFE10C94D83047015801FC
:103EB8000E9451342B013C01A80197010E941E3336
:103EC800162FC72ED82EF92E862F9C2DAD2DBF2D3F
:103ED80089839A83AB83BC83AA81FB81EC81ED80C3
:103EE8003E802F8008850D8B5E2F5F71212F3A2F22
:103EF8004F2F60E070E080E090E02115310541052A
:103F080000E15007610571058105910509F05EC062
:103F18005E2F6E2D732D822D9D8904E30E94313012
:103F28002D873E874F87588B698B7A8B8B8B9C8B21
:103F38008D859E8597708F3F974009F447C0A301F0
:103F48009201612F7C2D8D2D9F2D0E941D339B0189
:103F5800AC01C501B4010E943B348823B9F14986FC
:103F68005A866B867C8629853A854B855C85C50192
:103F7800B4010E941E33B62E872E982EA92E262F06
:103F8800372F482F592F612F7C2D8D2D9F2D0E9463
:103F98003B34811118C02B2D8B2D982DA92DBA2DAE
:103FA80089839A83AB83BC833A814B815C816E2D74
:103FB800732D822D9D89A1E00E94AF32122FC32E4E
:103FC800D42EF52E03C01B2D6401FA2C612F7C2DF5
:0C3FD8008D2D9F2D6596E2E10C94F130D8
:103FE4004F925F926F927F928F929F92AF92BF9205
:103FF400CF92DF92EF92FF92CF93DF93CDB7DEB7EC
:104004002897CDBFDEBF6B017C01DC01CB0147E10A
:10401400B695A795979587954A95D1F799278F5780
:104024009109873191059CF597FD36C088248A94BF
:10403400982C3FE7A32EB12C04C0B594A794979471
:1040440087948A95D2F7D501C4018C219D21AE2194
:10405400BF21892B8A2B8B2BD1F020E030E040E864
:104064005BE7C701B6010E941E336D837E838F8395
:104074009887F7FE04C0C80CD91CEA1CFB1C80946A
:104084009094A094B094C820D920EA20FB205C2D01
:104094004D2D3E2D2F2D21C020E030E040E85BE780
:1040A400C701B6010E941E3369837A838B839C8384
:1040B400F7FE0FC0D701C601880F991FAA1FBB1FA7
:1040C400892B8A2B8B2B19F350E040E030E82FEB3F
:1040D40004C050E040E030E020E0652F742F832FCF
:1040E400922F2896CDBFDEBFDF91CF91FF90EF9046
:1040F400DF90CF90BF90AF909F908F907F906F9004
:064104005F904F9008954A
:10410A001F920F920FB60F9211240BB60F922F9394
:10411A003F934F935F936F937F938F939F93AF9345
:10412A00BF93CF93DF93EF93FF9390912008992346
:10413A0081F08091BB5E81110CC01092BC5E81E05F
:10414A008093BB5E82E3E4E3F2E4DF011D928A9589
:10415A00E9F78091BB5E882309F44BC0E091BC5E0D
:10416A0081E08E0F8093BC5EF0E0EC5CFD4B9083A7
:10417A008330A0F190E0FC01ED5CFD4B20812F3FE4
:10418A0069F5FC01EE5CFD4B20812F3F39F5FC01FE
:10419A00EF5CFD4B80818F3F09F5C0E2D8E08E814C
:1041AA008F778E838D818F778D8382E3EAECF2E4B9
:1041BA00DF011D928A95E9F764E372E4CF010E9458
:1041CA0006331092BB5E1092BC5E81E08093BA5EA9
:1041DA008E8180688E838D8180688D838091BC5E9C
:1041EA00823338F01092BC5E1092BB5E81E08093FD
:1041FA00BA5EFF91EF91DF91CF91BF91AF919F91FD
:10420A008F917F916F915F914F913F912F910F9075
:0C421A000BBE0F900FBE0F901F90189568
:10422600BF92CF92DF92EF92FF920F931F93CF939D
:10423600DF936B017C018A018091B75E813049F47E
:104246000B2EB9E0CC0CDD1CEE1CFF1CBA95D1F789
:10425600B02D8FEF809300400E94673220E0B701B7
:10426600A60188E10E94682F0E948B32B82E811128
:104276004EC08EEF0E946433C0E0D0E007C0F80164
:10428600EC0FFD1F80810E9464332196C11582E0E8
:10429600D807A8F3C12CD12C760106C00E947F3224
:1042A600B82E8FEFB81211C08FEFC81AD80AE80AD5
:1042B600F80AC701B6010E944E2B20E03BE147EB0E
:1042C60058E40E943B3488234CF38B2D8F71853044
:1042D600F1F480930040C12CD12C760114C08FEFED
:1042E600C81AD80AE80AF80AC701B6010E944E2B76
:1042F60020E03BE147EB58E40E94403418161CF4DA
:104306001092004004C00E947F32882341F30E942D
:1043160073328B2DDF91CF911F910F91FF90EF900C
:08432600DF90CF90BF900895D5
:10432E00CF92DF92EF92FF920F931F93CF93DF9373
:10433E008617970709F45FC06B018C010E94A12DAF
:10434E00C6010E94A12DC8010E94312EC6010E94F5
:10435E00312E802F0E94653124E1209F7001219F14
:10436E00F00C1124EC0CFD1C970122953295307F38
:10437E003227207F3227E901C151DC4B8883998394
:10438E008C2D0E94653188879987C8010E94012E65
:10439E00C6010E94312E802F0E9465318C839D8331
:1043AE008C2D0E9465318C879D87C8010E94312E0D
:1043BE00C6010E94012E802F0E9465318A839B8345
:1043CE008C2D0E9465318A879B87C8010E94012E21
:1043DE00C6010E94012E802F0E9465318E839F831D
:1043EE008C2D0E9465318E879F87C8010E94D12D2A
:1043FE00C6010E94D12DDF91CF911F910F91FF9099
:08440E00EF90DF90CF900895BC
:10441600AF92BF92CF92DF92EF92FF920F931F93CC
:10442600CF93DF936B017C01EA018091B75E813007
:1044360049F40B2EB9E0CC0CDD1CEE1CFF1CBA9522
:10444600D1F7B02D8FEF809300400E94673220E0B5
:10445600B701A60181E10E94682F0E948B32A82E27
:104466008FEFA81208C038C00E947F32B82E8FEF97
:10447600B81629F015C0C12CD12C7601B12C8FEFBE
:10448600C81AD80AE80AF80AC701B6010E944E2BD4
:1044960020E03CE742E158E40E943B348111E4CF3E
:1044A6008EEFB81217C00BC07E018FEFE81AF80A1C
:1044B6000E947F3288830F5F1F4FE70102C000E032
:1044C60010E0011582E0180778F318820E947F3207
:1044D6000E947F32B09200400E9473328A2DDF9193
:1044E600CF911F910F91FF90EF90DF90CF90BF90EB
:0444F600AF900895E6
:1044FA0010C00E94323358F00E942B3340F029F446
:10450A005F3F29F00C94593351110C943A330C94AF
:10451A005B340E948B2F68F39923B1F3552391F3EF
:10452A00951B550BBB27AA2762177307840738F018
:10453A009F5F5F4F220F331F441FAA1FA9F335D075
:10454A000E2E3AF0E0E832D091505040E695001C29
:10455A00CAF72BD0FE2F29D0660F771F881FBB1FE3
:10456A00261737074807AB07B0E809F0BB0B802DC1
:10457A00BF01FF2793585F4F3AF09E3F510578F0ED
:10458A000C9459330C943A335F3FE4F3983ED4F3D6
:10459A00869577956795B795F7959F5FC9F7880FC1
:1045AA00911D9695879597F90895E1E0660F771F13
:1045BA00881FBB1F621773078407BA0720F0621BA4
:0E45CA00730B840BBA0BEE1F88F7E095089573
:1045D8001F93CF93DF93EC01162F688979898A8915
:1045E8009B8941E050E40E940B22811156C01B3088
:1045F80011F588A120E2829FC00111242881FC01C5
:10460800E35EFF4B20832981FC01E25EFF4B2083A0
:104618002A81FC01E15EFF4B20832B81FC01E05ED7
:10462800FF4B208388819981AA81BB818C839D83DC
:10463800AE83BF8324C01C3011F588A120E2829F7D
:10464800C00111242885FC01E55EFF4B20832985E4
:10465800FC01E45EFF4B20838091165E823079F482
:1046680088A120E2829FC00111242A85FC01EB5E0B
:10467800FF4B20832B85FC01EA5EFF4B2083688972
:1046880079898A899B8941E050E40E9413218091AD
:104698000040853021F08CE003C08CE001C080E050
:0846A800DF91CF911F910895ED
:1046B000CF93DF93DC01F90164387105D9F164F41B
:1046C0006138710521F16238710509F440C0603824
:1046D000710509F054C02EC060397105C1F184F430
:1046E0006838710509F04BC0C081D181CE010296B6
:1046F00080839183E881F981ED93FC9340833CC0F2
:10470000603A7105B9F0603C7105A1F038C0C08114
:10471000D181CE01029680839183E881F981ED9366
:10472000FC93052E000C660B770B4083518362834C
:10473000738322C0C081D181CE0102968083918390
:10474000E881F981ED93FC934083518315C0C081CA
:10475000D181CE01029680839183E881F981ED9326
:10476000FC9340835183852F880F880B828383833A
:10477000848385838683878381E090E002C080E024
:0847800090E0DF91CF91089554
:104788000FC00E942B3338F00E94323320F095235B
:1047980011F00C9459330C945B3411240C943A3373
:1047A8000E948B2F70F3959FC1F3950F50E0551F12
:1047B800629FF001729FBB27F00DB11D639FAA276E
:1047C800F00DB11DAA1F649F6627B00DA11D661FBD
:1047D800829F2227B00DA11D621F739FB00DA11DDE
:1047E800621F839FA00D611D221F749F3327A00D98
:1047F800611D231F849F600D211D822F762F6A2F34
:1048080011249F5750409AF0F1F088234AF0EE0F98
:10481800FF1FBB1F661F771F881F91505040A9F7C5
:104828009E3F510580F00C9459330C943A335F3F06
:10483800E4F3983ED4F3869577956795B795F79501
:10484800E7959F5FC1F7FE2B880F911D9695879579
:0448580097F908952F
:10485C00A2E0B0E0E4E3F4E20C94D8301C014B018C
:10486C00FA01DB0112962D913C91139714964D9001
:10487C005C9015978D919C91119789839A831696CC
:10488C006D907C90179737FD03C08D7F89839A8339
:10489C000081118122813381448155816681778128
:1048AC00FE0131965F0188E0C82ED12C7201C40143
:1048BC000E94AF1E298124FF06C00197F301E80F67
:1048CC00F91F20E32083298123FF06C00197F30100
:1048DC00E80FF91F20E2208309811A81D401189670
:1048EC004D915C91199741505109481B590BB301DB
:1048FC00680F791F9201C1010E9439289C01F101B6
:10490C008081918190FF08C0D40112968D919C9169
:10491C001397821793070CF4C9012296E2E10C94C9
:02492C00F13068
:10492E0011C00E942B3338F00E94323320F039F43C
:10493E009F3F19F426F40C945B340EF4E095E7FBDC
:10494E000C945933E92F0E948B2F58F3BA17620734
:10495E0073078407950720F079F4A6F50C94393384
:10496E000EF4E0950B2EBA2FA02D0B01B90190017C
:10497E000C01CA01A0011124FF27591B99F0593FC0
:10498E0050F4503E68F11A16F040A22F232F342F08
:10499E004427585FF3CF469537952795A795F04056
:1049AE005395C9F77EF41F16BA0B620B730B840B6B
:1049BE00BAF09150A1F0FF0FBB1F661F771F881F23
:1049CE00C2F70EC0BA0F621F731F841F48F487957B
:1049DE0077956795B795F7959E3F08F0B0CF93956D
:0E49EE00880F08F09927EE0F9795879508958A
:1049FC00CF92DF92EF92FF920F931F93CF93DF939F
:104A0C008C01EB0160910B5E70910C5E80E090E08C
:104A1C0041E050E40E940B22811146C09BE020E053
:104A2C0011C0E82FF0E0EF5FFF4B9081903211F452
:104A3C00222339F0F801E80FF11D9083211101C0F8
:104A4C00282F982F8FEF890F9111EBCFE22FF0E0E9
:104A5C003196E00FF11F10826091EF5D7091F05D67
:104A6C008091F15D9091F25D41E050E40E940B2247
:104A7C0081111AC08091165E823049F4C090444076
:104A8C00D0904540E0904640F090474008C08130BF
:104A9C0031F4E1E0F0E4C7A0D0A4E1A4F2A4C88210
:104AAC00D982EA82FB8280E0DF91CF911F910F9136
:0A4ABC00FF90EF90DF90CF90089577
:104AC6000F931F93CF93DF93EC0188819981AA817D
:104AD600BB810297A105B10530F48091095E9091E2
:104AE6000A5E41E004C08091175E90E040E02889AC
:104AF60039892817390728F141113CC06C817D811D
:104B06008E819F8107E020E030E0A9010E946C14AD
:104B16006C837D838E839F830091F75D1091F85D92
:104B26002091F95D3091FA5D60177107820793074E
:104B360019F10E941F2F688779878A879B87188AB1
:104B4600198A88859985AA85BB8528893989BC01F2
:104B5600CD01620F731F811D911D41E050E40E943B
:104B66000B2281110BC0888999890196888B998BB4
:104B760080E005C081E003C081E001C08CE0DF91E8
:084B8600CF911F910F910895DA
:104B8E001F920F920FB60F9211240BB60F922F9306
:104B9E003F934F935F936F937F938F939F93AF93B7
:104BAE00BF93EF93FF93789B05C0E091895EF091E0
:104BBE008A5E0995799B05C0E0918B5EF0918C5EC3
:104BCE0009957A9B05C0E0918D5EF0918E5E0995F8
:104BDE007B9B05C0E0918F5EF091905E09957C9B6A
:104BEE0005C0E091915EF091925E09957D9B05C0A6
:104BFE00E091935EF091945E09957E9B05C0E091E5
:104C0E00955EF091965E09957F9B05C0E091975E4B
:104C1E00F091985E09958FEF8FB9FF91EF91BF914B
:104C2E00AF919F918F917F916F915F914F913F9136
:104C3E002F910F900BBE0F900FBE0F901F901895D7
:104C4E001F920F920FB60F9211240BB60F922F9345
:104C5E003F934F935F936F937F938F939F93AF93F6
:104C6E00BF93EF93FF93989B05C0E091995EF091EF
:104C7E009A5E0995999B05C0E0919B5EF0919C5EB2
:104C8E0009959A9B05C0E091875EF091885E099523
:104C9E009B9B05C0E091855EF091865E09959C9B7D
:104CAE0005C0E091835EF091845E09959D9B05C0E1
:104CBE00E091815EF091825E09959E9B05C0E09128
:104CCE007F5EF091805E09959F9B05C0E0917D5EB1
:104CDE00F0917E5E09958FEF83BBFF91EF91BF91AF
:104CEE00AF919F918F917F916F915F914F913F9176
:104CFE002F910F900BBE0F900FBE0F901F90189517
:104D0E00E0E0F2E080E8808B118A128A138A148A1E
:104D1E00158A168A178A108E118E81E08083818300
:104D2E0084A710A211A212A213A214A215A216A257
:104D3E0017A210A611A612A613A615A616A617A69A
:104D4E0010AA11AA12AA13AA10924B0210924D0287
:104D5E0010924C0210924A0210924F02109251027F
:104D6E001092500210924E0210925302109255025F
:104D7E00109254021092520212AE13AE14AE15AE31
:104D8E0016AE17AE109240021092410210924202DD
:104D9E001092430210924402109245021092460263
:104DAE0010924702109248021092490214AA15AAB4
:0C4DBE0016AA17AA10AE11AE80E00895EE
:104DCA001F920F920FB60F9211240BB60F922F93C8
:104DDA003F934F935F936F937F938F939F93AF9379
:104DEA00BF93EF93FF93D99B05C0E091735EF09157
:104DFA00745E0995DA9B05C0E091715EF091725E6E
:104E0A000995DB9B05C0E0916F5EF091705E099594
:104E1A00DC9B05C0E0916D5EF0916E5E0995DD9BAD
:104E2A0005C0E0916B5EF0916C5E0995DE9B05C052
:104E3A00E091695EF0916A5E0995DF9B05C0E09199
:104E4A00675EF091685E09958FEF8BBBFF91EF91DA
:104E5A00BF91AF919F918F917F916F915F914F9188
:104E6A003F912F910F900BBE0F900FBE0F901F9086
:024E7A00189589
:104E7C00A2E0B0E0E4E4F7E20C94D8303C014B0142
:104E8C00FA01DB0112962D913C91139714964D90DB
:104E9C005C9015978D919C91119789839A831696A6
:104EAC002D903C90179737FD03C08D7F89839A8393
:104EBC000081118122813381448155816681778102
:104ECC00FE0131965F018AE0C82ED12C7201C4011B
:104EDC000E94AF1E09811A81D40118964D915C91E4
:104EEC00199741505109481B590BB101680F791F93
:104EFC009201C3010E9439289C01F30180819181A8
:104F0C0090FF08C0D40112968D919C911397821733
:0E4F1C0093070CF4C9012296E2E10C94F130E7
:104F2A001F920F920FB60F9211240BB60F922F9366
:104F3A003F934F935F936F937F938F939F93AF9317
:104F4A00BF93EF93FF933A9B05C0E091B35EF09154
:104F5A00B45E09953B9B05C0E091B15EF091B25EEB
:104F6A0009953C9B05C0E091AF5EF091B05E099552
:104F7A003D9B05C0E091AD5EF091AE5E09953E9B0A
:104F8A0005C0E091AB5EF091AC5E09953F9B05C010
:104F9A00E091A95EF091AA5E09958FEF87B9FF911A
:104FAA00EF91BF91AF919F918F917F916F915F9197
:104FBA004F913F912F910F900BBE0F900FBE0F9004
:044FCA001F90189587
:104FCE001F920F920FB60F9211240BB60F922F93C2
:104FDE003F934F935F936F937F938F939F93AF9373
:104FEE00BF93EF93FF935A9B05C0E091A75EF0919C
:104FFE00A85E09955B9B05C0E091A55EF091A65E4B
:10500E0009955C9B05C0E091A35EF091A45E0995A5
:10501E005D9B05C0E091A15EF091A25E09955E9B3D
:10502E0005C0E0919F5EF091A05E09955F9B05C063
:10503E00E0919D5EF0919E5E09958FEF8BB9FF9189
:10504E00EF91BF91AF919F918F917F916F915F91F2
:10505E004F913F912F910F900BBE0F900FBE0F905F
:04506E001F901895E2
:10507200A0E1B0E0EFE3F8E20C94DA305C013B012E
:105082006A017901280181E04822552400FD14C0FB
:10509200421753078CF487010C191D094801A80116
:1050A2000131110510F040E150E060E270E0CE0104
:1050B20001960E94E4320AC0A601B301C5010E9412
:1050C2008730CE14DF043CF3C60120C00031110545
:1050D20058F040E150E0BE016F5F7F4FC5010E9472
:1050E200873000511109F2CFA4014F705527BE013C
:1050F2006F5F7F4FC5010E9487304114510429F42C
:10510200A601B301C5010E948730C7016096E0E1A4
:045112000C94F330D6
:1051160088249924F401E401B0E49F93AA279A1500
:105126008B049C04ED05FE05CF05D007A10798F476
:10513600AD2FDC2FCF2FFE2FE92D982C892E982FFF
:10514600872F762F652F542F432F322F2227B850C3
:1051560031F7BF9127C01B2EBF91BB27220F331FEC
:10516600441F551F661F771F881F991F881C991C8F
:10517600EE1FFF1FCC1FDD1FAA1FBB1F8A149B0437
:10518600EC05FD05CE05DF05A007B10748F08A1836
:105196009B08EC09FD09CE09DF09A00BB10B2160C4
:1051A6001A94E1F62EF49401AF01BE01CD01000C74
:0251B60008955A
:1051B800CF92DF92EF92FF920F931F93CF93DF93DB
:1051C800EC016A017B0183E00E94A21C6883798359
:1051D8008A839B83623071058105910558F100919E
:1051E800F75D1091F85D2091F95D3091FA5D0C152D
:1051F8001D052E053F0589F006E09B01AC01C7019E
:10520800B6010E946C146623B9F0C090F75DD09087
:10521800F85DE090F95DF090FA5D688179818A81A6
:105228009B8106E0A70196010E946C14611106C0DB
:105238008CE005C084E003C08CE001C080E0DF9111
:10524800CF911F910F91FF90EF90DF90CF9008952D
:105258000F931F93CF93DF93DB012D913C9111970F
:1052680030FF25C016964D915C91179714962D9195
:105278003C9115974217530778F41296ED91FC91DB
:105288001397808312962D913C9113972F5F3F4F70
:1052980012962D933C93139716962D913C91179740
:1052A8002F5F3F4F16962D933C93179715C01C966A
:1052B800ED91FC911D97309719F48FEF9FEF0CC07B
:1052C8008B01EC010995892BC1F7F801868197813B
:1052D800019686839783CE01DF91CF911F910F911D
:0252E800089527
:1052EA00EF92FF920F931F93CF93DF93EC017B0111
:1052FA00FB01EE0FFF1FE295F295F07FFE27E07F9C
:10530A00FE27EF5FFF4B10811F7B212F30E02150DA
:10531A0031098DE0289F202D11240AE0AB0161E0BC
:10532A00CE010E94DC2C0CE0282FA7016EE0CE01F2
:10533A000E94DC2C04E0282FA7016CE1CE010E9418
:10534A00DC2C9091B95E992341F01092B95E91E0FC
:10535A009093B85EC80FD11D1882113011F41092C3
:10536A00B85EDF91CF911F910F91FF90EF90089552
:10537A0040E068ED80E690E00E94363440E068ED57
:10538A0081E690E00E94363440E068ED88E790E0DC
:10539A000E94363444E268ED88E690E00E94363492
:1053AA0040E068ED89E690E00E94363440E068ED1E
:1053BA0080E790E00E94363440E068ED8CE790E0A8
:1053CA000E94363440E068ED82E690E00E9436346E
:1053DA0040E068ED83E690E00E94363440E068EDF4
:1053EA0084E690E00E94363440E068ED80E890E080
:0E53FA000E9436348091650081FFFCCF08953B
:10540800EF92FF920F931F93CF93DF93FB0114A2A8
:10541800FC01228D222389F17A018B01EC01408164
:105428005181628173810E943F2D4AE0B701CE010C
:105438000E949E15811122C04A895B89B801CE015C
:105448000E94BF3081111AC088859985AA85BB85BD
:1054580028893989820F931FA11DB11DF801808BFE
:10546800918BA28BB38B888D80A381E085A383A3C6
:10547800C8010E94CF2F80E001C087E0DF91CF9163
:0A5488001F910F91FF90EF9008951F
:105492001F920F920FB60F9211240BB60F922F93F9
:1054A2003F934F935F936F937F938F939F93AF93AA
:1054B200BF93EF93FF93BA9B05C0E0917B5EF0919F
:1054C2007C5E0995BB9B05C0E091795EF0917A5EA6
:1054D2000995BC9B05C0E091775EF091785E0995D5
:1054E200BD9B05C0E091755EF091765E09958FEFE8
:1054F20087BBFF91EF91BF91AF919F918F917F9168
:105502006F915F914F913F912F910F900BBE0F9032
:085512000FBE0F901F901895C9
:10551A000F931F93CF93DF93FC016485758586856E
:10552A009785623071058105910578F1EF0107E0F1
:10553A0020E030E0A9010E946C146C877D878E8779
:10554A009F871C8E1D8E0091F75D1091F85D20914A
:10555A00F95D3091FA5D601771078207930721F4AC
:10556A0081E08EA382E012C0611571058105910563
:10557A0021F48CE089A383E009C00E941F2F688F61
:10558A00798F8A8F9B8F80E001C081E0DF91CF9174
:06559A001F910F9108951E
:1055A000CF93DF93FC0124A1222391F125A12111A6
:1055B00031C0EC01808D918DA28DB38D248D358D00
:1055C000BC01CD01620F731F811D911D41E050E4AC
:1055D0000E941321809100408530F1F48BA1882333
:1055E00099F0488159816A817B818C819D81AE814E
:1055F000BF8184179507A607B70730F46BE0CE018B
:105600000E94EC22811109C081E08DA380E005C0D9
:1056100087E003C087E001C08CE0DF91CF9108955F
:10562000CF93DF93C4E60E94673220E040E050E071
:10563000BA0187E30E94682F0E948B320E94733266
:105640000E9467328091B75E813041F420E040E0F3
:1056500050E0BA0189E20E94682F08C020E040E0D3
:1056600050E060E070E489E20E94682F0E948B3273
:10567000D82F0E947332C1508FE59AEE0197F1F74F
:1056800000C00000DD2311F0C111CDCFC11102C057
:0C56900081E001C08D2FDF91CF910895C3
:10569C00E89409C097FB3EF49095809570956195C0
:1056AC007F4F8F4F9F4F9923A9F0F92F96E9BB2776
:1056BC009395F695879577956795B795F111F8CFF2
:1056CC00FAF4BB0F11F460FF1BC06F5F7F4F8F4F5D
:1056DC009F4F16C0882311F096E911C0772321F053
:1056EC009EE8872F762F05C0662371F096E8862FEB
:1056FC0070E060E02AF09A95660F771F881FDAF742
:0A570C00880F9695879597F9089588
:10571600CF92DF92EF92FF921F93CF93DF936B01AD
:105726007C01142F40E060E072E080E090E00E948F
:105736001E32C701B6010E941F2F6B017C01C0E01B
:10574600D0E080E011C041E050E4C701B6016C0F23
:105756007D1F811D911D0E9413219091004095305F
:1057660051F4111109C021962091175E30E0C2173D
:10577600D30748F301C08CE0DF91CF911F91FF90D2
:08578600EF90DF90CF90089531
:10578E00A0E1B0E0EDECFBE20C94E430FB01BA01D9
:10579E00AE014F5F5F4F7A0140E1D7011D924A95EE
:1057AE00E9F742E051E049835A838B839C83F7FFEC
:1057BE0009C08FE490E08093ED439093EE438FEF1A
:1057CE009FEF14C0A9018C013197ED83FE83C701B1
:1057DE000E9409314F8158852D813E814217530712
:1057EE0008F49A01F801E20FF31F10826096E6E0CA
:0457FE000C94FD30DA
:10580200AC01FA0190814F5F5F4F9032D1F3292FA3
:10581200092E000C330B295031092530310588F34C
:105822009B3209F540E050E0319602C040E050E082
:1058320080E090E06AE02191022E000C330B2053AD
:1058420031092A30310548F4689FD001699FB00DB3
:105852001124CD01821B930BEECF452B49F4919578
:105862008195910908959D3209F741E050E0DCCF1E
:02587200089597
:10587400DA0190E030E023C0E92FF0E020E2829FDB
:10588400E00DF11D1124EF5FFF4B20815FEB520F00
:105894005A3108F4205E983041F4613031F0FD0152
:1058A400E30FF11D4EE240833F5F203211F461307B
:1058B40029F4FD01E30FF11D20833F5F9F5F9B30BF
:1058C400D8F2832F90E0FC013197EA0FFB1F20816F
:1058D4002E3209F41082FD01E80FF91F1082089599
:1058E4008431910590F5FC01EE57FF4F0C94DB32A7
:1058F40082E080938204089581E080938204089575
:1059040029E030E0281B390B81E090E002C0880FC9
:10591400991F2A95E2F7809362040895089721E07D
:1059240030E0A90102C0440F551F8A95E2F7409365
:10593400820408950E9721E030E0A90102C0440FCB
:0C594400551F8A95E2F74093A2040895D5
:10595000A7E0B0E0EEEAFCE20C94DE305C017A01F4
:10596000C90127E0E2E5FEE5DE01119601900D9206
:105970002A95E1F7FB01C280D38084809580008165
:105980001181452B21F49E012F5F3F4F7901009734
:1059900019F4C7010E945932D7FC04C0C816D906B1
:1059A00008F4C6019401AC01B701C5010E94392871
:0859B0002796ECE00C94F7309F
:1059B8000F93CF93DF93EC0190E025C0E92FF0E03F
:1059C800E60FF11DDA01AA0FBB1FA295B295B07FB1
:1059D800BA27A07FBA27EA0FFB1FEF5FFF4B308182
:1059E800332381F03F3F89F02F3F79F0FE01E20F2A
:1059F800F11D30838091B85E811103C081E08093EE
:105A0800B95E2F5F9E5F9017C8F2822FDF91CF910A
:045A18000F9108954D
:105A1C000F931F93CF93DF93EA01E0E0F0E021C0F6
:105A2C00A881B9813C91332369F0DF01A80FB91F1C
:105A3C00AF5FBF4B3C93488159814F5F5F4F4883A9
:105A4C0059830DC08F01080F191FA8014F5F5F4BC1
:105A5C003FEFDA013C93D801AE5FBF4B3C93E20FB2
