:100000000C9407010C9445410C9445410C944541D6
:100010000C9445410C9445410C9445410C94454148
:100020000C941C3B0C94BD170C9445410C94454119
:100030000C9445410C9445410C9445410C94454128
:100040000C9445410C9445410C9445410C94454118
:100050000C9445410C9445410C9445410C94454108
:100060000C945E310C9445410C94BD3A0C948D3A3D
:100070000C9445410C9445410C94DC330C9445415F
:100080000C94AF2B0C9445410C9445410C943E3696
:100090000C9445410C9445410C9445410C944541C8
:1000A0000C9445410C9445410C9445410C944541B8
:1000B0000C9445410C948A330C94BE310C94454108
:1000C0000C9445410C9445410C9445410C94454198
:1000D0000C9445410C9445410C9445410C94454188
:1000E0000C9445410C9445410C9445410C94DA32F2
:1000F0000C9445410C9445410C9445410C94454168
:100100000C944541A638AA38AE38AE38AE38AE3871
:10011000AE38AE38AE38AE38BC38BC38BC38BC3877
:10012000BC38BC38C838C838C838C838D539D939C7
:10013000D939D939D939D939D939E539E539E5390B
:10014000E539E539E539F139F139F139F139F13983
:10015000F139F139053A093A093A093A093A093ABD
:10016000093A153A153A153A153A153A153A213A17
:10017000213A213A213A213A213A213A353A393A7B
:10018000393A393A393A393A393A453A453A453AB3
:10019000453A453A453A513A513A513A513A513A2B
:1001A000513A513A653A693A693A693A693A693A6B
:1001B000693A753A753A753A753A753A753A813AC7
:1001C000813A813A813A813A813A813A4000790C08
:1001D00080790C79680082EC7968796C80796C7927
:1001E0007000834879707974807974799000834CB9
:1001F00079907998807998799C008368799C79FACC
:100200008079FA79FE00836C79FE7A09800080910A
:1002100001108F7C8060806898ED94BF80930110FE
:1002200011241FBECFEFCDBFDFE7DEBFECECF1E066
:1002300042E019C0B791A79137912791079107FD27
:100240000EC097918791EF01F92FE82F0BBF079010
:100250000D92A217B307D9F7FE011BBE04C01D9271
:10026000A217B307E1F7ED30F40721F70E94591305
:080270000C94A93FF894FFCFA4
:1002780025732E637376004C6F677320466F6C642A
:10028800657200436861726163746572697A61744A
:10029800696F6E002C0050696E73202825642E2526
:1002A80064292050696E20256320766F6C7461671D
:1002B800652C20000A00426F7468204C6F77205428
:1002C8006573742C00252E32662C0050696E20410F
:1002D80020686967682F50696E2042206C6F772C00
:1002E8000050696E2041206C6F772F50696E204254
:1002F80020686967682C00426F74682048696768DD
:1003080020546573742C005800743500686F6D654F
:10031800004F4B0073645F646973636F6E6E65634F
:10032800740074370025302E326C752C25302E322F
:100338006C752C25302E346C752025302E326C755A
:100348002C25302E326C7500636861725F7375639B
:100358006365737300256C75006E756D5F666175F6
:100368006C74730074657374696E670053686F7298
:10037800742F4F70656E206265747765656E3A5CA0
:100388007250696E20257520616E642050696E2058
:1003980025755C72546F74616C204661756C74735A
:1003A8003A256C755C7241742025302E326C752F9D
:1003B80025302E326C752F25302E346C7520253063
:1003C8002E326C753A25302E326C753A25302E3225
:1003D8006C75006661756C745F6D73670066617536
:1003E8006C745F64657465637465640054657374E4
:1003F800202564006C6F675F312E63737600546547
:09040800737420310025752C00ED
:100411006765742025732E25732E25732563256347
:1004210025630025732E25732E7478743D22257360
:10043100222563256325630025732E25732E76619E
:100441006C3D256425632563256300706167652024
:10045100257325632563256300676574202573254E
:100461006325632563007274632564002F6D696ED3
:1004710000256C750025302E326C752F25302E32FB
:100481006C752F25302E346C752025302E326C750D
:100491003A25302E326C753A25302E326C75007348
:1004A100746172745F74696D650074657374696EEB
:0D04B10067006E756D5F6661756C74730099
:0504BE00002D002E00DE
:1004C4002F923F924F925F926F927F928F929F9260
:1004D400AF92BF92CF92DF92EF92FF920F931F934E
:1004E400CF93DF93CDB7DEB7A197CDBFDEBF7C013D
:1004F4006A8B7B8BD42E1C86198A10910879DC01B7
:100504005A968C9181110DC08091F3789091F47872
:10051400A091F578B091F678F70180839183A28356
:10052400B38340E050E0BA01C7010E946B396A8985
:100534007B8940E0C7010E94F31F823009F044C365
:1005440080E007C03196EA8BFB8B8F5F883F08F011
:100554003DC3EA89FB8990819111F4CFD7011C96A0
:100564006D907C901D976A8A7B8A09C08F3209F44A
:100574002FC38C3509F42EC33196EA8BFB8BEA89A1
:10058400FB8980818111F2CF6A8A7B8AF7014081DD
:10059400518162817381C7010E946B396A897B89A9
:1005A4009E012F5E3F4FAE014F5F5F4FC7010E9418
:1005B4005B23823009F010C3D70150961D921C9220
:1005C400519759968C91882309F408C30FE4809FAE
:1005D400012D1124069506959989992361F0402FE0
:1005E40050E06DE070E090E00E94B43F8E8F88236D
:1005F40019F00F5F01C01E8EB1E0B00FB98F006417
:100604000F8FCE0101960E94443E88A3F7014081DA
:10061400518162817381C7010E946B3900E0C12C52
:10062400A12CB12C212C312C2101812C912C1C8A40
:100634001D8A1E8A1F8A088F6A8E7B8E7C2C098DE8
:10064400D9A2C12CD12C42C0FFEFAF1ABF0AFC01C2
:10065400EE0FFF1FE295F295F07FFE27E07FFE2765
:10066400EF5FFF4B2081222311F0253EE1F47394C8
:10067400211431044104510499F4D70118962D90A2
:100684003D904D905C901B9750968D909C90519707
:10069400B1E08B1A9108F701C480D5808E8B9F8BB3
:1006A400071105C00EC0712C212C312C210101969B
:1006B40002C080E090E0212F30E08217930720F2FF
:1006C40002C0F1E0F88F288D211105C0C7010E94F6
:1006D400FA30882371F3CC8ADD8AC72C6A8C7B8C30
:1006E400D9A0398DC31609F43FC0F70180819181E7
:1006F400A281B3810297A105B105B0F1AB20A0940A
:1007040099F183E00E944A279B01AC016D877E87A3
:100714008F87988B623071058105910508F460C25A
:10072400D7016D917D918D919C9106E00E94C11E2F
:10073400662309F457C22091EB783091EC7840910C
:10074400ED785091EE786D857E858F8598890E942D
:10075400C11E662309F448C26D857E858F859889FC
:1007640040E00E948037C98CB98DCB123FC2EC891E
:10077400FD89CF01A0E0B0E0F70184839583A683CF
:10078400B7832086318642865386808A918AB4E074
:10079400DB1225C04091EB785091EC786091ED78B4
:1007A4007091EE78CE010D960E94D134811120C251
:1007B4006D857E858F85988940E00E9480376D85A0
:1007C4007E858F8598890E94CF3B6A8F7B8F8C8F23
:1007D4009D8F672B682B692B09F40CC208C01D86FA
:1007E4001E861F86188A1A8E1B8E1C8E1D8EC701AC
:1007F4000E94FA30811100C2812C1C8A188E312C7F
:10080400212C4E885F88BE8C982EA12EDE8A35C19D
:100814008A2D90E04816590639F4C7010E94FA302F
:100824008111ECC1412C512C8201000F111F029542
:100834001295107F1027007F102740E060E270E0DF
:10084400C8010E94E83ED988DD2009F476C0E1E0C1
:10085400EC1508F072C06A8A7B8AF801EF5FFF4BDF
:100864002F8D20833EEF3C0D3F8FD70159964C913D
:100874004E3098F0B98D2B2F30E02C19310953EFFD
:100884005203C001539F900D1124840F911D8B19A5
:100894009109860D971D8A8B9B8B22E0AE014E5EDB
:1008A4005F4F6AE070E0C80101960E943A3922E085
:1008B400AE014E5E5F4F6CE070E0C8010E960E9480
:1008C4003A3922E0AE014E5E5F4F64E070E0C80149
:1008D4004C960E943A39BB2029F1811023C0E4E0F0
:1008E400EB1520F08B2C880C839411C0FAE0FB15D7
:1008F40030F08B2D90E00296882E880C08C02CE0F6
:100904002B1528F08B2D90E00396882E880CC801B7
:10091400880D911DFC01EF5FFF4B1082FC01EE5F1F
:10092400FF4B1082F801E45FFF4B8FE08083F801F6
:10093400E25FFF4B18A1108373C021E0C21270C0A4
:100944003E89343031F480E1F801E45FFF4B808369
:1009540005C080E2F801E45FFF4B80830E944741B9
:10096400F8013D96EF5FFF4B80830E943941382E9A
:10097400292EF801E15FFF4B8083F801E05FFF4B14
:100984009083F801E95EFF4B8083F801E85EFF4B3A
:1009940090830E943C418C8B988FF801EF5EFF4B53
:1009A4008083F801EE5EFF4B9083F801E75EFF4B16
:1009B4008083F801E65EFF4B90833D852E859F85FD
:1009C4008889F801E55EFF4B3083F801E45EFF4B54
:1009D400208320910A79223041F4F801EB5EFF4B29
:1009E4009083F801EA5EFF4B8083D11005C088E153
:1009F400F801E35FFF4B808340E010C0A42FB0E018
:100A0400FD01E00FF11F81E090E08C0F9D1FA80F06
:100A1400B91F8C91EF5FFF4B80834F5F4B3070F3B6
:100A24008A2D90E001974816590619F091E0C912F1
:100A340020C0D70118964D915D916D917C911B97C3
:100A440050968D919C9151978A019B01080F191F13
:100A5400211D311DC901B801615071098109910934
:100A640041E050E40E943D2C80910040853009F023
:100A7400C7C0CA941FEF411A510AC110C9CE092D2B
:100A8400DE8824E0D212BDC00F2EF3EEAF2EF8E7BD
:100A9400BF2EF02DD50158966D917C91599740E069
:100AA40080E090E00E94E83E0F2EF1E0CF2EF0E4CB
:100AB400DF2EF02D8EE2F601808340E26AE070E0E2
:100AC40081E090E00E94E83E80E1D6011B968C9381
:100AD4001B97832C56963C925697922C57962C92A1
:100AE40057971C8958961C935897388C59963C9262
:100AF40059973D852E859F8588895A963C935A97A8
:100B04005B962C93D50197962C91223019F4F6011B
:100B1400948B858B0F2EF1E0CF2EF0E4DF2EF02D99
:100B24008EE2F60180A381A340E269E070E082E2F4
:100B340090E00E94E83E80E1D6019B968C939B97BF
:100B4400D6968C92D697D7969C92D797D8961C9384
:100B5400D897D9963C9280910A798230F9F4F701BA
:100B640040815181628173818091F3789091F4780E
:100B7400A091F578B091F678481759076A077B0772
:100B840021F41082118212821382F7018281E1E042
:100B9400F0E484ABD70113968C9185ABF701808187
:100BA400E1E0F0E482AFD70111968C9183AFAF01FD
:100BB4006A8D7B8D8C8D9D8D0E943D2C8091004093
:100BC4008530F9F00CE01DC005E01BC008E019C039
:100BD40003E017C003E015C005E013C007E011C02F
:100BE40004E00FC00CE00DC00CE00BC007E009C02E
:100BF400082F07C007E005C00CE003C00CE001C0EB
:100C04000CE0802FA196CDBFDEBFDF91CF911F9165
:100C14000F91FF90EF90DF90CF90BF90AF909F9097
:100C24008F907F906F905F904F903F902F9008959A
:100C3400AAE9B0E0E0E2F6E00C94A23D6C017A018E
:100C4400C756DF4F68837983C959D040A12CB12C92
:100C540066246A94762C90E8492E512C25E2222EA3
:100C6400C756DF4F68817981C959D040FB01808123
:100C7400882309F471C3CF57DF4F18821982C158F2
:100C8400D040CD57DF4F68827982C358D040CB57CC
:100C9400DF4F18821982C558D04081E090E08C0F54
:100CA4009D1FC957DF4F88839983C758D040C757C2
:100CB400DF4F48825982C958D040FB0100E010E060
:100CC4008191811116C001151105C1F0A801C60159
:100CD4000E94373DC756DF4F88819981C959D0405A
:100CE400800F911FC756DF4F88839983C959D0401D
:100CF40005C0853241F30F5F1F4FE2CFC756DF4F68
:100D0400E881F981C959D0408081853209F012C344
:100D14004F019FEF891A990AC756DF4F888299823B
:100D2400C959D040C756DF4F88819981C959D040ED
:100D3400DC012C912B3241F4CF57DF4F28813981CC
:100D4400C158D04024600BC02C32BCF02D3249F580
:100D5400CF57DF4F28813981C158D0402160CF5708
:100D6400DF4F28833983C158D0400196C756DF4FDF
:100D740088839983C959D040D5CF203241F4CF57C5
:100D8400DF4F28813981C158D0402860E8CF233211
:100D940091F4CF57DF4F28813981C158D040206169
:100DA400DECF203341F4CF57DF4F28813981C1583A
:100DB400D0402260D4CF2A3289F50196C756DF4F3E
:100DC40088839983C959D040D701ED91FC9111973B
:100DD400CF0102968D939C9380819181CB57DF4FF5
:100DE40088839983C558D04097FF35C0CF57DF4FCC
:100DF40028813981C158D040B1E02B27CF57DF4F2C
:100E040028833983C158D040919581959109CB5756
:100E1400DF4F88839983C558D0401DC00E94F637A0
:100E2400CB57DF4F88839983C558D040C756DF4FCF
:100E3400E881F981C959D0408081082E000C990BB2
:100E4400C0970A9740F43196C756DF4FE883F98379
:100E5400C959D040EBCFCF57DF4F88819981C15812
:100E6400D04080FF07C08D7FCF57DF4F88839983A1
:100E7400C158D040C756DF4FE881F981C959D040E5
:100E840080818E3209F046C0CD57DF4F1882198217
:100E9400C358D040CF010196C756DF4F888399834A
:100EA400C959D04021812A32C1F43296C756DF4F46
:100EB400E883F983C959D040D701ED91FC9111978A
:100EC400CF0102968D939C9380819181CD57DF4F02
:100ED40088839983C358D0401DC00E94F637CD57EC
:100EE400DF4F88839983C358D040C756DF4FE881CA
:100EF400F981C959D0408081082E000C990BC09704
:100F04000A9740F43196C756DF4FE883F983C959ED
:100F1400D040EBCFCE0187569F4F0E949F3C382E86
:100F2400C756DF4FE881F981C959D0408081082E26
:100F3400000C990B0E94F23F8936910509F456C0C2
:100F4400B4F48336910509F46BC144F485329105F8
:100F540009F4A2C18136910529F1B4C18436910501
:100F640009F444C0883691050CF436C1ABC180370E
:100F7400910509F4C4C04CF48E36910509F420C1DE
:100F84008F36910509F47AC09DC18537910509F41E
:100F940051C08837910509F495C08337910509F04C
:100FA40091C15DC1632D70E0A701CE0185579F4FAC
:100FB4000E94BF3C892B09F4B0C1C756DF4FE881BA
:100FC400F981C959D040CF010196C756DF4F8883B4
:100FD4009983C959D0402081AE0145575F4FBE0166
:100FE4006F577F4FC6010E94424194C1632D70E048
:100FF400970141E050E0CE0185579F4F0E94912612
:10100400892B09F48AC1C756DF4F88819981C95950
:10101400D0400196C756DF4F88839983C959D04081
:10102400AE0145575F4FBE016F577F4FC6010E9407
:10103400D22570C1632D70E0970140E050E0CE01ED
:1010440085579F4F0E949126892B09F466C1C75684
:10105400DF4F88819981C959D0400196C756DF4F27
:1010640088839983C959D040AE0145575F4FBE016B
:101074006F577F4FC6010E9433334CC1632D70E01C
:10108400970140E050E0CE0185579F4F0E94912682
:10109400892B09F442C1C756DF4F88819981C95908
:1010A400D0400196C756DF4F88839983C959D040F1
:1010B400AE0145575F4FBE016F577F4FC6010E9477
:1010C400C52F28C1632D70E0970140E050E0CE01A8
:1010D40085579F4F0E949126892B09F41EC1C7563C
:1010E400DF4FE881F981C959D040CF010196C75635
:1010F400DF4F88839983C959D040208157C0970115
:1011040040E050E060EF70E0CE0185579F4F0E94B1
:101114009126892B09F401C1C756DF4F8881998133
:10112400C959D0400196C756DF4F88839983C9595E
:10113400D04086E0E2E6F9E7DE01AD56BF4F01900C
:101144000D928A95E1F7C557DF4F2881CB58D040DF
:10115400C457DF4F3881CC58D040C357DF4F488144
:10116400CD58D040C257DF4F5881CE58D040C157D8
:10117400DF4F6881CF58D040C057DF4F7881C059C6
:10118400D040CF56DF4F8881C159D040CE56DF4F73
:101194009881C259D040A0E00E947B3F31F420E006
:1011A40030E0AE014D565F4FAFC028E7AE01455762
:1011B4005F4FBE016F577F4FC6010E94491CAAC0F2
:1011C400632D70E09701A501400F511FCE01855793
:1011D4009F4F0E94EF2EA1C0632D70E0A701CE01A6
:1011E40085579F4F0E94BF3C892B09F496C0C75670
:1011F400DF4FE881F981C959D040CF010196C75624
:10120400DF4F88839983C959D0402081AE01455767
:101214005F4FBE016F577F4FC6010E94B4097AC069
:10122400B0E83B127AC0C756DF4F88819981C9590B
:10123400D0400196C756DF4F88839983C959D0405F
:10124400D701ED91FC911197CF0102968D939C9358
:101254008081C557DF4F8883CB58D04050C0B0E859
:101264003B125BC0C756DF4F88819981C959D04072
:101274000196C756DF4F88839983C959D040D70157
:10128400ED91FC911197CF0102968D939C9340812F
:10129400518120E030E038C0B0E83B123EC0C75670
:1012A400DF4F88819981C959D0400196C756DF4FD5
:1012B40088839983C959D040C557DF4F2882CB58BA
:1012C400D0401DC0C557DF4F2882CB58D040C756E9
:1012D400DF4F88829982C959D040CF57DF4F188297
:1012E4001982C158D040CB57DF4F18821982C55894
:1012F400D040CD57DF4F68827982C358D04021E077
:1013040030E0AE0145575F4FBE016F577F4FC601B6
:101314000E94D438800F911F0EC0C756DF4F8881BA
:101324009981C959D0400196C756DF4F8883998364
:10133400C959D040C8018501080F191F0A151B059A
:101344004CF48FE490E080935144909352448FEF97
:101354009FEF03C0580184CCC501C656DF4FE2E1BC
:041364000C94BB3DED
:10136800A6E2B0E0EAEBF9E00C94A23D8E8F9F8FE5
:10137800688F798F122FFB010190F081E02DE987AA
:10138800FA87FB01C280D380248135812B8B3C8B6B
:101398008085918588A399A326803780FA0180806B
:1013A8009180A280B38020E030E0A901C501B4019A
:1013B8000E941F4187FF06C0B7FAB094B7F8B094EF
:1013C8008DE204C0598552FFF0C28BE2F10180839F
:1013D8002B893C89215031092F83388741E050E01F
:1013E800498B5A8B06C08B899C898F839887198A69
:1013F8001A8AD501C401BF770097E0E8AE07EFE786
:10140800BE07B1F4212F110F330B215431098989FB
:101418009A89820D931D2A31310518F466E379E71C
:1014280002C06AE379E70E94EA3F8AE399E7ADC21E
:101438000197A048BF47B0F0212F110F330B21545B
:10144800310989899A89820D931D2A31310518F449
:101458006EE379E702C062E479E70E94EA3F82E43A
:1014680099E793C220E030E0A901C501B4010E94C8
:101478001F411B821C82882309F46CC020E82D833D
:101488003FE33E8319821A8220E030E040E251E4D3
:101498006B817C818D819E810E943541F62E072FBC
:1014A8008D879B87A50194010E94244118166CF032
:1014B80049815A814F5F5F4F49835A83FB820C836E
:1014C8005D855D838B858E83DFCF1B861C862B8194
:1014D8003C814D815E81C501B4010E941F4187FF97
:1014E8003FC0E981FA81E43DFE4F04F54B855C85F8
:1014F800452BE1F420E030E040E85AE5C501B401AD
:101508000E9435414B015C0120E030E040E85AE59B
:101518006B817C818D819E810E9435416B837C83A8
:101528008D839E8381E090E08B879C8720E030E06C
:1015380040E251E46B817C818D819E810E94314122
:101548006B837C838D839E83E981FA813197E9835C
:10155800FA83BDCFF0E8FD832FE32E8319821A8228
:10156800412F110F550B4AA35BA3CA010E94F23FFA
:101578008B8FD7FC03C0CDA2DEA204C086E090E02A
:101588008DA39EA39B8D973641F4CD2809F012C2F6
:10159800E1E0F0E0EDA3FEA30DC28B8D8D8B06C0BC
:1015A80029813A8137FF19C296E69D8BEDA1FEA1EC
:1015B8003196EDA3FEA3FD89F636B9F429813A8167
:1015C80037FF08C01B821C8230E83D834FE34E83FF
:1015D80019821A825B8D573641F08DA19EA1E9814F
:1015E800FA818E0F9F1F8DA39EA3FB81FB872C8101
:1015F8002D873D813E8B4E814A8F750164011C8E7B
:101608001D8EEC8DFD8D2DA13EA1E217F307B9F1DA
:101618002B853D854E895A8DC701B6010E943141FF
:101628000E941C2B2B013C010E9408406CA38701DF
:10163800760117FB109517F910952B853D854E8976
:101648005A8DC301B2010E944F296B017C01F7FA40
:10165800F094F7F8F09420E030E040E251E46B8534
:101668007D858E899A8D0E9431416B877D878E8B0F
:101678009A8F8C8D9D8D01968C8F9D8FC2CF20E087
:1016880030E040EA50E46B857D858E899A8D0E9412
:1016980035412B013C019B01AC01C701B6010E94F9
:1016A8001F4187FD0BC0A3019201C701B6010E942B
:1016B8001F41811106C03CA130FD03C0412C512CB3
:1016C8003201A3019201C501B4010E9402404B01FD
:1016D8005C014D89453619F069807A8002C0612C19
:1016E800712C23018DA19EA1481A590AC988DA884C
:1016F80000E010E01B861C86E985FA85E071FF276B
:10170800EE8BFF8B6414750431F4EB85FC85EF2BAD
:1017180009F496C0A1C0CC8EDD8EE88DF98D808548
:1017280091850597C816D90680F72B813C814D8194
:101738005E81C501B4010E9431410E941C2B6D8756
:101748007E878F87988B0E940840CB012E893F891E
:10175800232B69F4892B59F43B8D373641F477FEF6
:1017680006C0A8014F5F5F4F4C8F5D8F3FC08B85D0
:101778009C85892BA9F477FE13C09FEFC91AD90A53
:10178800EC8DFD8DE20DF31D2EE220834F815885EF
:10179800415051094F83588781E090E08B879C879F
:1017A800F101EC0DFD1D0C8F1D8F4C8D5D8D452BB2
:1017B80049F090E391932C8D3D8D215031092C8F68
:1017C8003D8FF3CFC8018C0D9D1D2F813885201BBF
:1017D800310B6C015FEFC51AD50AF101E80FF91F4B
:1017E800605D6083C90101978F83988785017401C3
:1017F80017FB109517F910952B813C814D815E815F
:101808006D857E858F8598890E944F294B015C01E3
:10181800B7FAB094B7F8B09420E030E040E251E471
:101828006B817C818D819E810E9431416B837C8399
:101838008D839E8391E0691A71080C8D1D8D62CF8E
:10184800F985F4FF09C0F101EC0DFD1D8EE28083DE
:1018580096012F5F3F4F6901A1014C0D5D1D4B871C
:101868005C87FA011082FD89F53609F061C0E8A1AC
:10187800F9A1E20DF31D3197108229813A8137FFD2
:1018880008C031952195310929833A8301E010E098
:1018980002C000E010E0E8A1F9A13197E20DF31DC4
:1018A80022E030E08AE0E82EF12CCF01821993097A
:1018B80049815A81452B91F089819A81B7010E940B
:1018C8006C3E805D829369837A83215031094F8110
:1018D8005885415051094F835887E7CF1216130690
:1018E8005CF3FC013197E20DF31D012B11F42BE29F
:1018F80001C02DE220830297B101680F791F2AA148
:101908003BA1215431092A31310510F025E601C0E7
:1019180025E4FB0120832F813885225031092F834C
:101928003887C816D90624F48B859C850E94EA3F1F
:10193800398531FF29C030FD27C04F8158851416DD
:10194800150614F5C1010E94313F820D931D9C01BB
:101958002219330949895A89241735074CF0FC01A3
:101968002081EF81F885E80FF91F20830197EFCFD9
:101978004F81588560E370E089899A89820D931DAB
:101988000E94D03F1B8A1C8AC1010E94313F0985F1
:101998001A852B893C89AC01B1018E8D9F8D0E94DF
:1019A8002E34A696E2E10C94BB3D598553FF1BCD1E
:1019B80080E20CCD89819A818C3F9F4F5CF0298110
:1019C8003A814DA15EA1241735070CF4E9CD55E6FF
:1019D8005D8B0BCEF5E6FD8B08CE36E63D8B05CE4E
:1019E8008F929F92AF92BF92CF92DF92EF92FF9227
:1019F8000F931F93CF93DF93CDB7DEB7CC5ED1099A
:101A0800CDBFDEBF182F092F2FEF82E597E02150B9
:101A180080409040E1F700C000000E94C715809305
:101A2800087A0F931F9388E792E89F938F93CE01CC
:101A380001969F938F930E94933E8091087A0F900E
:101A48000F900F900F900F900F908111F2C2C75115
:101A5800DF4F188219821A821B82C95ED040BE01EC
:101A680067517F4FCE0183529F4F0E9495306FE799
:101A780072E885E394E40E9429418093087A6FE72D
:101A880072E885E394E40E949C398093087A811176
:101A980020C085E394E40E94FD3C80939E79909356
:101AA8009F7900E010E00EC066E973E485E394E4F2
:101AB8000E941D218093087A86E993E40E944D4094
:101AC8000F5F1F4F80919E7990919F790817190792
:101AD80058F36FE772E885E394E40E949C39AE01FD
:101AE8004F5F5F4F66E973E485E394E40E94F9353C
:101AF8008093087A81119DC286E993E40E94E23FAF
:101B080080916F798F9380916E798F9380916D79A1
:101B18008F9380916C798F9384EF93E89F938F9341
:101B28008E0107531F4F1F930F930E94933EB801D6
:101B380086E993E40E94023E6CE972E886E993E440
:101B48000E94023ECDBFDEBFE12CF12C42C0E01660
:101B5800F106A1F11F9281E48F931F930F93FF92D7
:101B6800EF920F2EFEE9CF2EF2E8DF2EF02DDF9256
:101B7800CF925E01F7E9AF0EB11CBF92AF920E94FF
:101B8800933E1F9282E48F931F930F93FF92EF92DD
:101B9800DF92CF926E0125E6C20ED11CDF92CF9262
:101BA8000E94933EB50186E993E40E94023EB60185
:101BB80086E993E40E94023ECDBFDEBF0F5F1F4F50
:101BC80002C000E010E0043111050CF29FEFE91AA1
:101BD800F90AE4E1EE16F104A4F36CEB72E886E985
:101BE80093E40E94023E6EEB72E886E993E40E9459
:101BF800023E812C912C74C08C149D0409F462C09F
:101C080084E1889D8001899D100D11240C0D1D1DF6
:101C180002951295107F1027007F10270D5A1B4B35
:101C2800F80160817181CB01880F991F880F991F76
:101C3800680F791F80E090E00E94433720E030EF82
:101C48004FE755E40E9431419F938F937F936F93A1
:101C58000F2EFDECAF2EF2E8BF2EF02DBF92AF9203
:101C68007E01F7E9EF0EF11CFF92EF920E94933E7E
:101C7800B70186E993E40E94023EF8016085718508
:101C8800CB01880F991F880F991F680F791F80E073
:101C980090E00E94433720E030EF4FE755E40E9480
:101CA80031419F938F937F936F93BF92AF92FF922F
:101CB800EF920E94933EB70186E993E40E94023EA8
:101CC800CDBFDEBF9FEFC91AD90A02C0C12CD12CE3
:101CD800E4E1CE16D1040CF48FCFFFEF8F1A9F0AE0
:101CE80024E18216910494F36CEB72E886E993E49C
:101CF8000E94023E63ED72E886E993E40E94023E88
:101D0800812C912C74C08C149D0409F462C084E168
:101D1800889D8001899D100D11240C0D1D1D0295B3
:101D28001295107F1027007F10270D5A1B4BF801C2
:101D380064817581CB01880F991F880F991F680FDF
:101D4800791F80E090E00E94433720E030EF4FE7B2
:101D580055E40E9431419F938F937F936F930F2E89
:101D6800FDECAF2EF2E8BF2EF02DBF92AF927E01B0
:101D7800F7E9EF0EF11CFF92EF920E94933EB70134
:101D880086E993E40E94023EF80164857585CB01DB
:101D9800880F991F880F991F680F791F80E090E0BE
:101DA8000E94433720E030EF4FE755E40E9431416D
:101DB8009F938F937F936F93BF92AF92FF92EF920F
:101DC8000E94933EB70186E993E40E94023ECDBF8C
:101DD800DEBF9FEFC91AD90A02C0C12CD12CE4E199
:101DE800CE16D1040CF48FCFFFEF8F1A9F0A24E18F
:101DF8008216910494F36CEB72E886E993E40E94EE
:101E0800023E69EE72E886E993E40E94023E812C64
:101E1800912C74C08C149D0409F462C084E1889DDF
:101E28008001899D100D11240C0D1D1D0295129520
:101E3800107F1027007F10270D5A1B4BF801628175
:101E48007381CB01880F991F880F991F680F791F1D
:101E580080E090E00E94433720E030EF4FE755E400
:101E68000E9431419F938F937F936F930F2EFDECC8
:101E7800AF2EF2E8BF2EF02DBF92AF927E01F7E9A8
:101E8800EF0EF11CFF92EF920E94933EB70186E994
:101E980093E40E94023EF80162857385CB01880FA6
:101EA800991F880F991F680F791F80E090E00E94A2
:101EB800433720E030EF4FE755E40E9431419F93CC
:101EC8008F937F936F93BF92AF92FF92EF920E948E
:101ED800933EB70186E993E40E94023ECDBFDEBF80
:101EE8009FEFC91AD90A02C0C12CD12CE4E1CE1641
:101EF800D1040CF48FCFFFEF8F1A9F0A24E18216CA
:101F0800910494F36CEB72E886E993E40E94023E34
:101F18006FEF72E886E993E40E94023E812C912CCF
:101F280074C08C149D0409F462C084E1889D80010A
:101F3800899D100D11240C0D1D1D02951295107F01
:101F48001027007F10270D5A1B4BF80166817781F7
:101F5800CB01880F991F880F991F680F791F80E0A0
:101F680090E00E94433720E030EF4FE755E40E94AD
:101F780031419F938F937F936F930F2EFDECAF2E7C
:101F8800F2E8BF2EF02DBF92AF927E01F7E9EF0E77
:101F9800F11CFF92EF920E94933EB70186E993E409
:101FA8000E94023EF80166857785CB01880F991F4C
:101FB800880F991F680F791F80E090E00E944337CF
:101FC80020E030EF4FE755E40E9431419F938F9313
:101FD8007F936F93BF92AF92FF92EF920E94933ECE
:101FE800B70186E993E40E94023ECDBFDEBF9FEFB2
:101FF800C91AD90A02C0C12CD12CE4E1CE16D104E9
:102008000CF48FCFFFEF8F1A9F0A24E182169104F8
:1020180094F36CEB72E886E993E40E94023E6CEB61
:1020280072E886E993E40E94023E86E993E40E94FE
:10203800C536C451DF4FCDBFDEBFDF91CF911F91B1
:102048000F91FF90EF90DF90CF90BF90AF909F904F
:042058008F900895C8
:10205C008F929F92AF92BF92CF92DF92EF92FF92AC
:10206C000F931F93CF93DF93CDB7DEB7C85DD10924
:10207C00CDBFDEBF182F092F2FEF82E597E021503F
:10208C0080409040E1F700C000000E94C71580938B
:10209C00087A0F931F9388E792E89F938F93CE0152
:1020AC0001969F938F930E94933E8091087A0F9094
:1020BC000F900F900F900F900F908111E3C2CB52A5
:1020CC00DF4F188219821A821B82C55DD040BE0177
:1020DC006B527F4FCE0187539F4F0E9495306FE715
:1020EC0072E885E394E40E9429418093087A6FE7B3
:1020FC0072E885E394E40E949C398093087A8111FC
:10210C0029C0BE016F5F7F4F85E394E40E942D418F
:10211C008093087A85E394E40E94FD3C80939E7939
:10212C0090939F7900E010E00EC066E973E485E3BC
:10213C0094E40E941D218093087A86E993E40E941E
:10214C004D400F5F1F4F80919E7990919F7908179A
:10215C00190758F36FE772E885E394E40E949C3901
:10216C00AE014F5F5F4F66E973E485E394E40E9430
:10217C00F9358093087A811185C286E993E40E942F
:10218C00E23F6BE872E886E993E40E94023E6CE958
:10219C0072E886E993E40E94023EE12CF12C42C0E5
:1021AC00E016F106A1F11F9281E48F931F930F9318
:1021BC00FF92EF920F2EFEE9CF2EF2E8DF2EF02DDC
:1021CC00DF92CF925E01E7E9AE0EB11CBF92AF92E7
:1021DC000E94933E1F9282E48F931F930F93FF9262
:1021EC00EF92DF92CF926E01F5E6CF0ED11CDF920B
:1021FC00CF920E94933EB50186E993E40E94023E81
:10220C00B60186E993E40E94023ECDBFDEBF0F5FAC
:10221C001F4F02C000E010E0043111050CF29FEFDB
:10222C00E91AF90AE4E1EE16F104A4F36CEB72E896
:10223C0086E993E40E94023E6EEB72E886E993E431
:10224C000E94023E812C912C74C08C149D0409F4C4
:10225C0062C084E1889D8001899D100D11240C0DB4
:10226C001D1D02951295107F1027007F10270D5A07
:10227C00124AF80160817181CB01880F991F880F78
:10228C00991F680F791F80E090E00E94433720E08F
:10229C0030EF4FE755E40E9431419F938F937F932A
:1022AC006F930F2EFDECAF2EF2E8BF2EF02DBF92E8
:1022BC00AF927E01F7E9EF0EF11CFF92EF920E94B4
:1022CC00933EB70186E993E40E94023EF8016085D3
:1022DC007185CB01880F991F880F991F680F791F83
:1022EC0080E090E00E94433720E030EF4FE755E468
:1022FC000E9431419F938F937F936F93BF92AF92C4
:10230C00FF92EF920E94933EB70186E993E40E94FC
:10231C00023ECDBFDEBF9FEFC91AD90A02C0C12C45
:10232C00D12CE4E1CE16D1040CF48FCFFFEF8F1A31
:10233C009F0A24E18216910494F36CEB72E886E90F
:10234C0093E40E94023E63ED72E886E993E40E94F6
:10235C00023E812C912C74C08C149D0409F462C033
:10236C0084E1889D8001899D100D11240C0D1D1D8B
:10237C0002951295107F1027007F10270D5A124AD4
:10238C00F80164817581CB01880F991F880F991F03
:10239C00680F791F80E090E00E94433720E030EF17
:1023AC004FE755E40E9431419F938F937F936F9336
:1023BC000F2EFDECAF2EF2E8BF2EF02DBF92AF9298
:1023CC007E01F7E9EF0EF11CFF92EF920E94933E13
:1023DC00B70186E993E40E94023EF8016485758595
:1023EC00CB01880F991F880F991F680F791F80E008
:1023FC0090E00E94433720E030EF4FE755E40E9415
:10240C0031419F938F937F936F93BF92AF92FF92C3
:10241C00EF920E94933EB70186E993E40E94023E3C
:10242C00CDBFDEBF9FEFC91AD90A02C0C12CD12C77
:10243C00E4E1CE16D1040CF48FCFFFEF8F1A9F0A74
:10244C0024E18216910494F36CEB72E886E993E430
:10245C000E94023E69EE72E886E993E40E94023E15
:10246C00812C912C74C08C149D0409F462C084E1FD
:10247C00889D8001899D100D11240C0D1D1D029548
:10248C001295107F1027007F10270D5A124AF80161
:10249C0062817381CB01880F991F880F991F680F78
:1024AC00791F80E090E00E94433720E030EF4FE747
:1024BC0055E40E9431419F938F937F936F930F2E1E
:1024CC00FDECAF2EF2E8BF2EF02DBF92AF927E0145
:1024DC00F7E9EF0EF11CFF92EF920E94933EB701C9
:1024EC0086E993E40E94023EF80162857385CB0174
:1024FC00880F991F880F991F680F791F80E090E053
:10250C000E94433720E030EF4FE755E40E94314101
:10251C009F938F937F936F93BF92AF92FF92EF92A3
:10252C000E94933EB70186E993E40E94023ECDBF20
:10253C00DEBF9FEFC91AD90A02C0C12CD12CE4E12D
:10254C00CE16D1040CF48FCFFFEF8F1A9F0A24E123
:10255C008216910494F36CEB72E886E993E40E9482
:10256C00023E6FEF72E886E993E40E94023E812CF2
:10257C00912C74C08C149D0409F462C084E1889D74
:10258C008001899D100D11240C0D1D1D02951295B5
:10259C00107F1027007F10270D5A124AF801668110
:1025AC007781CB01880F991F880F991F680F791FAE
:1025BC0080E090E00E94433720E030EF4FE755E495
:1025CC000E9431419F938F937F936F930F2EFDEC5D
:1025DC00AF2EF2E8BF2EF02DBF92AF927E01F7E93D
:1025EC00EF0EF11CFF92EF920E94933EB70186E929
:1025FC0093E40E94023EF80166857785CB01880F33
:10260C00991F880F991F680F791F80E090E00E9436
:10261C00433720E030EF4FE755E40E9431419F9360
:10262C008F937F936F93BF92AF92FF92EF920E9422
:10263C00933EB70186E993E40E94023ECDBFDEBF14
:10264C009FEFC91AD90A02C0C12CD12CE4E1CE16D5
:10265C00D1040CF48FCFFFEF8F1A9F0A24E182165E
:10266C00910494F36CEB72E886E993E40E94023EC9
:10267C006CEB72E886E993E40E94023E86E993E4EF
:10268C000E94C536C852DF4FCDBFDEBFDF91CF9160
:10269C001F910F91FF90EF90DF90CF90BF90AF9074
:0626AC009F908F9008953D
:1026B200CF93DF93CDB7DEB7C656D109CDBFDEBF0C
:1026C2000E94FA3F0E94F73E0E94803E0E943740DD
:1026D2000E94933F789419821A8200E010E005C0AC
:1026E200C8010E949E380F5F1F4F04311105C4F3C9
:1026F2002FEF4DE359E4215040405040E1F700C034
:1027020000000E94ED298091087A813059F402E09C
:102712002FE033E840E050E061E173E884E193E8C0
:102722000E94112586E993E40E9431400E942B40C9
:102732008823B9F0898181114FC002E029E133E891
:1027420040E050E061E173E884E193E80E941125E2
:1027520081E089838A81882311F01A82D4CF1A8278
:102762003BC08A81811138C08091047A8823E1F0CC
:102772001092047A1092037A1092907910929179C1
:1027820010929279109293791092027A81E080935A
:10279200C50404E020E030E040E050E060E070E09A
:1027A2008CE193E80E94112502E02FE033E840E03B
:1027B20050E061E173E884E193E80E9411252FE083
:1027C20033E840E050E06AE273E884E193E80E9473
:1027D200112581E08A8319828091057A882331F05C
:1027E2008EE293E40E9443221092057A8091017A4C
:1027F200811107C094C0C8010E94FD390F5F1F4FAD
:1028020002C000E010E004311105ACF3E12CF12C20
:1028120012C0E016F10621F0B801C7010E94C12CD6
:102822000F5F1F4F02C000E010E0043111058CF36E
:102832008FEFE81AF80A94E1E916F104A4F381E0B3
:1028420090E0A0E0B0E080936C7990936D79A093D2
:102852006E79B0936F7980917B798F9380917A7939
:102862008F93809179798F93809178798F938091EA
:102872007F798F9380917E798F9380917D798F93E9
:1028820080917C798F9380918B798F9380918A79D3
:102892008F93809189798F93809188798F9380919A
:1028A20083798F93809182798F93809181798F93AD
:1028B200809180798F93809187798F9380918679A7
:1028C2008F93809185798F93809184798F938DE214
:1028D20093E89F938F9382E092E49F938F930E9459
:1028E200933E82E092E40E942E101092017A04E05C
:1028F20020E030E040E050E060E070E080E593E806
:102902000E94112502E029E133E840E050E06AE24A
:1029120073E884E193E80E941125CDBFDEBF809168
:10292200047A882309F423C18091037A81111FC19B
:102932008091947990919579A0919679B0919779B7
:10294200892B8A2B8B2B09F408C111C1B11609F40A
:10295200F8C0C12ED12CEB2CF12CB601C7010E947C
:102962007C1981114AC084E18E9DF0018F9DF00D8A
:102972001124ED5AF948EC0DFD1D80818F5F808393
:10298200409068795090697960906A7970906B791B
:10299200BFEF4B1A5B0A6B0A7B0A4092687950922E
:1029A200697960926A7970926B79C301B20125E00C
:1029B20030E040E050E00E945D3C672B682B692BC1
:1029C200E1F47F926F925F924F928DE593E89F932D
:1029D2008F933E0123E0620E711C7F926F920E94E0
:1029E200933E02E0930140E050E061E673E88CE63A
:1029F20093E80E941125CDBFDEBF84E18E9DF001D8
:102A02008F9DF00D1124ED5AF948EC0DFD1D8081CA
:102A1200823308F496C0809177798F93809176798A
:102A22008F93809175798F93809174798F93809130
:102A32007B798F9380917A798F93809179798F9333
:102A4200809178798F9380917F798F9380917E792D
:102A52008F9380917D798F9380917C798F938091F0
:102A62008B798F9380918A798F93809189798F93D3
:102A7200809188798F93809183798F9380918279E5
:102A82008F93809181798F93809180798F938091B8
:102A920087798F93809186798F93809185798F93AF
:102AA200809184798F9380916B798F9380916A79E9
:102AB2008F93809169798F93809168798F93DF9258
:102AC200CF92FF92EF9284E793E89F938F937E01D8
:102AD20053E0E50EF11CFF92EF920E94933ECDBFB0
:102AE200DEBF02E0970140E050E06BED73E885EE57
:102AF20093E80E94112504E020E030E040E050E03D
:102B020060E070E085EE93E80E94112581E08093F9
:102B1200027A1092047A1092037A109268791092D3
:102B2200697910926A7910926B7920E931E0E3E5D4
:102B3200F6E7DF01A9011D9241505040E1F7809371
:102B4200C6041F5F01C010E0143128F48091027A9C
:102B5200882309F4FBCEB39401C0B12C53E15B1579
:102B620008F4E4CD8091027A882369F3DFCD809165
:102B7200037A8111DBCD1092027A10929079109231
:0C2B820091791092927910929379D0CD45
:102B8E002F923F924F925F926F927F928F929F926F
:102B9E00AF92BF92CF92DF92EF92FF920F931F935D
:102BAE00CF93DF93C3EED8E7188A198A1A8A1B8A45
:102BBE00188219821A821B821FA2212C312C0E948C
:102BCE00FC278EA38111ACC141E050E460E070E0BF
:102BDE00CB010E94352D809309798111A3C13091CB
:102BEE0000422091FF41832F922FA0E0B0E08A3A5D
:102BFE0025E59207A105B10509F096C13091BD41B9
:102C0E002091BE41832F922F8A35EAE59E07A105BA
:102C1E00B10599F0892B8A2B8B2B99F042C0FC01C0
:102C2E00E295F295F07FFE27E07FFE27ED53FE4BF7
:102C3E00208121110CC0019607C080E090E020E0B9
:102C4E0003C080E090E020E08430910540F382954F
:102C5E009295907F9827807F9827FC01E953FE4B31
:102C6E00E081DC01A853BE4B3C91532FDC01A753EE
:102C7E00BE4BEC01C653DE4B4E2F6C9178814093C8
:102C8E00E3785093E4786093E5787093E678212C9E
:102C9E00312C222309F44AC1452B462B472B09F42C
:102CAE0047C103EE18E7F80160817181828193813B
:102CBE0041E050E40E94352DF80186A381113AC1FE
:102CCE00309100422091FF41832F922FA22DB32DE0
:102CDE008A3A9545A105B10509F02EC1E1E0F0E46F
:102CEE0033852485632F722F3093FB782093FC78E5
:102CFE00611522E0720709F021C18585D8019896E9
:102D0E008C93989736852785E32EF22E408931894C
:102D1E002289832F922FC388D4880C2D1D2D222D0E
:102D2E00332D4801C688D7884C2C5D2C622C732C11
:102D3E005201C0A0D1A022A033A01496CC92149719
:102D4E001596DC92159716962C92169717963C921E
:102D5E00E114F10409F4F4C0880F991F829592953D
:102D6E00907F9827807F98270E94583E6093FD7829
:102D7E007093FE78AB2869F0D301C201AA27BB2756
:102D8E008093EF789093F078A093F178B093F278E7
:102D9E000CC0E1E0F0E474A165A196A187A1E3EE79
:102DAE00F8E77487658796878787E3EEF8E74484AC
:102DBE00558466847784628D738D50E0449DC00186
:102DCE00459D900D549D900D11248E0D9F1D860FC7
:102DDE00971F868F978F892839F022273327D02E79
:102DEE00512F222E332E08C0E3EEF8E7D480558102
:102DFE00D681C7812D2E3C2E0D2D152F222D332D34
:102E0E0058016901A81AB90AC108D108C601B5014D
:102E1E000E9443374B015C01C3EED8E768A570E012
:102E2E0080E090E00E9445379B01AC01C501B401E2
:102E3E000E94314120E030E040E05FE30E9401401B
:102E4E000E944B3B6C8B7D8B8E8B9F8B653F2FE057
:102E5E0072078105910518F410920A7933C0653F07
:102E6E007F4F8105910578F4E3EEF8E781E087A3C3
:102E7E0082E084A38FEF9FEFA0E0B0E08087918780
:102E8E00A287B3871FC0E3EEF8E782E087A384E052
:102E9E0084A38FEF9FEFAFEFBFE080879187A2876C
:102EAE00B387A1E0B0E49C963C919C979D962C91A3
:102EBE009D979E969C919E979F968C91308B218B81
:102ECE00928B838B80910A7981508230D8F5E3EE14
:102EDE00F8E7268D378D828D938D281B390B8081D7
:102EEE009181A281B381280F391F248F358F8E0DCA
:102EFE009F1D80A391A34485558566857785480FD0
:102F0E00591F42A353A3808D918D969587959295C7
:102F1E0082958F7089279F70892785A380E013C0C3
:102F2E0081E011C082E00FC084E00DC083E00BC0D1
:102F3E0083E009C082E007C084E005C086E003C0DC
:102F4E0084E001C085E0DF91CF911F910F91FF903A
:102F5E00EF90DF90CF90BF90AF909F908F907F902B
:0C2F6E006F905F904F903F902F9008955F
:102F7A001F920F920FB60F9211240BB60F92CF9297
:102F8A00DF92EF92FF920F931F932F933F934F93EA
:102F9A005F936F937F938F939F93AF93BF93EF93B7
:102FAA00FF93C0908879D0908979E0908A79F090DF
:102FBA008B79D701C60183709927AA27BB27892B4A
:102FCA008A2B8B2B61F4C701B60124E630E040E07E
:102FDA0050E00E945D3C672B682B692B61F4C701A6
:102FEA00B60120E931E040E050E00E945D3C672BE9
:102FFA00682B692B21F48DE18093487903C08CE119
:10300A00809348798091747990917579A0917679B5
:10301A00B09177790196A11DB11D8093747990932F
:10302A007579A0937679B0937779CC97A105B10594
:10303A00D8F08091787990917979A0917A79B09144
:10304A007B790196A11DB11D809378799093797946
:10305A00A0937A79B0937B791092747910927579EA
:10306A00109276791092777980917879909179791E
:10307A00A0917A79B0917B79CC97A105B105D8F066
:10308A0080917C7990917D79A0917E79B0917F79B8
:10309A000196A11DB11D80937C7990937D79A093AF
:1030AA007E79B0937F79109278791092797910921B
:1030BA007A7910927B7980917C7990917D79A0912F
:1030CA007E79B0917F794897A105B105D8F08091B2
:1030DA00807990918179A0918279B09183790196D2
:1030EA00A11DB11D8093807990938179A0938279F3
:1030FA00B093837910927C7910927D7910927E79BF
:10310A0010927F794091847950918579609186797E
:10311A0070918779FA01EA5BF648808190E0A0E035
:10312A00B0E0009180791091817920918279309173
:10313A008379081719072A073B07C0F04F5F5F4FCB
:10314A006F4F7F4F40938479509385796093867946
:10315A007093877981E090E0A0E0B0E08093807975
:10316A0090938179A0938279B093837980918479BD
:10317A0090918579A0918679B09187790C97A1056C
:10318A00B105C8F02FEFC21AD20AE20AF20AC092B7
:10319A008879D0928979E0928A79F0928B7981E064
:1031AA0090E0A0E0B0E08093847990938579A09331
:1031BA008679B09387798091707990917179A0918D
:1031CA007279B09173790196A11DB11D80937079BE
:1031DA0090937179A0937279B093737984389340FC
:1031EA00A105B10550F00E94ED2910927079109254
:1031FA00717910927279109273798091047A882386
:10320A0019F18091037A81111FC08091947990916C
:10321A009579A0919679B0919779892B8A2B8B2BE6
:10322A0099F48091907990919179A0919279B09145
:10323A0093790196A11DB11D80939079909391790C
:10324A00A0939279B093937980918C7990918D79AA
:10325A00A0918E79B0918F790197A109B109409116
:10326A0090795091917960919279709193794817F8
:10327A0059076A077B07F8F082E092E40E94F40C8F
:10328A0080916C7990916D79A0916E79B0916F79F6
:10329A000196A11DB11D80936C7990936D79A093CD
:1032AA006E79B0936F791092907910929179109209
:1032BA0092791092937981E080930B0AFF91EF91B2
:1032CA00BF91AF919F918F917F916F915F914F9134
:1032DA003F912F911F910F91FF90EF90DF90CF9028
:0E32EA000F900BBE0F900FBE0F901F90189507
:1032F800CF92DF92EF92FF920F931F93CF93DF93BA
:103308007C018B010E94CD39C8010E94CD39C701CB
:103318000E945D3AC8010E945D3A8E2D0E942F3EA0
:1033280024E12E9DE0012F9DD00D1124C00FD11F47
:10333800C295D295D07FDC27C07FDC279E012D5A0D
:103348003B4B6901F90180839183802F0E942F3EB6
:10335800F6018087918720813181CD5AD24A4881F0
:103368005981241B350BA90122F444275527421BF8
:10337800530B4B395140ECF424E12E9DF0012F9D65
:10338800F00D1124E00FF11FE295F295F07FFE2772
:10339800E07FFE27ED5AF24A20853185821B930B88
:1033A8009C0122F422273327281B390B2B39314063
:1033B80044F0C7010E94FD39C8010E94FD3980E030
:1033C80012C1C7010E942D3AC8010E945D3A8E2D94
:1033D8000E942F3E24E12E9DE0012F9DD00D112447
:1033E800C00FD11FC295D295D07FDC27C07FDC27C4
:1033F800FE01ED5AFB4B6F0184839583802F0E9459
:103408002F3EF6018487958724813581CD5AD24A8B
:103418004C815D81241B350BA90122F444275527D3
:10342800421B530B4B395140ECF424E12E9DF00123
:103438002F9DF00D1124E00FF11FE295F295F07F1A
:10344800FE27E07FFE27ED5AF24A24853585821B48
:10345800930B9C0122F422273327281B390B2B3985
:10346800314044F0C7010E94FD39C8010E94FD396E
:1034780080E0B9C0C7010E945D3AC8010E942D3A98
:103488008E2D0E942F3E24E12E9DE0012F9DD00D10
:103498001124C00FD11FC295D295D07FDC27C07FE1
:1034A800DC27FE01ED5AFB4B6F0182839383802F4B
:1034B8000E942F3EF6018287938722813381CD5A5D
:1034C800D24A4A815B81241B350BA90122F4442787
:1034D8005527421B530B4B395140ECF424E12E9DE8
:1034E800F0012F9DF00D1124E00FF11FE295F295E8
:1034F800F07FFE27E07FFE27ED5AF24A22853385CA
:10350800821B930B9C0122F422273327281B390B9B
:103518002B39314044F0C7010E94FD39C8010E948F
:10352800FD3980E060C0C7010E942D3AC8010E94A1
:103538002D3A8E2D0E942F3E24E12E9DE0012F9DD5
:10354800D00D1124C00FD11FC295D295D07FDC2792
:10355800C07FDC27FE01ED5AFB4B6F018683978302
:10356800802F0E942F3EF601868797872681378114
:10357800CD5AD24A4E815F81241B350BA90122F412
:1035880044275527421B530B4B395140ECF424E197
:103598002E9DF0012F9DF00D1124E00FF11FE295F3
:1035A800F295F07FFE27E07FFE27ED5AF24A268546
:1035B8003785821B930B9C0122F422273327281B73
:1035C800390B2B39314044F0C7010E94FD39C8013D
:1035D8000E94FD3980E007C0C7010E94FD39C8017B
:1035E8000E94FD3981E0DF91CF911F910F91FF90EB
:0835F800EF90DF90CF900895E1
:103600004F925F926F927F928F929F92AF92BF92F2
:10361000CF92DF92EF92FF920F931F93CF93DF939E
:1036200000D000D0CDB7DEB78C017B015A01490133
:1036300019821A821B821C82F90110821182FC01FC
:1036400084A1882309F40CC180859185A285B38566
:10365000892B8A2B8B2B89F54091EB785091EC7854
:103660006091ED787091EE78CE0101960E94D13490
:103670008111FBC049805A806B807C80F8014086B4
:103680005186628673864486558666867786C30130
:10369000B2010E94CF3BF801608F718F828F938FB0
:1036A000148E158E41E0C301B2010E9480376CE098
:1036B000C8010E94832E8111D8C0F80185A18823FA
:1036C00099F015A2808D918DA28DB38D248D358DAD
:1036D000BC01CD01620F731F811D911D41E050E4BB
:1036E0000E94352D8111BEC0F80186A18823D9F032
:1036F0004485558566857785CE0101960E94D13433
:103700008111B3C0F80116A269817A818B819C81F5
:1037100064877587868797870E94CF3BF801608F03
:10372000718F828F938FC12CD12C91C0F801868D1F
:10373000978D8115924008F46AC0F801168E178E95
:1037400013A2C8010E94C53681118FC0F801848D73
:10375000958D0196848F958F15A221E023A320914A
:103760000B7930E08217930750F184859585A68503
:10377000B78589839A83AB83BC83C8010E94823654
:10378000F80186A18823D9F049815A816B817C8117
:10379000CE0101960E94D134811167C0F80116A2B2
:1037A00069817A818B819C816487758786879787F9
:1037B0000E94CF3BF801608F718F828F938FF80149
:1037C000408151816281738184819581A681B78115
:1037D000481759076A077B0798F4808D918DA28D51
:1037E000B38D248D358DBC01CD01620F731F811DFA
:1037F000911D41E050E40E94352D882341F034C0F2
:1038000040E060E072E080E090E00E94E83EF80175
:10381000868D978D9C012F5F3F4F268F378FF70145
:103820002081FC01EF5FFF4B2083F80180819181B3
:10383000A281B3810196A11DB11D80839183A283D2
:10384000B383FFEFCF1ADF0AC70101967C01CA14C8
:10385000DB0408F46BCFF401C082D18280E005C0A4
:1038600087E003C08CE001C08CE02496CDBFDEBFB2
:10387000DF91CF911F910F91FF90EF90DF90CF904C
:10388000BF90AF909F908F907F906F905F904F9080
:02389000089599
:10389200A4E1B0E0EFE4FCE10C94A23D8F839887B1
:1038A20069837A834B8B5C8B122FDB011296ED912D
:1038B200FC91139714962D913C9115972D833E837D
:1038C200CD90DC90119716962D903C901797F7FDAE
:1038D20003C0E894C1F802C0E1E0F0E0C6018071E3
:1038E200992789879A87C4FE1FC0AB89BC892C910E
:1038F20011963C91119712964C91129713965C91E6
:10390200139714966C91149715967C9115971696A9
:103912008C91169717969C91A0E00E947B3F21F014
:103922008D819E81029702C08D819E8196012870B1
:1039320033272B873C87C3FC0197AB89BC894C900A
:1039420011965C90119712966C90129713967C9038
:10395200139714968C90149715969C90159716961B
:10396200AC9016971796BC90A981BA811896ED90E3
:10397200FC901997B1E0EB1AF108D101AE0DBF1D11
:103982001C928B839C839F01281B390B2D873E87BA
:10399200C601827099278F87988B812F012E000C88
:1039A200990BDC01A154B109A98BBA8B32E0E31661
:1039B200F10434F489859A85892B09F04CC073C0CF
:1039C2009201A301B401C501A0E00E947B3F81F1F5
:1039D200B1E0EB1AF108C2018F7099278A30910584
:1039E20014F4C09602C0895A9F4FE989FA897A97DE
:1039F20048F49C012062215631092A31310510F424
:103A02000E94D93FF101EE0DFF1D80832B813C8185
:103A1200215031092B833C839201A301B401C501DA
:103A220004E00E94E13C29013A014B015C01BECF56
:103A32008D859E85AB81BC818A0F9B1F1816190646
:103A42003CF21A161B060CF0B5CFEF85F889EF2B66
:103A520009F0BECFAFCFAB89BC892C9111963C91B6
:103A6200119712964C91129713965C911397149694
:103A72006C91149715967C91159716968C911697C2
:103A820017969C91A0E00E947B3F69F0F101EE0D38
:103A9200FF1D31971083B2E0EB1AF108F101EE0D30
:103AA200FF1D80E38083EB85FC85EF2B41F0F1E085
:103AB200EF1AF108F101EE0DFF1D80E28083A9816A
:103AC200BA8118964D915C911997415051094E193E
:103AD2005F09B1016E0D7F1D86012D813E818F81AF
:103AE20098850E942E349C01EF81F8858081918116
:103AF20090FF09C0A981BA8112968D919C9113976A
:103B0200821793070CF4C9016496E2E10C94BB3D61
:103B1200EF92FF920F931F93CF93DF9300E014E095
:103B2200F801148260E274E0FB01148240E454E084
:103B3200FA01148220E634E0F9011482C0E8D4E0EC
:103B42001C82A0EAB4E014961C9214970F2EF0EC9B
:103B5200EF2EF4E0FF2EF02DF701148280E8F80139
:103B620080838CEFFB018083FA0180838FEFF90160
:103B7200808388838CE38C938EEFF7018083F80136
:103B8200108A118A128A138A148A158A168A84E084
:103B9200878BFB01108A118A828B838B848B858BA6
:103BA200868B878BFA01108A118A828B838B848B96
:103BB200858B868B878BF901808B818B828B838BA4
:103BC200848B858B868B878B888B898B8A8B8B8B5F
:103BD2008C8B8D8B8E8B8F8B50961C92509751961F
:103BE2001C92519752968C93529753968C9353975B
:103BF20054968C93549755968C93559756961C923F
:103C0200569757961C92F701108A818B828B838B71
:103C1200848B858B868B878BE0EEF5E01186118293
:103C220010821482168217821086158212821382E3
:103C320012868BE491E40E9452408CE491E40E944B
:103C420057408DE491E40E945C408EE491E40E942E
:103C520061408FE491E40E94664080E591E40E9415
:103C62006B4081E591E40E94704082E591E40E94FC
:103C7200754083E591E40E947A4084E591E40E94D4
:103C82007F4085E591E40E94844086E591E40E94AC
:103C9200894087E591E40E948E4088E591E40E9484
:103CA200934089E591E40E9498408AE591E40E945C
:103CB2009D408BE591E40E94A2408CE591E40E9434
:103CC200A7408DE591E40E94AC408EE591E40E940C
:103CD200B1408FE591E40E94B64080E691E40E94F3
:103CE200BB4081E691E40E94C04082E691E40E94DA
:103CF200C54083E691E40E94CA4084E691E40E94B2
:103D0200CF4085E691E40E94D44086E691E40E9489
:103D1200D94087E691E40E94DE4088E691E40E9461
:103D2200E34089E691E40E94E8408AE691E40E9439
:103D3200ED408BE691E40E94F2408CE691E40E9411
:103D4200F7408DE691E40E94FC408EE691E40E94E9
:103D520001418FE691E40E94064180E791E40E94CE
:103D62000B4181E791E40E94104182E791E40E94B5
:103D72001541DF91CF911F910F91FF90EF90089520
:103D82003F924F925F926F927F928F929F92AF92E9
:103D9200BF92CF92DF92EF92FF920F931F93CF9336
:103DA200DF93CDB7DEB72897CDBFDEBF6B017C01B5
:103DB20029833A834B835C83302E2B013C01009094
:103DC2000A7904C0440C551C661C771C0A94D2F76D
:103DD2000091FB781091FC78980140E050E0C3011B
:103DE200B2010E945D3C49015A01029FC001039F3A
:103DF200900D129F900D11248201081B190B109235
:103E02009C7910929D796091037970910479620F87
:103E1200731F80E090E041E050E40E94352D811153
:103E2200BEC00F2EFDE04F2EF02D341431F00F2EB8
:103E3200F7E05F2EF02D351033C0F801EF5FFF4B36
:103E42008081F801EE5FFF4BC080D12CDC2CCC24AA
:103E52000D2C000CEE08FF08C82A80910A798230E6
:103E6200F9F4F801ED5FFF4B808190E0A0E0B0E053
:103E7200DC0199278827C82AD92AEA2AFB2AF801CD
:103E8200EC5FFF4B808190E0A0E0B0E0B82FAA2762
:103E920099278827C82AD92AEA2AFB2A8FE0F822FA
:103EA2009DE0391205C0C114D104E104F10431F4DA
:103EB2000F2EF6E04F2EF02D341076C080910A7945
:103EC200823009F040C0F801EF5FFF4B9081F801AA
:103ED200EE5FFF4B208130E0322F2227A901330F02
:103EE200660B770B2A013B01492AF801ED5FFF4B74
:103EF2009081492F50E060E070E0BA0155274427D5
:103F0200442A552A662A772AF801EC5FFF4B408142
:103F120050E060E070E0742F66275527442744295B
:103F2200552966297729442755276627707F4980B6
:103F32005A806B807C80442A552A662A772A4982D5
:103F42005A826B827C82F801EF5FFF4B598050826C
:103F5200F801EE5FFF4B6A806082823051F4F80113
:103F6200ED5FFF4B7B807082F801EC5FFF4B8C8131
:103F720080836091037970910479860E971EB40153
:103F820080E090E041E050E40E943D2C80910040AE
:103F9200853079F060E070E080E090E00EC060E093
:103FA20070E080E090E009C06C2D7D2D8E2D9F2D5C
:103FB20004C06C2D7D2D8E2D9F2D2896CDBFDEBF8A
:103FC200DF91CF911F910F91FF90EF90DF90CF90F3
:103FD200BF90AF909F908F907F906F905F904F9027
:043FE2003F9008956F
:103FE6006F927F928F929F92AF92BF92CF92DF9203
:103FF600EF92FF920F931F93CF93DF936C01EB0128
:10400600A42E712C812CFC0164877587108A118A75
:10401600128A138A00E0EBC0F0E21F9F70011124A0
:10402600F701EF5FFF4B8081882309F4EBC0853EE3
:1040360009F4D4C08E3209F4D1C0F701E45FFF4B16
:10404600B08088E0B81609F4C9C0EFE0BE1211C00E
:10405600F1E0AF1609F4C2C089E0A81609F4BEC0A3
:10406600612F70E083EE97E70E946A3566246394B9
:10407600B5C0662019F0E1E0AE1206C043EE57E780
:104086006A2D812F0E942F38F9E0AF1207C0F60182
:10409600848995890196848B958BA0C0F6018289C7
:1040A60093890196828B938B88818F3211F08C35A0
:1040B600D9F4F6018485958501968487958789814B
:1040C600811112C08091F3789091F478A091F578DF
:1040D600B091F67880839183A283B383E3EEF7E70A
:1040E6008FE28083118296C0F601C485D58520E0D3
:1040F60018C03FEB380F3A3108F4805E3FEB390FBA
:104106003A3108F4905E891317C02F5F2196888193
:104116008F3219F001E08C3521F4219691E001E00F
:104126000FC08881882359F0E22FF0E0ED51F8485E
:1041360090819111DECF04C090E000E001C090E0D4
:10414600E22FF0E0ED51F8488081811103C08881AB
:10415600882321F0911102C0011100E00023E9F14A
:10416600F1E0AF16E1F08AE0A816C9F0F701E55EC6
:10417600FF4B9081F701E45EFF4B808120910A7925
:10418600223041F4F701EB5EFF4B7080F701EA5EE7
:10419600FF4B8080F60190838183728283828881BF
:1041A600811106C0F8E0AF1235C0B4FE2FC032C090
:1041B600F601C487D587608171818281938164838A
:1041C6007583868397830E94CF3BF601608771874C
:1041D60082879387108A118A0AC0612C1F5F01C0EB
:1041E60010E080910879181708F416CF01C0612CE9
:1041F600C6010E94FA30982E882391F36894992478
:1042060091F808C06894992491F804C00F2EF9E03B
:104216009F2EF02D892DDF91CF911F910F91FF9049
:10422600EF90DF90CF90BF90AF909F908F907F9050
:044236006F900895E8
:10423A00CF92DF92EF92FF920F931F93CF93DF9368
:10424A007C016B01FC01808D882339F080919C7977
:10425A0090919D79E816F906B9F0F7018085918564
:10426A00A285B38520893189BC01CD01620F731FF4
:10427A00811D911D41E050E40E94352D8111EEC04F
:10428A00E0929C79F0929D79D0E0F701C08DC8C088
:10429A00F0E2CF9F80011124F801EF5FFF4B80818C
:1042AA00882309F4DDC0853E09F4B9C08E3209F4C9
:1042BA00B6C0F801E45FFF4B8081F60182A3883023
:1042CA0009F4ADC08F3089F5F7018689978900977F
:1042DA0039F02289338901972817390708F49FC0D2
:1042EA006C2F70E083EE97E70E946A35D1111BC0EC
:1042FA00F70180859185A285B385F601808B918B24
:10430A00A28BB38BC0A3F70180899189F601848FB0
:10431A00958FF70184819581A681B781F6018487FB
:10432A009587A687B787D1E07AC0D1110BC043EE33
:10433A0057E760E08C2F0E942F38F601108A118A05
:10434A00128A138AF701828993890196828B938B49
:10435A00268937898217930708F460C0F801E35E5B
:10436A00FF4B3081F801E25EFF4B2081F801E15EEC
:10437A00FF4B9081F801E05EFF4B8081F6013483A8
:10438A0025839683878390E080E0F801E75EFF4B00
:10439A003081F801E65EFF4B2081F601368B278BD0
:1043AA00F801E95EFF4B3081F801E85EFF4B20819E
:1043BA00F601348B258BF801E55EFF4B3081F8015D
:1043CA00E45EFF4B208140910A79423041F4F801C2
:1043DA00EB5EFF4B9081F801EA5EFF4B8081F701AB
:1043EA00438D442321F03083218392838383F60112
:1043FA003087218792878387F701C08F86899789BB
:10440A00009721F4CF5FC08F80E02FC0F701228987
:10441A0033898217930731F1D0E001C0D0E0CF5F32
:10442A0080910879C81708F433CFF70180899189F8
:10443A000196808B918BC7010E94FA30811114C0BA
:10444A00F701108E80899189009719F00197808B66
:10445A00918BE0929C79F0929D7917CF8CE005C000
:10446A0082E003C080E001C082E0DF91CF911F911A
:0C447A000F91FF90EF90DF90CF9008951D
:10448600EF92FF920F93CF93DF93CDB7DEB7C4566B
:10449600D109CDBFDEBFFC019081903709F4FEC083
:1044A6009137A1F4CF010E947A3B9F938F937F931C
:1044B6006F9382E794E89F938F93CE0101969F9323
:1044C6008F930E94A53ECDBFDEBFE8C0903321F496
:1044D60081E08093017AE2C0913309F096C0109290
:1044E600017A1092037A1092907910929179109233
:1044F6009279109293791092027A109268791092BA
:10450600697910926A7910926B79809177798F9395
:10451600809176798F93809175798F938091747954
:104526008F9380917B798F9380917A798F93809105
:1045360079798F93809178798F9380917F798F9312
:1045460080917E798F9380917D798F9380917C790C
:104556008F9380918B798F9380918A798F938091B5
:1045660089798F93809188798F93809183798F93BE
:10457600809182798F93809181798F9380918079D0
:104586008F93809187798F93809186798F9380918D
:1045960085798F93809184798F9386E794E89F93AA
:1045A6008F93CE0101967C019F938F930E94A53E27
:1045B60002E0970140E050E060EA74E88BEA94E894
:1045C6000E94112580916B798F9380916A798F93E0
:1045D600809169798F93809168798F9382E794E8C7
:1045E6009F938F93FF92EF920E94A53ECDBFDEBFB1
:1045F600970140E050E063EB74E88BEA94E80E9490
:10460600112581E08093047A49C0923391F4109287
:10461600047A1092037A10929079109291791092FE
:104626009279109293791092027A81E08093C50470
:1046360035C0933321F481E08093037A2FC09733FA
:1046460019F41092037A2AC0943371F4CF010E94B0
:104656007A3B609398797093997980939A7990933D
:104666009B790E941E321AC0953359F4CF010E94DD
:10467600A83BBC0183E599E70E94EA3F0E941E32EF
:104686000DC0963359F4CF010E947A3B609394791A
:10469600709395798093967990939779CC59DF4F5B
:1046A600CDBFDEBFDF91CF910F91FF90EF900895C0
:1046B600AF92BF92CF92DF92EF92FF920F931F932A
:1046C600CF93DF935C01EA017901FB0100E010E082
:1046D60030E040E090E02BC08E3211F44F5F8F0146
:1046E600983018F58032E1F08F32D1F08C35C1F078
:1046F6008E32B1F08032A0F02FE9280F2A3110F463
:10470600805207C02FEB280F2A3118F421E0D70179
:104716002C936E01C90ED11CD6018C939F5F05C0E8
:104726008E3219F081E0D7018C933F5F31968081FC
:10473600882311F03F3F81F6F501318F01151105F0
:1047460039F09801261B370B283031050CF4922FCF
:10475600423018F081E0D7018C93423038F498301B
:1047660039F481E0F701808331E00AC030E008C007
:1047760030E006C0FE01E90FF11D80E280839F5FF5
:104786009B30C0F380E018C00F5F1F4F833098F452
:10479600D8019C91903221F491E0F70190830CC0EE
:1047A6002FE9290F2A3108F49052E82FF0E03896C5
:1047B600EC0FFD1F90838F5FD8019C91992311F018
:1047C6004111E2CF853018F081E0F7018083311185
:1047D60044C041E0BE01C5010E94F31F4FC01A301C
:1047E60019F4EA9402E004C0143611F4EA9403E0E2
:1047F6008EE7FE01EE0DF11D8083812F18C0E02F9C
:10480600F0E0EE0DF11DEC0FFD1F9DEC899F912D43
:104816001124969596959695392F330F232F220FAF
:10482600220F230F821B805D80830150892F011187
:10483600E6CF87E0082F0E19D5014D915D916D9158
:104846007C91C5010E946B3941E0BE01C5010E9401
:10485600F31F823061F01F5F07C080E001E010E0C7
:104866000F2EF6E0EF2EF02D1F3F09F0B8CF1F3FB9
:1048760021F0E11003C087E001C087E0DF91CF910E
:104886001F910F91FF90EF90DF90CF90BF90AF9068
:02489600089583
:104898004F925F926F927F928F929F92AF92BF9248
:1048A800CF92DF92EF92FF920F931F93CF93DF93F4
:1048B800CDB7DEB72A97CDBFDEBF89879A874A0171
:1048C8005B01FC0184819581A681B78184179507D6
:1048D800A607B70708F48DC003EE18E7D801589665
:1048E800ED90FC905997970140E050E0C501B40164
:1048F8000E945D3C2D833E834F83588729833A83EA
:104908004B835C83ED81FE81EE9EC001EF9E900D8E
:10491800FE9E900D11249401281B390BA985BA8598
:104928005E962D933C935F97F80140A4512C612C1F
:10493800712C69817A818B819C81A30192010E94EB
:104948005D3C622F732F842F952FC22ED32EE42E19
:10495800F52EC114D104E104F10481F0A301920100
:104968000E94C83E2D813E814F815885261B370BFA
:10497800480B590B29833A834B835C832401350107
:1049880049855A85FA0180859185A285B3858487F2
:104998009587A687B7871AC0A985BA851C968D9072
:1049A8009D90AD90BC901F97CD010E948236E985FD
:1049B800FA8586A1882329F084869586A686B786F7
:1049C8000AC0B1E0CB1AD108E108F108C114D1043A
:1049D800E104F10409F781E0E985FA8585A32981D5
:1049E8003A81248F358F408251826282738216A267
:1049F80011A22A96CDBFDEBFDF91CF911F910F91F3
:104A0800FF90EF90DF90CF90BF90AF909F908F90E6
:0A4A18007F906F905F904F9008951B
:104A2200DF92EF92FF920F931F93CF93DF93CDB755
:104A3200DEB7C659D109CDBFDEBFE82ED92E162F5B
:104A4200F72E822F932F0130D9F41F928FEF8F937D
:104A52001F928F931F928F935F934F937F936F93C6
:104A6200DF92EF9281E194E89F938F93CE010196BA
:104A72009F938F930E94A53EAC01CDBFDEBF70C055
:104A82000230D9F41F924FEF4F931F924F931F9210
:104A92004F933F932F937F936F93DF92EF9284E232
:104AA20094E89F938F93CE0101969F938F930E94D8
:104AB200A53EAC01CDBFDEBF53C00330E9F40E9476
:104AC200F6371F922FEF2F931F922F931F922F9340
:104AD2009F938F93FF921F93DF92EF9289E394E863
:104AE2009F938F93CE0101969F938F930E94A53E31
:104AF200AC01CDBFDEBF34C00430B9F41F928FEFDA
:104B02008F931F928F931F928F93DF92EF928CE479
:104B120094E89F938F93CE0101969F938F930E9467
:104B2200A53EAC01CDBFDEBF1BC00530B9F41F925C
:104B32008FEF8F931F928F931F928F937F936F9319
:104B42008AE594E89F938F93CE0101969F938F936A
:104B52000E94A53EAC01CDBFDEBF02C040E050E0E6
:104B620020E030E00FC09091240895FFFCCFE1E0F7
:104B7200F0E0EC0FFD1FE20FF31F908190932208EB
:104B82002F5F3F4F2417350774F3CA56DF4FCDBF4F
:104B9200DEBFDF91CF911F910F91FF90EF90DF90D9
:024BA200089574
:104BA400ADE0B0E0E8EDF5E20C94A23D89879A8788
:104BB4006B837C83FA01DB011296CD90DC90139712
:104BC40014968D919C9115978D839E83ED90FC9006
:104BD4001197E982FA8216960D90BC91A02DAF83AD
:104BE400B8872080318042805380648075808680BD
:104BF40097808101B42DF52DE62D7B868C869D86CC
:104C04009101A201B301C401A0E00E947B3F4CF4D6
:104C14000E94D83E8901B42FF52FE62F7B878C871D
:104C24009D87D7FC04C0E894E1F8E982FA829101F7
:104C3400A201B301C401A0E0ED80FE800E947B3F8D
:104C44001CF0898182FF04C081E0E81AF10805C0E4
:104C540083FF03C091E0E91AF108CE0101965C01DB
:104C64008AE0C82ED12C2B2F3F2F4E2F5B856C85CD
:104C74007D858B819C810E94AA28FC019101A2015F
:104C8400B301C401A0E00E947B3F1CF0898182FF34
:104C940012C031970F8118850E0F1F1F9101A201B9
:104CA400B301C401A0E00E947B3F14F08BE201C079
:104CB4008DE2D80108C083FF07C03197AF81B88562
:104CC400AE0FBF1F80E28C9309811A81AB81BC8136
:104CD40018964D915C911997415051094E1B5F0BE9
:104CE4006F8178856E0F7F1F2D813E8189859A851E
:104CF4000E942E349C01E985FA858081918190FF80
:104D040009C0AB81BC8112968D919C911397821737
:0E4D140093070CF4C9012D96E2E10C94BB3D0F
:104D22000F931F93CF93DF93FC01D901683871056C
:104D320031F194F461387105B1F12CF460387105E8
:104D420009F478C09FC06238710509F459C064380B
:104D5200710509F46FC096C0603A710509F448C044
:104D62002CF46039710509F44BC08CC0603C7105AC
:104D720009F476C0603F710509F472C083C0CD9119
:104D8200DC911197CE0102968D939C93452B39F0BD
:104D92009881892F880F880B908381835BC08881DB
:104DA2008083118268C0CD91DC911197CE01049667
:104DB2008D939C93452B99F088819981AA81BB811F
:104DC200AC01BD01770F440B542FBA01808391834C
:104DD200A283B383448345834683478328C00881E3
:104DE20019812A813B81008311832283338345C049
:104DF200CD91DC911197CE0102968D939C9323C0A5
:104E0200CD91DC911197CE0108968D939C93788178
:104E120069815A814B813C812D819E818F81708372
:104E2200618352834383348325839683878381E01E
:104E320090E02AC0CD91DC911197CE0102968D931C
:104E42009C93452BA1F099812881892F880F880B8B
:104E52002083918382838383848385838683E6CFC1
:104E6200CD91DC911197CE0102968D939C9308818E
:104E72001981008311831282138214821582168291
:104E82001782D5CF80E090E0DF91CF911F910F91F3
:024E9200089581
:104E94003F924F925F926F927F928F929F92AF92C6
:104EA400BF92CF92DF92EF92FF920F931F93CF9313
:104EB400DF93382EC091FB78D091FC78C12CD12C93
:104EC400760100E010E0812C912C5401412C512CEE
:104ED40032015FC06091037970910479600F711F92
:104EE40080E090E041E050E40E94352D811167C0DC
:104EF40080E090E048C020910A792230A9F4FC01B6
:104F0400EF5FFF4BC080FC01EE5FFF4BD080FC01E4
:104F1400ED5FFF4BE080FC013396EF5FFF4B04969F
:104F2400F0802FE0F2220CC0213051F4FC01EF5F3D
:104F3400FF4BC080FC013196EF5FFF4B0296D0809F
:104F4400C114D104E104F10441F42FEF421A520ACE
:104F5400620A720A23E03216B9F12FEF821A920A1A
:104F6400A20AB20A4091F7785091F8786091F978E2
:104F74007091FA784E5F5F4F6F4F7F4F4815590518
:104F84006A057B0520F08C179D0708F4B4CF0F5FEA
:104F94001F4FC801A0E0B0E04091EF785091F07845
:104FA4006091F1787091F27884179507A607B70796
:104FB40008F490CF642D752D862D972D09C060E0DF
:104FC40070E080E090E004C0682D792D8A2D9B2D3F
:104FD400DF91CF911F910F91FF90EF90DF90CF90D1
:104FE400BF90AF909F908F907F906F905F904F9005
:044FF4003F9008954D
:104FF8001F93CF93DF93CDB7DEB72597CDBFDEBF25
:105008000E94543D8FE697E10197F1F700C0000038
:105018000E944B3F10E004C08FEF0E9448401F5F82
:105028001A30D0F310E018C00E943F3F24E940E056
:1050380050E0BA0180E00E94183C0E94633F8983D7
:105048000E944B3F1F5F1B3038F0E0E0F4E08481A2
:105058008860848311E072C08981813029F70E94B9
:105068003F3F26E84AEA51E060E070E088E00E94AD
:10507800183CCE0101960E94EB3D0E944B3F89816E
:10508800813009F042C0E0E4F9E08081897F8083C3
:10509800E1E4F9E08081806180838C81813009F0CE
:1050A80042C08D818A3A09F040C00E943F3F20E00B
:1050B80040E050E0BA018AE30E94183CCE01019614
:1050C8000E94EB3D0E944B3F0E940537182F81112B
:1050D8002EC00E943F3F20E040E050E0BA018AE342
:1050E8000E94183CCE0101960E94EB3D0E944B3F66
:1050F8008A818823F4F486FF04C083E08093FE79D4
:105108001DC082E08093FE7919C08530A1F481E04A
:105118008093FE790E940537182F82FD0EC08823E0
:1051280069F011E00BC014E009C013E007C011E0FA
:1051380005C015E003C012E001C016E0812F2596D6
:0C514800CDBFDEBFDF91CF911F91089515
:10515400A2E1B0E0E0EBF8E20C94A23DFC010A8B82
:105164001B832C83732E642E552E462E7D83CC8672
:10517400D886AE82BF82868197818A879B87D50134
:105184004D915C91228133818085918501971C0129
:1051940037FF02C021E030E0EA85FB85E80FF91F04
:1051A40010824701E1E0F0E0E983FA83C9018E1936
:1051B4009F098D879E87DA01A270BB27AF87B88BC2
:1051C400B885BB0FBB0BB98B1214130474F0A981FF
:1051D400BA81AB2B09F05CC0AE81BF818D919C91EB
:1051E40011978F7E8D939C9353C02A893B814C8168
:1051F400572D662D752D842D9D81A0E00E947B3F47
:10520400B1F1E1E02E1A3108FC85F987AF2EB8849C
:10521400C988DC2CEC2CFC2C0C2D1C2D2A893B8100
:105224004C81572D662D752D842D9D810E94153F2F
:10523400C90129839A83EA85FB85E20DF31D805D0C
:10524400808381E0881A91082A893B814C81572DFB
:10525400662D752D842D9D810E94173F2A8B3B83DB
:105264004C83752E662E572E482E9D83ADCF8D858B
:105274009E85880D991D181619061CF21814190418
:105284000CF0A5CFEF85F889EF2B09F0BACF9FCFAB
:0A529400C1016296E2E10C94BB3DFB
:10529E00A5E1B0E0E5E5F9E20C94A23D4701580125
:1052AE000E9435412B013C01A80197010E9402404A
:1052BE00162FC72ED82EF92E862F9C2DAD2DBF2D35
:1052CE0089839A83AB83BC83AA81FB81EC81ED80B9
:1052DE003E802F8008850D8B5E2F5F71212F3A2F18
:1052EE004F2F60E070E080E090E021153105410520
:1052FE0000E15007610571058105910509F05EC059
:10530E005E2F6E2D732D822D9D8904E30E94E13C4C
:10531E002D873E874F87588B698B7A8B8B8B9C8B17
:10532E008D859E8597708F3F974009F447C0A301E6
:10533E009201612F7C2D8D2D9F2D0E9401409B018E
:10534E00AC01C501B4010E941F418823B9F1498601
:10535E005A866B867C8629853A854B855C85C50188
:10536E00B4010E940240B62E872E982EA92E262F0B
:10537E00372F482F592F612F7C2D8D2D9F2D0E9459
:10538E001F41811118C02B2D8B2D982DA92DBA2DB3
:10539E0089839A83AB83BC833A814B815C816E2D6A
:1053AE00732D822D9D89A1E00E94873F122FC32E5F
:1053BE00D42EF52E03C01B2D6401FA2C612F7C2DEB
:0C53CE008D2D9F2D6596E2E10C94BB3DF7
:1053DA00CF92DF92EF92FF920F93CF93DF93CDB7E5
:1053EA00DEB7E297CDBFDEBFE12CF12C7DC0109273
:1053FA00057AFF92EF9287E694E89F938F93CE0106
:10540A0001966C019F938F930E94A53E05E020E0D0
:10541A0030E040E050E0B60180E090E00E941125C3
:10542A000F900F900F900F900F900F908091057A28
:10543A008823E1F380912E43813709F050C08EE230
:10544A0093E40E947A3B22E0E216F10429F144F443
:10545A00E114F10479F021E0E216F104A1F03FC071
:10546A0024E0E216F10451F104F125E0E216F10418
:10547A0071F135C0609388797093897980938A79BC
:10548A0090938B792CC060938479709385798093FB
:10549A0086799093877923C0609380797093817914
:1054AA0080938279909383791AC060937C79709300
:1054BA007D7980937E7990937F7911C06093787912
:1054CA007093797980937A7990937B7908C0609305
:1054DA00747970937579809376799093777910922D
:1054EA00057A8FEFE81AF80A96E0E916F1040CF447
:1054FA007ECFE296CDBFDEBFDF91CF910F91FF90B5
:08550A00EF90DF90CF900895AF
:105512004F925F926F927F928F929F92AF92BF92C1
:10552200CF92DF92EF92FF92CF93DF93CDB7DEB7A8
:105532002897CDBFDEBF6B017C01DC01CB0147E1C7
:10554200B695A795979587954A95D1F799278F573D
:105552009109873191059CF597FD36C088248A947C
:10556200982C3FE7A32EB12C04C0B594A79497942E
:1055720087948A95D2F7D501C4018C219D21AE2151
:10558200BF21892B8A2B8B2BD1F020E030E040E821
:105592005BE7C701B6010E9402406D837E838F8361
:1055A2009887F7FC04C0C80CD91CEA1CFB1C809429
:1055B2009094A094B094C820D920EA20FB205C2DBE
:1055C2004D2D3E2D2F2D21C020E030E040E85BE73D
:1055D200C701B6010E94024069837A838B839C8350
:1055E200F7FC0FC0D701C601880F991FAA1FBB1F66
:1055F200892B8A2B8B2B19F350E040E030E82FE304
:1056020004C050E040E030E020E8652F742F832F83
:10561200922F2896CDBFDEBFDF91CF91FF90EF9002
:10562200DF90CF90BF90AF909F908F907F906F90C0
:065632005F904F90089507
:105638004F925F926F927F928F929F92AF92BF929A
:10564800CF92DF92EF92FF92CF93DF93CDB7DEB781
:105658002897CDBFDEBF6B017C01DC01CB0147E1A0
:10566800B695A795979587954A95D1F799278F5716
:105678009109873191059CF597FD36C088248A9455
:10568800982C3FE7A32EB12C04C0B594A794979407
:1056980087948A95D2F7D501C4018C219D21AE212A
:1056A800BF21892B8A2B8B2BD1F020E030E040E8FA
:1056B8005BE7C701B6010E9402406D837E838F833A
:1056C8009887F7FE04C0C80CD91CEA1CFB1C809400
:1056D8009094A094B094C820D920EA20FB205C2D97
:1056E8004D2D3E2D2F2D21C020E030E040E85BE716
:1056F800C701B6010E94024069837A838B839C8329
:10570800F7FE0FC0D701C601880F991FAA1FBB1F3C
:10571800892B8A2B8B2B19F350E040E030E82FEBD4
:1057280004C050E040E030E020E0652F742F832F64
:10573800922F2896CDBFDEBFDF91CF91FF90EF90DB
:10574800DF90CF90BF90AF909F908F907F906F9099
:065758005F904F900895E0
:10575E001F920F920FB60F9211240BB60F922F932A
:10576E003F934F935F936F937F938F939F93AF93DB
:10577E00BF93CF93DF93EF93FF93909120089923DC
:10578E0081F08091067A81110CC01092077A81E027
:10579E008093067A82E3E8E9F2E4DF011D928A95AE
:1057AE00E9F78091067A882309F44BC0E091077AD5
:1057BE0081E08E0F8093077AF0E0E856FD4B9083E0
:1057CE008330A0F190E0FC01E956FD4B20812F3F84
:1057DE0069F5FC01EA56FD4B20812F3F39F5FC019E
:1057EE00EB56FD4B80818F3F09F5C0E2D8E08E81EC
:1057FE008F778E838D818F778D8382E3EEE2F3E454
:10580E00DF011D928A95E9F768E972E4CF010E94E3
:10581E00EA3F1092067A1092077A81E08093057A19
:10582E008E8180688E838D8180688D838091077ACA
:10583E00823338F01092077A1092067A81E08093C4
:10584E00057AFF91EF91DF91CF91BF91AF919F912B
:10585E008F917F916F915F914F913F912F910F900B
:0C586E000BBE0F900FBE0F901F901895FE
:10587A00BF92CF92DF92EF92FF920F931F93CF9333
:10588A00DF936B017C018A018091FE79813049F4B2
:10589A000B2EB9E0CC0CDD1CEE1CFF1CBA95D1F71F
:1058AA00B02D8FEF809300400E943F3F20E0B70168
:1058BA00A60188E10E94183C0E94633FB82E81111C
:1058CA004EC08EEF0E944840C0E0D0E007C0F80109
:1058DA00EC0FFD1F80810E9448402196C11582E08D
:1058EA00D807A8F3C12CD12C760106C00E94573FD5
:1058FA00B82E8FEFB81211C08FEFC81AD80AE80A6B
:10590A00F80AC701B6010E94433720E03BE147EBA2
:10591A0058E40E941F4188234CF38B2D8F718530E8
:10592A00F1F480930040C12CD12C760114C08FEF82
:10593A00C81AD80AE80AF80AC701B6010E9443370A
:10594A0020E03BE147EB58E40E94244118161CF47E
:10595A001092004004C00E94573F882341F30E94DE
:10596A004B3F8B2DDF91CF911F910F91FF90EF90BD
:08597A00DF90CF90BF9008956B
:10598200CF92DF92EF92FF920F931F93CF93DF9309
:105992008617970709F45FC06B018C010E94CD390D
:1059A200C6010E94CD39C8010E945D3AC6010E941B
:1059B2005D3A802F0E94ED3A24E1209F7001219FE1
:1059C200F00C1124EC0CFD1C970122953295307FCE
:1059D2003227207F3227E901CD5AD24A8883998320
:1059E2008C2D0E94ED3A88879987C8010E942D3A32
:1059F200C6010E945D3A802F0E94ED3A8C839D83FE
:105A02008C2D0E94ED3A8C879D87C8010E945D3AD9
:105A1200C6010E942D3A802F0E94ED3A8A839B8311
:105A22008C2D0E94ED3A8A879B87C8010E942D3AED
:105A3200C6010E942D3A802F0E94ED3A8E839F83E9
:105A42008C2D0E94ED3A8E879F87C8010E94FD39F6
:105A5200C6010E94FD39DF91CF911F910F91FF90F6
:085A6200EF90DF90CF90089552
:105A6A00AF92BF92CF92DF92EF92FF920F931F9362
:105A7A00CF93DF936B017C01EA018091FE7981303B
:105A8A0049F40B2EB9E0CC0CDD1CEE1CFF1CBA95B8
