:100000000C9407010C94ED400C94ED400C94ED40E1
:100010000C94ED400C94ED400C94ED400C94ED40AC
:100020000C94C43A0C942C170C94ED400C94ED40B5
:100030000C94ED400C94ED400C94ED400C94ED408C
:100040000C94ED400C94ED400C94ED400C94ED407C
:100050000C94ED400C94ED400C94ED400C94ED406C
:100060000C9464310C94ED400C94653A0C94353A40
:100070000C94ED400C94ED400C9484330C94ED40C2
:100080000C94482B0C94ED400C94ED400C94E63508
:100090000C94ED400C94ED400C94ED400C94ED402C
:1000A0000C94ED400C94ED400C94ED400C94ED401C
:1000B0000C94ED400C9432330C94C4310C94ED400C
:1000C0000C94ED400C94ED400C94ED400C94ED40FC
:1000D0000C94ED400C94ED400C94ED400C94ED40EC
:1000E0000C94ED400C94ED400C94ED400C94823255
:1000F0000C94ED400C94ED400C94ED400C94ED40CC
:100100000C94ED404E3852385638563856385638DA
:100110005638563856385638643864386438643837
:100120006438643870387038703870387D39813987
:10013000813981398139813981398D398D398D39CB
:100140008D398D398D399939993999399939993943
:1001500099399939AD39B139B139B139B139B13983
:10016000B139BD39BD39BD39BD39BD39BD39C939DF
:10017000C939C939C939C939C939C939DD39E13943
:10018000E139E139E139E139E139ED39ED39ED397B
:10019000ED39ED39ED39F939F939F939F939F939F3
:1001A000F939F9390D3A113A113A113A113A113A2D
:1001B000113A1D3A1D3A1D3A1D3A1D3A1D3A293A87
:1001C000293A293A293A293A293A293A4000790C18
:1001D00080790C796C00823C796C797080797079C7
:1001E0008800829C7988798C80798C79900082B49F
:1001F00079907998807998799C0082B8799C79FA7D
:100200008079FA79FE0082BC79FE7A0980008091BB
:1002100001108F7C8060806898ED94BF80930110FE
:1002200011241FBECFEFCDBFDFE7DEBFECECF1E066
:1002300042E019C0B791A79137912791079107FD27
:100240000EC097918791EF01F92FE82F0BBF079010
:100250000D92A217B307D9F7FE011BBE04C01D9271
:10026000A217B307E1F7ED30F40721F70E943F131F
:080270000C94513FF894FFCFFC
:1002780025732E637376004C6F677320466F6C642A
:10028800657200436861726163746572697A61744A
:10029800696F6E002C0050696E73202825642E2526
:1002A80064292050696E20256320766F6C7461671D
:1002B800652C20000A00426F7468204C6F77205428
:1002C8006573742C00252E32662C0050696E20410F
:1002D80020686967682F50696E2042206C6F772C00
:1002E8000050696E2041206C6F772F50696E204254
:1002F80020686967682C00426F74682048696768DD
:1003080020546573742C005800743500686F6D654F
:10031800004F4B0074370025302E326C752C253079
:100328002E326C752C25302E346C752025302E32EB
:100338006C752C25302E326C7500636861725F73A2
:100348007563636573730053686F72742F4F7065BC
:100358006E206265747765656E3A5C7250696E20CE
:10036800257520616E642050696E2025755C724188
:10037800742025302E326C752F25302E326C752F57
:1003880025302E346C752025302E326C753A253088
:100398002E326C753A25302E326C75006661756C9C
:1003A800745F6D7367006661756C745F646574650E
:1003B800637465640054657374202564006C6F670A
:1003C8005F312E6373760054657374203100257590
:0203D8002C00F7
:1003DA006765742025732E25732E2573256325637F
:1003EA0025630025732E25732E7478743D22257398
:1003FA00222563256325630025732E25732E7661D6
:10040A006C3D25642563256325630070616765205B
:10041A002573256325632563006765742025732585
:10042A006325632563007274632564002F73656313
:10043A00002F6D696E00256C750025302E326C75A3
:10044A002F25302E326C752F25302E346C752025D1
:10045A00302E326C753A25302E326C753A25302E94
:10046A00326C750073746172745F74696D650074BF
:10047A00657374696E6700252E326C7500743400DA
:05048A00002D002E0012
:100490002F923F924F925F926F927F928F929F9294
:1004A000AF92BF92CF92DF92EF92FF920F931F9382
:1004B000CF93DF93CDB7DEB7A197CDBFDEBF7C0171
:1004C0006A8B7B8BD42E1C86198A10910879DC01EB
:1004D0005A968C9181110DC08091F3789091F478A7
:1004E000A091F578B091F678F70180839183A2838B
:1004F000B38340E050E0BA01C7010E9413396A8912
:100500007B8940E0C7010E94621F823009F044C32A
:1005100080E007C03196EA8BFB8B8F5F883F08F045
:100520003DC3EA89FB8990819111F4CFD7011C96D4
:100530006D907C901D976A8A7B8A09C08F3209F47E
:100540002FC38C3509F42EC33196EA8BFB8BEA89D5
:10055000FB8980818111F2CF6A8A7B8AF701408111
:10056000518162817381C7010E9413396A897B8935
:100570009E012F5E3F4FAE014F5F5F4FC7010E944C
:10058000BF22823009F010C3D70150961D921C92F1
:10059000519759968C91882309F408C30FE4809FE2
:1005A000012D1124069506959989992361F0402F14
:1005B00050E06DE070E090E00E945C3F8E8F8823F9
:1005C00019F00F5F01C01E8EB1E0B00FB98F00644B
:1005D0000F8FCE0101960E94EC3D88A3F701408168
:1005E000518162817381C7010E94133900E0C12CDF
:1005F000A12CB12C212C312C2101812C912C1C8A75
:100600001D8A1E8A1F8A088F6A8E7B8E7C2C098D1C
:10061000D9A2C12CD12C42C0FFEFAF1ABF0AFC01F6
:10062000EE0FFF1FE295F295F07FFE27E07FFE2799
:10063000EF5FFF4B2081222311F0253EE1F47394FC
:10064000211431044104510499F4D70118962D90D6
:100650003D904D905C901B9750968D909C9051973B
:10066000B1E08B1A9108F701C480D5808E8B9F8BE7
:10067000071105C00EC0712C212C312C21010196CF
:1006800002C080E090E0212F30E08217930720F233
:1006900002C0F1E0F88F288D211105C0C7010E942A
:1006A0000031882371F3CC8ADD8AC72C6A8C7B8C5D
:1006B000D9A0398DC31609F43FC0F701808191811B
:1006C000A281B3810297A105B105B0F1AB20A0943E
:1006D00099F183E00E947F279B01AC016D877E87A3
:1006E0008F87988B623071058105910508F460C28F
:1006F000D7016D917D918D919C9106E00E94301EF5
:10070000662309F457C22091EB783091EC78409140
:10071000ED785091EE786D857E858F8598890E9461
:10072000301E662309F448C26D857E858F859889C1
:1007300040E00E942837C98CB98DCB123FC2EC89AA
:10074000FD89CF01A0E0B0E0F70184839583A68303
:10075000B7832086318642865386808A918AB4E0A8
:10076000DB1225C04091EB785091EC786091ED78E8
:100770007091EE78CE010D960E947934811120C2DD
:100780006D857E858F85988940E00E9428376D852C
:100790007E858F8598890E94773B6A8F7B8F8C8FAF
:1007A0009D8F672B682B692B09F40CC208C01D862E
:1007B0001E861F86188A1A8E1B8E1C8E1D8EC701E0
:1007C0000E940031811100C2812C1C8A188E312CAC
:1007D000212C4E885F88BE8C982EA12EDE8A35C1D2
:1007E0008A2D90E04816590639F4C7010E9400315D
:1007F0008111ECC1412C512C8201000F111F029577
:100800001295107F1027007F102740E060E270E013
:10081000C8010E94903ED988DD2009F476C0E1E04D
:10082000EC1508F072C06A8A7B8AF801EF5FFF4B13
:100830002F8D20833EEF3C0D3F8FD70159964C9171
:100840004E3098F0B98D2B2F30E02C19310953EF31
:100850005203C001539F900D1124840F911D8B19D9
:100860009109860D971D8A8B9B8B22E0AE014E5E0F
:100870005F4F6AE070E0C80101960E94E23822E012
:10088000AE014E5E5F4F6CE070E0C8010E960E94B4
:10089000E23822E0AE014E5E5F4F64E070E0C801D6
:1008A0004C960E94E238BB2029F1811023C0E4E07D
:1008B000EB1520F08B2C880C839411C0FAE0FB150B
:1008C00030F08B2D90E00296882E880C08C02CE02A
:1008D0002B1528F08B2D90E00396882E880CC801EC
:1008E000880D911DFC01EF5FFF4B1082FC01EE5F54
:1008F000FF4B1082F801E45FFF4B8FE08083F8012B
:10090000E25FFF4B18A1108373C021E0C21270C0D8
:100910003E89343031F480E1F801E45FFF4B80839D
:1009200005C080E2F801E45FFF4B80830E94EF4046
:10093000F8013D96EF5FFF4B80830E94E140382E27
:10094000292EF801E15FFF4B8083F801E05FFF4B48
:100950009083F801E95EFF4B8083F801E85EFF4B6E
:1009600090830E94E4408C8B988FF801EF5EFF4BE0
:100970008083F801EE5EFF4B9083F801E75EFF4B4A
:100980008083F801E65EFF4B90833D852E859F8531
:100990008889F801E55EFF4B3083F801E45EFF4B88
:1009A000208320910A79223041F4F801EB5EFF4B5D
:1009B0009083F801EA5EFF4B8083D11005C088E187
:1009C000F801E35FFF4B808340E010C0A42FB0E04C
:1009D000FD01E00FF11F81E090E08C0F9D1FA80F3B
:1009E000B91F8C91EF5FFF4B80834F5F4B3070F3EB
:1009F0008A2D90E001974816590619F091E0C91226
:100A000020C0D70118964D915D916D917C911B97F7
:100A100050968D919C9151978A019B01080F191F47
:100A2000211D311DC901B801615071098109910968
:100A300041E050E40E94D62B80910040853009F0BF
:100A4000C7C0CA941FEF411A510AC110C9CE092D5F
:100A5000DE8824E0D212BDC00F2EF3EEAF2EF8E7F1
:100A6000BF2EF02DD50158966D917C91599740E09D
:100A700080E090E00E94903E0F2EF1E0CF2EF0E457
:100A8000DF2EF02D8EE2F601808340E26AE070E016
:100A900081E090E00E94903E80E1D6011B968C930D
:100AA0001B97832C56963C925697922C57962C92D5
:100AB00057971C8958961C935897388C59963C9296
:100AC00059973D852E859F8588895A963C935A97DC
:100AD0005B962C93D50197962C91223019F4F60150
:100AE000948B858B0F2EF1E0CF2EF0E4DF2EF02DCE
:100AF0008EE2F60180A381A340E269E070E082E229
:100B000090E00E94903E80E1D6019B968C939B974B
:100B1000D6968C92D697D7969C92D797D8961C93B8
:100B2000D897D9963C9280910A798230F9F4F701EE
:100B300040815181628173818091F3789091F47842
:100B4000A091F578B091F678481759076A077B07A6
:100B500021F41082118212821382F7018281E1E076
:100B6000F0E484ABD70113968C9185ABF7018081BB
:100B7000E1E0F0E482AFD70111968C9183AFAF0131
:100B80006A8D7B8D8C8D9D8D0E94D62B809100402F
:100B90008530F9F00CE01DC005E01BC008E019C06D
:100BA00003E017C003E015C005E013C007E011C063
:100BB00004E00FC00CE00DC00CE00BC007E009C062
:100BC000082F07C007E005C00CE003C00CE001C01F
:100BD0000CE0802FA196CDBFDEBFDF91CF911F919A
:100BE0000F91FF90EF90DF90CF90BF90AF909F90CC
:100BF0008F907F906F905F904F903F902F900895CF
:100C0000AAE9B0E0E6E0F6E00C944A3D6C017A0116
:100C1000C756DF4F68837983C959D040A12CB12CC6
:100C200066246A94762C90E8492E512C25E2222ED7
:100C3000C756DF4F68817981C959D040FB01808157
:100C4000882309F471C3CF57DF4F18821982C15826
:100C5000D040CD57DF4F68827982C358D040CB5700
:100C6000DF4F18821982C558D04081E090E08C0F88
:100C70009D1FC957DF4F88839983C758D040C757F6
:100C8000DF4F48825982C958D040FB0100E010E094
:100C90008191811116C001151105C1F0A801C6018D
:100CA0000E94DF3CC756DF4F88819981C959D040E7
:100CB000800F911FC756DF4F88839983C959D04051
:100CC00005C0853241F30F5F1F4FE2CFC756DF4F9C
:100CD000E881F981C959D0408081853209F012C379
:100CE0004F019FEF891A990AC756DF4F8882998270
:100CF000C959D040C756DF4F88819981C959D04022
:100D0000DC012C912B3241F4CF57DF4F2881398100
:100D1000C158D04024600BC02C32BCF02D3249F5B4
:100D2000CF57DF4F28813981C158D0402160CF573C
:100D3000DF4F28833983C158D0400196C756DF4F13
:100D400088839983C959D040D5CF203241F4CF57F9
:100D5000DF4F28813981C158D0402860E8CF233245
:100D600091F4CF57DF4F28813981C158D04020619D
:100D7000DECF203341F4CF57DF4F28813981C1586E
:100D8000D0402260D4CF2A3289F50196C756DF4F72
:100D900088839983C959D040D701ED91FC9111976F
:100DA000CF0102968D939C9380819181CB57DF4F29
:100DB00088839983C558D04097FF35C0CF57DF4F00
:100DC00028813981C158D040B1E02B27CF57DF4F60
:100DD00028833983C158D040919581959109CB578B
:100DE000DF4F88839983C558D0401DC00E949E372D
:100DF000CB57DF4F88839983C558D040C756DF4F04
:100E0000E881F981C959D0408081082E000C990BE6
:100E1000C0970A9740F43196C756DF4FE883F983AD
:100E2000C959D040EBCFCF57DF4F88819981C15846
:100E3000D04080FF07C08D7FCF57DF4F88839983D5
:100E4000C158D040C756DF4FE881F981C959D04019
:100E500080818E3209F046C0CD57DF4F188219824B
:100E6000C358D040CF010196C756DF4F888399837E
:100E7000C959D04021812A32C1F43296C756DF4F7A
:100E8000E883F983C959D040D701ED91FC911197BE
:100E9000CF0102968D939C9380819181CD57DF4F36
:100EA00088839983C358D0401DC00E949E37CD5778
:100EB000DF4F88839983C358D040C756DF4FE881FE
:100EC000F981C959D0408081082E000C990BC09738
:100ED0000A9740F43196C756DF4FE883F983C95922
:100EE000D040EBCFCE0187569F4F0E94473C382E13
:100EF000C756DF4FE881F981C959D0408081082E5B
:100F0000000C990B0E949A3F8936910509F456C04E
:100F1000B4F48336910509F46BC144F4853291052C
:100F200009F4A2C18136910529F1B4C18436910535
:100F300009F444C0883691050CF436C1ABC1803742
:100F4000910509F4C4C04CF48E36910509F420C112
:100F50008F36910509F47AC09DC18537910509F452
:100F600051C08837910509F495C08337910509F080
:100F700091C15DC1632D70E0A701CE0185579F4FE0
:100F80000E94673C892B09F4B0C1C756DF4FE88146
:100F9000F981C959D040CF010196C756DF4F8883E8
:100FA0009983C959D0402081AE0145575F4FBE019A
:100FB0006F577F4FC6010E94EA4094C1632D70E0D5
:100FC000970141E050E0CE0185579F4F0E94C62611
:100FD000892B09F48AC1C756DF4F88819981C95985
:100FE000D0400196C756DF4F88839983C959D040B6
:100FF000AE0145575F4FBE016F577F4FC6010E943C
:10100000072670C1632D70E0970140E050E0CE01EB
:1010100085579F4F0E94C626892B09F466C1C75683
:10102000DF4F88819981C959D0400196C756DF4F5B
:1010300088839983C959D040AE0145575F4FBE019F
:101040006F577F4FC6010E94DB324CC1632D70E0A9
:10105000970140E050E0CE0185579F4F0E94C62681
:10106000892B09F442C1C756DF4F88819981C9593C
:10107000D0400196C756DF4F88839983C959D04025
:10108000AE0145575F4FBE016F577F4FC6010E94AB
:10109000CB2F28C1632D70E0970140E050E0CE01D6
:1010A00085579F4F0E94C626892B09F41EC1C7563B
:1010B000DF4FE881F981C959D040CF010196C75669
:1010C000DF4F88839983C959D040208157C0970149
:1010D00040E050E060EF70E0CE0185579F4F0E94E6
:1010E000C626892B09F401C1C756DF4F8881998133
:1010F000C959D0400196C756DF4F88839983C95993
:10110000D04086E0E2E6F9E7DE01AD56BF4F019040
:101110000D928A95E1F7C557DF4F2881CB58D04013
:10112000C457DF4F3881CC58D040C357DF4F488178
:10113000CD58D040C257DF4F5881CE58D040C1570C
:10114000DF4F6881CF58D040C057DF4F7881C059FA
:10115000D040CF56DF4F8881C159D040CE56DF4FA7
:101160009881C259D040A0E00E94233F31F420E092
:1011700030E0AE014D565F4FAFC028E7AE01455796
:101180005F4FBE016F577F4FC6010E94B81BAAC0B8
:10119000632D70E09701A501400F511FCE018557C7
:1011A0009F4F0E94F52EA1C0632D70E0A701CE01D4
:1011B00085579F4F0E94673C892B09F496C0C756FC
:1011C000DF4FE881F981C959D040CF010196C75658
:1011D000DF4F88839983C959D0402081AE0145579C
:1011E0005F4FBE016F577F4FC6010E949A097AC0B8
:1011F000B0E83B127AC0C756DF4F88819981C95940
:10120000D0400196C756DF4F88839983C959D04093
:10121000D701ED91FC911197CF0102968D939C938C
:101220008081C557DF4F8883CB58D04050C0B0E88D
:101230003B125BC0C756DF4F88819981C959D040A6
:101240000196C756DF4F88839983C959D040D7018B
:10125000ED91FC911197CF0102968D939C93408163
:10126000518120E030E038C0B0E83B123EC0C756A4
:10127000DF4F88819981C959D0400196C756DF4F09
:1012800088839983C959D040C557DF4F2882CB58EE
:10129000D0401DC0C557DF4F2882CB58D040C7561D
:1012A000DF4F88829982C959D040CF57DF4F1882CB
:1012B0001982C158D040CB57DF4F18821982C558C8
:1012C000D040CD57DF4F68827982C358D04021E0AB
:1012D00030E0AE0145575F4FBE016F577F4FC601EB
:1012E0000E947C38800F911F0EC0C756DF4F888147
:1012F0009981C959D0400196C756DF4F8883998399
:10130000C959D040C8018501080F191F0A151B05CE
:101310004CF48FE490E080935144909352448FEFCB
:101320009FEF03C0580184CCC501C656DF4FE2E1F0
:041330000C94633D79
:10133400A6E2B0E0E0EAF9E00C944A3D8E8F9F8F7C
:10134400688F798F122FFB010190F081E02DE987DE
:10135400FA87FB01C280D380248135812B8B3C8B9F
:101364008085918588A399A326803780FA0180809F
:101374009180A280B38020E030E0A901C501B401CE
:101384000E94C74087FF06C0B7FAB094B7F8B0947C
:101394008DE204C0598552FFF0C28BE2F1018083D3
:1013A4002B893C89215031092F83388741E050E053
:1013B400498B5A8B06C08B899C898F839887198A9D
:1013C4001A8AD501C401BF770097E0E8AE07EFE7BA
:1013D400BE07B1F4212F110F330B21543109898930
:1013E4009A89820D931D2A31310518F466E379E751
:1013F40002C06AE379E70E94923F8AE399E7ADC2AB
:101404000197A048BF47B0F0212F110F330B21548F
:10141400310989899A89820D931D2A31310518F47D
:101424006EE379E702C062E479E70E94923F82E4C6
:1014340099E793C220E030E0A901C501B4010E94FC
:10144400C7401B821C82882309F46CC020E82D83CA
:101454003FE33E8319821A8220E030E040E251E407
:101464006B817C818D819E810E94DD40F62E072F49
:101474008D879B87A50194010E94CC4018166CF0BF
:1014840049815A814F5F5F4F49835A83FB820C83A2
:101494005D855D838B858E83DFCF1B861C862B81C8
:1014A4003C814D815E81C501B4010E94C74087FF24
:1014B4003FC0E981FA81E43DFE4F04F54B855C852C
:1014C400452BE1F420E030E040E85AE5C501B401E1
:1014D4000E94DD404B015C0120E030E040E85AE529
:1014E4006B817C818D819E810E94DD406B837C8336
:1014F4008D839E8381E090E08B879C8720E030E0A1
:1015040040E251E46B817C818D819E810E94D940AF
:101514006B837C838D839E83E981FA813197E98390
:10152400FA83BDCFF0E8FD832FE32E8319821A825C
:10153400412F110F550B4AA35BA3CA010E949A3F86
:101544008B8FD7FC03C0CDA2DEA204C086E090E05E
:101554008DA39EA39B8D973641F4CD2809F012C22A
:10156400E1E0F0E0EDA3FEA30DC28B8D8D8B06C0F0
:1015740029813A8137FF19C296E69D8BEDA1FEA120
:101584003196EDA3FEA3FD89F636B9F429813A819B
:1015940037FF08C01B821C8230E83D834FE34E8333
:1015A40019821A825B8D573641F08DA19EA1E98183
:1015B400FA818E0F9F1F8DA39EA3FB81FB872C8135
:1015C4002D873D813E8B4E814A8F750164011C8EAF
:1015D4001D8EEC8DFD8D2DA13EA1E217F307B9F10F
:1015E4002B853D854E895A8DC701B6010E94D9408D
:1015F4000E94B52A2B013C010E94B03F6CA38701D5
:10160400760117FB109517F910952B853D854E89AA
:101614005A8DC301B2010E9484296B017C01F7FA3F
:10162400F094F7F8F09420E030E040E251E46B8568
:101634007D858E899A8D0E94D9406B877D878E8B9C
:101644009A8F8C8D9D8D01968C8F9D8FC2CF20E0BB
:1016540030E040EA50E46B857D858E899A8D0E9446
:10166400DD402B013C019B01AC01C701B6010E9486
:10167400C74087FD0BC0A3019201C701B6010E94B8
:10168400C740811106C03CA130FD03C0412C512C40
:101694003201A3019201C501B4010E94AA3F4B018A
:1016A4005C014D89453619F069807A8002C0612C4D
:1016B400712C23018DA19EA1481A590AC988DA8880
:1016C40000E010E01B861C86E985FA85E071FF279F
:1016D400EE8BFF8B6414750431F4EB85FC85EF2BE2
:1016E40009F496C0A1C0CC8EDD8EE88DF98D80857D
:1016F40091850597C816D90680F72B813C814D81C9
:101704005E81C501B4010E94D9400E94B52A6D874B
:101714007E878F87988B0E94B03FCB012E893F89AB
:10172400232B69F4892B59F43B8D373641F477FE2A
:1017340006C0A8014F5F5F4F4C8F5D8F3FC08B8504
:101744009C85892BA9F477FE13C09FEFC91AD90A87
:10175400EC8DFD8DE20DF31D2EE220834F81588523
:10176400415051094F83588781E090E08B879C87D3
:10177400F101EC0DFD1D0C8F1D8F4C8D5D8D452BE6
:1017840049F090E391932C8D3D8D215031092C8F9C
:101794003D8FF3CFC8018C0D9D1D2F813885201BF3
:1017A400310B6C015FEFC51AD50AF101E80FF91F7F
:1017B400605D6083C90101978F83988785017401F7
:1017C40017FB109517F910952B813C814D815E8193
:1017D4006D857E858F8598890E9484294B015C01E3
:1017E400B7FAB094B7F8B09420E030E040E251E4A6
:1017F4006B817C818D819E810E94D9406B837C8327
:101804008D839E8391E0691A71080C8D1D8D62CFC2
:10181400F985F4FF09C0F101EC0DFD1D8EE2808312
:1018240096012F5F3F4F6901A1014C0D5D1D4B8750
:101834005C87FA011082FD89F53609F061C0E8A1E0
:10184400F9A1E20DF31D3197108229813A8137FF06
:1018540008C031952195310929833A8301E010E0CC
:1018640002C000E010E0E8A1F9A13197E20DF31DF8
:1018740022E030E08AE0E82EF12CCF0182199309AE
:1018840049815A81452B91F089819A81B7010E943F
:10189400143E805D829369837A83215031094F819C
:1018A4005885415051094F835887E7CF12161306C4
:1018B4005CF3FC013197E20DF31D012B11F42BE2D3
:1018C40001C02DE220830297B101680F791F2AA17C
:1018D4003BA1215431092A31310510F025E601C01C
:1018E40025E4FB0120832F813885225031092F8381
:1018F4003887C816D90624F48B859C850E94923FAC
:10190400398531FF29C030FD27C04F815885141611
:10191400150614F5C1010E94D93E820D931D9C0148
:101924002219330949895A89241735074CF0FC01D7
:101934002081EF81F885E80FF91F20830197EFCF0D
:101944004F81588560E370E089899A89820D931DDF
:101954000E94783F1B8A1C8AC1010E94D93E0985D6
:101964001A852B893C89AC01B1018E8D9F8D0E9413
:10197400D633A696E2E10C94633D598553FF1BCD03
:1019840080E20CCD89819A818C3F9F4F5CF0298144
:101994003A814DA15EA1241735070CF4E9CD55E633
:1019A4005D8B0BCEF5E6FD8B08CE36E63D8B05CE82
:1019B4008F929F92AF92BF92CF92DF92EF92FF925B
:1019C4000F931F93CF93DF93CDB7DEB7CC5ED109CE
:1019D400CDBFDEBF182F092F2FEF82E597E02150EE
:1019E40080409040E1F700C000000E9436158093CB
:1019F400087A0F931F9388E792E89F938F93CE0101
:101A040001969F938F930E943B3E8091087A0F909A
:101A14000F900F900F900F900F908111F2C2C75149
:101A2400DF4F188219821A821B82C95ED040BE0120
:101A340067517F4FCE0183529F4F0E949B306FE7C7
:101A440072E885E394E40E94D1408093087A6FE7BA
:101A540072E885E394E40E9444398093087A811102
:101A640020C085E394E40E94A53C80939E799093E2
:101A74009F7900E010E00EC066E973E485E394E426
:101A84000E948C208093087A86E993E40E94F53FB3
:101A94000F5F1F4F80919E7990919F7908171907C6
:101AA40058F36FE772E885E394E40E944439AE0189
:101AB4004F5F5F4F66E973E485E394E40E94A135C8
:101AC4008093087A81119DC286E993E40E948A3F3B
:101AD40080916B798F9380916A798F9380916979E2
:101AE4008F93809168798F938DEB93E89F938F9375
:101AF4008E0107531F4F1F930F930E943B3EB80163
:101B040086E993E40E94AA3D6CE972E886E993E4CD
:101B14000E94AA3DCDBFDEBFE12CF12C42C0E016ED
:101B2400F106A1F11F9281E48F931F930F93FF920B
:101B3400EF920F2EFEE9CF2EF2E8DF2EF02DDF928A
:101B4400CF925E01F7E9AF0EB11CBF92AF920E9433
:101B54003B3E1F9282E48F931F930F93FF92EF9269
:101B6400DF92CF926E0125E6C20ED11CDF92CF9296
:101B74000E943B3EB50186E993E40E94AA3DB6016A
:101B840086E993E40E94AA3DCDBFDEBF0F5F1F4FDD
:101B940002C000E010E0043111050CF29FEFE91AD5
:101BA400F90AE4E1EE16F104A4F36CEB72E886E9B9
:101BB40093E40E94AA3D6EEB72E886E993E40E94E6
:101BC400AA3D812C912C74C08C149D0409F462C02C
:101BD40084E1889D8001899D100D11240C0D1D1D2B
:101BE40002951295107F1027007F10270D5A1B4B6A
:101BF400F80160817181CB01880F991F880F991FAB
:101C0400680F791F80E090E00E94EB3620E030EF0F
:101C14004FE755E40E94D9409F938F937F936F932E
:101C24000F2EFDECAF2EF2E8BF2EF02DBF92AF9237
:101C34007E01F7E9EF0EF11CFF92EF920E943B3E0A
:101C4400B70186E993E40E94AA3DF8016085718595
:101C5400CB01880F991F880F991F680F791F80E0A7
:101C640090E00E94EB3620E030EF4FE755E40E940D
:101C7400D9409F938F937F936F93BF92AF92FF92BC
:101C8400EF920E943B3EB70186E993E40E94AA3D8D
:101C9400CDBFDEBF9FEFC91AD90A02C0C12CD12C17
:101CA400E4E1CE16D1040CF48FCFFFEF8F1A9F0A14
:101CB40024E18216910494F36CEB72E886E993E4D0
:101CC4000E94AA3D63ED72E886E993E40E94AA3D6E
:101CD400812C912C74C08C149D0409F462C084E19D
:101CE400889D8001899D100D11240C0D1D1D0295E8
:101CF4001295107F1027007F10270D5A1B4BF801F7
:101D040064817581CB01880F991F880F991F680F13
:101D1400791F80E090E00E94EB3620E030EF4FE73F
:101D240055E40E94D9409F938F937F936F930F2E16
:101D3400FDECAF2EF2E8BF2EF02DBF92AF927E01E4
:101D4400F7E9EF0EF11CFF92EF920E943B3EB701C0
:101D540086E993E40E94AA3DF80164857585CB0168
:101D6400880F991F880F991F680F791F80E090E0F2
:101D74000E94EB3620E030EF4FE755E40E94D94053
:101D84009F938F937F936F93BF92AF92FF92EF9243
:101D94000E943B3EB70186E993E40E94AA3DCDBF71
:101DA400DEBF9FEFC91AD90A02C0C12CD12CE4E1CD
:101DB400CE16D1040CF48FCFFFEF8F1A9F0A24E1C3
:101DC4008216910494F36CEB72E886E993E40E9422
:101DD400AA3D69EE72E886E993E40E94AA3D812C4B
:101DE400912C74C08C149D0409F462C084E1889D14
:101DF4008001899D100D11240C0D1D1D0295129555
:101E0400107F1027007F10270D5A1B4BF8016281A9
:101E14007381CB01880F991F880F991F680F791F51
:101E240080E090E00E94EB3620E030EF4FE755E48D
:101E34000E94D9409F938F937F936F930F2EFDEC55
:101E4400AF2EF2E8BF2EF02DBF92AF927E01F7E9DC
:101E5400EF0EF11CFF92EF920E943B3EB70186E920
:101E640093E40E94AA3DF80162857385CB01880F33
:101E7400991F880F991F680F791F80E090E00E94D6
:101E8400EB3620E030EF4FE755E40E94D9409F93B2
:101E94008F937F936F93BF92AF92FF92EF920E94C2
:101EA4003B3EB70186E993E40E94AA3DCDBFDEBF65
:101EB4009FEFC91AD90A02C0C12CD12CE4E1CE1675
:101EC400D1040CF48FCFFFEF8F1A9F0A24E18216FE
:101ED400910494F36CEB72E886E993E40E94AA3DC2
:101EE4006FEF72E886E993E40E94AA3D812C912C5D
:101EF40074C08C149D0409F462C084E1889D80013F
:101F0400899D100D11240C0D1D1D02951295107F35
:101F14001027007F10270D5A1B4BF801668177812B
:101F2400CB01880F991F880F991F680F791F80E0D4
:101F340090E00E94EB3620E030EF4FE755E40E943A
:101F4400D9409F938F937F936F930F2EFDECAF2E09
:101F5400F2E8BF2EF02DBF92AF927E01F7E9EF0EAB
:101F6400F11CFF92EF920E943B3EB70186E993E495
:101F74000E94AA3DF80166857785CB01880F991FD9
:101F8400880F991F680F791F80E090E00E94EB365C
:101F940020E030EF4FE755E40E94D9409F938F93A0
:101FA4007F936F93BF92AF92FF92EF920E943B3E5A
:101FB400B70186E993E40E94AA3DCDBFDEBF9FEF3F
:101FC400C91AD90A02C0C12CD12CE4E1CE16D1041D
:101FD4000CF48FCFFFEF8F1A9F0A24E1821691042D
:101FE40094F36CEB72E886E993E40E94AA3D6CEBEF
:101FF40072E886E993E40E94AA3D86E993E40E948C
:102004006D36C451DF4FCDBFDEBFDF91CF911F913D
:102014000F91FF90EF90DF90CF90BF90AF909F9083
:042024008F900895FC
:102028008F929F92AF92BF92CF92DF92EF92FF92E0
:102038000F931F93CF93DF93CDB7DEB7C85DD10958
:10204800CDBFDEBF182F092F2FEF82E597E0215073
:1020580080409040E1F700C000000E943615809350
:10206800087A0F931F9388E792E89F938F93CE0186
:1020780001969F938F930E943B3E8091087A0F9020
:102088000F900F900F900F900F908111E3C2CB52D9
:10209800DF4F188219821A821B82C55DD040BE01AB
:1020A8006B527F4FCE0187539F4F0E949B306FE743
:1020B80072E885E394E40E94D1408093087A6FE740
:1020C80072E885E394E40E9444398093087A811188
:1020D80029C0BE016F5F7F4F85E394E40E94D5401D
:1020E8008093087A85E394E40E94A53C80939E79C6
:1020F80090939F7900E010E00EC066E973E485E3F1
:1021080094E40E948C208093087A86E993E40E94E4
:10211800F53F0F5F1F4F80919E7990919F79081727
:10212800190758F36FE772E885E394E40E9444398D
:10213800AE014F5F5F4F66E973E485E394E40E9464
:10214800A1358093087A811185C286E993E40E94BB
:102158008A3F6BE872E886E993E40E94AA3D6CE93D
:1021680072E886E993E40E94AA3DE12CF12C42C072
:10217800E016F106A1F11F9281E48F931F930F934C
:10218800FF92EF920F2EFEE9CF2EF2E8DF2EF02D10
:10219800DF92CF925E01E7E9AE0EB11CBF92AF921B
:1021A8000E943B3E1F9282E48F931F930F93FF92EE
:1021B800EF92DF92CF926E01F5E6CF0ED11CDF923F
:1021C800CF920E943B3EB50186E993E40E94AA3D66
:1021D800B60186E993E40E94AA3DCDBFDEBF0F5F3A
:1021E8001F4F02C000E010E0043111050CF29FEF10
:1021F800E91AF90AE4E1EE16F104A4F36CEB72E8CB
:1022080086E993E40E94AA3D6EEB72E886E993E4BE
:102218000E94AA3D812C912C74C08C149D0409F451
:1022280062C084E1889D8001899D100D11240C0DE8
:102238001D1D02951295107F1027007F10270D5A3B
:10224800124AF80160817181CB01880F991F880FAC
:10225800991F680F791F80E090E00E94EB3620E01C
:1022680030EF4FE755E40E94D9409F938F937F93B7
:102278006F930F2EFDECAF2EF2E8BF2EF02DBF921C
:10228800AF927E01F7E9EF0EF11CFF92EF920E94E8
:102298003B3EB70186E993E40E94AA3DF8016085B8
:1022A8007185CB01880F991F880F991F680F791FB7
:1022B80080E090E00E94EB3620E030EF4FE755E4F5
:1022C8000E94D9409F938F937F936F93BF92AF9251
:1022D800FF92EF920E943B3EB70186E993E40E9489
:1022E800AA3DCDBFDEBF9FEFC91AD90A02C0C12CD3
:1022F800D12CE4E1CE16D1040CF48FCFFFEF8F1A66
:102308009F0A24E18216910494F36CEB72E886E943
:1023180093E40E94AA3D63ED72E886E993E40E9483
:10232800AA3D812C912C74C08C149D0409F462C0C0
:1023380084E1889D8001899D100D11240C0D1D1DBF
:1023480002951295107F1027007F10270D5A124A08
:10235800F80164817581CB01880F991F880F991F37
:10236800680F791F80E090E00E94EB3620E030EFA4
:102378004FE755E40E94D9409F938F937F936F93C3
:102388000F2EFDECAF2EF2E8BF2EF02DBF92AF92CC
:102398007E01F7E9EF0EF11CFF92EF920E943B3E9F
:1023A800B70186E993E40E94AA3DF8016485758522
:1023B800CB01880F991F880F991F680F791F80E03C
:1023C80090E00E94EB3620E030EF4FE755E40E94A2
:1023D800D9409F938F937F936F93BF92AF92FF9251
:1023E800EF920E943B3EB70186E993E40E94AA3D22
:1023F800CDBFDEBF9FEFC91AD90A02C0C12CD12CAC
:10240800E4E1CE16D1040CF48FCFFFEF8F1A9F0AA8
:1024180024E18216910494F36CEB72E886E993E464
:102428000E94AA3D69EE72E886E993E40E94AA3DFB
:10243800812C912C74C08C149D0409F462C084E131
:10244800889D8001899D100D11240C0D1D1D02957C
:102458001295107F1027007F10270D5A124AF80195
:1024680062817381CB01880F991F880F991F680FAC
:10247800791F80E090E00E94EB3620E030EF4FE7D4
:1024880055E40E94D9409F938F937F936F930F2EAB
:10249800FDECAF2EF2E8BF2EF02DBF92AF927E0179
:1024A800F7E9EF0EF11CFF92EF920E943B3EB70155
:1024B80086E993E40E94AA3DF80162857385CB0101
:1024C800880F991F880F991F680F791F80E090E087
:1024D8000E94EB3620E030EF4FE755E40E94D940E8
:1024E8009F938F937F936F93BF92AF92FF92EF92D8
:1024F8000E943B3EB70186E993E40E94AA3DCDBF06
:10250800DEBF9FEFC91AD90A02C0C12CD12CE4E161
:10251800CE16D1040CF48FCFFFEF8F1A9F0A24E157
:102528008216910494F36CEB72E886E993E40E94B6
:10253800AA3D6FEF72E886E993E40E94AA3D812CD8
:10254800912C74C08C149D0409F462C084E1889DA8
:102558008001899D100D11240C0D1D1D02951295E9
:10256800107F1027007F10270D5A124AF801668144
:102578007781CB01880F991F880F991F680F791FE2
:1025880080E090E00E94EB3620E030EF4FE755E422
:102598000E94D9409F938F937F936F930F2EFDECEA
:1025A800AF2EF2E8BF2EF02DBF92AF927E01F7E971
:1025B800EF0EF11CFF92EF920E943B3EB70186E9B5
:1025C80093E40E94AA3DF80166857785CB01880FC0
:1025D800991F880F991F680F791F80E090E00E946B
:1025E800EB3620E030EF4FE755E40E94D9409F9347
:1025F8008F937F936F93BF92AF92FF92EF920E9457
:102608003B3EB70186E993E40E94AA3DCDBFDEBFF9
:102618009FEFC91AD90A02C0C12CD12CE4E1CE1609
:10262800D1040CF48FCFFFEF8F1A9F0A24E1821692
:10263800910494F36CEB72E886E993E40E94AA3D56
:102648006CEB72E886E993E40E94AA3D86E993E47C
:102658000E946D36C852DF4FCDBFDEBFDF91CF91EC
:102668001F910F91FF90EF90DF90CF90BF90AF90A8
:062678009F908F90089571
:10267E00CF93DF93CDB7DEB7C656D109CDBFDEBF40
:10268E000E94A23F0E949F3E0E94283E0E94DF3F72
:10269E000E943B3F789419821A8200E010E005C038
:1026AE00C8010E9446380F5F1F4F04311105C4F355
:1026BE000E94B0238091087A813059F402E02FE015
:1026CE0033E840E050E061E173E884E193E80E9472
:1026DE00462586E993E40E94D93F0E94D33F882382
:1026EE00B9F0898181112FC002E029E133E840E081
:1026FE0050E061E173E884E193E80E94462581E0B1
:10270E0089838A81882311F01A82D4CF1A821BC042
:10271E008A81811118C002E02FE033E840E050E0DA
:10272E0061E173E884E193E80E9446252FE033E8E7
:10273E0040E050E06CE173E884E193E80E944625A6
:10274E0081E08A8319828091057A882331F08EE2A6
:10275E0093E40E94B2211092057A8091017A811140
:10276E0007C094C0C8010E94A5390F5F1F4F02C059
:10277E0000E010E004311105ACF3E12CF12C12C095
:10278E00E016F10621F0B801C7010E945A2C0F5F26
:10279E001F4F02C000E010E0043111058CF34FEF23
:1027AE00E41AF40A54E1E516F104A4F381E090E092
:1027BE00A0E0B0E08093687990936979A0936A79EC
:1027CE00B0936B79809177798F93809176798F938F
:1027DE00809175798F93809174798F9380917B79A5
:1027EE008F9380917A798F93809179798F9380915D
:1027FE0078798F93809187798F93809186798F9353
:10280E00809185798F93809184798F9380917F7950
:10281E008F9380917E798F9380917D798F93809124
:10282E007C798F93809183798F93809182798F9326
:10283E00809181798F93809180798F938FE193E846
:10284E009F938F9382E092E49F938F930E943B3EDF
:10285E0082E092E40E9414101092017A04E020E0CB
:10286E0030E040E050E060E070E082E493E80E94E7
:10287E00462502E029E133E840E050E06CE173E8E0
:10288E0084E193E80E944625CDBFDEBF8091047A95
:10289E00882309F4D2C08091037A8111CEC0809131
:1028AE00947990919579A0919679B0919779892B99
:1028BE008A2B8B2B09F4B7C0C0C0B11609F4A7C080
:1028CE00C12ED12CEB2CF12CB601C7010E94EB18B6
:1028DE0081110DC084E18E9DF0018F9DF00D1124AC
:1028EE00ED5AF948EC0DFD1D80818F5F808384E1E8
:1028FE008E9DF0018F9DF00D1124ED5AF948EC0DCF
:10290E00FD1D8081823308F482C0809173798F938C
:10291E00809172798F93809171798F938091707974
:10292E008F93809177798F93809176798F93809121
:10293E0075798F93809174798F9380917B798F9332
:10294E0080917A798F93809179798F93809178792C
:10295E008F93809187798F93809186798F938091D1
:10296E0085798F93809184798F9380917F798F93DE
:10297E0080917E798F9380917D798F9380917C79F0
:10298E008F93809183798F93809182798F938091A9
:10299E0081798F93809180798F93DF92CF92FF927E
:1029AE00EF928FE493E89F938F937E0193E0E90E6D
:1029BE00F11CFF92EF920E943B3ECDBFDEBF02E0C4
:1029CE00970140E050E064EA73E88EEA93E80E94D3
:1029DE00462504E020E030E040E050E060E070E0AA
:1029EE008EEA93E80E94462581E08093027A109247
:1029FE00047A1092037A20E931E0E3E5F6E7DF018D
:102A0E00A9011D9241505040E1F78093C5041F5F0C
:102A1E0001C010E0143128F48091027A882309F461
:102A2E004CCFB39401C0B12C53E15B1508F455CED5
:102A3E008091027A882369F350CE8091037A8111B6
:102A4E004CCE1092027A1092907910929179109247
:0E2A5E0092791092937981E08093C6043ECE67
:102A6C002F923F924F925F926F927F928F929F9292
:102A7C00AF92BF92CF92DF92EF92FF920F931F9380
:102A8C00CF93DF93C3EED8E7188A198A1A8A1B8A68
:102A9C00188219821A821B821FA2212C312C0E94AF
:102AAC0031288EA38111ACC141E050E460E070E0AC
:102ABC00CB010E94CE2C809309798111A3C1309156
:102ACC0000422091FF41832F922FA0E0B0E08A3A80
:102ADC0025E59207A105B10509F096C13091BD41DC
:102AEC002091BE41832F922F8A35EAE59E07A105DE
:102AFC00B10599F0892B8A2B8B2B99F042C0FC01E4
:102B0C00E295F295F07FFE27E07FFE27ED53FE4B1A
:102B1C00208121110CC0019607C080E090E020E0DC
:102B2C0003C080E090E020E08430910540F3829572
:102B3C009295907F9827807F9827FC01E953FE4B54
:102B4C00E081DC01A853BE4B3C91532FDC01A75311
:102B5C00BE4BEC01C653DE4B4E2F6C9178814093EB
:102B6C00E3785093E4786093E5787093E678212CC1
:102B7C00312C222309F44AC1452B462B472B09F44F
:102B8C0047C103EE18E7F80160817181828193815E
:102B9C0041E050E40E94CE2CF80186A381113AC189
:102BAC00309100422091FF41832F922FA22DB32D03
:102BBC008A3A9545A105B10509F02EC1E1E0F0E492
:102BCC0033852485632F722F3093FB782093FC7808
:102BDC00611522E0720709F021C18585D80198960C
:102BEC008C93989736852785E32EF22E4089318970
:102BFC002289832F922FC388D4880C2D1D2D222D32
:102C0C00332D4801C688D7884C2C5D2C622C732C34
:102C1C005201C0A0D1A022A033A01496CC9214973C
:102C2C001596DC92159716962C92169717963C9241
:102C3C00E114F10409F4F4C0880F991F8295929560
:102C4C00907F9827807F98270E94003E6093FD78A4
:102C5C007093FE78AB2869F0D301C201AA27BB2779
:102C6C008093EF789093F078A093F178B093F2780A
:102C7C000CC0E1E0F0E474A165A196A187A1E3EE9C
:102C8C00F8E77487658796878787E3EEF8E74484CF
:102C9C00558466847784628D738D50E0449DC001A9
:102CAC00459D900D549D900D11248E0D9F1D860FEA
:102CBC00971F868F978F892839F022273327D02E9C
:102CCC00512F222E332E08C0E3EEF8E7D480558125
:102CDC00D681C7812D2E3C2E0D2D152F222D332D57
:102CEC0058016901A81AB90AC108D108C601B50171
:102CFC000E94EB364B015C01C3EED8E768A570E08F
:102D0C0080E090E00E94ED369B01AC01C501B4015E
:102D1C000E94D94020E030E040E05FE30E94A93FF0
:102D2C000E94F33A6C8B7D8B8E8B9F8B653F2FE0D3
:102D3C0072078105910518F410920A7933C0653F2A
:102D4C007F4F8105910578F4E3EEF8E781E087A3E6
:102D5C0082E084A38FEF9FEFA0E0B0E080879187A3
:102D6C00A287B3871FC0E3EEF8E782E087A384E075
:102D7C0084A38FEF9FEFAFEFBFE080879187A2878F
:102D8C00B387A1E0B0E49C963C919C979D962C91C6
:102D9C009D979E969C919E979F968C91308B218BA4
:102DAC00928B838B80910A7981508230D8F5E3EE37
:102DBC00F8E7268D378D828D938D281B390B8081FA
:102DCC009181A281B381280F391F248F358F8E0DED
:102DDC009F1D80A391A34485558566857785480FF3
:102DEC00591F42A353A3808D918D969587959295EB
:102DFC0082958F7089279F70892785A380E013C0E7
:102E0C0081E011C082E00FC084E00DC083E00BC0F4
:102E1C0083E009C082E007C084E005C086E003C0FF
:102E2C0084E001C085E0DF91CF911F910F91FF905D
:102E3C00EF90DF90CF90BF90AF909F908F907F904E
:0C2E4C006F905F904F903F902F90089582
:102E58001F920F920FB60F9211240BB60F92CF92BA
:102E6800DF92EF92FF920F931F932F933F934F930D
:102E78005F936F937F938F939F93AF93BF93EF93DA
:102E8800FF93C0908479D0908579E0908679F0900E
:102E98008779D701C60183709927AA27BB27892B71
:102EA8008A2B8B2B61F4C701B60124E630E040E0A1
:102EB80050E00E94053C672B682B692B61F4C70121
:102EC800B60120E931E040E050E00E94053C672B64
:102ED800682B692B21F48DE18093487903C08CE13C
:102EE800809348798091707990917179A0917279E5
:102EF800B09173790196A11DB11D8093707990935B
:102F08007179A0937279B0937379CC97A105B105C3
:102F1800D8F08091747990917579A0917679B09173
:102F280077790196A11DB11D809374799093757975
:102F3800A0937679B093777910927079109271791D
:102F48001092727910927379809174799091757951
:102F5800A0917679B0917779CC97A105B105D8F091
:102F68008091787990917979A0917A79B0917B79EB
:102F78000196A11DB11D8093787990937979A093DA
:102F88007A79B0937B79109274791092757910924E
:102F98007679109277798091787990917979A09162
:102FA8007A79B0917B794897A105B105D8F08091DD
:102FB8007C7990917D79A0917E79B0917F79019605
:102FC800A11DB11D80937C7990937D79A0937E7922
:102FD800B0937F79109278791092797910927A79F2
:102FE80010927B79409180795091817960918279B2
:102FF80070918379FA01EA5BF648808190E0A0E05D
:10300800B0E000917C7910917D7920917E793091A2
:103018007F79081719072A073B07C0F04F5F5F4FF2
:103028006F4F7F4F40938079509381796093827975
:103038007093837981E090E0A0E0B0E080937C79A0
:1030480090937D79A0937E79B0937F7980918079F0
:1030580090918179A0918279B09183790C97A1059B
:10306800B105C8F02FEFC21AD20AE20AF20AC092DA
:103078008479D0928579E0928679F092877981E097
:1030880090E0A0E0B0E08093807990938179A0935C
:103098008279B093837980916C7990916D79A091C0
:1030A8006E79B0916F790196A11DB11D80936C79ED
:1030B80090936D79A0936E79B0936F79843893402B
:1030C800A105B10550F00E94B02310926C791092BE
:1030D8006D7910926E7910926F798091047A8823B5
:1030E80019F18091037A81111FC080919479909190
:1030F8009579A0919679B0919779892B8A2B8B2B0A
:1031080099F48091907990919179A0919279B09168
:1031180093790196A11DB11D80939079909391792F
:10312800A0939279B093937980918C7990918D79CD
:10313800A0918E79B0918F790197A109B109409139
:10314800907950919179609192797091937948171B
:1031580059076A077B07F8F082E092E40E94DA0CCC
:103168008091687990916979A0916A79B0916B7929
:103178000196A11DB11D8093687990936979A093F8
:103188006A79B0936B791092907910929179109234
:1031980092791092937981E080930B0AFF91EF91D5
:1031A800BF91AF919F918F917F916F915F914F9157
:1031B8003F912F911F910F91FF90EF90DF90CF904B
:0E31C8000F900BBE0F900FBE0F901F9018952A
:1031D600CF92DF92EF92FF920F931F93CF93DF93DD
:1031E6007C018B010E947539C8010E947539C7019F
:1031F6000E94053AC8010E94053A8E2D0E94D73DCD
:1032060024E12E9DE0012F9DD00D1124C00FD11F6A
:10321600C295D295D07FDC27C07FDC279E012D5A30
:103226003B4B6901F90180839183802F0E94D73D32
:10323600F6018087918720813181CD5AD24A488113
:103246005981241B350BA90122F444275527421B1B
:10325600530B4B395140ECF424E12E9DF0012F9D88
:10326600F00D1124E00FF11FE295F295F07FFE2795
:10327600E07FFE27ED5AF24A20853185821B930BAB
:103286009C0122F422273327281B390B2B39314086
:1032960044F0C7010E94A539C8010E94A53980E003
:1032A60012C1C7010E94D539C8010E94053A8E2D68
:1032B6000E94D73D24E12E9DE0012F9DD00D1124C3
:1032C600C00FD11FC295D295D07FDC27C07FDC27E7
:1032D600FE01ED5AFB4B6F0184839583802F0E947C
:1032E600D73DF6018487958724813581CD5AD24A08
:1032F6004C815D81241B350BA90122F444275527F7
:10330600421B530B4B395140ECF424E12E9DF00146
:103316002F9DF00D1124E00FF11FE295F295F07F3D
:10332600FE27E07FFE27ED5AF24A24853585821B6B
:10333600930B9C0122F422273327281B390B2B39A8
:10334600314044F0C7010E94A539C8010E94A53941
:1033560080E0B9C0C7010E94053AC8010E94D5396C
:103366008E2D0E94D73D24E12E9DE0012F9DD00D8C
:103376001124C00FD11FC295D295D07FDC27C07F04
:10338600DC27FE01ED5AFB4B6F0182839383802F6E
:103396000E94D73DF6018287938722813381CD5AD9
:1033A600D24A4A815B81241B350BA90122F44427AA
:1033B6005527421B530B4B395140ECF424E12E9D0B
:1033C600F0012F9DF00D1124E00FF11FE295F2950B
:1033D600F07FFE27E07FFE27ED5AF24A22853385ED
:1033E600821B930B9C0122F422273327281B390BBF
:1033F6002B39314044F0C7010E94A539C8010E940B
:10340600A53980E060C0C7010E94D539C8010E9475
:10341600D5398E2D0E94D73D24E12E9DE0012F9DAA
:10342600D00D1124C00FD11FC295D295D07FDC27B5
:10343600C07FDC27FE01ED5AFB4B6F018683978325
:10344600802F0E94D73DF601868797872681378190
:10345600CD5AD24A4E815F81241B350BA90122F435
:1034660044275527421B530B4B395140ECF424E1BA
:103476002E9DF0012F9DF00D1124E00FF11FE29516
:10348600F295F07FFE27E07FFE27ED5AF24A268569
:103496003785821B930B9C0122F422273327281B96
:1034A600390B2B39314044F0C7010E94A539C801B8
:1034B6000E94A53980E007C0C7010E94A539C8014E
:1034C6000E94A53981E0DF91CF911F910F91FF9066
:0834D600EF90DF90CF90089504
:1034DE004F925F926F927F928F929F92AF92BF9216
:1034EE00CF92DF92EF92FF920F931F93CF93DF93C2
:1034FE0000D000D0CDB7DEB78C017B015A01490157
:10350E0019821A821B821C82F90110821182FC011F
:10351E0084A1882309F40CC180859185A285B38589
:10352E00892B8A2B8B2B89F54091EB785091EC7877
:10353E006091ED787091EE78CE0101960E9479340B
:10354E008111FBC049805A806B807C80F8014086D7
:10355E005186628673864486558666867786C30153
:10356E00B2010E94773BF801608F718F828F938F2B
:10357E00148E158E41E0C301B2010E9428376CE013
:10358E00C8010E94892E8111D8C0F80185A1882317
:10359E0099F015A2808D918DA28DB38D248D358DD0
:1035AE00BC01CD01620F731F811D911D41E050E4DE
:1035BE000E94CE2C8111BEC0F80186A18823D9F0BD
:1035CE004485558566857785CE0101960E947934AE
:1035DE008111B3C0F80116A269817A818B819C8119
:1035EE0064877587868797870E94773BF801608F7F
:1035FE00718F828F938FC12CD12C91C0F801868D43
:10360E00978D8115924008F46AC0F801168E178EB8
:10361E0013A2C8010E946D3681118FC0F801848DEE
:10362E00958D0196848F958F15A221E023A320916D
:10363E000B7930E08217930750F184859585A68526
:10364E00B78589839A83AB83BC83C8010E942A36CF
:10365E00F80186A18823D9F049815A816B817C813A
:10366E00CE0101960E947934811167C0F80116A22D
:10367E0069817A818B819C8164877587868797871C
:10368E000E94773BF801608F718F828F938FF801C4
:10369E00408151816281738184819581A681B78138
:1036AE00481759076A077B0798F4808D918DA28D74
:1036BE00B38D248D358DBC01CD01620F731F811D1D
:1036CE00911D41E050E40E94CE2C882341F034C07D
:1036DE0040E060E072E080E090E00E94903EF801F1
:1036EE00868D978D9C012F5F3F4F268F378FF70169
:1036FE002081FC01EF5FFF4B2083F80180819181D7
:10370E00A281B3810196A11DB11D80839183A283F5
:10371E00B383FFEFCF1ADF0AC70101967C01CA14EB
:10372E00DB0408F46BCFF401C082D18280E005C0C7
:10373E0087E003C08CE001C08CE02496CDBFDEBFD5
:10374E00DF91CF911F910F91FF90EF90DF90CF906F
:10375E00BF90AF909F908F907F906F905F904F90A3
:02376E000895BC
:10377000A4E1B0E0EEEBFBE10C944A3D8F83988727
:1037800069837A834B8B5C8B122FDB011296ED9150
:10379000FC91139714962D913C9115972D833E83A0
:1037A000CD90DC90119716962D903C901797F7FDD1
:1037B00003C0E894C1F802C0E1E0F0E0C601807106
:1037C000992789879A87C4FE1FC0AB89BC892C9131
:1037D00011963C91119712964C91129713965C9109
:1037E000139714966C91149715967C9115971696CD
:1037F0008C91169717969C91A0E00E94233F21F090
:103800008D819E81029702C08D819E8196012870D4
:1038100033272B873C87C3FC0197AB89BC894C902D
:1038200011965C90119712966C90129713967C905B
:10383000139714968C90149715969C90159716963E
:10384000AC9016971796BC90A981BA811896ED9006
:10385000FC901997B1E0EB1AF108D101AE0DBF1D34
:103860001C928B839C839F01281B390B2D873E87DD
:10387000C601827099278F87988B812F012E000CAB
:10388000990BDC01A154B109A98BBA8B32E0E31684
:10389000F10434F489859A85892B09F04CC073C0F2
:1038A0009201A301B401C501A0E00E94233F81F170
:1038B000B1E0EB1AF108C2018F7099278A309105A7
:1038C00014F4C09602C0895A9F4FE989FA897A9701
:1038D00048F49C012062215631092A31310510F447
:1038E0000E94813FF101EE0DFF1D80832B813C8101
:1038F000215031092B833C839201A301B401C501FE
:1039000004E00E94893C29013A014B015C01BECFD1
:103910008D859E85AB81BC818A0F9B1F1816190669
:103920003CF21A161B060CF0B5CFEF85F889EF2B89
:1039300009F0BECFAFCFAB89BC892C9111963C91D9
:10394000119712964C91129713965C9113971496B7
:103950006C91149715967C91159716968C911697E5
:1039600017969C91A0E00E94233F69F0F101EE0DB3
:10397000FF1D31971083B2E0EB1AF108F101EE0D53
:10398000FF1D80E38083EB85FC85EF2B41F0F1E0A8
:10399000EF1AF108F101EE0DFF1D80E28083A9818D
:1039A000BA8118964D915C911997415051094E1961
:1039B0005F09B1016E0D7F1D86012D813E818F81D2
:1039C00098850E94D6339C01EF81F8858081918192
:1039D00090FF09C0A981BA8112968D919C9113978D
:1039E000821793070CF4C9016496E2E10C94633DDD
:1039F000EF92FF920F931F93CF93DF9300E014E0B9
:103A0000F801148260E274E0FB01148240E454E0A7
:103A1000FA01148220E634E0F9011482C0E8D4E00F
:103A20001C82A0EAB4E014961C9214970F2EF0ECBE
:103A3000EF2EF4E0FF2EF02DF701148280E8F8015C
:103A400080838CEFFB018083FA0180838FEFF90183
:103A5000808388838CE38C938EEFF7018083F80159
:103A6000108A118A128A138A148A158A168A84E0A7
:103A7000878BFB01108A118A828B838B848B858BC9
:103A8000868B878BFA01108A118A828B838B848BB9
:103A9000858B868B878BF901808B818B828B838BC7
:103AA000848B858B868B878B888B898B8A8B8B8B82
:103AB0008C8B8D8B8E8B8F8B50961C925097519642
:103AC0001C92519752968C93529753968C9353977E
:103AD00054968C93549755968C93559756961C9262
:103AE000569757961C92F701108A818B828B838B95
:103AF000848B858B868B878BE0EEF5E011861182B7
:103B00001082148216821782108615821282138206
:103B1000128683EF90E40E94FA3F84EF90E40E94C3
:103B2000FF3F85EF90E40E94044086EF90E40E94FE
:103B3000094087EF90E40E940E4088EF90E40E94D5
:103B4000134089EF90E40E9418408AEF90E40E94AD
:103B50001D408BEF90E40E9422408CEF90E40E9485
:103B600027408DEF90E40E942C408EEF90E40E945D
:103B700031408FEF90E40E94364080E091E40E9453
:103B80003B4081E091E40E94404082E091E40E9449
:103B9000454083E091E40E944A4084E091E40E9421
:103BA0004F4085E091E40E94544086E091E40E94F9
:103BB000594087E091E40E945E4088E091E40E94D1
:103BC000634089E091E40E9468408AE091E40E94A9
:103BD0006D408BE091E40E9472408CE091E40E9481
:103BE00077408DE091E40E947C408EE091E40E9459
:103BF00081408FE091E40E94864080E191E40E9440
:103C00008B4081E191E40E94904082E191E40E9426
:103C1000954083E191E40E949A4084E191E40E94FE
:103C20009F4085E191E40E94A44086E191E40E94D6
:103C3000A94087E191E40E94AE4088E191E40E94AE
:103C4000B34089E191E40E94B8408AE191E40E9486
:103C5000BD40DF91CF911F910F91FF90EF9008959C
:103C60003F924F925F926F927F928F929F92AF920C
:103C7000BF92CF92DF92EF92FF920F931F93CF9359
:103C8000DF93CDB7DEB72897CDBFDEBF6B017C01D8
:103C900029833A834B835C83302E2B013C010090B7
:103CA0000A7904C0440C551C661C771C0A94D2F790
:103CB0000091FB781091FC78980140E050E0C3013E
:103CC000B2010E94053C49015A01029FC001039FB5
:103CD000900D129F900D11248201081B190B109258
:103CE0009C7910929D796091037970910479620FAB
:103CF000731F80E090E041E050E40E94CE2C8111DF
:103D0000BEC00F2EFDE04F2EF02D341431F00F2EDB
:103D1000F7E05F2EF02D351033C0F801EF5FFF4B59
:103D20008081F801EE5FFF4BC080D12CDC2CCC24CD
:103D30000D2C000CEE08FF08C82A80910A79823009
:103D4000F9F4F801ED5FFF4B808190E0A0E0B0E076
:103D5000DC0199278827C82AD92AEA2AFB2AF801F0
:103D6000EC5FFF4B808190E0A0E0B0E0B82FAA2785
:103D700099278827C82AD92AEA2AFB2A8FE0F8221D
:103D80009DE0391205C0C114D104E104F10431F4FD
:103D90000F2EF6E04F2EF02D341076C080910A7968
:103DA000823009F040C0F801EF5FFF4B9081F801CD
:103DB000EE5FFF4B208130E0322F2227A901330F25
:103DC000660B770B2A013B01492AF801ED5FFF4B97
:103DD0009081492F50E060E070E0BA0155274427F8
:103DE000442A552A662A772AF801EC5FFF4B408166
:103DF00050E060E070E0742F66275527442744297F
:103E0000552966297729442755276627707F4980D9
:103E10005A806B807C80442A552A662A772A4982F8
:103E20005A826B827C82F801EF5FFF4B598050828F
:103E3000F801EE5FFF4B6A806082823051F4F80136
:103E4000ED5FFF4B7B807082F801EC5FFF4B8C8154
:103E500080836091037970910479860E971EB40176
:103E600080E090E041E050E40E94D62B8091004039
:103E7000853079F060E070E080E090E00EC060E0B6
:103E800070E080E090E009C06C2D7D2D8E2D9F2D7F
:103E900004C06C2D7D2D8E2D9F2D2896CDBFDEBFAD
:103EA000DF91CF911F910F91FF90EF90DF90CF9016
:103EB000BF90AF909F908F907F906F905F904F904A
:043EC0003F90089592
:103EC4006F927F928F929F92AF92BF92CF92DF9226
:103ED400EF92FF920F931F93CF93DF936C01EB014B
:103EE400A42E712C812CFC0164877587108A118A99
:103EF400128A138A00E0EBC0F0E21F9F70011124C4
:103F0400F701EF5FFF4B8081882309F4EBC0853E06
:103F140009F4D4C08E3209F4D1C0F701E45FFF4B39
:103F2400B08088E0B81609F4C9C0EFE0BE1211C031
:103F3400F1E0AF1609F4C2C089E0A81609F4BEC0C6
:103F4400612F70E083EE97E70E9412356624639434
:103F5400B5C0662019F0E1E0AE1206C043EE57E7A3
:103F64006A2D812F0E94D737F9E0AF1207C0F601FE
:103F7400848995890196848B958BA0C0F6018289EA
:103F840093890196828B938B88818F3211F08C35C3
:103F9400D9F4F6018485958501968487958789816E
:103FA400811112C08091F3789091F478A091F57802
:103FB400B091F67880839183A283B383E3EEF7E72D
:103FC4008FE28083118296C0F601C485D58520E0F6
:103FD40018C03FEB380F3A3108F4805E3FEB390FDD
:103FE4003A3108F4905E891317C02F5F21968881B7
:103FF4008F3219F001E08C3521F4219691E001E033
:104004000FC08881882359F0E22FF0E0ED51F84881
:1040140090819111DECF04C090E000E001C090E0F7
:10402400E22FF0E0ED51F8488081811103C08881CE
:10403400882321F0911102C0011100E00023E9F16D
:10404400F1E0AF16E1F08AE0A816C9F0F701E55EE9
:10405400FF4B9081F701E45EFF4B808120910A7948
:10406400223041F4F701EB5EFF4B7080F701EA5E0A
:10407400FF4B8080F60190838183728283828881E2
:10408400811106C0F8E0AF1235C0B4FE2FC032C0B3
:10409400F601C487D58760817181828193816483AD
:1040A4007583868397830E94773BF60160877187C7
:1040B40082879387108A118A0AC0612C1F5F01C00E
:1040C40010E080910879181708F416CF01C0612C0C
:1040D400C6010E940031982E882391F36894992494
:1040E40091F808C06894992491F804C00F2EF9E05F
:1040F4009F2EF02D892DDF91CF911F910F91FF906D
:10410400EF90DF90CF90BF90AF909F908F907F9073
:044114006F9008950B
:10411800CF92DF92EF92FF920F931F93CF93DF938B
:104128007C016B01FC01808D882339F080919C799A
:1041380090919D79E816F906B9F0F7018085918587
:10414800A285B38520893189BC01CD01620F731F17
:10415800811D911D41E050E40E94CE2C8111EEC0DA
:10416800E0929C79F0929D79D0E0F701C08DC8C0AB
:10417800F0E2CF9F80011124F801EF5FFF4B8081AF
:10418800882309F4DDC0853E09F4B9C08E3209F4EC
:10419800B6C0F801E45FFF4B8081F60182A3883046
:1041A80009F4ADC08F3089F5F701868997890097A2
:1041B80039F02289338901972817390708F49FC0F5
:1041C8006C2F70E083EE97E70E941235D1111BC067
:1041D800F70180859185A285B385F601808B918B47
:1041E800A28BB38BC0A3F70180899189F601848FD4
:1041F800958FF70184819581A681B781F60184871F
:104208009587A687B787D1E07AC0D1110BC043EE56
:1042180057E760E08C2F0E94D737F601108A118A81
:10422800128A138AF701828993890196828B938B6C
:10423800268937898217930708F460C0F801E35E7E
:10424800FF4B3081F801E25EFF4B2081F801E15E0F
:10425800FF4B9081F801E05EFF4B8081F6013483CB
:1042680025839683878390E080E0F801E75EFF4B23
:104278003081F801E65EFF4B2081F601368B278BF3
:10428800F801E95EFF4B3081F801E85EFF4B2081C1
:10429800F601348B258BF801E55EFF4B3081F80180
:1042A800E45EFF4B208140910A79423041F4F801E5
:1042B800EB5EFF4B9081F801EA5EFF4B8081F701CE
:1042C800438D442321F03083218392838383F60135
:1042D8003087218792878387F701C08F86899789DE
:1042E800009721F4CF5FC08F80E02FC0F7012289AB
:1042F80033898217930731F1D0E001C0D0E0CF5F56
:1043080080910879C81708F433CFF701808991891B
:104318000196808B918BC7010E940031811114C0D6
:10432800F701108E80899189009719F00197808B89
:10433800918BE0929C79F0929D7917CF8CE005C023
:1043480082E003C080E001C082E0DF91CF911F913D
:0C4358000F91FF90EF90DF90CF90089540
:10436400EF92FF920F93CF93DF93CDB7DEB7C4568E
:10437400D109CDBFDEBFFC019081903709F4F3C0B1
:104384009137A1F4CF010E94223B9F938F937F9397
:104394006F9380E494E89F938F93CE0101969F934B
:1043A4008F930E944D3ECDBFDEBFDDC0903321F41C
:1043B40081E08093017AD7C0913309F08EC01092C6
:1043C400017A1092037A1092907910929179109256
:1043D4009279109293791092027A809173798F93E3
:1043E400809172798F93809171798F938091707994
:1043F4008F93809177798F93809176798F93809141
:1044040075798F93809174798F9380917B798F9351
:1044140080917A798F93809179798F93809178794B
:104424008F93809187798F93809186798F938091F0
:1044340085798F93809184798F9380917F798F93FD
:1044440080917E798F9380917D798F9380917C790F
:104454008F93809183798F93809182798F938091C8
:1044640081798F93809180798F9384E494E89F93EA
:104474008F93CE0101967C019F938F930E944D3EB2
:1044840002E0970140E050E06EE674E889E794E8C2
:104494000E94462581E08093047A80918F798F93DE
:1044A40080918E798F9380918D798F9380918C797F
:1044B4008F9381E894E89F938F93FF92EF920E94E9
:1044C4004D3ECDBFDEBF970140E050E067E874E8A1
:1044D40089E794E80E94462546C0923379F4109205
:1044E400047A1092037A1092907910929179109232
:1044F4009279109293791092027A35C0933321F411
:1045040081E08093037A2FC0973319F41092037AD1
:104514002AC0943371F4CF010E94223B60939879AE
:104524007093997980939A7990939B790E94AF2D97
:104534001AC0953359F4CF010E94503BBC0183E566
:1045440099E70E94923F0E94AF2D0DC0963359F413
:10455400CF010E94223B6093947970939579809364
:10456400967990939779CC59DF4FCDBFDEBFDF9119
:0A457400CF910F91FF90EF90089592
:10457E00AF92BF92CF92DF92EF92FF920F931F9363
:10458E00CF93DF935C01EA017901FB0100E010E0BB
:10459E0030E040E090E02BC08E3211F44F5F8F017F
:1045AE00983018F58032E1F08F32D1F08C35C1F0B1
:1045BE008E32B1F08032A0F02FE9280F2A3110F49C
:1045CE00805207C02FEB280F2A3118F421E0D701B3
:1045DE002C936E01C90ED11CD6018C939F5F05C022
:1045EE008E3219F081E0D7018C933F5F3196808136
:1045FE00882311F03F3F81F6F501318F011511052A
:10460E0039F09801261B370B283031050CF4922F08
:10461E00423018F081E0D7018C93423038F4983054
:10462E0039F481E0F701808331E00AC030E008C040
:10463E0030E006C0FE01E90FF11D80E280839F5F2E
:10464E009B30C0F380E018C00F5F1F4F833098F48B
:10465E00D8019C91903221F491E0F70190830CC027
:10466E002FE9290F2A3108F49052E82FF0E03896FE
:10467E00EC0FFD1F90838F5FD8019C91992311F051
:10468E004111E2CF853018F081E0F70180833111BE
:10469E0044C041E0BE01C5010E94621F4FC01A30E6
:1046AE0019F4EA9402E004C0143611F4EA9403E01B
:1046BE008EE7FE01EE0DF11D8083812F18C0E02FD5
:1046CE00F0E0EE0DF11DEC0FFD1F9DEC899F912D7D
:1046DE001124969596959695392F330F232F220FE9
:1046EE00220F230F821B805D80830150892F0111C1
:1046FE00E6CF87E0082F0E19D5014D915D916D9192
:10470E007C91C5010E94133941E0BE01C5010E9492
:10471E00621F823061F01F5F07C080E001E010E091
:10472E000F2EF6E0EF2EF02D1F3F09F0B8CF1F3FF2
:10473E0021F0E11003C087E001C087E0DF91CF9147
:10474E001F910F91FF90EF90DF90CF90BF90AF90A1
:02475E000895BC
:10476000CF92DF92EF92FF920F931F93CF93DF933D
:10477000CDB7DEB7E297CDBFDEBF81E090E0A0E02D
:10478000B0E08093887990938979A0938A79B093E7
:104790008B79E12CF12C9CC0FF92EF9280E394E89E
:1047A0009F938F93CE0101966C019F938F930E94EC
:1047B0004D3E05E020E030E040E050E0B60180E012
:1047C00090E00E9446250F900F900F900F900F9051
:1047D0000F908091057A8823E1F380912E438137F1
:1047E00009F05EC08EE293E40E94223B009188793A
:1047F0001091897920918A7930918B790330110554
:104800002105310551F158F401301105210531051B
:1048100091F00230110521053105B1F041C005309C
:1048200011052105310559F108F106301105210561
:10483000310571F135C060938479709385798093E7
:104840008679909387792CC0609380797093817971
:10485000809382799093837923C060937C7970935D
:104860007D7980937E7990937F791AC0609378796F
:104870007093797980937A7990937B7911C0609362
:10488000747970937579809376799093777908C06D
:104890006093707970937179809372799093737942
:1048A0001092057A8091887990918979A0918A797E
:1048B000B0918B790196A11DB11D80938879909359
:1048C0008979A0938A79B0938B799FEFE91AF90AD5
:1048D00086E0E816F1040CF45FCF1092887910920C
:1048E000897910928A7910928B79E296CDBFDEBFDA
:1048F000DF91CF911F910F91FF90EF90DF90CF90BC
:02490000089518
:104902004F925F926F927F928F929F92AF92BF92DD
:10491200CF92DF92EF92FF920F931F93CF93DF9389
:10492200CDB7DEB72A97CDBFDEBF89879A874A0106
:104932005B01FC0184819581A681B781841795076B
:10494200A607B70708F48DC003EE18E7D8015896FA
:10495200ED90FC905997970140E050E0C501B401F9
:104962000E94053C2D833E834F83588729833A83D7
:104972004B835C83ED81FE81EE9EC001EF9E900D24
:10498200FE9E900D11249401281B390BA985BA852E
:104992005E962D933C935F97F80140A4512C612CB5
:1049A200712C69817A818B819C81A30192010E9481
:1049B200053C622F732F842F952FC22ED32EE42E07
:1049C200F52EC114D104E104F10481F0A301920196
:1049D2000E94703E2D813E814F815885261B370BE8
:1049E200480B590B29833A834B835C83240135019D
:1049F20049855A85FA0180859185A285B385848788
:104A02009587A687B7871AC0A985BA851C968D9007
:104A12009D90AD90BC901F97CD010E942A36E985EA
:104A2200FA8586A1882329F084869586A686B7868C
:104A32000AC0B1E0CB1AD108E108F108C114D104CF
:104A4200E104F10409F781E0E985FA8585A329816A
:104A52003A81248F358F408251826282738216A2FC
:104A620011A22A96CDBFDEBFDF91CF911F910F9188
:104A7200FF90EF90DF90CF90BF90AF909F908F907C
:0A4A82007F906F905F904F900895B1
:104A8C00DF92EF92FF920F931F93CF93DF93CDB7EB
:104A9C00DEB7C659D109CDBFDEBFE82ED92E162FF1
:104AAC00F72E822F932F0130D9F41F928FEF8F9313
:104ABC001F928F931F928F935F934F937F936F935C
:104ACC00DF92EF928AED93E89F938F93CE0101963C
:104ADC009F938F930E944D3EAC01CDBFDEBF70C043
:104AEC000230D9F41F924FEF4F931F924F931F92A6
:104AFC004F933F932F937F936F93DF92EF928DEEB3
:104B0C0093E89F938F93CE0101969F938F930E946E
:104B1C004D3EAC01CDBFDEBF53C00330E9F40E9463
:104B2C009E371F922FEF2F931F922F931F922F932D
:104B3C009F938F93FF921F93DF92EF9282E094E802
:104B4C009F938F93CE0101969F938F930E944D3E1E
:104B5C00AC01CDBFDEBF34C00430B9F41F928FEF6F
:104B6C008F931F928F931F928F93DF92EF9285E119
:104B7C0094E89F938F93CE0101969F938F930E94FD
:104B8C004D3EAC01CDBFDEBF1BC00530B9F41F924A
:104B9C008FEF8F931F928F931F928F937F936F93AF
:104BAC0083E294E89F938F93CE0101969F938F930A
:104BBC000E944D3EAC01CDBFDEBF02C040E050E0D4
:104BCC0020E030E00FC09091240895FFFCCFE1E08D
:104BDC00F0E0EC0FFD1FE20FF31F90819093220881
:104BEC002F5F3F4F2417350774F3CA56DF4FCDBFE5
:104BFC00DEBFDF91CF911F910F91FF90EF90DF906F
:024C0C00089509
:104C0E00ADE0B0E0EDE0F6E20C944A3D89879A877C
:104C1E006B837C83FA01DB011296CD90DC901397A7
:104C2E0014968D919C9115978D839E83ED90FC909B
:104C3E001197E982FA8216960D90BC91A02DAF8342
:104C4E00B887208031804280538064807580868052
:104C5E0097808101B42DF52DE62D7B868C869D8661
:104C6E009101A201B301C401A0E00E94233F4CF4C4
:104C7E000E94803E8901B42FF52FE62F7B878C870B
:104C8E009D87D7FC04C0E894E1F8E982FA8291018D
:104C9E00A201B301C401A0E0ED80FE800E94233F7B
:104CAE001CF0898182FF04C081E0E81AF10805C07A
:104CBE0083FF03C091E0E91AF108CE0101965C0171
:104CCE008AE0C82ED12C2B2F3F2F4E2F5B856C8563
:104CDE007D858B819C810E94DF28FC019101A201C0
:104CEE00B301C401A0E00E94233F1CF0898182FF22
:104CFE0012C031970F8118850E0F1F1F9101A2014F
:104D0E00B301C401A0E00E94233F14F08BE201C066
:104D1E008DE2D80108C083FF07C03197AF81B885F7
:104D2E00AE0FBF1F80E28C9309811A81AB81BC81CB
:104D3E0018964D915C911997415051094E1B5F0B7E
:104D4E006F8178856E0F7F1F2D813E8189859A85B3
:104D5E000E94D6339C01E985FA858081918190FF6E
:104D6E0009C0AB81BC8112968D919C9113978217CD
:0E4D7E0093070CF4C9012D96E2E10C94633DFD
:104D8C000F931F93CF93DF93FC01D9016838710502
:104D9C0031F194F461387105B1F12CF4603871057E
:104DAC0009F478C09FC06238710509F459C06438A1
:104DBC00710509F46FC096C0603A710509F448C0DA
:104DCC002CF46039710509F44BC08CC0603C710542
:104DDC0009F476C0603F710509F472C083C0CD91AF
:104DEC00DC911197CE0102968D939C93452B39F053
:104DFC009881892F880F880B908381835BC0888171
:104E0C008083118268C0CD91DC911197CE010496FC
:104E1C008D939C93452B99F088819981AA81BB81B4
:104E2C00AC01BD01770F440B542FBA0180839183E1
:104E3C00A283B383448345834683478328C0088178
:104E4C0019812A813B81008311832283338345C0DE
:104E5C00CD91DC911197CE0102968D939C9323C03A
:104E6C00CD91DC911197CE0108968D939C9378810E
:104E7C0069815A814B813C812D819E818F81708308
:104E8C00618352834383348325839683878381E0B4
:104E9C0090E02AC0CD91DC911197CE0102968D93B2
:104EAC009C93452BA1F099812881892F880F880B21
:104EBC002083918382838383848385838683E6CF57
:104ECC00CD91DC911197CE0102968D939C93088124
:104EDC001981008311831282138214821582168227
:104EEC001782D5CF80E090E0DF91CF911F910F9189
:024EFC00089517
:104EFE003F924F925F926F927F928F929F92AF925C
:104F0E00BF92CF92DF92EF92FF920F931F93CF93A8
:104F1E00DF93382EC091FB78D091FC78C12CD12C28
:104F2E00760100E010E0812C912C5401412C512C83
:104F3E0032015FC06091037970910479600F711F27
:104F4E0080E090E041E050E40E94CE2C811167C0D9
:104F5E0080E090E048C020910A792230A9F4FC014B
:104F6E00EF5FFF4BC080FC01EE5FFF4BD080FC017A
:104F7E00ED5FFF4BE080FC013396EF5FFF4B049635
:104F8E00F0802FE0F2220CC0213051F4FC01EF5FD3
:104F9E00FF4BC080FC013196EF5FFF4B0296D08035
:104FAE00C114D104E104F10441F42FEF421A520A64
:104FBE00620A720A23E03216B9F12FEF821A920AB0
:104FCE00A20AB20A4091F7785091F8786091F97878
:104FDE007091FA784E5F5F4F6F4F7F4F48155905AE
:104FEE006A057B0520F08C179D0708F4B4CF0F5F80
:104FFE001F4FC801A0E0B0E04091EF785091F078DB
:10500E006091F1787091F27884179507A607B7072B
:10501E0008F490CF642D752D862D972D09C060E074
:10502E0070E080E090E004C0682D792D8A2D9B2DD4
:10503E00DF91CF911F910F91FF90EF90DF90CF9066
:10504E00BF90AF909F908F907F906F905F904F909A
:04505E003F900895E2
:105062001F93CF93DF93CDB7DEB72597CDBFDEBFBA
:105072000E94FC3C8FE697E10197F1F700C0000027
:105082000E94F33E10E004C08FEF0E94F03F1F5FCA
:105092001A30D0F310E018C00E94E73E24E940E045
:1050A20050E0BA0180E00E94C03B0E940B3F89831E
:1050B2000E94F33E1F5F1B3038F0E0E0F4E0848191
:1050C2008860848311E072C08981813029F70E944F
:1050D200E73E26E84AEA51E060E070E088E00E949C
:1050E200C03BCE0101960E94933D0E94F33E89810E
:1050F200813009F042C0E0E4F9E08081897F808359
:10510200E1E4F9E08081806180838C81813009F063
:1051120042C08D818A3A09F040C00E94E73E20E0F9
:1051220040E050E0BA018AE30E94C03BCE01019602
:105132000E94933D0E94F33E0E94AD36182F8111CA
:105142002EC00E94E73E20E040E050E0BA018AE330
:105152000E94C03BCE0101960E94933D0E94F33E05
:105162008A818823F4F486FF04C083E08093FE7969
:105172001DC082E08093FE7919C08530A1F481E0E0
:105182008093FE790E94AD36182F82FD0EC08823CF
:1051920069F011E00BC014E009C013E007C011E090
:1051A20005C015E003C012E001C016E0812F25966C
:0C51B200CDBFDEBFDF91CF911F910895AB
:1051BE00A2E1B0E0E5EEF8E20C944A3DFC010A8B68
:1051CE001B832C83732E642E552E462E7D83CC8608
:1051DE00D886AE82BF82868197818A879B87D501CA
:1051EE004D915C91228133818085918501971C01BF
:1051FE0037FF02C021E030E0EA85FB85E80FF91F9A
:10520E0010824701E1E0F0E0E983FA83C9018E19CB
:10521E009F098D879E87DA01A270BB27AF87B88B57
:10522E00B885BB0FBB0BB98B1214130474F0A98194
:10523E00BA81AB2B09F05CC0AE81BF818D919C9180
:10524E0011978F7E8D939C9353C02A893B814C81FD
:10525E00572D662D752D842D9D81A0E00E94233F34
:10526E00B1F1E1E02E1A3108FC85F987AF2EB88432
:10527E00C988DC2CEC2CFC2C0C2D1C2D2A893B8196
:10528E004C81572D662D752D842D9D810E94BD3E1E
:10529E00C90129839A83EA85FB85E20DF31D805DA2
:1052AE00808381E0881A91082A893B814C81572D91
:1052BE00662D752D842D9D810E94BF3E2A8B3B83CA
:1052CE004C83752E662E572E482E9D83ADCF8D8521
:1052DE009E85880D991D181619061CF218141904AE
:1052EE000CF0A5CFEF85F889EF2B09F0BACF9FCF41
:0A52FE00C1016296E2E10C94633DE9
:10530800A5E1B0E0EAE8F9E20C944A3D470158010A
:105318000E94DD402B013C01A80197010E94AA3F91
:10532800162FC72ED82EF92E862F9C2DAD2DBF2DCA
:1053380089839A83AB83BC83AA81FB81EC81ED804E
:105348003E802F8008850D8B5E2F5F71212F3A2FAD
:105358004F2F60E070E080E090E0211531054105B5
:1053680000E15007610571058105910509F05EC0EE
:105378005E2F6E2D732D822D9D8904E30E94893C3A
:105388002D873E874F87588B698B7A8B8B8B9C8BAD
:105398008D859E8597708F3F974009F447C0A3017C
:1053A8009201612F7C2D8D2D9F2D0E94A93F9B017D
:1053B800AC01C501B4010E94C7408823B9F14986F0
:1053C8005A866B867C8629853A854B855C85C5011E
:1053D800B4010E94AA3FB62E872E982EA92E262FFA
:1053E800372F482F592F612F7C2D8D2D9F2D0E94EF
:1053F800C740811118C02B2D8B2D982DA92DBA2DA2
:1054080089839A83AB83BC833A814B815C816E2DFF
:10541800732D822D9D89A1E00E942F3F122FC32E4C
:10542800D42EF52E03C01B2D6401FA2C612F7C2D80
:0C5438008D2D9F2D6596E2E10C94633DE4
:105444004F925F926F927F928F929F92AF92BF9290
:10545400CF92DF92EF92FF92CF93DF93CDB7DEB777
:105464002897CDBFDEBF6B017C01DC01CB0147E196
:10547400B695A795979587954A95D1F799278F570C
:105484009109873191059CF597FD36C088248A944B
:10549400982C3FE7A32EB12C04C0B594A7949794FD
:1054A40087948A95D2F7D501C4018C219D21AE2120
:1054B400BF21892B8A2B8B2BD1F020E030E040E8F0
:1054C4005BE7C701B6010E94AA3F6D837E838F8389
:1054D4009887F7FC04C0C80CD91CEA1CFB1C8094F8
:1054E4009094A094B094C820D920EA20FB205C2D8D
:1054F4004D2D3E2D2F2D21C020E030E040E85BE70C
:10550400C701B6010E94AA3F69837A838B839C8377
:10551400F7FC0FC0D701C601880F991FAA1FBB1F34
:10552400892B8A2B8B2B19F350E040E030E82FE3D2
:1055340004C050E040E030E020E8652F742F832F52
:10554400922F2896CDBFDEBFDF91CF91FF90EF90D1
:10555400DF90CF90BF90AF909F908F907F906F908F
:065564005F904F900895D6
:10556A004F925F926F927F928F929F92AF92BF9269
:10557A00CF92DF92EF92FF92CF93DF93CDB7DEB750
:10558A002897CDBFDEBF6B017C01DC01CB0147E16F
:10559A00B695A795979587954A95D1F799278F57E5
:1055AA009109873191059CF597FD36C088248A9424
:1055BA00982C3FE7A32EB12C04C0B594A7949794D6
:1055CA0087948A95D2F7D501C4018C219D21AE21F9
:1055DA00BF21892B8A2B8B2BD1F020E030E040E8C9
:1055EA005BE7C701B6010E94AA3F6D837E838F8362
:1055FA009887F7FE04C0C80CD91CEA1CFB1C8094CF
:10560A009094A094B094C820D920EA20FB205C2D65
:10561A004D2D3E2D2F2D21C020E030E040E85BE7E4
:10562A00C701B6010E94AA3F69837A838B839C8350
:10563A00F7FE0FC0D701C601880F991FAA1FBB1F0B
:10564A00892B8A2B8B2B19F350E040E030E82FEBA3
:10565A0004C050E040E030E020E0652F742F832F33
:10566A00922F2896CDBFDEBFDF91CF91FF90EF90AA
:10567A00DF90CF90BF90AF909F908F907F906F9068
:06568A005F904F900895AF
:105690001F920F920FB60F9211240BB60F922F93F9
:1056A0003F934F935F936F937F938F939F93AF93AA
:1056B000BF93CF93DF93EF93FF93909120089923AB
:1056C00081F08091067A81110CC01092077A81E0F6
:1056D0008093067A82E3E8E9F2E4DF011D928A957D
:1056E000E9F78091067A882309F44BC0E091077AA4
:1056F00081E08E0F8093077AF0E0E856FD4B9083AF
:105700008330A0F190E0FC01E956FD4B20812F3F52
:1057100069F5FC01EA56FD4B20812F3F39F5FC016C
:10572000EB56FD4B80818F3F09F5C0E2D8E08E81BA
:105730008F778E838D818F778D8382E3EEE2F3E422
:10574000DF011D928A95E9F768E972E4CF010E94B2
:10575000923F1092067A1092077A81E08093057A40
:105760008E8180688E838D8180688D838091077A99
:10577000823338F01092077A1092067A81E0809393
:10578000057AFF91EF91DF91CF91BF91AF919F91FA
:105790008F917F916F915F914F913F912F910F90DA
:0C57A0000BBE0F900FBE0F901F901895CD
:1057AC00BF92CF92DF92EF92FF920F931F93CF9302
:1057BC00DF936B017C018A018091FE79813049F481
:1057CC000B2EB9E0CC0CDD1CEE1CFF1CBA95D1F7EE
:1057DC00B02D8FEF809300400E94E73E20E0B70190
:1057EC00A60188E10E94C03B0E940B3FB82E81119C
:1057FC004EC08EEF0E94F03FC0E0D0E007C0F80131
:10580C00EC0FFD1F80810E94F03F2196C11582E0B4
:10581C00D807A8F3C12CD12C760106C00E94FF3EFC
:10582C00B82E8FEFB81211C08FEFC81AD80AE80A39
:10583C00F80AC701B6010E94EB3620E03BE147EBCA
:10584C0058E40E94C74088234CF38B2D8F71853010
:10585C00F1F480930040C12CD12C760114C08FEF51
:10586C00C81AD80AE80AF80AC701B6010E94EB3632
:10587C0020E03BE147EB58E40E94CC4018161CF4A6
:10588C001092004004C00E94FF3E882341F30E9406
:10589C00F33E8B2DDF91CF911F910F91FF90EF90E5
:0858AC00DF90CF90BF9008953A
:1058B400CF92DF92EF92FF920F931F93CF93DF93D8
:1058C4008617970709F45FC06B018C010E94753934
:1058D400C6010E947539C8010E94053AC6010E949A
:1058E400053A802F0E94953A24E1209F7001219F60
:1058F400F00C1124EC0CFD1C970122953295307F9D
:105904003227207F3227E901CD5AD24A88839983EE
:105914008C2D0E94953A88879987C8010E94D539B1
:10592400C6010E94053A802F0E94953A8C839D837C
:105934008C2D0E94953A8C879D87C8010E94053A58
:10594400C6010E94D539802F0E94953A8A839B8391
:105954008C2D0E94953A8A879B87C8010E94D5396D
:10596400C6010E94D539802F0E94953A8E839F8369
:105974008C2D0E94953A8E879F87C8010E94A53975
:10598400C6010E94A539DF91CF911F910F91FF901D
:08599400EF90DF90CF90089521
:10599C00AF92BF92CF92DF92EF92FF920F931F9331
:1059AC00CF93DF936B017C01EA018091FE7981300A
:1059BC0049F40B2EB9E0CC0CDD1CEE1CFF1CBA9587
:1059CC00D1F7B02D8FEF809300400E94E73E20E08E
:1059DC00B701A60181E10E94C03B0E940B3FA82E9B
:1059EC008FEFA81208C038C00E94FF3EB82E8FEF70
:1059FC00B81629F015C0C12CD12C7601B12C8FEF23
:105A0C00C81AD80AE80AF80AC701B6010E94EB3690
:105A1C0020E03CE742E158E40E94C7408111E4CF0A
:105A2C008EEFB81217C00BC07E018FEFE81AF80A80
:105A3C000E94FF3E88830F5F1F4FE70102C000E00A
:105A4C0010E0011582E0180778F318820E94FF3EDF
:105A5C000E94FF3EB09200400E94F33E8A2DDF91DF
:105A6C00CF911F910F91FF90EF90DF90CF90BF904F
:045A7C00AF9008954A
:105A800010C00E94BE3F58F00E94B73F40F029F47A
