:100000000C94EF000C9474340C9474340C94743489
:100010000C9474340C9474340C9474340C947434C0
:100020000C94D52E0C9474340C9474340C94743455
:100030000C9474340C9474340C9474340C947434A0
:100040000C9474340C9474340C9474340C94743490
:100050000C9474340C9474340C9474340C94743480
:100060000C94DB250C9474340C94A52E0C94752EF2
:100070000C9474340C9474340C94FB270C947434E6
:100080000C9499200C9474340C9474340C945D2A60
:100090000C9474340C9474340C9474340C94743440
:1000A0000C9474340C9474340C9474340C94743430
:1000B0000C9474340C94A9270C943B260C9474343F
:1000C0000C9474340C9474340C9474340C94743410
:1000D0000C9474340C9474340C9474340C94743400
:1000E0000C9474340C9474340C9474340C94F92679
:1000F0000C9474340C9474340C9474340C947434E0
:100100000C9474348E2C922C962C962C962C962C27
:10011000962C962C962C962CA42CA42CA42CA42C97
:10012000A42CA42CB02CB02CB02CB02CBD2DC12DE7
:10013000C12DC12DC12DC12DC12DCD2DCD2DCD2D2B
:10014000CD2DCD2DCD2DD92DD92DD92DD92DD92DA3
:10015000D92DD92DED2DF12DF12DF12DF12DF12DE3
:10016000F12DFD2DFD2DFD2DFD2DFD2DFD2D092E3E
:10017000092E092E092E092E092E092E1D2E212E9B
:10018000212E212E212E212E212E2D2E2D2E2D2ED3
:100190002D2E2D2E2D2E392E392E392E392E392E4B
:1001A000392E392E4D2E512E512E512E512E512E8B
:1001B000512E5D2E5D2E5D2E5D2E5D2E5D2E692EE7
:1001C000692E692E692E692E692E692E40005E18EF
:1001D000805E185E5F00694A5E5F5EBE800080914F
:1001E00001108F7C8060806898ED94BF809301102F
:1001F00011241FBECFEFCDBFDFE7DEBFECECF1E097
:1002000041E019C0B791A79137912791079107FD58
:100210000EC097918791EF01F92FE82F0BBF079040
:100220000D92A217B307D9F7FE011BBE04C01D92A1
:10023000A217B307E1F7ED3DF40721F70E94E71895
:080240000C94DA32F894FFCFB0
:100248004C6F677320466F6C646572006C6F675FF4
:10025800312E63737600546573742031002C00507E
:10026800696E73202825642E2564292050696E2024
:10027800256320766F6C746167652C20000A004244
:100288006F7468204C6F7720546573742C00252E8A
:1002980032662C0050696E204120686967682F50CB
:1002A800696E2042206C6F772C0050696E204120C7
:1002B8006C6F772F50696E204220686967682C0040
:1002C800426F7468204869676820546573742C000D
:1002D80025752C005800743500686F6D6500530053
:1002E8007436004F4B79006661756C745F64657491
:0602F800656374656400FB
:1002FE006765742025732E25732E2573256325635C
:10030E0025630025732E25732E7478743D22257374
:10031E00222563256325630025732E25732E7661B2
:10032E006C3D256425632563256300706167652038
:10033E002573256325632563006765742025732562
:10034E00632563256300256C750066756E633A2020
:0A035E00256C7500727463256400BD
:05036800002D002E0035
:10036E002F923F924F925F926F927F928F929F92B7
:10037E00AF92BF92CF92DF92EF92FF920F931F93A5
:10038E00CF93DF93CDB7DEB7A197CDBFDEBF7C0194
:10039E006A8B7B8BD42E1C86198A1091145EDC011D
:1003AE005A968C9181110DC08091FF5D9091005EE7
:1003BE00A091015EB091025EF70180839183A283CA
:1003CE00B38340E050E0BA01C7010E94532D6A8901
:1003DE007B8940E0C7010E94A615823009F044C314
:1003EE0080E007C03196EA8BFB8B8F5F883F08F069
:1003FE003DC3EA89FB8990819111F4CFD7011C96F8
:10040E006D907C901D976A8A7B8A09C08F3209F4A1
:10041E002FC38C3509F42EC33196EA8BFB8BEA89F8
:10042E00FB8980818111F2CF6A8A7B8AF701408134
:10043E00518162817381C7010E94532D6A897B8924
:10044E009E012F5E3F4FAE014F5F5F4FC7010E946F
:10045E00F617823009F010C3D70150961D921C92E8
:10046E00519759968C91882309F408C30FE4809F05
:10047E00012D1124069506959989992361F0402F37
:10048E0050E06DE070E090E00E94E5328E8F8823A0
:10049E0019F00F5F01C01E8EB1E0B00FB98F00646E
:1004AE000F8FCE0101960E948E3188A3F7014081F5
:1004BE00518162817381C7010E94532D00E0C12CCE
:1004CE00A12CB12C212C312C2101812C912C1C8A98
:1004DE001D8A1E8A1F8A088F6A8E7B8E7C2C098D40
:1004EE00D9A2C12CD12C42C0FFEFAF1ABF0AFC011A
:1004FE00EE0FFF1FE295F295F07FFE27E07FFE27BD
:10050E00EF5FFF4B2081222311F0253EE1F473941F
:10051E00211431044104510499F4D70118962D90F9
:10052E003D904D905C901B9750968D909C9051975E
:10053E00B1E08B1A9108F701C480D5808E8B9F8B0A
:10054E00071105C00EC0712C212C312C21010196F2
:10055E0002C080E090E0212F30E08217930720F256
:10056E0002C0F1E0F88F288D211105C0C7010E944D
:10057E007725882371F3CC8ADD8AC72C6A8C7B8C15
:10058E00D9A0398DC31609F43FC0F701808191813E
:10059E00A281B3810297A105B105B0F1AB20A09461
:1005AE0099F183E00E94B61C9B01AC016D877E879A
:1005BE008F87988B623071058105910508F460C2B2
:1005CE00D7016D917D918D919C9106E00E947414DE
:1005DE00662309F457C22091F75D3091F85D409182
:1005EE00F95D5091FA5D6D857E858F8598890E94A3
:1005FE007414662309F448C26D857E858F859889AB
:10060E0040E00E949F2BC98CB98DCB123FC2EC8962
:10061E00FD89CF01A0E0B0E0F70184839583A68326
:10062E00B7832086318642865386808A918AB4E0CB
:10063E00DB1225C04091F75D5091F85D6091F95D38
:10064E007091FA5DCE010D960E94F028811120C2A4
:10065E006D857E858F85988940E00E949F2B6D85E4
:10066E007E858F8598890E94332F6A8F7B8F8C8F22
:10067E009D8F672B682B692B09F40CC208C01D8651
:10068E001E861F86188A1A8E1B8E1C8E1D8EC70103
:10069E000E947725811100C2812C1C8A188E312C64
:1006AE00212C4E885F88BE8C982EA12EDE8A35C1F5
:1006BE008A2D90E04816590639F4C7010E94772515
:1006CE008111ECC1412C512C8201000F111F02959A
:1006DE001295107F1027007F102740E060E270E037
:1006EE00C8010E943232D988DD2009F476C0E1E0DB
:1006FE00EC1508F072C06A8A7B8AF801EF5FFF4B37
:10070E002F8D20833EEF3C0D3F8FD70159964C9194
:10071E004E3098F0B98D2B2F30E02C19310953EF54
:10072E005203C001539F900D1124840F911D8B19FC
:10073E009109860D971D8A8B9B8B22E0AE014E5E32
:10074E005F4F6AE070E0C80101960E94222D22E000
:10075E00AE014E5E5F4F6CE070E0C8010E960E94D7
:10076E00222D22E0AE014E5E5F4F64E070E0C801C4
:10077E004C960E94222DBB2029F1811023C0E4E06B
:10078E00EB1520F08B2C880C839411C0FAE0FB152E
:10079E0030F08B2D90E00296882E880C08C02CE04D
:1007AE002B1528F08B2D90E00396882E880CC8010F
:1007BE00880D911DFC01EF5FFF4B1082FC01EE5F77
:1007CE00FF4B1082F801E45FFF4B8FE08083F8014E
:1007DE00E25FFF4B18A1108373C021E0C21270C0FC
:1007EE003E89343031F480E1F801E45FFF4B8083C1
:1007FE0005C080E2F801E45FFF4B80830E947634EF
:10080E00F8013D96EF5FFF4B80830E946834382ECF
:10081E00292EF801E15FFF4B8083F801E05FFF4B6B
:10082E009083F801E95EFF4B8083F801E85EFF4B91
:10083E0090830E946B348C8B988FF801EF5EFF4B88
:10084E008083F801EE5EFF4B9083F801E75EFF4B6D
:10085E008083F801E65EFF4B90833D852E859F8554
:10086E008889F801E55EFF4B3083F801E45EFF4BAB
:10087E0020832091165E223041F4F801EB5EFF4B8F
:10088E009083F801EA5EFF4B8083D11005C088E1AA
:10089E00F801E35FFF4B808340E010C0A42FB0E06F
:1008AE00FD01E00FF11F81E090E08C0F9D1FA80F5E
:1008BE00B91F8C91EF5FFF4B80834F5F4B3070F30E
:1008CE008A2D90E001974816590619F091E0C91249
:1008DE0020C0D70118964D915D916D917C911B971B
:1008EE0050968D919C9151978A019B01080F191F6B
:1008FE00211D311DC901B80161507109810991098C
:10090E0041E050E40E94272180910040853009F09B
:10091E00C7C0CA941FEF411A510AC110C9CE092D82
:10092E00DE8824E0D212BDC00F2EFFEEAF2EFDE505
:10093E00BF2EF02DD50158966D917C91599740E0C0
:10094E0080E090E00E9432320F2EF1E0CF2EF0E4E4
:10095E00DF2EF02D8EE2F601808340E26AE070E039
:10096E0081E090E00E94323280E1D6011B968C939A
:10097E001B97832C56963C925697922C57962C92F8
:10098E0057971C8958961C935897388C59963C92B9
:10099E0059973D852E859F8588895A963C935A97FF
:1009AE005B962C93D50197962C91223019F4F60173
:1009BE00948B858B0F2EF1E0CF2EF0E4DF2EF02DF1
:1009CE008EE2F60180A381A340E269E070E082E24C
:1009DE0090E00E94323280E1D6019B968C939B97D9
:1009EE00D6968C92D697D7969C92D797D8961C93DC
:1009FE00D897D9963C928091165E8230F9F4F70121
:100A0E0040815181628173818091FF5D9091005E82
:100A1E00A091015EB091025E481759076A077B07E5
:100A2E0021F41082118212821382F7018281E1E099
:100A3E00F0E484ABD70113968C9185ABF7018081DE
:100A4E00E1E0F0E482AFD70111968C9183AFAF0154
:100A5E006A8D7B8D8C8D9D8D0E942721809100400B
:100A6E008530F9F00CE01DC005E01BC008E019C090
:100A7E0003E017C003E015C005E013C007E011C086
:100A8E0004E00FC00CE00DC00CE00BC007E009C085
:100A9E00082F07C007E005C00CE003C00CE001C042
:100AAE000CE0802FA196CDBFDEBFDF91CF911F91BD
:100ABE000F91FF90EF90DF90CF90BF90AF909F90EF
:100ACE008F907F906F905F904F903F902F900895F2
:100ADE00AAE9B0E0E5E7F5E00C94EC306C017A01A0
:100AEE00C756DF4F68837983C959D040A12CB12CEA
:100AFE0066246A94762C90E8492E512C25E2222EFB
:100B0E00C756DF4F68817981C959D040FB0180817A
:100B1E00882309F471C3CF57DF4F18821982C15849
:100B2E00D040CD57DF4F68827982C358D040CB5723
:100B3E00DF4F18821982C558D04081E090E08C0FAB
:100B4E009D1FC957DF4F88839983C758D040C75719
:100B5E00DF4F48825982C958D040FB0100E010E0B7
:100B6E008191811116C001151105C1F0A801C601B0
:100B7E000E949B30C756DF4F88819981C959D0405A
:100B8E00800F911FC756DF4F88839983C959D04074
:100B9E0005C0853241F30F5F1F4FE2CFC756DF4FBF
:100BAE00E881F981C959D0408081853209F012C39C
:100BBE004F019FEF891A990AC756DF4F8882998293
:100BCE00C959D040C756DF4F88819981C959D04045
:100BDE00DC012C912B3241F4CF57DF4F2881398124
:100BEE00C158D04024600BC02C32BCF02D3249F5D8
:100BFE00CF57DF4F28813981C158D0402160CF5760
:100C0E00DF4F28833983C158D0400196C756DF4F36
:100C1E0088839983C959D040D5CF203241F4CF571C
:100C2E00DF4F28813981C158D0402860E8CF233268
:100C3E0091F4CF57DF4F28813981C158D0402061C0
:100C4E00DECF203341F4CF57DF4F28813981C15891
:100C5E00D0402260D4CF2A3289F50196C756DF4F95
:100C6E0088839983C959D040D701ED91FC91119792
:100C7E00CF0102968D939C9380819181CB57DF4F4C
:100C8E0088839983C558D04097FF35C0CF57DF4F23
:100C9E0028813981C158D040B1E02B27CF57DF4F83
:100CAE0028833983C158D040919581959109CB57AE
:100CBE00DF4F88839983C558D0401DC00E94152CE4
:100CCE00CB57DF4F88839983C558D040C756DF4F27
:100CDE00E881F981C959D0408081082E000C990B0A
:100CEE00C0970A9740F43196C756DF4FE883F983D1
:100CFE00C959D040EBCFCF57DF4F88819981C1586A
:100D0E00D04080FF07C08D7FCF57DF4F88839983F8
:100D1E00C158D040C756DF4FE881F981C959D0403C
:100D2E0080818E3209F046C0CD57DF4F188219826E
:100D3E00C358D040CF010196C756DF4F88839983A1
:100D4E00C959D04021812A32C1F43296C756DF4F9D
:100D5E00E883F983C959D040D701ED91FC911197E1
:100D6E00CF0102968D939C9380819181CD57DF4F59
:100D7E0088839983C358D0401DC00E94152CCD572F
:100D8E00DF4F88839983C358D040C756DF4FE88121
:100D9E00F981C959D0408081082E000C990BC0975B
:100DAE000A9740F43196C756DF4FE883F983C95945
:100DBE00D040EBCFCE0187569F4F0E940330382E86
:100DCE00C756DF4FE881F981C959D0408081082E7E
:100DDE00000C990B0E941A338936910509F456C0FE
:100DEE00B4F48336910509F46BC144F48532910550
:100DFE0009F4A2C18136910529F1B4C18436910559
:100E0E0009F444C0883691050CF436C1ABC1803765
:100E1E00910509F4C4C04CF48E36910509F420C135
:100E2E008F36910509F47AC09DC18537910509F475
:100E3E0051C08837910509F495C08337910509F0A3
:100E4E0091C15DC1632D70E0A701CE0185579F4F03
:100E5E000E942330892B09F4B0C1C756DF4FE881B9
:100E6E00F981C959D040CF010196C756DF4F88830B
:100E7E009983C959D0402081AE0145575F4FBE01BD
:100E8E006F577F4FC6010E94713494C1632D70E07D
:100E9E00970141E050E0CE0185579F4F0E94FD1B08
:100EAE00892B09F48AC1C756DF4F88819981C959A8
:100EBE00D0400196C756DF4F88839983C959D040D9
:100ECE00AE0145575F4FBE016F577F4FC6010E945F
:100EDE003E1B70C1632D70E0970140E050E0CE01E3
:100EEE0085579F4F0E94FD1B892B09F466C1C7567B
:100EFE00DF4F88819981C959D0400196C756DF4F7F
:100F0E0088839983C959D040AE0145575F4FBE01C2
:100F1E006F577F4FC6010E9452274CC1632D70E060
:100F2E00970140E050E0CE0185579F4F0E94FD1B78
:100F3E00892B09F442C1C756DF4F88819981C9595F
:100F4E00D0400196C756DF4F88839983C959D04048
:100F5E00AE0145575F4FBE016F577F4FC6010E94CE
:100F6E00422428C1632D70E0970140E050E0CE018D
:100F7E0085579F4F0E94FD1B892B09F41EC1C75632
:100F8E00DF4FE881F981C959D040CF010196C7568C
:100F9E00DF4F88839983C959D040208157C097016C
:100FAE0040E050E060EF70E0CE0185579F4F0E9409
:100FBE00FD1B892B09F401C1C756DF4F888199812A
:100FCE00C959D0400196C756DF4F88839983C959B6
:100FDE00D04086E0E9E5FEE5DE01AD56BF4F01905B
:100FEE000D928A95E1F7C557DF4F2881CB58D04037
:100FFE00C457DF4F3881CC58D040C357DF4F48819C
:10100E00CD58D040C257DF4F5881CE58D040C1572F
:10101E00DF4F6881CF58D040C057DF4F7881C0591D
:10102E00D040CF56DF4F8881C159D040CE56DF4FCA
:10103E009881C259D040A0E00E94B73231F420E02E
:10104E0030E0AE014D565F4FAFC028E7AE014557B9
:10105E005F4FBE016F577F4FC6010E94FC11AAC0A1
:10106E00632D70E09701A501400F511FCE018557EA
:10107E009F4F0E946C23A1C0632D70E0A701CE018B
:10108E0085579F4F0E942330892B09F496C0C7566F
:10109E00DF4FE881F981C959D040CF010196C7567B
:1010AE00DF4F88839983C959D0402081AE014557BF
:1010BE005F4FBE016F577F4FC6010E9409097AC06C
:1010CE00B0E83B127AC0C756DF4F88819981C95963
:1010DE00D0400196C756DF4F88839983C959D040B7
:1010EE00D701ED91FC911197CF0102968D939C93B0
:1010FE008081C557DF4F8883CB58D04050C0B0E8B1
:10110E003B125BC0C756DF4F88819981C959D040C9
:10111E000196C756DF4F88839983C959D040D701AE
:10112E00ED91FC911197CF0102968D939C93408186
:10113E00518120E030E038C0B0E83B123EC0C756C7
:10114E00DF4F88819981C959D0400196C756DF4F2C
:10115E0088839983C959D040C557DF4F2882CB5811
:10116E00D0401DC0C557DF4F2882CB58D040C75640
:10117E00DF4F88829982C959D040CF57DF4F1882EE
:10118E001982C158D040CB57DF4F18821982C558EB
:10119E00D040CD57DF4F68827982C358D04021E0CE
:1011AE0030E0AE0145575F4FBE016F577F4FC6010E
:1011BE000E94BC2C800F911F0EC0C756DF4F888136
:1011CE009981C959D0400196C756DF4F88839983BC
:1011DE00C959D040C8018501080F191F0A151B05F2
:1011EE004CF48FE490E08093ED439093EE438FEFB9
:1011FE009FEF03C0580184CCC501C656DF4FE2E114
:04120E000C94053106
:10121200A6E2B0E0EFE0F9E00C94EC308E8F9F8F05
:10122200688F798F122FFB010190F081E02DE98701
:10123200FA87FB01C280D380248135812B8B3C8BC2
:101242008085918588A399A326803780FA018080C2
:101252009180A280B38020E030E0A901C501B401F1
:101262000E944E3487FF06C0B7FAB094B7F8B09424
:101272008DE204C0598552FFF0C28BE2F1018083F6
:101282002B893C89215031092F83388741E050E076
:10129200498B5A8B06C08B899C898F839887198AC0
:1012A2001A8AD501C401BF770097E0E8AE07EFE7DD
:1012B200BE07B1F4212F110F330B21543109898953
:1012C2009A89820D931D2A31310518F462E47EE574
:1012D20002C066E47EE50E94123386E49EE5ADC25A
:1012E2000197A048BF47B0F0212F110F330B2154B3
:1012F200310989899A89820D931D2A31310518F4A1
:101302006AE47EE502C06EE47EE50E9412338EE45A
:101312009EE593C220E030E0A901C501B4010E941C
:101322004E341B821C82882309F46CC020E82D8372
:101332003FE33E8319821A8220E030E040E251E42A
:101342006B817C818D819E810E946434F62E072FF1
:101352008D879B87A50194010E94533418166CF067
:1013620049815A814F5F5F4F49835A83FB820C83C5
:101372005D855D838B858E83DFCF1B861C862B81EB
:101382003C814D815E81C501B4010E944E3487FFCC
:101392003FC0E981FA81E43DFE4F04F54B855C854F
:1013A200452BE1F420E030E040E85AE5C501B40104
:1013B2000E9464344B015C0120E030E040E85AE5D1
:1013C2006B817C818D819E810E9464346B837C83DE
:1013D2008D839E8381E090E08B879C8720E030E0C4
:1013E20040E251E46B817C818D819E810E94603458
:1013F2006B837C838D839E83E981FA813197E983B4
:10140200FA83BDCFF0E8FD832FE32E8319821A827F
:10141200412F110F550B4AA35BA3CA010E941A3335
:101422008B8FD7FC03C0CDA2DEA204C086E090E081
:101432008DA39EA39B8D973641F4CD2809F012C24D
:10144200E1E0F0E0EDA3FEA30DC28B8D8D8B06C013
:1014520029813A8137FF19C296E69D8BEDA1FEA143
:101462003196EDA3FEA3FD89F636B9F429813A81BE
:1014720037FF08C01B821C8230E83D834FE34E8356
:1014820019821A825B8D573641F08DA19EA1E981A6
:10149200FA818E0F9F1F8DA39EA3FB81FB872C8158
:1014A2002D873D813E8B4E814A8F750164011C8ED2
:1014B2001D8EEC8DFD8D2DA13EA1E217F307B9F132
:1014C2002B853D854E895A8DC701B6010E94603435
:1014D2000E9406202B013C010E9437336CA3870136
:1014E200760117FB109517F910952B853D854E89CE
:1014F2005A8DC301B2010E94681F6B017C01F7FA89
:10150200F094F7F8F09420E030E040E251E46B858B
:101512007D858E899A8D0E9460346B877D878E8B44
:101522009A8F8C8D9D8D01968C8F9D8FC2CF20E0DE
:1015320030E040EA50E46B857D858E899A8D0E9469
:1015420064342B013C019B01AC01C701B6010E942E
:101552004E3487FD0BC0A3019201C701B6010E9460
:101562004E34811106C03CA130FD03C0412C512CE8
:101572003201A3019201C501B4010E9431334B0132
:101582005C014D89453619F069807A8002C0612C70
:10159200712C23018DA19EA1481A590AC988DA88A3
:1015A20000E010E01B861C86E985FA85E071FF27C2
:1015B200EE8BFF8B6414750431F4EB85FC85EF2B05
:1015C20009F496C0A1C0CC8EDD8EE88DF98D8085A0
:1015D20091850597C816D90680F72B813C814D81EC
:1015E2005E81C501B4010E9460340E9406206D87AD
:1015F2007E878F87988B0E943733CB012E893F8954
:10160200232B69F4892B59F43B8D373641F477FE4D
:1016120006C0A8014F5F5F4F4C8F5D8F3FC08B8527
:101622009C85892BA9F477FE13C09FEFC91AD90AAA
:10163200EC8DFD8DE20DF31D2EE220834F81588546
:10164200415051094F83588781E090E08B879C87F6
:10165200F101EC0DFD1D0C8F1D8F4C8D5D8D452B09
:1016620049F090E391932C8D3D8D215031092C8FBF
:101672003D8FF3CFC8018C0D9D1D2F813885201B16
:10168200310B6C015FEFC51AD50AF101E80FF91FA2
:10169200605D6083C90101978F839887850174011A
:1016A20017FB109517F910952B813C814D815E81B6
:1016B2006D857E858F8598890E94681F4B015C012C
:1016C200B7FAB094B7F8B09420E030E040E251E4C9
:1016D2006B817C818D819E810E9460346B837C83CF
:1016E2008D839E8391E0691A71080C8D1D8D62CFE6
:1016F200F985F4FF09C0F101EC0DFD1D8EE2808336
:1017020096012F5F3F4F6901A1014C0D5D1D4B8773
:101712005C87FA011082FD89F53609F061C0E8A103
:10172200F9A1E20DF31D3197108229813A8137FF29
:1017320008C031952195310929833A8301E010E0EF
:1017420002C000E010E0E8A1F9A13197E20DF31D1B
:1017520022E030E08AE0E82EF12CCF0182199309D1
:1017620049815A81452B91F089819A81B7010E9462
:10177200B631805D829369837A83215031094F812A
:101782005885415051094F835887E7CF12161306E7
:101792005CF3FC013197E20DF31D012B11F42BE2F6
:1017A20001C02DE220830297B101680F791F2AA19F
:1017B2003BA1215431092A31310510F025E601C03F
:1017C20025E4FB0120832F813885225031092F83A4
:1017D2003887C816D90624F48B859C850E9412335B
:1017E200398531FF29C030FD27C04F815885141635
:1017F200150614F5C1010E946D32820D931D9C01E4
:101802002219330949895A89241735074CF0FC01FA
:101812002081EF81F885E80FF91F20830197EFCF30
:101822004F81588560E370E089899A89820D931D02
:101832000E94F8321B8A1C8AC1010E946D320985FE
:101842001A852B893C89AC01B1018E8D9F8D0E9436
:101852004D28A696E2E10C940531598553FF1BCD24
:1018620080E20CCD89819A818C3F9F4F5CF0298167
:101872003A814DA15EA1241735070CF4E9CD55E656
:101882005D8B0BCEF5E6FD8B08CE36E63D8B05CEA5
:101892008F929F92AF92BF92CF92DF92EF92FF927E
:1018A2000F931F93CF93DF93CDB7DEB7C457D10900
:1018B200CDBFDEBF2FEF82E597E021508040904000
:1018C200E1F700C000000E94BD0E8093BD5E811151
:1018D20042C2E5961CAE1DAE1EAE1FAEE597BE011E
:1018E2006F587F4FCE018B599F4F0E94122568E49B
:1018F20072E881ED93E40E9458348093BD5E68E4FF
:1019020072E881ED93E40E94842D8093BD5E811183
:1019120028C064E572E881ED93E40E945C34809310
:10192200BD5E81ED93E40E9461308093615E90938D
:10193200625E00E010E00EC062E373E481ED93E4C6
:101942000E94D0168093BD5E82E393E40E947C33B2
:101952000F5F1F4F8091615E9091625E08171907B9
:1019620058F368E472E881ED93E40E94842D44E523
:1019720052E862E373E481ED93E40E94182A8093B3
:10198200BD5E8111E8C182E393E40E940A336EE5F1
:1019920072E882E393E40E944C3165E672E882E3E6
:1019A20093E40E944C31E12CF12C41C0E016F10687
:1019B20099F11F9281E48F931F930F93FF92EF92FD
:1019C2000F2EF7E6CF2EF2E8DF2EF02DDF92CF9228
:1019D2005E01E3E3AE0EB11CBF92AF920E94DD3115
:1019E2001F9282E48F931F930F93FF92EF92DF92E5
:1019F200CF92CE0101966C019F938F930E94DD31AD
:101A0200B50182E393E40E944C31B60182E393E490
:101A12000E944C31CDBFDEBF0F5F1F4F02C000E0FE
:101A220010E00431110514F2FFEFEF1AFF0A24E16E
:101A3200E216F104A4F365E872E882E393E40E94FB
:101A42004C3167E872E882E393E40E944C31C12C86
:101A5200D12C4DC0CE14DF04E1F184E18C9D8001D4
:101A62008D9D100D11240E0D1F1D02951295107FD4
:101A72001027007F102701511C4BF80181818F93A1
:101A820080818F930F2EF8ED8F2EF2E89F2EF02D8E
:101A92009F928F925E01F3E3AF0EB11CBF92AF92A1
:101AA2000E94DD31B50182E393E40E944C31F801DA
:101AB20081858F9380858F939F928F92BF92AF92F1
:101AC2000E94DD31B50182E393E40E944C31CDBF27
:101AD200DEBF9FEFE91AF90A02C0E12CF12CE4E122
:101AE200EE16F1040CF4B6CFFFEFCF1ADF0A24E1B1
:101AF200C216D10494F365E872E882E393E40E948B
:101B02004C316CE972E882E393E40E944C31C12CBF
:101B1200D12C4DC0CE14DF04E1F184E18C9D800113
:101B22008D9D100D11240E0D1F1D02951295107F13
:101B32001027007F102701511C4BF80185818F93DC
:101B420084818F930F2EF8ED8F2EF2E89F2EF02DC9
:101B52009F928F925E01F3E3AF0EB11CBF92AF92E0
:101B62000E94DD31B50182E393E40E944C31F80119
:101B720085858F9384858F939F928F92BF92AF9228
:101B82000E94DD31B50182E393E40E944C31CDBF66
:101B9200DEBF9FEFE91AF90A02C0E12CF12CE4E161
:101BA200EE16F1040CF4B6CFFFEFCF1ADF0A24E1F0
:101BB200C216D10494F365E872E882E393E40E94CA
:101BC2004C3162EB72E882E393E40E944C31C12C07
:101BD200D12C4DC0CE14DF04E1F184E18C9D800153
:101BE2008D9D100D11240E0D1F1D02951295107F53
:101BF2001027007F102701511C4BF80183818F931E
:101C020082818F930F2EF8ED8F2EF2E89F2EF02D0A
:101C12009F928F925E01F3E3AF0EB11CBF92AF921F
:101C22000E94DD31B50182E393E40E944C31F80158
:101C320083858F9382858F939F928F92BF92AF926B
:101C42000E94DD31B50182E393E40E944C31CDBFA5
:101C5200DEBF9FEFE91AF90A02C0E12CF12CE4E1A0
:101C6200EE16F1040CF4B6CFFFEFCF1ADF0A24E12F
:101C7200C216D10494F365E872E882E393E40E9409
:101C82004C3168EC72E882E393E40E944C31C12C3F
:101C9200D12C4DC0CE14DF04E1F184E18C9D800192
:101CA2008D9D100D11240E0D1F1D02951295107F92
:101CB2001027007F102701511C4BF80187818F9359
:101CC20086818F930F2EF8ED8F2EF2E89F2EF02D46
:101CD2009F928F925E01F3E3AF0EB11CBF92AF925F
:101CE2000E94DD31B50182E393E40E944C31F80198
:101CF20087858F9386858F939F928F92BF92AF92A3
:101D02000E94DD31B50182E393E40E944C31CDBFE4
:101D1200DEBF9FEFE91AF90A02C0E12CF12CE4E1DF
:101D2200EE16F1040CF4B6CFFFEFCF1ADF0A24E16E
:101D3200C216D10494F365E872E882E393E40E9448
:101D42004C3165E872E882E393E40E944C3182E30D
:101D520093E40E94E42ACC58DF4FCDBFDEBFDF916F
:101D6200CF911F910F91FF90EF90DF90CF90BF9096
:081D7200AF909F908F9008953F
:101D7A002F923F924F925F926F927F928F929F9291
:101D8A00AF92BF92CF92DF92EF92FF920F931F937F
:101D9A00CF93DF93CFEEDDE5188A198A1A8A1B8A58
:101DAA00188219821A821B821FA2212C312C0E94AE
:101DBA00681D8EA38111ACC141E050E460E070E07F
:101DCA00CB010E941F228093155E8111A3C130911D
:101DDA0000422091FF41832F922FA0E0B0E08A3A7F
:101DEA0025E59207A105B10509F096C13091BD41DB
:101DFA002091BE41832F922F8A35EAE59E07A105DD
:101E0A00B10599F0892B8A2B8B2B99F042C0FC01E2
:101E1A00E295F295F07FFE27E07FFE27ED53FE4B19
:101E2A00208121110CC0019607C080E090E020E0DB
:101E3A0003C080E090E020E08430910540F3829571
:101E4A009295907F9827807F9827FC01E953FE4B53
:101E5A00E081DC01A853BE4B3C91532FDC01A75310
:101E6A00BE4BEC01C653DE4B4E2F6C9178814093EA
:101E7A00EF5D5093F05D6093F15D7093F25D212CFC
:101E8A00312C222309F44AC1452B462B472B09F44E
:101E9A0047C10FEE1DE5F80160817181828193814E
:101EAA0041E050E40E941F22F80186A381113AC141
:101EBA00309100422091FF41832F922FA22DB32D02
:101ECA008A3A9545A105B10509F02EC1E1E0F0E491
:101EDA0033852485632F722F3093075E2093085E23
:101EEA00611522E0720709F021C18585D80198960B
:101EFA008C93989736852785E32EF22E408931896F
:101F0A002289832F922FC388D4880C2D1D2D222D30
:101F1A00332D4801C688D7884C2C5D2C622C732C33
:101F2A005201C0A0D1A022A033A01496CC9214973B
:101F3A001596DC92159716962C92169717963C9240
:101F4A00E114F10409F4F4C0880F991F829592955F
:101F5A00907F9827807F98270E94A2316093095E1C
:101F6A0070930A5EAB2869F0D301C201AA27BB2786
:101F7A008093FB5D9093FC5DA093FD5DB093FE5D45
:101F8A000CC0E1E0F0E474A165A196A187A1EFEE8F
:101F9A00FDE57487658796878787EFEEFDE54484BC
:101FAA00558466847784628D738D50E0449DC001A8
:101FBA00459D900D549D900D11248E0D9F1D860FE9
:101FCA00971F868F978F892839F022273327D02E9B
:101FDA00512F222E332E08C0EFEEFDE5D480558115
:101FEA00D681C7812D2E3C2E0D2D152F222D332D56
:101FFA0058016901A81AB90AC108D108C601B50170
:10200A000E94622B4B015C01CFEEDDE568A570E012
:10201A0080E090E00E94642B9B01AC01C501B401F1
:10202A000E94603420E030E040E05FE30E943033F9
:10203A000E94042F6C8B7D8B8E8B9F8B653F2FE0CC
:10204A0072078105910518F41092165E33C0653F38
:10205A007F4F8105910578F4EFEEFDE581E087A3D6
:10206A0082E084A38FEF9FEFA0E0B0E080879187A2
:10207A00A287B3871FC0EFEEFDE582E087A384E065
:10208A0084A38FEF9FEFAFEFBFE080879187A2878E
:10209A00B387A1E0B0E49C963C919C979D962C91C5
:1020AA009D979E969C919E979F968C91308B218BA3
:1020BA00928B838B8091165E81508230D8F5EFEE39
:1020CA00FDE5268D378D828D938D281B390B8081F6
:1020DA009181A281B381280F391F248F358F8E0DEC
:1020EA009F1D80A391A34485558566857785480FF2
:1020FA00591F42A353A3808D918D969587959295EA
:10210A0082958F7089279F70892785A380E013C0E5
:10211A0081E011C082E00FC084E00DC083E00BC0F3
:10212A0083E009C082E007C084E005C086E003C0FE
:10213A0084E001C085E0DF91CF911F910F91FF905C
:10214A00EF90DF90CF90BF90AF909F908F907F904D
:0C215A006F905F904F903F902F90089581
:102166004F925F926F927F928F929F92AF92BF92A1
:10217600CF92DF92EF92FF920F931F93CF93DF934D
:1021860000D000D0CDB7DEB78C017B015A014901E2
:1021960019821A821B821C82F90110821182FC01AB
:1021A60084A1882309F40CC180859185A285B38515
:1021B600892B8A2B8B2B89F54091F75D5091F85D21
:1021C6006091F95D7091FA5DCE0101960E94F0284A
:1021D6008111FBC049805A806B807C80F801408663
:1021E6005186628673864486558666867786C301DF
:1021F600B2010E94332FF801608F718F828F938F07
:10220600148E158E41E0C301B2010E949F2B6CE033
:10221600C8010E9400238111D8C0F80185A1882336
:1022260099F015A2808D918DA28DB38D248D358D5B
:10223600BC01CD01620F731F811D911D41E050E469
:102246000E941F228111BEC0F80186A18823D9F001
:102256004485558566857785CE0101960E94F028CE
:102266008111B3C0F80116A269817A818B819C81A4
:1022760064877587868797870E94332FF801608F5A
:10228600718F828F938FC12CD12C91C0F801868DCE
:10229600978D8115924008F46AC0F801168E178E44
:1022A60013A2C8010E94E42A81118FC0F801848D0F
:1022B600958D0196848F958F15A221E023A32091F9
:1022C600175E30E08217930750F184859585A685C1
:1022D600B78589839A83AB83BC83C8010E94A12AF0
:1022E600F80186A18823D9F049815A816B817C81C6
:1022F600CE0101960E94F028811167C0F80116A24E
:1023060069817A818B819C816487758786879787A7
:102316000E94332FF801608F718F828F938FF8019F
:10232600408151816281738184819581A681B781C3
:10233600481759076A077B0798F4808D918DA28DFF
:10234600B38D248D358DBC01CD01620F731F811DA8
:10235600911D41E050E40E941F22882341F034C0C1
:1023660040E060E072E080E090E00E943232F801E6
:10237600868D978D9C012F5F3F4F268F378FF701F4
:102386002081FC01EF5FFF4B2083F8018081918162
:10239600A281B3810196A11DB11D80839183A28381
:1023A600B383FFEFCF1ADF0AC70101967C01CA1477
:1023B600DB0408F46BCFF401C082D18280E005C053
:1023C60087E003C08CE001C08CE02496CDBFDEBF61
:1023D600DF91CF911F910F91FF90EF90DF90CF90FB
:1023E600BF90AF909F908F907F906F905F904F902F
:0223F600089548
:1023F800A4E1B0E0E2E0F2E10C94EC308F8398873E
:1024080069837A834B8B5C8B122FDB011296ED91DB
:10241800FC91139714962D913C9115972D833E832B
:10242800CD90DC90119716962D903C901797F7FD5C
:1024380003C0E894C1F802C0E1E0F0E0C601807191
:10244800992789879A87C4FE1FC0AB89BC892C91BC
:1024580011963C91119712964C91129713965C9194
:10246800139714966C91149715967C911597169658
:102478008C91169717969C91A0E00E94B73221F094
:102488008D819E81029702C08D819E819601287060
:1024980033272B873C87C3FC0197AB89BC894C90B9
:1024A80011965C90119712966C90129713967C90E7
:1024B800139714968C90149715969C9015971696CA
:1024C800AC9016971796BC90A981BA811896ED9092
:1024D800FC901997B1E0EB1AF108D101AE0DBF1DC0
:1024E8001C928B839C839F01281B390B2D873E8769
:1024F800C601827099278F87988B812F012E000C37
:10250800990BDC01A154B109A98BBA8B32E0E3160F
:10251800F10434F489859A85892B09F04CC073C07D
:102528009201A301B401C501A0E00E94B73281F174
:10253800B1E0EB1AF108C2018F7099278A30910532
:1025480014F4C09602C0895A9F4FE989FA897A978C
:1025580048F49C012062215631092A31310510F4D2
:102568000E940133F101EE0DFF1D80832B813C8118
:10257800215031092B833C839201A301B401C50189
:1025880004E00E94453029013A014B015C01BECFAD
:102598008D859E85AB81BC818A0F9B1F18161906F5
:1025A8003CF21A161B060CF0B5CFEF85F889EF2B15
:1025B80009F0BECFAFCFAB89BC892C9111963C9165
:1025C800119712964C91129713965C911397149643
:1025D8006C91149715967C91159716968C91169771
:1025E80017969C91A0E00E94B73269F0F101EE0DB8
:1025F800FF1D31971083B2E0EB1AF108F101EE0DDF
:10260800FF1D80E38083EB85FC85EF2B41F0F1E033
:10261800EF1AF108F101EE0DFF1D80E28083A98118
:10262800BA8118964D915C911997415051094E19EC
:102638005F09B1016E0D7F1D86012D813E818F815D
:1026480098850E944D289C01EF81F88580819181B1
:1026580090FF09C0A981BA8112968D919C91139718
:10266800821793070CF4C9016496E2E10C940531D2
:10267800EF92FF920F931F93CF93DF9300E014E044
:10268800F801148260E274E0FB01148240E454E033
:10269800FA01148220E634E0F9011482C0E8D4E09B
:1026A8001C82A0EAB4E014961C9214970F2EF0EC4A
:1026B800EF2EF4E0FF2EF02DF701148280E8F801E8
:1026C80080838CEFFB018083FA0180838FEFF9010F
:1026D800808388838CE38C938EEFF7018083F801E5
:1026E800108A118A128A138A148A158A168A84E033
:1026F800878BFB01108A118A828B838B848B858B55
:10270800868B878BFA01108A118A828B838B848B44
:10271800858B868B878BF901808B818B828B838B52
:10272800848B858B868B878B888B898B8A8B8B8B0D
:102738008C8B8D8B8E8B8F8B50961C9250975196CD
:102748001C92519752968C93529753968C93539709
:1027580054968C93549755968C93559756961C92ED
:10276800569757961C92F701108A818B828B838B20
:10277800848B858B868B878BE0EEF5E01186118242
:102788001082148216821782108615821282138292
:1027980012868AE794E30E9481338BE794E30E94D0
:1027A80086338CE794E30E948B338DE794E30E9491
:1027B80090338EE794E30E9495338FE794E30E9469
:1027C8009A3380E894E30E949F3381E894E30E945F
:1027D800A43382E894E30E94A93383E894E30E9437
:1027E800AE3384E894E30E94B33385E894E30E940F
:1027F800B83386E894E30E94BD3387E894E30E94E7
:10280800C23388E894E30E94C73389E894E30E94BE
:10281800CC338AE894E30E94D1338BE894E30E9496
:10282800D6338CE894E30E94DB338DE894E30E946E
:10283800E0338EE894E30E94E5338FE894E30E9446
:10284800EA3380E994E30E94EF3381E994E30E943C
:10285800F43382E994E30E94F93383E994E30E9414
:10286800FE3384E994E30E94033485E994E30E94EB
:10287800083486E994E30E940D3487E994E30E94C2
:10288800123488E994E30E94173489E994E30E949A
:102898001C348AE994E30E9421348BE994E30E9472
:1028A80026348CE994E30E942B348DE994E30E944A
:1028B80030348EE994E30E9435348FE994E30E9422
:1028C8003A3480EA94E30E943F3481EA94E30E9418
:1028D8004434DF91CF911F910F91FF90EF900895AD
:1028E8003F924F925F926F927F928F929F92AF9298
:1028F800BF92CF92DF92EF92FF920F931F93CF93E5
:10290800DF93CDB7DEB72897CDBFDEBF6B017C0163
:1029180029833A834B835C83302E2B013C01009042
:10292800165E04C0440C551C661C771C0A94D2F72A
:102938000091075E1091085E980140E050E0C301E5
:10294800B2010E94C12F49015A01029FC001039F91
:10295800900D129F900D11248201081B190B1092E3
:102968005F5E1092605E60910F5E7091105E620F04
:10297800731F80E090E041E050E40E941F22811123
:10298800BEC00F2EFDE04F2EF02D341431F00F2E67
:10299800F7E05F2EF02D351033C0F801EF5FFF4BE5
:1029A8008081F801EE5FFF4BC080D12CDC2CCC2459
:1029B8000D2C000CEE08FF08C82A8091165E8230A4
:1029C800F9F4F801ED5FFF4B808190E0A0E0B0E002
:1029D800DC0199278827C82AD92AEA2AFB2AF8017C
:1029E800EC5FFF4B808190E0A0E0B0E0B82FAA2711
:1029F80099278827C82AD92AEA2AFB2A8FE0F822A9
:102A08009DE0391205C0C114D104E104F10431F488
:102A18000F2EF6E04F2EF02D341076C08091165E02
:102A2800823009F040C0F801EF5FFF4B9081F80158
:102A3800EE5FFF4B208130E0322F2227A901330FB0
:102A4800660B770B2A013B01492AF801ED5FFF4B22
:102A58009081492F50E060E070E0BA015527442783
:102A6800442A552A662A772AF801EC5FFF4B4081F1
:102A780050E060E070E0742F66275527442744290A
:102A8800552966297729442755276627707F498065
:102A98005A806B807C80442A552A662A772A498284
:102AA8005A826B827C82F801EF5FFF4B598050821B
:102AB800F801EE5FFF4B6A806082823051F4F801C2
:102AC800ED5FFF4B7B807082F801EC5FFF4B8C81E0
:102AD800808360910F5E7091105E860E971EB40120
:102AE80080E090E041E050E40E942721809100407E
:102AF800853079F060E070E080E090E00EC060E042
:102B080070E080E090E009C06C2D7D2D8E2D9F2D0A
:102B180004C06C2D7D2D8E2D9F2D2896CDBFDEBF38
:102B2800DF91CF911F910F91FF90EF90DF90CF90A1
:102B3800BF90AF909F908F907F906F905F904F90D5
:042B48003F9008951D
:102B4C006F927F928F929F92AF92BF92CF92DF92B1
:102B5C00EF92FF920F931F93CF93DF936C01EB01D6
:102B6C00A42E712C812CFC0164877587108A118A24
:102B7C00128A138A00E0EBC0F0E21F9F700111244F
:102B8C00F701EF5FFF4B8081882309F4EBC0853E92
:102B9C0009F4D4C08E3209F4D1C0F701E45FFF4BC5
:102BAC00B08088E0B81609F4C9C0EFE0BE1211C0BD
:102BBC00F1E0AF1609F4C2C089E0A81609F4BEC052
:102BCC00612F70E08FEE9CE50E9489296624639446
:102BDC00B5C0662019F0E1E0AE1206C04FEE5CE520
:102BEC006A2D812F0E944E2CF9E0AF1207C0F6011E
:102BFC00848995890196848B958BA0C0F601828976
:102C0C0093890196828B938B88818F3211F08C354E
:102C1C00D9F4F601848595850196848795878981F9
:102C2C00811112C08091FF5D9091005EA091015EB8
:102C3C00B091025E80839183A283B383EFEEFCE5B7
:102C4C008FE28083118296C0F601C485D58520E081
:102C5C0018C03FEB380F3A3108F4805E3FEB390F68
:102C6C003A3108F4905E891317C02F5F2196888142
:102C7C008F3219F001E08C3521F4219691E001E0BE
:102C8C000FC08881882359F0E22FF0E0E151F34A1C
:102C9C0090819111DECF04C090E000E001C090E083
:102CAC00E22FF0E0E151F34A8081811103C0888169
:102CBC00882321F0911102C0011100E00023E9F1F9
:102CCC00F1E0AF16E1F08AE0A816C9F0F701E55E75
:102CDC00FF4B9081F701E45EFF4B80812091165EE3
:102CEC00223041F4F701EB5EFF4B7080F701EA5E96
:102CFC00FF4B8080F601908381837282838288816E
:102D0C00811106C0F8E0AF1235C0B4FE2FC032C03E
:102D1C00F601C487D5876081718182819381648338
:102D2C007583868397830E94332FF60160877187A2
:102D3C0082879387108A118A0AC0612C1F5F01C099
:102D4C0010E08091145E181708F416CF01C0612CA6
:102D5C00C6010E947725982E882391F368949924B4
:102D6C0091F808C06894992491F804C00F2EF9E0EA
:102D7C009F2EF02D892DDF91CF911F910F91FF90F8
:102D8C00EF90DF90CF90BF90AF909F908F907F90FF
:042D9C006F90089597
:102DA000CF92DF92EF92FF920F931F93CF93DF9317
:102DB0007C016B01FC01808D882339F080915F5E7E
:102DC0009091605EE816F906B9F0F701808591856B
:102DD000A285B38520893189BC01CD01620F731FA3
:102DE000811D911D41E050E40E941F228111EEC01F
:102DF000E0925F5EF092605ED0E0F701C08DC8C0E7
:102E0000F0E2CF9F80011124F801EF5FFF4B80813A
:102E1000882309F4DDC0853E09F4B9C08E3209F477
:102E2000B6C0F801E45FFF4B8081F60182A38830D1
:102E300009F4ADC08F3089F5F7018689978900972D
:102E400039F02289338901972817390708F49FC080
:102E50006C2F70E08FEE9CE50E948929D1111BC078
:102E6000F70180859185A285B385F601808B918BD2
:102E7000A28BB38BC0A3F70180899189F601848F5F
:102E8000958FF70184819581A681B781F6018487AA
:102E90009587A687B787D1E07AC0D1110BC04FEED6
:102EA0005CE560E08C2F0E944E2CF601108A118A9E
:102EB000128A138AF701828993890196828B938BF8
:102EC000268937898217930708F460C0F801E35E0A
:102ED000FF4B3081F801E25EFF4B2081F801E15E9B
:102EE000FF4B9081F801E05EFF4B8081F601348357
:102EF00025839683878390E080E0F801E75EFF4BAF
:102F00003081F801E65EFF4B2081F601368B278B7E
:102F1000F801E95EFF4B3081F801E85EFF4B20814C
:102F2000F601348B258BF801E55EFF4B3081F8010B
:102F3000E45EFF4B20814091165E423041F4F8017F
:102F4000EB5EFF4B9081F801EA5EFF4B8081F70159
:102F5000438D442321F03083218392838383F601C0
:102F60003087218792878387F701C08F8689978969
:102F7000009721F4CF5FC08F80E02FC0F701228936
:102F800033898217930731F1D0E001C0D0E0CF5FE1
:102F90008091145EC81708F433CFF70180899189B6
:102FA0000196808B918BC7010E947725811114C0F7
:102FB000F701108E80899189009719F00197808B15
:102FC000918BE0925F5EF092605E17CF8CE005C05F
:102FD00082E003C080E001C082E0DF91CF911F91C9
:0C2FE0000F91FF90EF90DF90CF900895CC
:102FEC00AF92BF92CF92DF92EF92FF920F931F930B
:102FFC00CF93DF935C01EA017901FB0100E010E063
:10300C0030E040E090E02BC08E3211F44F5F8F0126
:10301C00983018F58032E1F08F32D1F08C35C1F058
:10302C008E32B1F08032A0F02FE9280F2A3110F443
:10303C00805207C02FEB280F2A3118F421E0D7015A
:10304C002C936E01C90ED11CD6018C939F5F05C0C9
:10305C008E3219F081E0D7018C933F5F31968081DD
:10306C00882311F03F3F81F6F501318F01151105D1
:10307C0039F09801261B370B283031050CF4922FB0
:10308C00423018F081E0D7018C93423038F49830FC
:10309C0039F481E0F701808331E00AC030E008C0E8
:1030AC0030E006C0FE01E90FF11D80E280839F5FD6
:1030BC009B30C0F380E018C00F5F1F4F833098F433
:1030CC00D8019C91903221F491E0F70190830CC0CF
:1030DC002FE9290F2A3108F49052E82FF0E03896A6
:1030EC00EC0FFD1F90838F5FD8019C91992311F0F9
:1030FC004111E2CF853018F081E0F7018083311166
:10310C0044C041E0BE01C5010E94A6154FC01A3053
:10311C0019F4EA9402E004C0143611F4EA9403E0C2
:10312C008EE7FE01EE0DF11D8083812F18C0E02F7C
:10313C00F0E0EE0DF11DEC0FFD1F9DEC899F912D24
:10314C001124969596959695392F330F232F220F90
:10315C00220F230F821B805D80830150892F011168
:10316C00E6CF87E0082F0E19D5014D915D916D9139
:10317C007C91C5010E94532D41E0BE01C5010E9406
:10318C00A615823061F01F5F07C080E001E010E0FF
:10319C000F2EF6E0EF2EF02D1F3F09F0B8CF1F3F9A
:1031AC0021F0E11003C087E001C087E0DF91CF91EF
:1031BC001F910F91FF90EF90DF90CF90BF90AF9049
:0231CC00089564
:1031CE00CF93DF9300D0CDB7DEB70E9422330E949B
:1031DE0041320E94CA310E946633789419821A8253
:1031EE0000E010E005C0C8010E94862C0F5F1F4F43
:1031FE0004311105C4F300E010E005C0C8010E94BF
:10320E00E52D0F5F1F4F04311105C4F300E010E0F0
:10321E0013C00E151F0521F0B701C8010E94AB2186
:10322E002FEFE21AF20A02C0E12CF12C34E1E31680
:10323E00F1047CF30F5F1F4F04311105ACF3809145
:10324E00BD5E813059F402E02CED32E840E050E0F2
:10325E006EED72E881EE92E80E947F1A82E393E4AB
:10326E000E9460336A3071058105910558F002E0C5
:10327E0026EE32E840E050E068EE72E881EE92E829
:10328E000E947F1A0E945A338823C9F089818111C6
:10329E0027C002E02BEE32E840E050E06EED72E81F
:1032AE0081EE92E80E947F1A0E94490C81E0898388
:1032BE008A81882311F01A82C2CF1A8211C08A81A4
:1032CE0081110EC002E02CED32E840E050E06EEDD0
:1032DE0072E881EE92E80E947F1A81E08A83198259
:1032EE0062E170E083E190E00E94161E8823C1F037
:1032FE00E0ECF4E081E085839FEF29EB3BED91500C
:10330E0020403040E1F700C0000086838FEF99EB3C
:10331E002BED815090402040E1F700C00000B2CF6D
:10332E00E0ECF4E081E085833FEF95EA2EE031504A
:10333E0090402040E1F700C0000086833FEF85EA11
:10334E009EE0315080409040E1F700C0000004E064
:10335E0020E030E040E050E060E070E08FEE92E878
:06336E000E947F1A8FCFC0
:103374004F925F926F927F928F929F92AF92BF9281
:10338400CF92DF92EF92FF920F931F93CF93DF932D
:10339400CDB7DEB72A97CDBFDEBF89879A874A01AA
:1033A4005B01FC0184819581A681B781841795070F
:1033B400A607B70708F48DC00FEE1DE5D80158968F
:1033C400ED90FC905997970140E050E0C501B4019D
:1033D4000E94C12F2D833E834F83588729833A83CC
:1033E4004B835C83ED81FE81EE9EC001EF9E900DC8
:1033F400FE9E900D11249401281B390BA985BA85D2
:103404005E962D933C935F97F80140A4512C612C58
:10341400712C69817A818B819C81A30192010E9424
:10342400C12F622F732F842F952FC22ED32EE42EFB
:10343400F52EC114D104E104F10481F0A301920139
:103444000E9412322D813E814F815885261B370BF5
:10345400480B590B29833A834B835C832401350140
:1034640049855A85FA0180859185A285B38584872B
:103474009587A687B7871AC0A985BA851C968D90AB
:103484009D90AD90BC901F97CD010E94A12AE98523
:10349400FA8586A1882329F084869586A686B78630
:1034A4000AC0B1E0CB1AD108E108F108C114D10473
:1034B400E104F10409F781E0E985FA8585A329810E
:1034C4003A81248F358F408251826282738216A2A0
:1034D40011A22A96CDBFDEBFDF91CF911F910F912C
:1034E400FF90EF90DF90CF90BF90AF909F908F9020
:0A34F4007F906F905F904F90089555
:1034FE00DF92EF92FF920F931F93CF93DF93CDB78F
:10350E00DEB7E297CDBFDEBFE82ED92E162FF72EEF
:10351E00822F932F0130D9F41F928FEF8F931F922A
:10352E008F931F928F935F934F937F936F93DF923F
:10353E00EF928EEF92E89F938F93CE0101969F9319
:10354E008F930E94EF31AC01CDBFDEBF70C0023051
:10355E00D9F41F924FEF4F931F924F931F924F9399
:10356E003F932F937F936F93DF92EF9281E193E8D6
:10357E009F938F93CE0101969F938F930E94EF316D
:10358E00AC01CDBFDEBF53C00330E9F40E94152C51
:10359E001F922FEF2F931F922F931F922F939F9374
:1035AE008F93FF921F93DF92EF9286E293E89F93A1
:1035BE008F93CE0101969F938F930E94EF31AC01B2
:1035CE00CDBFDEBF34C00430B9F41F928FEF8F939E
:1035DE001F928F931F928F93DF92EF9289E393E85E
:1035EE009F938F93CE0101969F938F930E94EF31FD
:1035FE00AC01CDBFDEBF1BC00530B9F41F928FEFFB
:10360E008F931F928F931F928F937F936F9387E465
:10361E0093E89F938F93CE0101969F938F930E9471
:10362E00EF31AC01CDBFDEBF02C040E050E020E084
:10363E0030E00FC09091240895FFFCCFE1E0F0E060
:10364E00EC0FFD1FE20FF31F9081909322082F5F66
:10365E003F4F2417350774F3E296CDBFDEBFDF91DF
:0E366E00CF911F910F91FF90EF90DF90089584
:10367C00ADE0B0E0E4E4FBE10C94EC3089879A8790
:10368C006B837C83FA01DB011296CD90DC9013974F
:10369C0014968D919C9115978D839E83ED90FC9043
:1036AC001197E982FA8216960D90BC91A02DAF83EA
:1036BC00B8872080318042805380648075808680FA
:1036CC0097808101B42DF52DE62D7B868C869D8609
:1036DC009101A201B301C401A0E00E94B7324CF4E5
:1036EC000E9422328901B42FF52FE62F7B878C871D
:1036FC009D87D7FC04C0E894E1F8E982FA82910135
:10370C00A201B301C401A0E0ED80FE800E94B7329B
:10371C001CF0898182FF04C081E0E81AF10805C021
:10372C0083FF03C091E0E91AF108CE0101965C0118
:10373C008AE0C82ED12C2B2F3F2F4E2F5B856C850A
:10374C007D858B819C810E94C31EFC019101A2018D
:10375C00B301C401A0E00E94B7321CF0898182FF42
:10376C0012C031970F8118850E0F1F1F9101A201F6
:10377C00B301C401A0E00E94B73214F08BE201C087
:10378C008DE2D80108C083FF07C03197AF81B8859F
:10379C00AE0FBF1F80E28C9309811A81AB81BC8173
:1037AC0018964D915C911997415051094E1B5F0B26
:1037BC006F8178856E0F7F1F2D813E8189859A855B
:1037CC000E944D289C01E985FA858081918190FFAA
:1037DC0009C0AB81BC8112968D919C911397821775
:0E37EC0093070CF4C9012D96E2E10C9405310F
:1037FA000F931F93CF93DF93FC01D90168387105AA
:10380A0031F194F461387105B1F12CF46038710525
:10381A0009F478C09FC06238710509F459C0643848
:10382A00710509F46FC096C0603A710509F448C081
:10383A002CF46039710509F44BC08CC0603C7105E9
:10384A0009F476C0603F710509F472C083C0CD9156
:10385A00DC911197CE0102968D939C93452B39F0FA
:10386A009881892F880F880B908381835BC0888118
:10387A008083118268C0CD91DC911197CE010496A4
:10388A008D939C93452B99F088819981AA81BB815C
:10389A00AC01BD01770F440B542FBA018083918389
:1038AA00A283B383448345834683478328C0088120
:1038BA0019812A813B81008311832283338345C086
:1038CA00CD91DC911197CE0102968D939C9323C0E2
:1038DA00CD91DC911197CE0108968D939C937881B6
:1038EA0069815A814B813C812D819E818F817083B0
:1038FA00618352834383348325839683878381E05C
:10390A0090E02AC0CD91DC911197CE0102968D9359
:10391A009C93452BA1F099812881892F880F880BC8
:10392A002083918382838383848385838683E6CFFE
:10393A00CD91DC911197CE0102968D939C930881CB
:10394A0019810083118312821382148215821682CE
:10395A001782D5CF80E090E0DF91CF911F910F9130
:02396A000895BE
:10396C003F924F925F926F927F928F929F92AF9203
:10397C00BF92CF92DF92EF92FF920F931F93CF9350
:10398C00DF93382EC091075ED091085EC12CD12CEC
:10399C00760100E010E0812C912C5401412C512C2B
:1039AC0032015FC060910F5E7091105E600F711FED
:1039BC0080E090E041E050E40E941F22811167C03A
:1039CC0080E090E048C02091165E2230A9F4FC0102
:1039DC00EF5FFF4BC080FC01EE5FFF4BD080FC0122
:1039EC00ED5FFF4BE080FC013396EF5FFF4B0496DD
:1039FC00F0802FE0F2220CC0213051F4FC01EF5F7B
:103A0C00FF4BC080FC013196EF5FFF4B0296D080DC
:103A1C00C114D104E104F10441F42FEF421A520A0B
:103A2C00620A720A23E03216B9F12FEF821A920A57
:103A3C00A20AB20A4091035E5091045E6091055E49
:103A4C007091065E4E5F5F4F6F4F7F4F4815590563
:103A5C006A057B0520F08C179D0708F4B4CF0F5F27
:103A6C001F4FC801A0E0B0E04091FB5D5091FC5DA0
:103A7C006091FD5D7091FE5D84179507A607B707F1
:103A8C0008F490CF642D752D862D972D09C060E01C
:103A9C0070E080E090E004C0682D792D8A2D9B2D7C
:103AAC00DF91CF911F910F91FF90EF90DF90CF900E
:103ABC00BF90AF909F908F907F906F905F904F9042
:043ACC003F9008958A
:103AD0001F93CF93DF93CDB7DEB72597CDBFDEBF62
:103AE0000E94B8308FE697E10197F1F700C000001F
:103AF0000E94873210E004C08FEF0E9477331F5F6F
:103B00001A30D0F310E018C00E947B3224E940E064
:103B100050E0BA0180E00E947C2F0E949F3289838E
:103B20000E9487321F5F1B3038F0E0E0F4E08481B0
:103B30008860848311E072C08981813029F70E94F6
:103B40007B3226E84AEA51E060E070E088E00E94BB
:103B50007C2FCE0101960E9435310E9487328981E7
:103B6000813009F042C0E0E4F9E08081897F808300
:103B7000E1E4F9E08081806180838C81813009F00B
:103B800042C08D818A3A09F040C00E947B3220E019
:103B900040E050E0BA018AE30E947C2FCE010196FA
:103BA0000E9435310E9487320E94242B182F8111E8
:103BB0002EC00E947B3220E040E050E0BA018AE350
:103BC0000E947C2FCE0101960E9435310E948732DF
:103BD0008A818823F4F486FF04C083E08093B75E73
:103BE0001DC082E08093B75E19C08530A1F481E0EA
:103BF0008093B75E0E94242B182F82FD0EC088236D
:103C000069F011E00BC014E009C013E007C011E037
:103C100005C015E003C012E001C016E0812F259613
:0C3C2000CDBFDEBFDF91CF911F91089552
:103C2C000F931F93CF93DF93EC018B010E94B52D63
:103C3C00C8010E94B52DCE010E94152EC8010E940C
:103C4C00452E8C2F0E94793124E12C9FF0012D9F61
:103C5C00F00D1124E00FF11FE295F295F07FFE2795
:103C6C00E07FFE27E151FC4B24813581821B930BB5
:103C7C009C0122F422273327281B390B23333105CF
:103C8C000CF06FC0802F0E94793124E12C9FF00141
:103C9C002D9FF00D1124E00FF11FE295F295F07FAE
:103CAC00FE27E07FFE27E151FC4B24853585821BE6
:103CBC00930B9C0122F422273327281B390B233327
:103CCC0031050CF050C0CE010E94452EC8010E9457
:103CDC00152E8C2F0E94793124E12C9FF0012D9F01
:103CEC00F00D1124E00FF11FE295F295F07FFE2705
:103CFC00E07FFE27E151FC4B22813381821B930B29
:103D0C009C0122F422273327281B390B233331053E
:103D1C0064F5802F0E94793124E12C9FF0012D9FB6
:103D2C00F00D1124E00FF11FE295F295F07FFE27C4
:103D3C00E07FFE27E151FC4B22853385821B930BE0
:103D4C009C0122F422273327281B390B23333105FE
:103D5C0074F4CE010E94E52DC8010E94E52D81E08E
:103D6C0007C080E005C080E003C080E001C080E0B7
:0A3D7C00DF91CF911F910F91089580
:103D8600A2E1B0E0E9ECFEE10C94EC30FC010A8B18
:103D96001B832C83732E642E552E462E7D83CC8654
:103DA600D886AE82BF82868197818A879B87D50116
:103DB6004D915C91228133818085918501971C010B
:103DC60037FF02C021E030E0EA85FB85E80FF91FE6
:103DD60010824701E1E0F0E0E983FA83C9018E1918
:103DE6009F098D879E87DA01A270BB27AF87B88BA4
:103DF600B885BB0FBB0BB98B1214130474F0A981E1
:103E0600BA81AB2B09F05CC0AE81BF818D919C91CC
:103E160011978F7E8D939C9353C02A893B814C8149
:103E2600572D662D752D842D9D81A0E00E94B732F9
:103E3600B1F1E1E02E1A3108FC85F987AF2EB8847E
:103E4600C988DC2CEC2CFC2C0C2D1C2D2A893B81E2
:103E56004C81572D662D752D842D9D810E945F32D4
:103E6600C90129839A83EA85FB85E20DF31D805DEE
:103E7600808381E0881A91082A893B814C81572DDD
:103E8600662D752D842D9D810E9461322A8B3B8380
:103E96004C83752E662E572E482E9D83ADCF8D856D
:103EA6009E85880D991D181619061CF218141904FA
:103EB6000CF0A5CFEF85F889EF2B09F0BACF9FCF8D
:0A3EC600C1016296E2E10C9405319F
:103ED000A5E1B0E0EEE6FFE10C94EC3047015801BB
:103EE0000E9464342B013C01A80197010E943133E8
:103EF000162FC72ED82EF92E862F9C2DAD2DBF2D17
:103F000089839A83AB83BC83AA81FB81EC81ED809A
:103F10003E802F8008850D8B5E2F5F71212F3A2FF9
:103F20004F2F60E070E080E090E021153105410501
:103F300000E15007610571058105910509F05EC03A
:103F40005E2F6E2D732D822D9D8904E30E944530D6
:103F50002D873E874F87588B698B7A8B8B8B9C8BF9
:103F60008D859E8597708F3F974009F447C0A301C8
:103F70009201612F7C2D8D2D9F2D0E9430339B014E
:103F8000AC01C501B4010E944E348823B9F14986C1
:103F90005A866B867C8629853A854B855C85C5016A
:103FA000B4010E943133B62E872E982EA92E262FCB
:103FB000372F482F592F612F7C2D8D2D9F2D0E943B
:103FC0004E34811118C02B2D8B2D982DA92DBA2D73
:103FD00089839A83AB83BC833A814B815C816E2D4C
:103FE000732D822D9D89A1E00E94C332122FC32E12
:103FF000D42EF52E03C01B2D6401FA2C612F7C2DCD
:0C4000008D2D9F2D6596E2E10C9405319A
:10400C004F925F926F927F928F929F92AF92BF92DC
:10401C00CF92DF92EF92FF92CF93DF93CDB7DEB7C3
:10402C002897CDBFDEBF6B017C01DC01CB0147E1E2
:10403C00B695A795979587954A95D1F799278F5758
:10404C009109873191059CF597FD36C088248A9497
:10405C00982C3FE7A32EB12C04C0B594A794979449
:10406C0087948A95D2F7D501C4018C219D21AE216C
:10407C00BF21892B8A2B8B2BD1F020E030E040E83C
:10408C005BE7C701B6010E9431336D837E838F835A
:10409C009887F7FE04C0C80CD91CEA1CFB1C809442
:1040AC009094A094B094C820D920EA20FB205C2DD9
:1040BC004D2D3E2D2F2D21C020E030E040E85BE758
:1040CC00C701B6010E94313369837A838B839C8349
:1040DC00F7FE0FC0D701C601880F991FAA1FBB1F7F
:1040EC00892B8A2B8B2B19F350E040E030E82FEB17
:1040FC0004C050E040E030E020E0652F742F832FA7
:10410C00922F2896CDBFDEBFDF91CF91FF90EF901D
:10411C00DF90CF90BF90AF909F908F907F906F90DB
:06412C005F904F90089522
:104132001F920F920FB60F9211240BB60F922F936C
:104142003F934F935F936F937F938F939F93AF931D
:10415200BF93CF93DF93EF93FF939091200899231E
:1041620081F08091BB5E81110CC01092BC5E81E037
:104172008093BB5E82E3E4E3F2E4DF011D928A9561
:10418200E9F78091BB5E882309F44BC0E091BC5EE5
:1041920081E08E0F8093BC5EF0E0EC5CFD4B90837F
:1041A2008330A0F190E0FC01ED5CFD4B20812F3FBC
:1041B20069F5FC01EE5CFD4B20812F3F39F5FC01D6
:1041C200EF5CFD4B80818F3F09F5C0E2D8E08E8124
:1041D2008F778E838D818F778D8382E3EAECF2E491
:1041E200DF011D928A95E9F764E372E4CF010E9430
:1041F20012331092BB5E1092BC5E81E08093BA5E75
:104202008E8180688E838D8180688D838091BC5E73
:10421200823338F01092BC5E1092BB5E81E08093D4
:10422200BA5EFF91EF91DF91CF91BF91AF919F91D4
:104232008F917F916F915F914F913F912F910F904D
:0C4242000BBE0F900FBE0F901F90189540
:10424E00BF92CF92DF92EF92FF920F931F93CF9375
:10425E00DF936B017C018A018091B75E813049F456
:10426E000B2EB9E0CC0CDD1CEE1CFF1CBA95D1F761
:10427E00B02D8FEF809300400E947B3220E0B7017B
:10428E00A60188E10E947C2F0E949F32B82E8111D8
:10429E004EC08EEF0E947733C0E0D0E007C0F80129
:1042AE00EC0FFD1F80810E9477332196C11582E0AD
:1042BE00D807A8F3C12CD12C760106C00E949332E8
:1042CE00B82E8FEFB81211C08FEFC81AD80AE80AAD
:1042DE00F80AC701B6010E94622B20E03BE147EBD2
:1042EE0058E40E944E3488234CF38B2D8F71853009
:1042FE00F1F480930040C12CD12C760114C08FEFC5
:10430E00C81AD80AE80AF80AC701B6010E94622B39
:10431E0020E03BE147EB58E40E94533418161CF49E
:10432E001092004004C00E949332882341F30E94F1
:10433E0087328B2DDF91CF911F910F91FF90EF90D0
:08434E00DF90CF90BF900895AD
:10435600CF92DF92EF92FF920F931F93CF93DF934B
:104366008617970709F45FC06B018C010E94B52D73
:10437600C6010E94B52DC8010E94452EC6010E94A5
:10438600452E802F0E94793124E1209F7001219FC4
:10439600F00C1124EC0CFD1C970122953295307F10
:1043A6003227207F3227E901C151DC4B888399836C
:1043B6008C2D0E94793188879987C8010E94152E15
:1043C600C6010E94452E802F0E9479318C839D83E1
:1043D6008C2D0E9479318C879D87C8010E94452EBD
:1043E600C6010E94152E802F0E9479318A839B83F5
:1043F6008C2D0E9479318A879B87C8010E94152ED1
:10440600C6010E94152E802F0E9479318E839F83CC
:104416008C2D0E9479318E879F87C8010E94E52DD9
:10442600C6010E94E52DDF91CF911F910F91FF905C
:08443600EF90DF90CF90089594
:10443E00AF92BF92CF92DF92EF92FF920F931F93A4
:10444E00CF93DF936B017C01EA018091B75E8130DF
:10445E0049F40B2EB9E0CC0CDD1CEE1CFF1CBA95FA
:10446E00D1F7B02D8FEF809300400E947B3220E079
:10447E00B701A60181E10E947C2F0E949F32A82ED7
:10448E008FEFA81208C038C00E949332B82E8FEF5B
:10449E00B81629F015C0C12CD12C7601B12C8FEF96
:1044AE00C81AD80AE80AF80AC701B6010E94622B98
:1044BE0020E03CE742E158E40E944E348111E4CF03
:1044CE008EEFB81217C00BC07E018FEFE81AF80AF4
:1044DE000E94933288830F5F1F4FE70102C000E0F6
:1044EE0010E0011582E0180778F318820E949332CB
:1044FE000E949332B09200400E9487328A2DDF9143
:10450E00CF911F910F91FF90EF90DF90CF90BF90C2
:04451E00AF900895BD
:1045220010C00E94453358F00E943E3340F029F4F7
:104532005F3F29F00C946C3351110C944D330C9461
:104542006E340E949F2F68F39923B1F3552391F3A0
:10455200951B550BBB27AA2762177307840738F0F0
:104562009F5F5F4F220F331F441FAA1FA9F335D04D
:104572000E2E3AF0E0E832D091505040E695001C01
:10458200CAF72BD0FE2F29D0660F771F881FBB1FBB
:10459200261737074807AB07B0E809F0BB0B802D99
:1045A200BF01FF2793585F4F3AF09E3F510578F0C5
:1045B2000C946C330C944D335F3FE4F3983ED4F388
:1045C200869577956795B795F7959F5FC9F7880F99
:1045D200911D9695879597F90895E1E0660F771FEB
:1045E200881FBB1F621773078407BA0720F0621B7C
:0E45F200730B840BBA0BEE1F88F7E09508954B
:104600001F93CF93DF93EC01162F688979898A89EC
:104610009B8941E050E40E941F22811156C01B304B
:1046200011F588A120E2829FC00111242881FC019C
:10463000E35EFF4B20832981FC01E25EFF4B208378
:104640002A81FC01E15EFF4B20832B81FC01E05EAF
:10465000FF4B208388819981AA81BB818C839D83B4
:10466000AE83BF8324C01C3011F588A120E2829F55
:10467000C00111242885FC01E55EFF4B20832985BC
:10468000FC01E45EFF4B20838091165E823079F45A
:1046900088A120E2829FC00111242A85FC01EB5EE3
:1046A000FF4B20832B85FC01EA5EFF4B208368894A
:1046B00079898A899B8941E050E40E942721809171
:1046C0000040853021F08CE003C08CE001C080E028
:0846D000DF91CF911F910895C5
:1046D800CF93DF93DC01F90164387105D9F164F4F3
:1046E8006138710521F16238710509F440C06038FC
:1046F800710509F054C02EC060397105C1F184F408
:104708006838710509F04BC0C081D181CE0102968D
:1047180080839183E881F981ED93FC9340833CC0C9
:10472800603A7105B9F0603C7105A1F038C0C081EC
:10473800D181CE01029680839183E881F981ED933E
:10474800FC93052E000C660B770B40835183628324
:10475800738322C0C081D181CE0102968083918368
:10476800E881F981ED93FC934083518315C0C081A2
:10477800D181CE01029680839183E881F981ED93FE
:10478800FC9340835183852F880F880B8283838312
:10479800848385838683878381E090E002C080E0FC
:0847A80090E0DF91CF9108952C
:1047B0000FC00E943E3338F00E94453320F095230D
:1047C00011F00C946C330C946E3411240C944D3312
:1047D0000E949F2F70F3959FC1F3950F50E0551FD6
:1047E000629FF001729FBB27F00DB11D639FAA2746
:1047F000F00DB11DAA1F649F6627B00DA11D661F95
:10480000829F2227B00DA11D621F739FB00DA11DB5
:10481000621F839FA00D611D221F749F3327A00D6F
:10482000611D231F849F600D211D822F762F6A2F0B
:1048300011249F5750409AF0F1F088234AF0EE0F70
:10484000FF1FBB1F661F771F881F91505040A9F79D
:104850009E3F510580F00C946C330C944D335F3FB8
:10486000E4F3983ED4F3869577956795B795F795D9
:10487000E7959F5FC1F7FE2B880F911D9695879551
:0448800097F9089507
:10488400A2E0B0E0E8E4F4E20C94EC301C014B014B
:10489400FA01DB0112962D913C91139714964D90D9
:1048A4005C9015978D919C91119789839A831696A4
:1048B4006D907C90179737FD03C08D7F89839A8311
:1048C4000081118122813381448155816681778100
:1048D400FE0131965F0188E0C82ED12C7201C4011B
:1048E4000E94C31E298124FF06C00197F301E80F2B
:1048F400F91F20E32083298123FF06C00197F301D8
:10490400E80FF91F20E2208309811A81D401189647
:104914004D915C91199741505109481B590BB301B2
:10492400680F791F9201C1010E944D289C01F10179
:104934008081918190FF08C0D40112968D919C9141
:104944001397821793070CF4C9012296E2E10C94A1
:0249540005312B
:1049560011C00E943E3338F00E94453320F039F4EE
:104966009F3F19F426F40C946E340EF4E095E7FBA1
:104976000C946C33E92F0E949F2F58F3BA176207E5
:1049860073078407950720F079F4A6F50C944C3349
:104996000EF4E0950B2EBA2FA02D0B01B901900154
:1049A6000C01CA01A0011124FF27591B99F0593F98
:1049B60050F4503E68F11A16F040A22F232F342FE0
:1049C6004427585FF3CF469537952795A795F0402E
:1049D6005395C9F77EF41F16BA0B620B730B840B43
:1049E600BAF09150A1F0FF0FBB1F661F771F881FFB
:1049F600C2F70EC0BA0F621F731F841F48F4879553
:104A060077956795B795F7959E3F08F0B0CF939544
:0E4A1600880F08F09927EE0F97958795089561
:104A2400CF92DF92EF92FF920F931F93CF93DF9376
:104A34008C01EB0160910B5E70910C5E80E090E064
:104A440041E050E40E941F22811146C09BE020E017
:104A540011C0E82FF0E0EF5FFF4B9081903211F42A
:104A6400222339F0F801E80FF11D9083211101C0D0
:104A7400282F982F8FEF890F9111EBCFE22FF0E0C1
:104A84003196E00FF11F10826091EF5D7091F05D3F
:104A94008091F15D9091F25D41E050E40E941F220B
:104AA40081111AC08091165E823049F4C09044404E
:104AB400D0904540E0904640F090474008C0813097
:104AC40031F4E1E0F0E4C7A0D0A4E1A4F2A4C882E8
:104AD400D982EA82FB8280E0DF91CF911F910F910E
:0A4AE400FF90EF90DF90CF9008954F
:104AEE000F931F93CF93DF93EC0188819981AA8155
:104AFE00BB810297A105B10530F48091095E9091BA
:104B0E000A5E41E004C08091175E90E040E0288983
:104B1E0039892817390728F141113CC06C817D81F4
:104B2E008E819F8107E020E030E0A9010E9474147D
:104B3E006C837D838E839F830091F75D1091F85D6A
:104B4E002091F95D3091FA5D601771078207930726
:104B5E0019F10E94332F688779878A879B87188A75
:104B6E00198A88859985AA85BB8528893989BC01CA
:104B7E00CD01620F731F811D911D41E050E40E9413
:104B8E001F2281110BC0888999890196888B998B78
:104B9E0080E005C081E003C081E001C08CE0DF91C0
:084BAE00CF911F910F910895B2
:104BB6001F920F920FB60F9211240BB60F922F93DE
:104BC6003F934F935F936F937F938F939F93AF938F
:104BD600BF93EF93FF93789B05C0E091895EF091B8
:104BE6008A5E0995799B05C0E0918B5EF0918C5E9B
:104BF60009957A9B05C0E0918D5EF0918E5E0995D0
:104C06007B9B05C0E0918F5EF091905E09957C9B41
:104C160005C0E091915EF091925E09957D9B05C07D
:104C2600E091935EF091945E09957E9B05C0E091BC
:104C3600955EF091965E09957F9B05C0E091975E23
:104C4600F091985E09958FEF8FB9FF91EF91BF9123
:104C5600AF919F918F917F916F915F914F913F910E
:104C66002F910F900BBE0F900FBE0F901F901895AF
:104C76001F920F920FB60F9211240BB60F922F931D
:104C86003F934F935F936F937F938F939F93AF93CE
:104C9600BF93EF93FF93989B05C0E091995EF091C7
:104CA6009A5E0995999B05C0E0919B5EF0919C5E8A
:104CB60009959A9B05C0E091875EF091885E0995FB
:104CC6009B9B05C0E091855EF091865E09959C9B55
:104CD60005C0E091835EF091845E09959D9B05C0B9
:104CE600E091815EF091825E09959E9B05C0E09100
:104CF6007F5EF091805E09959F9B05C0E0917D5E89
:104D0600F0917E5E09958FEF83BBFF91EF91BF9186
:104D1600AF919F918F917F916F915F914F913F914D
:104D26002F910F900BBE0F900FBE0F901F901895EE
:104D3600E0E0F2E080E8808B118A128A138A148AF6
:104D4600158A168A178A108E118E81E080838183D8
:104D560084A710A211A212A213A214A215A216A22F
:104D660017A210A611A612A613A615A616A617A672
:104D760010AA11AA12AA13AA10924B0210924D025F
:104D860010924C0210924A0210924F021092510257
:104D96001092500210924E02109253021092550237
:104DA600109254021092520212AE13AE14AE15AE09
:104DB60016AE17AE109240021092410210924202B5
:104DC600109243021092440210924502109246023B
:104DD60010924702109248021092490214AA15AA8C
:0C4DE60016AA17AA10AE11AE80E00895C6
:104DF2001F920F920FB60F9211240BB60F922F93A0
:104E02003F934F935F936F937F938F939F93AF9350
:104E1200BF93EF93FF93D99B05C0E091735EF0912E
:104E2200745E0995DA9B05C0E091715EF091725E45
:104E32000995DB9B05C0E0916F5EF091705E09956C
:104E4200DC9B05C0E0916D5EF0916E5E0995DD9B85
:104E520005C0E0916B5EF0916C5E0995DE9B05C02A
:104E6200E091695EF0916A5E0995DF9B05C0E09171
:104E7200675EF091685E09958FEF8BBBFF91EF91B2
:104E8200BF91AF919F918F917F916F915F914F9160
:104E92003F912F910F900BBE0F900FBE0F901F905E
:024EA200189561
:104EA400A2E0B0E0E8E5F7E20C94EC303C014B0101
:104EB400FA01DB0112962D913C91139714964D90B3
:104EC4005C9015978D919C91119789839A8316967E
:104ED4002D903C90179737FD03C08D7F89839A836B
:104EE40000811181228133814481558166817781DA
:104EF400FE0131965F018AE0C82ED12C7201C401F3
:104F04000E94C31E09811A81D40118964D915C91A7
:104F1400199741505109481B590BB101680F791F6A
:104F24009201C3010E944D289C01F301808191816B
:104F340090FF08C0D40112968D919C91139782170B
:0E4F440093070CF4C9012296E2E10C940531AA
:104F52001F920F920FB60F9211240BB60F922F933E
:104F62003F934F935F936F937F938F939F93AF93EF
:104F7200BF93EF93FF933A9B05C0E091B35EF0912C
:104F8200B45E09953B9B05C0E091B15EF091B25EC3
:104F920009953C9B05C0E091AF5EF091B05E09952A
:104FA2003D9B05C0E091AD5EF091AE5E09953E9BE2
:104FB20005C0E091AB5EF091AC5E09953F9B05C0E8
:104FC200E091A95EF091AA5E09958FEF87B9FF91F2
:104FD200EF91BF91AF919F918F917F916F915F916F
:104FE2004F913F912F910F900BBE0F900FBE0F90DC
:044FF2001F9018955F
:104FF6001F920F920FB60F9211240BB60F922F939A
:105006003F934F935F936F937F938F939F93AF934A
:10501600BF93EF93FF935A9B05C0E091A75EF09173
:10502600A85E09955B9B05C0E091A55EF091A65E22
:1050360009955C9B05C0E091A35EF091A45E09957D
:105046005D9B05C0E091A15EF091A25E09955E9B15
:1050560005C0E0919F5EF091A05E09955F9B05C03B
:10506600E0919D5EF0919E5E09958FEF8BB9FF9161
:10507600EF91BF91AF919F918F917F916F915F91CA
:105086004F913F912F910F900BBE0F900FBE0F9037
:045096001F901895BA
:10509A00A0E1B0E0E3E5F8E20C94EE305C013B01FC
:1050AA006A017901280181E04822552400FD14C0D3
:1050BA00421753078CF487010C191D094801A801EE
:1050CA000131110510F040E150E060E270E0CE01DC
:1050DA0001960E94F8320AC0A601B301C5010E94D6
:1050EA009B30CE14DF043CF3C60120C00031110509
:1050FA0058F040E150E0BE016F5F7F4FC5010E944A
:10510A009B3000511109F2CFA4014F705527BE01FF
:10511A006F5F7F4FC5010E949B304114510429F4EF
:10512A00A601B301C5010E949B30C7016096E0E168
:04513A000C94073199
:10513E0088249924F401E401B0E49F93AA279A15D8
:10514E008B049C04ED05FE05CF05D007A10798F44E
:10515E00AD2FDC2FCF2FFE2FE92D982C892E982FD7
:10516E00872F762F652F542F432F322F2227B8509B
:10517E0031F7BF9127C01B2EBF91BB27220F331FC4
:10518E00441F551F661F771F881F991F881C991C67
:10519E00EE1FFF1FCC1FDD1FAA1FBB1F8A149B040F
:1051AE00EC05FD05CE05DF05A007B10748F08A180E
:1051BE009B08EC09FD09CE09DF09A00BB10B21609C
:1051CE001A94E1F62EF49401AF01BE01CD01000C4C
:0251DE00089532
:1051E000CF92DF92EF92FF920F931F93CF93DF93B3
:1051F000EC016A017B0183E00E94B61C688379831D
:105200008A839B83623071058105910558F1009175
:10521000F75D1091F85D2091F95D3091FA5D0C1504
:105220001D052E053F0589F006E09B01AC01C70175
:10523000B6010E9474146623B9F0C090F75DD09057
:10524000F85DE090F95DF090FA5D688179818A817E
:105250009B8106E0A70196010E947414611106C0AB
:105260008CE005C084E003C08CE001C080E0DF91E9
:10527000CF911F910F91FF90EF90DF90CF90089505
:105280000F931F93CF93DF93DB012D913C911197E7
:1052900030FF25C016964D915C91179714962D916D
:1052A0003C9115974217530778F41296ED91FC91B3
:1052B0001397808312962D913C9113972F5F3F4F48
:1052C00012962D933C93139716962D913C91179718
:1052D0002F5F3F4F16962D933C93179715C01C9642
:1052E000ED91FC911D97309719F48FEF9FEF0CC053
:1052F0008B01EC010995892BC1F7F8018681978113
:10530000019686839783CE01DF91CF911F910F91F4
:025310000895FE
:10531200EF92FF920F931F93CF93DF93EC017B01E8
:10532200FB01EE0FFF1FE295F295F07FFE27E07F73
:10533200FE27EF5FFF4B10811F7B212F30E02150B2
:1053420031098DE0289F202D11240AE0AB0161E094
:10535200CE010E94F02C0CE0282FA7016EE0CE01B6
:105362000E94F02C04E0282FA7016CE1CE010E94DC
:10537200F02C9091B95E992341F01092B95E91E0C0
:105382009093B85EC80FD11D1882113011F410929B
:10539200B85EDF91CF911F910F91FF90EF9008952A
:1053A20040E068ED80E690E00E94493440E068ED1C
:1053B20081E690E00E94493440E068ED88E790E0A1
:1053C2000E94493444E268ED88E690E00E94493444
:1053D20040E068ED89E690E00E94493440E068EDE3
:1053E20080E790E00E94493440E068ED8CE790E06D
:1053F2000E94493440E068ED82E690E00E94493420
:1054020040E068ED83E690E00E94493440E068EDB8
:1054120084E690E00E94493440E068ED80E890E044
:0E5422000E9449348091650081FFFCCF0895FF
:10543000EF92FF920F931F93CF93DF93FB0114A280
:10544000FC01228D222389F17A018B01EC0140813C
:105450005181628173810E94532D4AE0B701CE01D0
:105460000E94A615811122C04A895B89B801CE012C
:105470000E94D33081111AC088859985AA85BB8581
:1054800028893989820F931FA11DB11DF801808BD6
:10549000918BA28BB38B888D80A381E085A383A39E
:1054A000C8010E94E32F80E001C087E0DF91CF9127
:0A54B0001F910F91FF90EF900895F7
:1054BA001F920F920FB60F9211240BB60F922F93D1
:1054CA003F934F935F936F937F938F939F93AF9382
:1054DA00BF93EF93FF93BA9B05C0E0917B5EF09177
:1054EA007C5E0995BB9B05C0E091795EF0917A5E7E
:1054FA000995BC9B05C0E091775EF091785E0995AD
:10550A00BD9B05C0E091755EF091765E09958FEFBF
:10551A0087BBFF91EF91BF91AF919F918F917F913F
:10552A006F915F914F913F912F910F900BBE0F900A
:08553A000FBE0F901F901895A1
:105542000F931F93CF93DF93FC0164857585868546
:105552009785623071058105910578F1EF0107E0C9
:1055620020E030E0A9010E9474146C877D878E8749
:105572009F871C8E1D8E0091F75D1091F85D209122
:10558200F95D3091FA5D601771078207930721F484
:1055920081E08EA382E012C061157105810591053B
:1055A20021F48CE089A383E009C00E94332F688F25
:1055B200798F8A8F9B8F80E001C081E0DF91CF914C
:0655C2001F910F910895F6
:1055C800CF93DF93FC0124A1222391F125A121117E
:1055D80031C0EC01808D918DA28DB38D248D358DD8
:1055E800BC01CD01620F731F811D911D41E050E484
:1055F8000E942721809100408530F1F48BA18823F7
:1056080099F0488159816A817B818C819D81AE8125
:10561800BF8184179507A607B70730F46BE0CE0162
:105628000E940023811109C081E08DA380E005C09C
:1056380087E003C087E001C08CE0DF91CF91089537
:10564800CF93DF93C4E60E947B3220E040E050E035
:10565800BA0187E30E947C2F0E949F320E94873202
:105668000E947B328091B75E813041F420E040E0B7
:1056780050E0BA0189E20E947C2F08C020E040E097
:1056880050E060E070E489E20E947C2F0E949F3223
:10569800D82F0E948732C1508FE59AEE0197F1F713
:1056A80000C00000DD2311F0C111CDCFC11102C02F
:0C56B80081E001C08D2FDF91CF9108959B
:1056C400E89409C097FB3EF4909580957095619598
:1056D4007F4F8F4F9F4F9923A9F0F92F96E9BB274E
:1056E4009395F695879577956795B795F111F8CFCA
:1056F400FAF4BB0F11F460FF1BC06F5F7F4F8F4F35
:105704009F4F16C0882311F096E911C0772321F02A
:105714009EE8872F762F05C0662371F096E8862FC2
:1057240070E060E02AF09A95660F771F881FDAF719
:0A573400880F9695879597F9089560
:10573E00CF92DF92EF92FF921F93CF93DF936B0185
:10574E007C01142F40E060E072E080E090E00E9467
:10575E003232C701B6010E94332F6B017C01C0E0CB
:10576E00D0E080E011C041E050E4C701B6016C0FFB
:10577E007D1F811D911D0E94272190910040953023
:10578E0051F4111109C021962091175E30E0C21715
:10579E00D30748F301C08CE0DF91CF911F91FF90AA
:0857AE00EF90DF90CF90089509
:1057B600A0E1B0E0E1EEFBE20C94F830FB01BA01A7
:1057C600AE014F5F5F4F7A0140E1D7011D924A95C6
:1057D600E9F742E051E049835A838B839C83F7FFC4
:1057E60009C08FE490E08093ED439093EE438FEFF2
:1057F6009FEF14C0A9018C013197ED83FE83C70189
:105806000E941D314F8158852D813E8142175307D5
:1058160008F49A01F801E20FF31F10826096E6E0A1
:045826000C9411319C
:10582A00AC01FA0190814F5F5F4F9032D1F3292F7B
:10583A00092E000C330B295031092530310588F324
:10584A009B3209F540E050E0319602C040E050E05A
:10585A0080E090E06AE02191022E000C330B205385
:10586A0031092A30310548F4689FD001699FB00D8B
:10587A001124CD01821B930BEECF452B49F4919550
:10588A008195910908959D3209F741E050E0DCCFF6
:02589A0008956F
:10589C00DA0190E030E023C0E92FF0E020E2829FB3
:1058AC00E00DF11D1124EF5FFF4B20815FEB520FD8
:1058BC005A3108F4205E983041F4613031F0FD012A
:1058CC00E30FF11D4EE240833F5F203211F4613053
:1058DC0029F4FD01E30FF11D20833F5F9F5F9B3097
:1058EC00D8F2832F90E0FC013197EA0FFB1F208147
:1058FC002E3209F41082FD01E80FF91F1082089571
:10590C008431910590F5FC01EE57FF4F0C94EF326A
:10591C0082E080938204089581E08093820408954C
:10592C0029E030E0281B390B81E090E002C0880FA1
:10593C00991F2A95E2F7809362040895089721E055
:10594C0030E0A90102C0440F551F8A95E2F740933D
:10595C00820408950E9721E030E0A90102C0440FA3
:0C596C00551F8A95E2F74093A2040895AD
:10597800A7E0B0E0E2ECFCE20C94F2305C017A01C2
:10598800C90127E0E2E5FEE5DE01119601900D92DE
:105998002A95E1F7FB01C280D3808480958000813D
:1059A8001181452B21F49E012F5F3F4F790100970C
:1059B80019F4C7010E946D32D7FC04C0C816D90675
:1059C80008F4C6019401AC01B701C5010E944D2835
:0859D8002796ECE00C940B3162
:1059E0000F93CF93DF93EC0190E025C0E92FF0E017
:1059F000E60FF11DDA01AA0FBB1FA295B295B07F89
:105A0000BA27A07FBA27EA0FFB1FEF5FFF4B308159
:105A1000332381F03F3F89F02F3F79F0FE01E20F01
:105A2000F11D30838091B85E811103C081E08093C5
:105A3000B95E2F5F9E5F9017C8F2822FDF91CF91E2
:045A40000F91089525
:105A44000F931F93CF93DF93EA01E0E0F0E021C0CE
:105A5400A881B9813C91332369F0DF01A80FB91FF4
