S01300004D43555F4755495F636F6D2E737265634A
S11300000C947A000C9491000C9491000C9491003F
S11300100C9491000C9491000C9491000C94910018
S11300200C9491000C9491000C9491000C94910008
S11300300C9491000C9491000C9491000C949100F8
S11300400C9491000C9491000C9491000C949100E8
S11300500C9491000C9491000C9491000C949100D8
S11300600C9491000C9491000C9491000C949100C8
S11300700C9491000C9491000C9491000C949100B8
S11300800C9491000C9491000C9491000C949100A8
S11300900C9491000C9491000C9491000C94910098
S11300A00C9491000C9491000C9491000C94910088
S11300B00C9491000C9491000C9491000C94910078
S11300C00C9491000C9491000C9491000C94910068
S11300D00C9491000C9491000C9491000C94910058
S11300E00C9491000C9491000C9491000C94910048
S11300F00C94910011241FBECFEFCDBFDFE7DEBF0C
S113010010E4A0E0B0E4EAE7F8E000E00BBF02C0CE
S113011007900D92A231B107D9F70E9409010C94FE
S11301203B040C940000E0E2F4E081818860818368
S11301300895E0EEF5E0828180618283E0E4F8E0F6
S113014081E896E0808791878681806C86838581AB
S1130150806C85830895CF93DF93CDB7DEB7E297A4
S1130160CDBFDEBF7F936F939F938F9380E090E426
S11301709F938F93CE0101969F938F930E945E016C
S1130180AC01E0E2F4E08481886084832FE78AE1B3
S113019096E0215080409040E1F700C00000CDBFC0
S11301A0DEBF20E030E00FC09091440895FFFCCF03
S11301B0E1E0F0E0EC0FFD1FE20FF31F908190935C
S11301C042082F5F3F4F2417350774F320E030E0D7
S11301D009C08091440885FFFCCF8FEF80934208CB
S11301E02F5F3F4F23303105A4F3E0E2F4E0848134
S11301F0877F84839FE72AE186E0915020408040F6
S1130200E1F700C00000E296CDBFDEBFDF91CF91E1
S11302100895CF93DF93CDB7DEB7E297CDBFDEBFAE
S11302200E9493000E94990080E0082F10E01F9222
S11302308F938CE090E49F938F93CE0101967C0181
S11302409F938F930E945E01B7018FE090E40E9418
S1130250AB00C801019664E670E00E9436010F907D
S11302600F900F900F900F900F90DFCF97FB072EFA
S113027016F4009407D077FD09D00E944A0107FCC8
S113028005D03EF4909581959F4F089570956195A2
S11302907F4F0895AA1BBB1B51E107C0AA1FBB1FB8
S11302A0A617B70710F0A61BB70B881F991F5A95FE
S11302B0A9F780959095BC01CD0108950F931F93E4
S11302C0CF93DF93CDB7DEB72E97CDBFDEBF0D89B9
S11302D01E8986E08C8309831A838FEF9FE78D83C1
S11302E09E83AE01475E5F4F6F89788DCE01019684
S11302F00E948701EF81F885E00FF11F10822E968E
S1130300CDBFDEBFDF91CF911F910F9108952F9242
S11303103F924F925F926F927F928F929F92AF9291
S1130320BF92CF92DF92EF92FF920F931F93CF93DE
S1130330DF93CDB7DEB72B97CDBFDEBF6C017B015A
S11303408A01FC0116821782838181FFCCC1CE0110
S113035001963C01F6019381F70193FD859193FF8A
S113036081917F01882309F4BAC1853239F493FD60
S1130370859193FF81917F01853229F4B60190E044
S11303800E94A103E7CF912C212C312CFFE1F3151E
S1130390D8F08B3279F038F4803279F08332A1F4DA
S11303A0232D20611DC08D3261F0803369F4232D2B
S11303B0216016C0832D8260382EE32DE4603E2E2A
S11303C02AC0F32DF8601DC037FC2DC020ED280F86
S11303D02A3040F08E32B9F436FC81C1232D2064DA
S11303E0322E19C036FE06C08AE0989E200D1124D4
S11303F0922E11C0EAE02E9E200D1124222EF32D00
S1130400F0623F2E08C08C3621F4832D8068382E8C
S113041002C0883641F4F70193FD859193FF8191E1
S11304207F018111B3CF982F9F7D9554933028F489
S11304300C5F1F4F9FE399830DC0833631F08337E0
S113044071F0833509F059C021C0F8018081898396
S11304500E5F1F4F88248394912C530113C02801ED
S1130460F2E04F0E511CF801A080B18036FE03C0AB
S1130470692D70E002C06FEF7FEFC5010E94960303
S11304804C018201F32DFF773F2E16C0280122E094
S1130490420E511CF801A080B18036FE03C0692DC4
S11304A070E002C06FEF7FEFC5010E948B034C0127
S11304B0F32DF0683F2E820133FC1BC0822D90E0A7
S11304C088169906B0F4B60180E290E00E94A10378
S11304D02A94F4CFF50137FC859137FE81915F01B1
S11304E0B60190E00E94A10321102A9421E0821A0F
S11304F091088114910471F7E8C0843611F08936AB
S113050041F5F80137FE07C06081718182819381D2
S11305100C5F1F4F08C060817181072E000C880B8F
S1130520990B0E5F1F4FF32DFF763F2E97FF09C0E7
S113053090958095709561957F4F8F4F9F4FF06890
S11305403F2E2AE030E0A3010E94DD03882E8618A6
S113055045C0853731F4232D2F7EB22E2AE030E0BA
S113056025C0932D997FB92E8F36C1F018F48835A4
S113057079F0B5C0803719F0883721F0B0C0E92F81
S1130580E061BE2EB4FE0DC0FB2DF460BF2E09C089
S113059034FE0AC0292F2660B22E06C028E030E0BF
S11305A005C020E130E002C020E132E0F801B7FEEE
S11305B007C060817181828193810C5F1F4F06C0E7
S11305C06081718180E090E00E5F1F4FA3010E9463
S11305D0DD03882E8618FB2DFF773F2E36FE0DC0D7
S11305E0232D2E7FA22E891458F434FE0BC032FC26
S11305F009C0832D8E7EA82E05C0B82CA32C03C061
S1130600B82C01C0B92CA4FE0FC0FE01E80DF11DE9
S11306108081803321F49A2D997EA92E09C0A2FEEF
S113062006C0B394B39404C08A2D867809F0B394B9
S1130630A3FC11C0A0FE06C0B21488F4280C922CAE
S11306409B180EC0B21460F4B60180E290E00E94E0
S1130650A103B394F7CFB21418F42B1802C0982C4A
S1130660212CA4FE10C0B60180E390E00E94A103F7
S1130670A2FE17C0A1FC03C088E790E002C088E591
S113068090E0B6010CC08A2D867859F0A1FE02C014
S11306908BE201C080E2A7FC8DE2B60190E00E94EB
S11306A0A103891438F4B60180E390E00E94A10309
S11306B09A94F7CF8A94F301E80DF11D8081B60175
S11306C090E00E94A1038110F5CF222009F442CECC
S11306D0B60180E290E00E94A1032A94F6CFF601CD
S11306E08681978102C08FEF9FEF2B96CDBFDEBF2F
S11306F0DF91CF911F910F91FF90EF90DF90CF90FA
S1130700BF90AF909F908F907F906F905F904F902D
S11307103F902F900895FC010590615070400110A6
S1130720D8F7809590958E0F9F1F0895FC01615016
S1130730704001900110D8F7809590958E0F9F1FFF
S113074008950F931F93CF93DF93FB01238121FD22
S113075003C08FEF9FEF2CC022FF16C04681578144
S1130760248135814217530744F4A081B1819D014E
S11307702F5F3F4F208331838C93268137812F5FF6
S11307803F4F2683378314C08B01EC01FB010084A7
S1130790F185E02D0995892BE1F6D80116968D9106
S11307A09C911797019616968D939C931797CE015B
S11307B0DF91CF911F910F910895FA01AA27283054
S11307C051F1203181F1E8946F936E7F6E5F7F4F1A
S11307D08F4F9F4FAF4FB1E03ED0B4E03CD0670F96
S11307E0781F891F9A1FA11D680F791F8A1F911DE9
S11307F0A11D6A0F711D811D911DA11D20D009F439
S113080068943F912AE0269F11243019305D31937A
S1130810DEF6CF010895462F4770405D4193B3E063
S11308200FD0C9F7F6CF462F4F70405D4A3318F00A
S1130830495D31FD4052419302D0A9F7EACFB4E0BB
S1130840A6959795879577956795BA95C9F7009773
S11308506105710508959B01AC010A2E0694579514
S1130860479537952795BA95C9F7620F731F841F6B
S10D0870951FA01D0895F894FFCF12
S113087A25732E7478743D2225732200256400742E
S105088A300038
S9030000FC
