S01300004D43555F4755495F636F6D2E737265634A
S11300000C947A000C9499000C9499000C94990027
S11300100C9499000C9499000C9499000C949900F8
S11300200C9499000C9499000C9499000C949900E8
S11300300C9499000C9499000C9499000C949900D8
S11300400C9499000C9499000C9499000C949900C8
S11300500C9499000C9499000C9499000C949900B8
S11300600C9499000C9499000C9499000C949900A8
S11300700C9499000C9499000C9499000C94990098
S11300800C9499000C9499000C9499000C94990088
S11300900C9499000C9499000C947F010C944E01DB
S11300A00C9499000C9499000C9499000C94990068
S11300B00C9499000C9499000C9499000C94990058
S11300C00C9499000C9499000C9499000C94990048
S11300D00C9499000C941A010C94E9000C94990066
S11300E00C9499000C9499000C9499000C94990028
S11300F00C94990011241FBECFEFCDBFDFE7DEBF04
S113010010E4A0E0B0E4E4E4FAE000E00BBF02C0D5
S113011007900D92A831B107D9F720E4A8E1B0E423
S113012001C01D92A938B207E1F70E94D6010C94D0
S113013020050C940000E0E2F4E088E081838481EF
S1130140886084830895E0EEF5E082811282E0E223
S1130150F4E081E0818382E08283E0E6F8E080E1FC
S113016097E28087918780EC868380E88583089571
S113017080E18093E205E0EAF4E0818380E2828317
S1130180E0E4F8E080E197E28087918780EC868361
S113019080E8858308951F922FEF2F931F922F934A
S11301A01F922F937F936F939F938F9380E090E49C
S11301B09F938F9385E290E49F938F930E943D02D7
S11301C080E2809345088DB79EB70E968DBF9EBF83
S11301D008951F920F920FB60F9211240BB60F922F
S11301E08F93EF93FF93E0911940F0E0E95AFF4BAE
S11301F08081882371F0E0911940F0E0E95AFF4BC7
S1130200808180936208809119408F5F80931940A8
S113021007C0E0E6F8E085818F7D85831092194060
S1130220FF91EF918F910F900BBE0F900FBE0F9027
S11302301F9018951F920F920FB60F9211240BB6B0
S11302400F928F93EF93FF93E0911840F0E0809129
S11302506008E35EFF4B8083809118408F5F80933A
S1130260184080911840843078F0109218408091A2
S11302701D40813321F481E080931A4002C0109222
S11302801A4088E080932704FF91EF918F910F909B
S11302900BBE0F900FBE0F901F9018951F920F92D8
S11302A00FB60F9211240BB60F928F93EF93FF9317
S11302B0E0911C40F0E0EB5DFF4B8081882371F0FE
S11302C0E0911C40F0E0EB5DFF4B8081809342089D
S11302D080911C408F5F80931C4007C0E0E4F8E0ED
S11302E085818F7D858310921C40FF91EF918F91C2
S11302F00F900BBE0F900FBE0F901F9018951F927A
S11303000F920FB60F9211240BB60F928F93AF93E7
S1130310BF93EF93FF93E0911B40F0E0809140087E
S1130320EF5DFF4B808380911B408F5F80931B4068
S113033080911B40833070F1E0911B40F0E0E05E5F
S1130340FF4B80818F3F31F5E0911B40F0E0E15E8F
S1130350FF4B80818F3FF1F4E0911B40F0E0E25EBF
S1130360FF4B80818F3FB1F480912140813321F490
S113037081E080931A4002C010921A4088E0809372
S1130380250484E0E1E2F0E4DF011D928A95E9F7B7
S113039010921B40FF91EF91BF91AF918F910F90FD
S11303A00BBE0F900FBE0F901F901895CF93DF9345
S11303B0CDB7DEB7E297CDBFDEBF64E288E690E05A
S11303C00E941A050E949B000E94A3000E94B8008C
S11303D0789488E08093260481E080931A4080E03A
S11303E090911A409923E1F3082F10E01F928F9304
S11303F082E190E49F938F93CE0101967C019F93B9
S11304008F930E943D02B70185E190E40E94CB00E6
S1130410C801019664E670E00E9415020F900F90E7
S11304200F900F900F900F90DBCF97FB072E16F4D1
S1130430009407D077FD09D00E94290207FC05D05B
S11304403EF4909581959F4F0895709561957F4FE7
S11304500895AA1BBB1B51E107C0AA1FBB1FA61707
S1130460B70710F0A61BB70B881F991F5A95A9F759
S113047080959095BC01CD0108950F931F93CF9360
S1130480DF93CDB7DEB72E97CDBFDEBF0D891E89B2
S113049086E08C8309831A838FEF9FE78D839E8385
S11304A0AE01475E5F4F6F89788DCE0101960E9441
S11304B06602EF81F885E00FF11F10822E96CDBF02
S11304C0DEBFDF91CF911F910F9108952F923F923C
S11304D04F925F926F927F928F929F92AF92BF9250
S11304E0CF92DF92EF92FF920F931F93CF93DF93FC
S11304F0CDB7DEB72B97CDBFDEBF6C017B018A0180
S1130500FC0116821782838181FFCCC1CE01019642
S11305103C01F6019381F70193FD859193FF81914D
S11305207F01882309F4BAC1853239F493FD85919A
S113053093FF81917F01853229F4B60190E00E94F6
S11305408004E7CF912C212C312CFFE1F315D8F056
S11305508B3279F038F4803279F08332A1F4232D90
S113056020611DC08D3261F0803369F4232D216038
S113057016C0832D8260382EE32DE4603E2E2AC0FF
S1130580F32DF8601DC037FC2DC020ED280F2A3054
S113059040F08E32B9F436FC81C1232D2064322E12
S11305A019C036FE06C08AE0989E200D1124922EB2
S11305B011C0EAE02E9E200D1124222EF32DF062AC
S11305C03F2E08C08C3621F4832D8068382E02C05B
S11305D0883641F4F70193FD859193FF81917F0162
S11305E08111B3CF982F9F7D9554933028F40C5FDD
S11305F01F4F9FE399830DC0833631F0833771F029
S1130600833509F059C021C0F801808189830E5FC8
S11306101F4F88248394912C530113C02801F2E0C6
S11306204F0E511CF801A080B18036FE03C0692D25
S113063070E002C06FEF7FEFC5010E9475044C01AA
S11306408201F32DFF773F2E16C0280122E0420ECF
S1130650511CF801A080B18036FE03C0692D70E002
S113066002C06FEF7FEFC5010E946A044C01F32DB5
S1130670F0683F2E820133FC1BC0822D90E0881667
S11306809906B0F4B60180E290E00E9480042A94B6
S1130690F4CFF50137FC859137FE81915F01B601F6
S11306A090E00E94800421102A9421E0821A91088B
S11306B08114910471F7E8C0843611F0893641F54C
S11306C0F80137FE07C060817181828193810C5FDC
S11306D01F4F08C060817181072E000C880B990B95
S11306E00E5F1F4FF32DFF763F2E97FF09C09095A5
S11306F08095709561957F4F8F4F9F4FF0683F2E87
S11307002AE030E0A3010E94BC04882E861845C06C
S1130710853731F4232D2F7EB22E2AE030E025C018
S1130720932D997FB92E8F36C1F018F4883579F05E
S1130730B5C0803719F0883721F0B0C0E92FE061E7
S1130740BE2EB4FE0DC0FB2DF460BF2E09C034FED6
S11307500AC0292F2660B22E06C028E030E005C06A
S113076020E130E002C020E132E0F801B7FE07C02A
S113077060817181828193810C5F1F4F06C060810B
S1130780718180E090E00E5F1F4FA3010E94BC04C2
S1130790882E8618FB2DFF773F2E36FE0DC0232DA5
S11307A02E7FA22E891458F434FE0BC032FC09C0EB
S11307B0832D8E7EA82E05C0B82CA32C03C0B82C84
S11307C001C0B92CA4FE0FC0FE01E80DF11D80810B
S11307D0803321F49A2D997EA92E09C0A2FE06C069
S11307E0B394B39404C08A2D867809F0B394A3FC1F
S11307F011C0A0FE06C0B21488F4280C922C9B18D9
S11308000EC0B21460F4B60180E290E00E9480044D
S1130810B394F7CFB21418F42B1802C0982C212CDF
S1130820A4FE10C0B60180E390E00E948004A2FE02
S113083017C0A1FC03C088E790E002C088E590E0FF
S1130840B6010CC08A2D867859F0A1FE02C08BE255
S113085001C080E2A7FC8DE2B60190E00E94800412
S1130860891438F4B60180E390E00E9480049A94DD
S1130870F7CF8A94F301E80DF11D8081B60190E071
S11308800E9480048110F5CF222009F442CEB601E3
S113089080E290E00E9480042A94F6CFF6018681DB
S11308A0978102C08FEF9FEF2B96CDBFDEBFDF9104
S11308B0CF911F910F91FF90EF90DF90CF90BF9059
S11308C0AF909F908F907F906F905F904F903F90EC
S11308D02F900895FC010590615070400110D8F7E5
S11308E0809590958E0F9F1F0895FC016150704074
S11308F001900110D8F7809590958E0F9F1F089551
S11309000F931F93CF93DF93FB01238121FD03C03A
S11309108FEF9FEF2CC022FF16C0468157812481A0
S113092035814217530744F4A081B1819D012F5FA3
S11309303F4F208331838C93268137812F5F3F4F34
S11309402683378314C08B01EC01FB010084F185FD
S1130950E02D0995892BE1F6D80116968D919C918D
S11309601797019616968D939C931797CE01DF9156
S1130970CF911F910F910895FA01AA27283051F1C0
S1130980203181F1E8946F936E7F6E5F7F4F8F4FBC
S11309909F4FAF4FB1E03ED0B4E03CD0670F781F1B
S11309A0891F9A1FA11D680F791F8A1F911DA11D00
S11309B06A0F711D811D911DA11D20D009F4689439
S11309C03F912AE0269F11243019305D3193DEF6E1
S11309D0CF010895462F4770405D4193B3E00FD097
S11309E0C9F7F6CF462F4F70405D4A3318F0495D82
S11309F031FD4052419302D0A9F7EACFB4E0A69565
S1130A009795879577956795BA95C9F70097610586
S1130A10710508959B01AC010A2E069457954795DC
S1130A2037952795BA95C9F7620F731F841F951FD1
S1130A30A01D0895DC0128ED209334006C930895E3
S1070A40F894FFCF54
S1130A4425732E7478743D2225732225632563252A
S10B0A54630025640074300006
S9030000FC
