:100000000C947A000C9499000C9499000C9499002B
:100010000C9499000C9499000C9499000C949900FC
:100020000C9499000C9499000C9499000C949900EC
:100030000C9499000C9499000C9499000C949900DC
:100040000C9499000C9499000C9499000C949900CC
:100050000C9499000C9499000C9499000C949900BC
:100060000C9499000C9499000C9499000C949900AC
:100070000C9499000C9499000C9499000C9499009C
:100080000C9499000C9499000C9499000C9499008C
:100090000C9499000C9499000C94CA010C949E0144
:1000A0000C9499000C9499000C9499000C9499006C
:1000B0000C9499000C9499000C9499000C9499005C
:1000C0000C9499000C9499000C9499000C9499004C
:1000D0000C9499000C946B010C943F010C949900C2
:1000E0000C9499000C9499000C9499000C9499002C
:1000F0000C94990011241FBECFEFCDBFDFE7DEBF08
:1001000010E4A0E0B0E4E2EBFAE000E00BBF02C0D4
:1001100007900D92A432B107D9F720E4A4E2B0E42D
:1001200001C01D92A639B207E1F70E9400020C94AB
:1001300057050C940000E0E2F4E088E081838481BC
:10014000886084830895E0EEF5E082811282E0E227
:10015000F4E081E0818382E08283E0E6F8E080E100
:1001600097E28087918780EC868380E88583089575
:10017000CF93DF93CDB7DEB7E297CDBFDEBF1F923F
:100180002FEF2F931F922F931F922F937F936F9395
:100190009F938F9380E090E49F938F93CE0101967D
:1001A0009F938F930E947402AC01CDBFDEBF20E00D
:1001B00030E00FC09091640895FFFCCFE1E0F0E0E3
:1001C000EC0FFD1FE20FF31F9081909362082F5FE9
:1001D0003F4F2417350774F3E296CDBFDEBFDF91A2
:1001E000CF91089580E18093E205E0EAF4E0818315
:1001F00080E28283E0E4F8E080E197E28087918703
:1002000080EC868380E885830895CF93DF93CDB714
:10021000DEB7E297CDBFDEBF1F922FEF2F931F9265
:100220002F931F922F937F936F939F938F9380E0D1
:1002300090E49F938F93CE0101969F938F930E949A
:100240007402AC01CDBFDEBF20E030E00FC0909162
:10025000440895FFFCCFE1E0F0E0EC0FFD1FE20F5A
:10026000F31F9081909342082F5F3F4F241735076B
:1002700074F3E296CDBFDEBFDF91CF9108951F9258
:100280000F920FB60F9211240BB60F928F939F937C
:10029000EF93FF9380912640E82FF0E0EC59FF4B5D
:1002A0009081992331F0909362088F5F809326406C
:1002B00007C0E0E6F8E085818F7D858310922640B7
:1002C000FF91EF919F918F910F900BBE0F900FBEFA
:1002D0000F901F9018951F920F920FB60F92112436
:1002E0000BB60F928F939F93EF93FF9380912540CE
:1002F000E82FF0E090916008E65DFF4B90838F5F00
:1003000080932540843078F01092254080912A40D7
:10031000813321F481E08093274002C0109227406E
:1003200088E080932704FF91EF919F918F910F9028
:100330000BBE0F900FBE0F901F9018951F920F923B
:100340000FB60F9211240BB60F928F939F93EF93DA
:10035000FF9380912940E82FF0E0EE5CFF4B908105
:10036000992331F0909342088F5F8093294007C012
:10037000E0E4F8E085818F7D858310922940FF912C
:10038000EF919F918F910F900BBE0F900FBE0F902A
:100390001F9018951F920F920FB60F9211240BB653
:1003A0000F928F939F93EF93FF9380912840E82FB4
:1003B000F0E090914008E25DFF4B90838F5F809367
:1003C0002840843090F088E08093270410922840E1
:1003D00080912E40813321F481E08093274002C038
:1003E0001092274081E080932440FF91EF919F91EC
:1003F0008F910F900BBE0F900FBE0F901F9018950E
:10040000CF93DF93CDB7DEB7E297CDBFDEBF64E217
:1004100088E690E00E9451050E949B000E94A30084
:100420000E94F200789488E08093260481E0809313
:10043000274010E090912740992309F1E12EF12CFB
:100440001F921F9382E190E49F938F938E010F5F21
:100450001F4F1F930F930E947402B80185E190E42F
:100460000E940501C701019664E670E00E944C02FB
:10047000182F0F900F900F900F900F900F9090915A
:1004800024409130B9F668E170E48BE190E40E9479
:10049000B80010922440CECF97FB072E16F400949C
:1004A00007D077FD09D00E94600207FC05D03EF41A
:1004B000909581959F4F0895709561957F4F089510
:1004C000AA1BBB1B51E107C0AA1FBB1FA617B7077A
:1004D00010F0A61BB70B881F991F5A95A9F7809596
:1004E0009095BC01CD0108950F931F93CF93DF9397
:1004F000CDB7DEB72E97CDBFDEBF0D891E8986E052
:100500008C8309831A838FEF9FE78D839E83AE01CF
:10051000475E5F4F6F89788DCE0101960E949D02E4
:10052000EF81F885E00FF11F10822E96CDBFDEBF60
:10053000DF91CF911F910F9108952F923F924F928B
:100540005F926F927F928F929F92AF92BF92CF9263
:10055000DF92EF92FF920F931F93CF93DF93CDB76C
:10056000DEB72B97CDBFDEBF6C017B018A01FC019A
:1005700016821782838181FFCCC1CE0101963C0196
:10058000F6019381F70193FD859193FF81917F019E
:10059000882309F4BAC1853239F493FD859193FF1C
:1005A00081917F01853229F4B60190E00E94B70461
:1005B000E7CF912C212C312CFFE1F315D8F08B32B1
:1005C00079F038F4803279F08332A1F4232D206160
:1005D0001DC08D3261F0803369F4232D216016C077
:1005E000832D8260382EE32DE4603E2E2AC0F32D49
:1005F000F8601DC037FC2DC020ED280F2A3040F0D8
:100600008E32B9F436FC81C1232D2064322E19C0FC
:1006100036FE06C08AE0989E200D1124922E11C04D
:10062000EAE02E9E200D1124222EF32DF0623F2EA3
:1006300008C08C3621F4832D8068382E02C088369D
:1006400041F4F70193FD859193FF81917F01811121
:10065000B3CF982F9F7D9554933028F40C5F1F4F94
:100660009FE399830DC0833631F0833771F0833572
:1006700009F059C021C0F801808189830E5F1F4FA6
:1006800088248394912C530113C02801F2E04F0E6B
:10069000511CF801A080B18036FE03C0692D70E0C6
:1006A00002C06FEF7FEFC5010E94AC044C018201D4
:1006B000F32DFF773F2E16C0280122E0420E511C79
:1006C000F801A080B18036FE03C0692D70E002C041
:1006D0006FEF7FEFC5010E94A1044C01F32DF0687C
:1006E0003F2E820133FC1BC0822D90E088169906B4
:1006F000B0F4B60180E290E00E94B7042A94F4CFEF
:10070000F50137FC859137FE81915F01B60190E0DC
:100710000E94B70421102A9421E0821A91088114C2
:10072000910471F7E8C0843611F0893641F5F8017B
:1007300037FE07C060817181828193810C5F1F4FFA
:1007400008C060817181072E000C880B990B0E5F29
:100750001F4FF32DFF763F2E97FF09C09095809590
:10076000709561957F4F8F4F9F4FF0683F2E2AE025
:1007700030E0A3010E94F304882E861845C0853717
:1007800031F4232D2F7EB22E2AE030E025C0932DA8
:10079000997FB92E8F36C1F018F4883579F0B5C03D
:1007A000803719F0883721F0B0C0E92FE061BE2E04
:1007B000B4FE0DC0FB2DF460BF2E09C034FE0AC08C
:1007C000292F2660B22E06C028E030E005C020E1C7
:1007D00030E002C020E132E0F801B7FE07C06081DE
:1007E0007181828193810C5F1F4F06C0608171818E
:1007F00080E090E00E5F1F4FA3010E94F304882E5B
:100800008618FB2DFF773F2E36FE0DC0232D2E7F41
:10081000A22E891458F434FE0BC032FC09C0832D7B
:100820008E7EA82E05C0B82CA32C03C0B82C01C006
:10083000B92CA4FE0FC0FE01E80DF11D80818033AC
:1008400021F49A2D997EA92E09C0A2FE06C0B39468
:10085000B39404C08A2D867809F0B394A3FC11C028
:10086000A0FE06C0B21488F4280C922C9B180EC06F
:10087000B21460F4B60180E290E00E94B704B39431
:10088000F7CFB21418F42B1802C0982C212CA4FE18
:1008900010C0B60180E390E00E94B704A2FE17C02A
:1008A000A1FC03C088E790E002C088E590E0B601B3
:1008B0000CC08A2D867859F0A1FE02C08BE201C0DF
:1008C00080E2A7FC8DE2B60190E00E94B704891493
:1008D00038F4B60180E390E00E94B7049A94F7CF11
:1008E0008A94F301E80DF11D8081B60190E00E9429
:1008F000B7048110F5CF222009F442CEB60180E280
:1009000090E00E94B7042A94F6CFF6018681978181
:1009100002C08FEF9FEF2B96CDBFDEBFDF91CF914F
:100920001F910F91FF90EF90DF90CF90BF90AF900D
:100930009F908F907F906F905F904F903F902F90FF
:100940000895FC010590615070400110D8F7809522
:1009500090958E0F9F1F0895FC016150704001908B
:100960000110D8F7809590958E0F9F1F08950F93D3
:100970001F93CF93DF93FB01238121FD03C08FEFF2
:100980009FEF2CC022FF16C04681578124813581FC
:100990004217530744F4A081B1819D012F5F3F4F5F
:1009A000208331838C93268137812F5F3F4F2683AD
:1009B000378314C08B01EC01FB010084F185E02D2D
:1009C0000995892BE1F6D80116968D919C91179780
:1009D000019616968D939C931797CE01DF91CF9138
:1009E0001F910F910895FA01AA27283051F1203163
:1009F00081F1E8946F936E7F6E5F7F4F8F4F9F4FB3
:100A0000AF4FB1E03ED0B4E03CD0670F781F891FF4
:100A10009A1FA11D680F791F8A1F911DA11D6A0FC2
:100A2000711D811D911DA11D20D009F468943F9175
:100A30002AE0269F11243019305D3193DEF6CF0174
:100A40000895462F4770405D4193B3E00FD0C9F73A
:100A5000F6CF462F4F70405D4A3318F0495D31FDA7
:100A60004052419302D0A9F7EACFB4E0A6959795FA
:100A7000879577956795BA95C9F7009761057105D0
:100A800008959B01AC010A2E06945795479537951A
:100A90002795BA95C9F7620F731F841F951FA01D74
:100AA0000895DC0128ED209334006C930895F894A8
:020AB000FFCF76
:100AB20025732E7478743D222573222563256325C0
:100AC200630025640074300031310073756363651F
:040AD200737300003A
:00000001FF
