:100000000C94DB000C940C0A0C940C0A0C940C0A53
:100010000C940C0A0C940C0A0C940C0A0C940C0A08
:100020000C94F5070C940C0A0C940C0A0C940C0A12
:100030000C940C0A0C940C0A0C940C0A0C940C0AE8
:100040000C940C0A0C940C0A0C940C0A0C940C0AD8
:100050000C940C0A0C940C0A0C940C0A0C940C0AC8
:100060000C94F2030C940C0A0C94C5070C9495079D
:100070000C940C0A0C940C0A0C94BB050C940C0AFE
:100080000C940C0A0C940C0A0C940C0A0C94540654
:100090000C940C0A0C940C0A0C940C0A0C940C0A88
:1000A0000C940C0A0C940C0A0C940C0A0C940C0A78
:1000B0000C940C0A0C9469050C9452040C940C0AD0
:1000C0000C940C0A0C940C0A0C940C0A0C940C0A58
:1000D0000C940C0A0C940C0A0C940C0A0C940C0A48
:1000E0000C940C0A0C940C0A0C940C0A0C94100539
:1000F0000C940C0A0C940C0A0C940C0A0C940C0A28
:100100000C940C0ADD06E106E106E106E106E106D3
:10011000E106ED06ED06ED06ED06ED06ED06F90647
:10012000F906F906F906F906F906F9060D071107A9
:10013000110711071107110711071D071D071D07DB
:100140001D071D071D072907290729072907290753
:10015000290729073D074107410741074107410793
:1001600041074D074D074D074D074D074D075907EF
:100170005907590759075907590759076D07710753
:10018000710771077107710771077D077D077D078B
:100190007D077D077D078907890789078907890703
:1001A000890789074000720080720072140014767B
:1001B000721472688000809101108F7C806080686A
:1001C00098ED94BF8093011011241FBECFEFCDBFD7
:1001D000DFE7DEBFE4EAF1E041E019C0B791A791A3
:1001E00037912791079107FD0EC097918791EF01F5
:1001F000F92FE82F0BBF07900D92A217B307D9F77D
:10020000FE011BBE04C01D92A217B307E1F7E53B38
:10021000F40721F70E94B7020C94EE08F894FFCF80
:10022000EF92FF920F931F93CF93DF9300E014E0C0
:10023000F801148260E274E0FB01148240E454E0AF
:10024000FA01148220E634E0F9011482C0E8D4E017
:100250001C82A0EAB4E014961C9214970F2EF0ECC6
:10026000EF2EF4E0FF2EF02DF701148280E8F80164
:1002700080838CEFFB018083FA0180838FEFF9018B
:10028000808388838CE38C938EEFF7018083F80161
:10029000108A118A128A138A148A158A168A84E0AF
:1002A000878BFB01108A118A828B838B848B858BD1
:1002B000868B878BFA01108A118A828B838B848BC1
:1002C000858B868B878BF901808B818B828B838BCF
:1002D000848B858B868B878B888B898B8A8B8B8B8A
:1002E0008C8B8D8B8E8B8F8B50961C92509751964A
:1002F0001C92519752968C93529753968C93539786
:1003000054968C93549755968C93559756961C9269
:10031000569757961C92F701108A818B828B838B9C
:10032000848B858B868B878BE0EEF5E011861182BE
:10033000108214821682178210861582128213820E
:10034000128680E19AE00E942A0981E19AE00E94E7
:100350002F0982E19AE00E94340983E19AE00E9429
:10036000390984E19AE00E943E0985E19AE00E9401
:10037000430986E19AE00E94480987E19AE00E94D9
:100380004D0988E19AE00E94520989E19AE00E94B1
:1003900057098AE19AE00E945C098BE19AE00E9489
:1003A00061098CE19AE00E9466098DE19AE00E9461
:1003B0006B098EE19AE00E9470098FE19AE00E9439
:1003C000750980E29AE00E947A0981E29AE00E942F
:1003D0007F0982E29AE00E94840983E29AE00E9407
:1003E000890984E29AE00E948E0985E29AE00E94DF
:1003F000930986E29AE00E94980987E29AE00E94B7
:100400009D0988E29AE00E94A20989E29AE00E948E
:10041000A7098AE29AE00E94AC098BE29AE00E9466
:10042000B1098CE29AE00E94B6098DE29AE00E943E
:10043000BB098EE29AE00E94C0098FE29AE00E9416
:10044000C50980E39AE00E94CA0981E39AE00E940C
:10045000CF0982E39AE00E94D40983E39AE00E94E4
:10046000D90984E39AE00E94DE0985E39AE00E94BC
:10047000E30986E39AE00E94E80987E39AE00E9494
:10048000ED09DF91CF911F910F91FF90EF900895AB
:1004900010C00E94100958F00E94090940F029F488
:1004A0005F3F29F00C94240951110C9418090C9405
:1004B000090A0E946D0868F39923B1F3552391F35B
:1004C000951B550BBB27AA2762177307840738F0C3
:1004D0009F5F5F4F220F331F441FAA1FA9F335D020
:1004E0000E2E3AF0E0E832D091505040E695001CD4
:1004F000CAF72BD0FE2F29D0660F771F881FBB1F8E
:10050000261737074807AB07B0E809F0BB0B802D6B
:10051000BF01FF2793585F4F3AF09E3F510578F097
:100520000C9424090C9418095F3FE4F3983ED4F32B
:10053000869577956795B795F7959F5FC9F7880F6B
:10054000911D9695879597F90895E1E0660F771FBD
:10055000881FBB1F621773078407BA0720F0621B4E
:0E056000730B840BBA0BEE1F88F7E09508951D
:10056E000E94D3080E941E0900E010E010C00C1774
:10057E001D0721F0BE01C8010E948E03219602C004
:10058E00C0E0D0E0C431D10594F30F5F1F4F0431AA
:10059E001105B4F3C0E0D0E007C0CE010E94D5062D
:1005AE00CE010E9435072196C431D105B4F380E007
:1005BE000E94240820E030E040E450E40E94FC0950
:1005CE0018161CF580E00E94240820E030E040E878
:1005DE0050E40E94F7098823C4F4E0ECF4E081E0D3
:1005EE0085832FEF34E39CE0215030409040E1F7BB
:1005FE0000C0000086832FEF34E38CE021503040A2
:10060E008040E1F700C00000D2CFE0ECF4E081E0E2
:10061E0085839FEF20E732E0915020403040E1F794
:10062E0000C0000086838FEF90E722E0815090405B
:0A063E002040E1F700C00000BACF31
:100648000FC00E94090938F00E94100920F0952374
:1006580011F00C9424090C94090A11240C9418091B
:100668000E946D0870F3959FC1F3950F50E0551FD8
:10067800629FF001729FBB27F00DB11D639FAA27EF
:10068800F00DB11DAA1F649F6627B00DA11D661F3E
:10069800829F2227B00DA11D621F739FB00DA11D5F
:1006A800621F839FA00D611D221F749F3327A00D19
:1006B800611D231F849F600D211D822F762F6A2FB5
:1006C80011249F5750409AF0F1F088234AF0EE0F1A
:1006D800FF1FBB1F661F771F881F91505040A9F747
:1006E8009E3F510580F00C9424090C9418095F3F33
:1006F800E4F3983ED4F3869577956795B795F79583
:10070800E7959F5FC1F7FE2B880F911D96958795FA
:0407180097F90895B0
:10071C00EF92FF920F931F93CF93DF938617970758
:10072C0009F453C08B017C010E94D506C8010E94BC
:10073C00D506C7010E943507C8010E9465078E2D9A
:10074C000E94240824E12E9DE0012F9DD00D112440
:10075C00C00FD11FCC0FDD1FC295D295D07FDC27E7
:10076C00C07FDC27C050D04C688779878A879B87ED
:10077C00802F0E942408688F798F8A8F9B8FC701E6
:10078C000E946507C8010E9435078E2D0E9424081F
:10079C006C837D838E839F83802F0E9424086C8BB7
:1007AC007D8B8E8B9F8B83E393E3A3E5B0E48C87E7
:1007BC009D87AE87BF878C8F9D8FAE8FBF8FC701F4
:1007CC000E940507C8010E940507DF91CF911F9178
:0807DC000F91FF90EF900895CA
:1007E4001F920F920FB60F9211240BB60F922F93F4
:1007F4003F934F935F936F937F938F939F93AF93A5
:10080400BF93EF93FF93789B05C0E0914C72F091F6
:100814004D720995799B05C0E0914A72F0914B7233
:1008240009957A9B05C0E0914872F0914972099547
:100834007B9B05C0E0914672F091477209957C9BC1
:1008440005C0E0914472F091457209957D9B05C005
:10085400E0914272F091437209957E9B05C0E0914C
:100864004072F091417209957F9B05C0E0913E7200
:10087400F0913F7209958FEF8FB9FF91EF91BF917E
:10088400AF919F918F917F916F915F914F913F9124
:100894002F910F900BBE0F900FBE0F901F901895C5
:1008A4001F920F920FB60F9211240BB60F922F9333
:1008B4003F934F935F936F937F938F939F93AF93E4
:1008C400BF93EF93FF93989B05C0E0913C72F09126
:1008D4003D720995999B05C0E0913A72F0913B7283
:1008E40009959A9B05C0E0913872F0913972099587
:1008F4009B9B05C0E0913672F091377209959C9BE1
:1009040005C0E0913472F091357209959D9B05C044
:10091400E0913272F091337209959E9B05C0E0918B
:100924003072F091317209959F9B05C0E0912E724F
:10093400F0912F7209958FEF83BBFF91EF91BF91D7
:10094400AF919F918F917F916F915F914F913F9163
:100954002F910F900BBE0F900FBE0F901F90189504
:10096400E0E0F2E080E8808B118A128A138A148A0C
:10097400158A168A178A108E118E81E080838183EE
:1009840084A710A211A212A213A214A215A216A245
:1009940017A210A611A612A613A615A616A617A688
:1009A40010AA11AA12AA13AA10924B0210924D0275
:1009B40010924C0210924A0210924F02109251026D
:1009C4001092500210924E0210925302109255024D
:1009D400109254021092520212AE13AE14AE15AE1F
:1009E40016AE17AE109240021092410210924202CB
:1009F4001092430210924402109245021092460251
:100A040010924702109248021092490214AA15AAA1
:0C0A140016AA17AA10AE11AE80E00895DB
:100A20001F920F920FB60F9211240BB60F922F93B5
:100A30003F934F935F936F937F938F939F93AF9366
:100A4000BF93EF93FF93D99B05C0E0912472F0917F
:100A500025720995DA9B05C0E0912272F09123720C
:100A60000995DB9B05C0E0912072F09121720995F8
:100A7000DC9B05C0E0911E72F0911F720995DD9B11
:100A800005C0E0911C72F0911D720995DE9B05C0B6
:100A9000E0911A72F0911B720995DF9B05C0E091FD
:100AA0001872F091197209958FEF8BBBFF91EF913E
:100AB000BF91AF919F918F917F916F915F914F9176
:100AC0003F912F910F900BBE0F900FBE0F901F9074
:020AD000189577
:100AD2001F920F920FB60F9211240BB60F922F9303
:100AE2003F934F935F936F937F938F939F93AF93B4
:100AF200BF93EF93FF933A9B05C0E0916472F0912C
:100B0200657209953B9B05C0E0916272F091637238
:100B120009953C9B05C0E0916072F0916172099564
:100B22003D9B05C0E0915E72F0915F7209953E9B1C
:100B320005C0E0915C72F0915D7209953F9B05C022
:100B4200E0915A72F0915B7209958FEF87B9FF912C
:100B5200EF91BF91AF919F918F917F916F915F9133
:100B62004F913F912F910F900BBE0F900FBE0F90A0
:040B72001F90189523
:100B76001F920F920FB60F9211240BB60F922F935E
:100B86003F934F935F936F937F938F939F93AF930F
:100B9600BF93EF93FF935A9B05C0E0915872F09173
:100BA600597209955B9B05C0E0915672F091577298
:100BB60009955C9B05C0E0915472F09155720995B8
:100BC6005D9B05C0E0915272F091537209955E9B50
:100BD60005C0E0915072F091517209955F9B05C076
:100BE600E0914E72F0914F7209958FEF8BB9FF919C
:100BF600EF91BF91AF919F918F917F916F915F918F
:100C06004F913F912F910F900BBE0F900FBE0F90FB
:040C16001F9018957E
:100C1A0040E068ED80E690E00E94F20940E068ED6D
:100C2A0081E690E00E94F20940E068ED88E790E0F2
:100C3A000E94F2094CE068ED88E690E00E94F20911
:100C4A0040E068ED89E690E00E94F20940E068ED34
:100C5A0080E790E00E94F20940E068ED8CE790E0BE
:100C6A000E94F20940E068ED82E690E00E94F209F3
:100C7A0040E068ED83E690E00E94F20940E068ED0A
:100C8A0084E690E00E94F20940E068ED80E890E096
:0E0C9A000E94F2098091650081FFFCCF089551
:100CA8001F920F920FB60F9211240BB60F922F932B
:100CB8003F934F935F936F937F938F939F93AF93DC
:100CC800BF93EF93FF93BA9B05C0E0912C72F0910C
:100CD8002D720995BB9B05C0E0912A72F0912B7289
:100CE8000995BC9B05C0E0912872F091297209957D
:100CF800BD9B05C0E0912672F091277209958FEF90
:100D080087BBFF91EF91BF91AF919F918F917F9199
:100D18006F915F914F913F912F910F900BBE0F9064
:080D28000FBE0F901F901895FB
:100D3000E89409C097FB3EF4909580957095619575
:100D40007F4F8F4F9F4F9923A9F0F92F96E9BB272B
:100D50009395F695879577956795B795F111F8CFA7
:100D6000FAF4BB0F11F460FF1BC06F5F7F4F8F4F12
:100D70009F4F16C0882311F096E911C0772321F008
:100D80009EE8872F762F05C0662371F096E8862FA0
:100D900070E060E02AF09A95660F771F881FDAF7F7
:0A0DA000880F9695879597F908953E
:100DAA008431910560F5FC01EE57FF4F0C94F90868
:100DBA0080E8809301040895019621E030E0A901BA
:100DCA0002C0440F551F8A95E2F740932104089503
:100DDA00059721E030E0A90102C0440F551F8A950A
:100DEA00E2F74093410408950C9721E030E0A9010D
:100DFA0002C0440F551F8A95E2F74093C104089533
:100E0A008431910560F5FC01EA56FF4F0C94F9080C
:100E1A0080E8809302040895019621E030E0A90158
:100E2A0002C0440F551F8A95E2F7409322040895A1
:100E3A00059721E030E0A90102C0440F551F8A95A9
:100E4A00E2F74093420408950C9721E030E0A901AB
:100E5A0002C0440F551F8A95E2F74093C2040895D1
:100E6A008431910560F5FC01E655FF4F0C94F908B1
:100E7A0080E8809305040895019621E030E0A901F5
:100E8A0002C0440F551F8A95E2F74093250408953E
:100E9A00059721E030E0A90102C0440F551F8A9549
:100EAA00E2F74093450408950C9721E030E0A90148
:100EBA0002C0440F551F8A95E2F74093C50408956E
:100ECA008431910560F5FC01E254FF4F0C94F90856
:100EDA0080E8809306040895019621E030E0A90194
:100EEA0002C0440F551F8A95E2F7409326040895DD
:100EFA00059721E030E0A90102C0440F551F8A95E9
:100F0A00E2F74093460408950C9721E030E0A901E6
:100F1A0002C0440F551F8A95E2F74093C60408950C
:100F2A001F920F920FB60F9211240BB60F922F93A6
:100F3A003F934F935F936F937F938F939F93AF9357
:100F4A00BF93EF93FF9382E080930D06E0911672B0
:100F5A00F0911772309709F00995FF91EF91BF91BF
:100F6A00AF919F918F917F916F915F914F913F9137
:100F7A002F910F900BBE0F900FBE0F901F901895D8
:100F8A001F920F920FB60F9211240BB60F922F9346
:100F9A003F934F935F936F937F938F939F93AF93F7
:100FAA00BF93EF93FF9381E080930D06E091147253
:100FBA00F0911572309709F00995FF91EF91BF9161
:100FCA00AF919F918F917F916F915F914F913F91D7
:100FDA002F910F900BBE0F900FBE0F901F90189578
:100FEA001F920F920FB60F9211240BB60F922F93E6
:100FFA003F934F935F936F937F938F939F93AF9397
:10100A00BF93EF93FF931F9B05C0E0916672F09127
:10101A00677209958FEF83B9FF91EF91BF91AF91F5
:10102A009F918F917F916F915F914F913F912F91F6
:0E103A000F900BBE0F900FBE0F901F901895D9
:10104800E82FF0E0E050FE488081E0E0F6E080879D
:1010580081E0828780910D0680FFFCCFE0E0F6E01A
:1010680081E085876089718980E090E00E94980618
:1010780023E333E343E550E40E94050A20E030EF20
:0A1088004FE755E40E94010A0895A5
:10109200990F0008550FAA0BE0E8FEEF1616170687
:1010A200E807F907C0F012161306E407F50798F0EF
:1010B200621B730B840B950B39F40A2661F0232B08
:1010C200242B252B21F408950A2609F4A140A69584
:0810D2008FEF811D811D0895BF
:1010DA0057FD9058440F551F59F05F3F71F04795DF
:1010EA00880F97FB991F61F09F3F79F087950895C4
:1010FA00121613061406551FF2CF4695F1DF08C0E3
:10110A00161617061806991FF1CF869571056105FF
:04111A000894089598
:10111E00E0E0FAE010A611A612A613A614A615A6D4
:10112E0010A211A2118212821382148215821682CB
:10113E00178216861186128613868FEF9FEF86A36F
:0A114E0097A3178685E080830895BB
:10115800E0E0F6E087E0818381E0828313821482F5
:10116800168613861486108615822FEF31E0248B9D
:0C117800358B128A138A808380E0089572
:10118400092E0394000C11F4882352F0BB0F40F491
:10119400BF2B11F460FF04C06F5F7F4F8F4F9F4FD1
:0211A4000895AC
:1011A6000E940D060E9410010E948F080E94AC0842
:0E11B6000E94B2040E9402090E94E2080895FD
:1011C40040E068ED80E191E00E94F209E0E1F1E0A5
:0811D4001282138280E00895ED
:1011DC00EC010E94390A0E94380ACE010E943A0A98
:0611EC00CE010E940E0A74
:1011F200EE0FFF1F0024001C0BBE0790F691E02D9E
:0212020009944D
:0E120400E0EBF0E014821082128280E0089588
:0E12120000240A9416161706180609060895F9
:0E12200000240A9412161306140605060895FB
:0E122E00E894BB2766277727CB0197F9089530
:0C123C00E0ECF4E081E0818385830895FC
:0C12480097F99F6780E870E060E008956F
:0A125400809366729093677208950C
:0A125E008093647290936572089506
:0A1268008093627290936372089500
:0A12720080936072909361720895FA
:0A127C0080935E7290935F720895F4
:0A12860080935C7290935D720895EE
:0A12900080935A7290935B720895E8
:0A129A0080935872909359720895E2
:0A12A40080935672909357720895DC
:0A12AE0080935472909355720895D6
:0A12B80080935272909353720895D0
:0A12C20080935072909351720895CA
:0A12CC0080934E7290934F720895C4
:0A12D60080934C7290934D720895BE
:0A12E00080934A7290934B720895B8
:0A12EA0080934872909349720895B2
:0A12F40080934672909347720895AC
:0A12FE0080934472909345720895A6
:0A130800809342729093437208959F
:0A1312008093407290934172089599
:0A131C0080933E7290933F72089593
:0A13260080933C7290933D7208958D
:0A13300080933A7290933B72089587
:0A133A008093387290933972089581
:0A134400809336729093377208957B
:0A134E008093347290933572089575
:0A135800809332729093337208956F
:0A1362008093307290933172089569
:0A136C0080932E7290932F72089563
:0A13760080932C7290932D7208955D
:0A13800080932A7290932B72089557
:0A138A008093287290932972089551
:0A139400809326729093277208954B
:0A139E008093247290932572089545
:0A13A800809322729093237208953F
:0A13B2008093207290932172089539
:0A13BC0080931E7290931F72089533
:0A13C60080931C7290931D7208952D
:0A13D00080931A7290931B72089527
:0A13DA008093187290931972089521
:0A13E4001BBEFC0164BF40830895A6
:0A13EE000E94490808F481E0089508
:0A13F8000E94490808F48FEF0895E1
:081402000E9448020C94C2088C
:08140A000E9424030C94C208A7
:061412009FEF80EC08953D
:041418000C94000030
:04141C000E940E011B
:0214200008952D
:0214220008952B
:02142400089529
:02142600089527
:02142800089525
:02142A00089523
:02142C00089521
:02142E0008951F
:0214300008951D
:0214320008951B
:02143400089519
:02143600089517
:02143800089515
:02143A00089513
:02143C00089511
:02143E0008950F
:0214400008950D
:0214420008950B
:02144400089509
:02144600089507
:02144800089505
:02144A00089503
:02144C00089501
:02144E000895FF
:021450000895FD
:021452000895FB
:021454000895F9
:021456000895F7
:021458000895F5
:02145A000895F3
:02145C000895F1
:02145E000895EF
:021460000895ED
:021462000895EB
:021464000895E9
:021466000895E7
:021468000895E5
:02146A000895E3
:02146C000895E1
:02146E000895DF
:021470000895DD
:021472000895DB
:021474000895D9
:10147600000102030405060708090A0B0C0D0E0FEE
:041486001213141514
:00000001FF
