:100000000C94E1000C9414190C9414190C94141908
:100010000C9414190C9414190C9414190C941419AC
:100020000C94AA150C9414190C9414190C9414190A
:100030000C9414190C9414190C9414190C9414198C
:100040000C9414190C9414190C9414190C9414197C
:100050000C9414190C9414190C9414190C9414196C
:100060000C948E100C9414190C947A150C944A1557
:100070000C9414190C9414190C94B4120C941419B3
:100080000C9414190C9414190C9414190C94E11375
:100090000C9414190C9414190C9414190C9414192C
:1000A0000C9414190C9414190C9414190C9414191C
:1000B0000C9414190C942E100C94EE100C9414192A
:1000C0000C9414190C9414190C9414190C941419FC
:1000D0000C9414190C9414190C9414190C941419EC
:1000E0000C9414190C9414190C9414190C94AC114C
:1000F0000C9414190C9414190C9414190C941419CC
:100100000C941419D00DD40DD80DDC0DE00DE40DB8
:10011000E80DEC0DF00DF40DF80DFC0D000E040EC5
:10012000080E0C0E100E140E180E1C0E370E3B0E81
:100130003F0E430E470E4B0E4F0E530E570E5B0EE7
:100140005F0E630E670E6B0E6F0E730E770E7B0ED7
:100150007F0E830E9E0EA20EA60EAA0EAE0EB20E3D
:10016000B60EBA0EBE0EC20EC60ECA0ECE0ED20EFF
:10017000D60EDA0EDE0EE20EE60EEA0E050F090FBF
:100180000D0F110F150F190F1D0F210F250F290F1F
:100190002D0F310F350F390F3D0F410F450F490F0F
:1001A0004D0F510F4000727A80727A72BD0032900A
:1001B00072BD731D80731D731F0032D3731F7321B3
:1001C0008000809101108F7C8060806898ED94BFE2
:1001D0008093011011241FBECFEFCDBFDFE7DEBF3C
:1001E000E4EAF1E041E019C0B791A7913791279176
:1001F000079107FD0EC097918791EF01F92FE82F26
:100200000BBF07900D92A217B307D9F7FE011BBED3
:1002100004C01D92A217B307E1F7E13CF40721F7F0
:0C0220000E945E120C947018F894FFCF3E
:10022C00496E76616C696420696E7075743A20252C
:10023C00640A003A280043686172616374657269EC
:10024C007A6520706169722025642C2025640A006F
:10025C004F75747075742073657420746F20303012
:10026C00203A252E326620252E32660A004F7574F0
:10027C007075742073657420746F203130203A25AA
:10028C002E326620252E32660A004F7574707574F6
:10029C002073657420746F203031203A252E32661D
:1002AC0020252E32660A004F7574707574207365A4
:1002BC007420746F203131203A252E326620252E81
:1002CC0032660A005761726E696E673A2041444388
:1002DC002076616C75657320666F722070696E2074
:1002EC00706169722025642C202564206172652060
:1002FC006E6F742077697468696E20302E312072AD
:10030C00616E6765210A000A436F6E6E65637469DE
:0F031C006F6E7320756E6368616E6765640A00AB
:10032C00A6E2B0E0ECE9F1E00C9470178F8F98A383
:10033C006E8B7F8B288FFB010190F081E02DE9877C
:10034C00FA87FB0102811381248135812A8B3B8B37
:10035C008085918589A39AA326803780FA018080B5
:10036C009180A280B38020E030E0A901C501B401E6
:10037C000E94011987FF06C0B7FAB094B7F8B09481
:10038C008DE204C0598552FF47C38BE2F101808393
:10039C002A893B89215031092B833C8341E050E071
:1003AC00488B598B06C08A899B898B839C83188ABE
:1003BC00198AD501C401BF770097E0E8AE07EFE7D3
:1003CC00BE0799F4F88D2F2FFF0F330B21543109F1
:1003DC0088899989820D931D2A31310518F460EAB8
:1003EC0072E719C064EA72E716C00197A048BF47CC
:1003FC00A8F0488D242F440F330B215431098889E0
:10040C009989820D931D2A31310518F468EA72E737
:10041C0002C06CEA72E70E94A718EDC220E030E03F
:10042C00A901C501B4010E940119C12CD12C20E8ED
:10043C00E22E2FE3F22E19821A82882309F48CC043
:10044C008D829E82AF82B88620E030E040E251E49B
:10045C00C701B6010E940A192B013C01D501C40148
:10046C0084199509A609B709B7FF07C0B095A095DF
:10047C00909581959F4FAF4FBF4F0297A105B10546
:10048C0044F489819A81019689839A83730162016C
:10049C00DBCFA5019401C301B2010E94011987FDB4
:1004AC00F0CF8D819E81AF81B8858C199D09AE09E5
:1004BC00BF090196A11DB11D0397A105B10508F453
:1004CC0049C01D821E82A5019401C701B6010E947C
:1004DC00FC1818160CF040C0E981FA81E43DFE4F7F
:1004EC00E4F44D815E81452BC1F420E030E040E81E
:1004FC005AE5C501B4010E940A194B015C0120E0C8
:10050C0030E040E85AE5C701B6010E940A196B01B8
:10051C007C0181E090E08D839E8320E030E040E21E
:10052C0051E4C701B6010E9406196B017C01E981F7
:10053C00FA813197E983FA83D501C4018C199D099D
:10054C00AE09BF090196A11DB11D0397A105B10507
:10055C0008F0B9CF46015701288D022E000C330B41
:10056C00288F398FC9010E94AF188A8F17FD03C0DD
:10057C000D831E8304C046E050E04D835E835A8D8C
:10058C00573641F4012B09F04CC281E090E08D8389
:10059C009E8347C24A8D4F8706C029813A8137FF17
:1005AC0052C256E65F878D819E8101968D839E8314
:1005BC009F859636B9F4E981FA81F7FF08C0C12C02
:1005CC00D12C90E8E92E9FE3F92E19821A82FA8D2C
:1005DC00F73641F02D813E8149815A81240F351F18
:1005EC002D833E831C2DDDA2EBA20F2D8B869C86CA
:1005FC00AD86BE861C8A1D8A8C899D89ED81FE8103
:10060C008E179F07DCF5212F3DA14BA1502F6B8539
:10061C007C858D859E850E9406190E94340B2B01CA
:10062C003C010E94D3186B8FA3019201612F7DA115
:10063C008BA1902F0E940A192B853C854D855E85D8
:10064C000E94B7189B01AC0150582B873C874D87F3
:10065C005E8720E030E040E251E4612F7DA18BA168
:10066C00902F0E940619162F7DA38BA3092F4C895E
:10067C005D894F5F5F4F4C8B5D8BBECF20E030E0D0
:10068C0040EA50E4612F7DA18BA1902F0E940A19A2
:10069C002B013C019B01AC016B857C858D859E8576
:1006AC000E94011987FD0DC0A30192016B857C8509
:1006BC008D859E850E940119811106C0FB8DF0FD70
:1006CC0003C0412C512C3201A5019401C301B2018C
:1006DC000E94B8184B015C0120E030E040E251E48C
:1006EC00C701B6010E940A196B877C8B182F092F42
:1006FC009B01482F592FC501B4010E94FC1887FD9E
:10070C0014C029813A812F5F3F4F29833A833F855B
:10071C00363679F44D815E814F5F5F4F4D835E833A
:10072C005B855DA38C898EA30BC0CB86DC8A1E2DCA
:10073C000F2D9F85953639F0EB85EDA3FC89FEA333
:10074C00E980FA8006C02B852DA33C893EA3E12CC1
:10075C00F12C48885988C12CD12C1C8A1D8A1B86E7
:10076C001C8649855A85407155274BA35CA32B8564
:10077C003C854D815E812417350734F08C899D8929
:10078C00892B09F494C09FC03201EE89FF898085C2
:10079C00918505974816590688F72DA13EA1412F42
:1007AC00502FC501B4010E9406190E94340B6B8FA7
:1007BC007C8F8D8F9E8F0E94D3186A30710514F038
:1007CC0069E070E08BA19CA1892B69F4611571051E
:1007DC0051F49A8D973639F4F7FE05C03601EFEFD8
:1007EC006E1A7E0A38C02C893D89232B99F4F7FEAA
:1007FC0011C03FEF431A530AF101E60DF71D4EE20B
:10080C0040838B819C8101978B839C83E1E0F0E09A
:10081C00EC8BFD8BF101E40DF51D360161147104B7
:10082C0031F020E3219331E0631A7108F7CFC60150
:10083C00840D951D2B813C812C193D092C014FEF0A
:10084C00441A540AF101E80FF91F605D6083C90175
:10085C0001978B839C832B8D3C8D4D8D5E8D6DA173
:10086C007EA1812F902F0E940A19A50194010E944C
:10087C00B7184B015C01B7FAB094B7F8B09420E00C
:10088C0030E040E251E46DA17EA1812F902F0E94B7
:10089C0006196DA37EA3182F092F91E0E91AF10810
:1008AC00EB85FC853196EB87FC87630160CFF9857E
:1008BC00F4FF09C0F101E40DF51D8EE28083920175
:1008CC002F5F3F4F2901A101440D551D4D835E83C0
:1008DC00FA011082FF85F53609F061C0E9A1FAA191
:1008EC00E20DF31D3197108229813A8137FF08C040
:1008FC0031952195310929833A8301E010E002C03A
:10090C0000E010E0E9A1FAA13197E20DF31D22E01D
:10091C0030E08AE0E82EF12CCF018219930949814D
:10092C005A81452B91F089819A81B7010E94001858
:10093C00805D829369837A83215031094B815C817C
:10094C00415051094B835C83E7CF121613065CF3BD
:10095C00FC013197E20DF31D012B11F42BE201C0C8
:10096C002DE220830297B101680F791F288D398DF4
:10097C00215431092A31310510F025E601C025E456
:10098C00FB0120832B813C81225031092B833C833A
:10099C004816590624F48D819E810E94A71839852A
:1009AC0031FF29C030FD27C04B815C811416150620
:1009BC0014F5C1010E944A18820D931D9C01221945
:1009CC00330948895989241735074CF0FC012081DB
:1009DC00EB81FC81E80FF91F20830197EFCF4B814E
:1009EC005C8160E370E088899989820D931D0E9477
:1009FC008D181A8A1B8AC1010E944A1809851A850A
:100A0C002A893B89AC01B1018F8D98A10E94DF141A
:100A1C00A696E2E10C94D117598553FFC4CC80E221
:100A2C00B5CC89819A818C3F9F4F54F0E981FA8132
:100A3C002D813E81E217F3070CF4AFCD35E604C0EF
:0C0A4C00F5E6FF87CFCD36E63F87CCCD26
:100A5800AEE0B0E0E2E3F5E00C9473174C016B01F3
:100A680019821A828FEF9FEF8B839C831D821E82CF
:100A78004F83588729873A87A12CB12CD6016D90CE
:100A88007C90F301EA0DFB1D808181110FC0D60116
:100A9800ED93FC938081853209F0D3C13F01BFEF0C
:100AA8006B1A7B0AF6016082718219C0853279F36C
:100AB800B401082E000C990B0E9406134FEFA41ADC
:100AC800B40ADCCF8C32ACF08D32F9F489819A818A
:100AD800816089839A833196D601ED93FC93D60180
:100AE800ED91FC9180818B3269F789819A818460CC
:100AF800F0CF803221F489819A818860EACF8332ED
:100B080051F489819A818061E4CF803321F489810D
:100B18009A818260DECFB701C6010E9436168D83A6
:100B28009E8397FF0BC029813A81B1E02B27298347
:100B38003A839195819591098D839E8389819A81C4
:100B480080FF03C08D7F89839A83D601ED91FC9144
:100B5800119780818E3249F43196ED93FC93B70159
:100B6800C6010E9436168B839C83C6010E94F61626
:100B7800582ED601ED91FC918081082E000C990B1E
:100B88000E94AF18893609F443C084F4833609F407
:100B980002C134F4853209F427C18136E1F030C14D
:100BA8008436B1F188360CF4D9C02AC1803709F4EB
:100BB8009AC03CF48E3609F4BCC08F3609F461C083
:100BC8001FC1853709F440C0883709F476C08337D8
:100BD80009F016C1F3C0652D70E0A701CE010B9690
:100BE8000E941617892B09F426C1D601ED91FC91B4
:100BF8001197CF0101968D939C932081AE01455F9B
:100C08005F4FBE016F5F7F4FC4010E94000010C19B
:100C1800652D70E0970141E050E0CE010B960E94EF
:100C28005E0D892B09F407C1F60180819181019637
:100C380080839183AE01455F5F4FBE016F5F7F4F39
:100C4800C4010E94A70BF4C0652D70E0970140E035
:100C580050E0CE010B960E945E0D892B09F4EBC083
:100C6800D6018D919C91119701968D939C93AE011D
:100C7800455F5F4FBE016F5F7F4FC4010E949A13AB
:100C8800D7C0652D70E0970140E050E0CE010B968B
:100C98000E945E0D892B09F4CEC0F60180819181F6
:100CA800019680839183AE01455F5F4FBE016F5F00
:100CB8007F4FC4010E940512BBC0652D70E09701EB
:100CC80040E050E0CE010B960E945E0D892B09F49E
:100CD800B2C0D601ED91FC911197CF0101968D9389
:100CE8009C9320811CC0970140E050E060EF70E0C9
:100CF800CE010B960E945E0D892B09F49CC0F6016B
:100D0800808191810196808391838B859C85892B35
:100D180029F420E030E047EB52E784C028E7AE0131
:100D2800455F5F4FBE016F5F7F4FC4010E94BF08E0
:100D38007FC0A501400F511F652D70E09701CE01BE
:100D48000B960E940000892B09F475C0D6018D917D
:100D58009C91119701968D939C9373C0652D70E0BB
:100D6800A701CE010B960E941617892B09F463C0C0
:100D7800D601ED91FC911197CF0101968D939C932B
:100D88002081AE01455F5F4FBE016F5F7F4FC40199
:100D98000E9496014DC0B0E85B124DC0F6018081FB
:100DA8009181019680839183D701ED91FC911197F0
:100DB800CF0102968D939C93808120C0B0E85B128E
:100DC8003AC0F60180819181019680839183D70191
:100DD800ED91FC911197CF0102968D939C934081E0
:100DE800518120E030E01EC0B0E85B1224C0F6015B
:100DF800208131812F5F3F4F208331838B870DC046
:100E080085E28B87D6016D927C9219821A821D82A7
:100E18001E828FEF9FEF8B839C8321E030E0AE0131
:100E2800455F5F4FBE016F5F7F4FC4010E9464162C
:100E38008A0D9B1D07C0F6018081918101968083F0
:0C0E48009183C5012E96EFE00C94D417A6
:100E5400EF92FF920F931F93CF93DF9300E014E080
:100E6400F801148260E274E0FB01148240E454E06F
:100E7400FA01148220E634E0F9011482C0E8D4E0D7
:100E84001C82A0EAB4E014961C9214970F2EF0EC86
:100E9400EF2EF4E0FF2EF02DF701148280E8F80124
:100EA40080838DEFFB0180838CEFFA0180838FEFC9
:100EB400F901808388838CE38C938EEFF701808320
:100EC400F801108A118A128A138A148A158A168ADA
:100ED40084E0878BFB01108A118A828B838B848B3D
:100EE400858B868B878BFA01108A118A828B838B80
:100EF400848B858B868B878BF901808B818B828B8E
:100F0400838B848B858B868B878B888B898B8A8B51
:100F14008B8B8C8B8D8B8E8B8F8B50961C925097DA
:100F240051961C92519752968C93529753968C9348
:100F3400539754968C93549755968C9355975696ED
:100F44001C92569757961C92F701108A818B828BBC
:100F5400838B848B858B868B878BE0EEF5E0118603
:100F640011821082148216821782108615821282D0
:100F74001382128688E199E180931373909314731A
:100F840089E199E180931173909312738AE199E155
:100F940080930F73909310738BE199E180930D7399
:100FA40090930E738CE199E180930B7390930C737F
:100FB4008DE199E18093097390930A738EE199E12D
:100FC40080930773909308738FE199E1809305737D
:100FD4009093067380E299E1809303739093047372
:100FE40081E299E1809301739093027382E299E123
:100FF4008093FF729093007383E299E18093FD7272
:101004009093FE7284E299E18093FB729093FC7258
:1010140085E299E18093F9729093FA7286E299E1FC
:101024008093F7729093F87287E299E18093F57256
:101034009093F67288E299E18093F3729093F4723C
:1010440089E299E18093F1729093F2728AE299E1D4
:101054008093EF729093F0728BE299E18093ED723A
:101064009093EE728CE299E18093EB729093EC7220
:101074008DE299E18093E9729093EA728EE299E1AC
:101084008093E7729093E8728FE299E18093E5721E
:101094009093E67280E399E18093E3729093E47213
:1010A40081E399E18093E1729093E27282E399E1A2
:1010B4008093DF729093E07283E399E18093DD7211
:1010C4009093DE7284E399E18093DB729093DC72F7
:1010D40085E399E18093D9729093DA7286E399E17A
:1010E4008093D7729093D87287E399E18093D572F5
:1010F4009093D67288E399E18093D3729093D472DB
:1011040089E399E18093D1729093D2728AE399E151
:101114008093CF729093D0728BE399E18093CD72D8
:101124009093CE728CE399E18093CB729093CC72BE
:101134008DE399E18093C9729093CA728EE399E129
:101144008093C7729093C8728FE399E18093C572BC
:101154009093C67280E499E18093C3729093C472B1
:1011640081E499E18093C1729093C272DF91CF912F
:0A1174001F910F91FF90EF90089576
:10117E00AFE0B0E0E5ECF8E00C9470171C016B01E9
:10118E0049835A832B83FB018281938184809580CE
:10119E0000811181A680B78097FD02C00D7F02C02D
:1011AE0081E090E0E981FA81408051806280738015
:1011BE009801207133272C833D83740104FF08C0EE
:1011CE00411451046104710419F032E0E31AF1087C
:1011DE00F801E870FF27EE83FF8303FF03C0F1E001
:1011EE00EF1AF108F6010084F185E02D3197EE87B4
:1011FE00FF87EA0DFB1D10829C012E193F092887DF
:10120E003987C801827099278A879B87EB818E2F39
:10121E00EE0F990B9C01215431092C873D872E85A9
:10122E003F852230310530F48C819D81892B09F068
:10123E0042C05CC0411451046104710461F18E8599
:10124E009F8501978E879F87C2018F7099278A305D
:10125E00910514F4C09602C0895A9F4FEC85FD8506
:10126E007A9748F49C012062215631092A313105C2
:10127E0010F40E949618EE85FF85EA0DFB1D808303
:10128E00F1E0EF1AF10884E076946794579447944E
:10129E008A95D1F7C4CF888599858E0D9F1D181616
:1012AE0019066CF21E141F040CF0BECFEA85FB85E6
:1012BE00EF2B29F6B9CFE981FA8180819181A28144
:1012CE00B381892B8A2B8B2B89F0EE85FF85EA0D56
:1012DE00FB1D31972B8120838E859F8502978E87EC
:1012EE009F87FC01EA0DFB1D80E38083EE81FF8169
:1012FE00EF2B59F02E853F85215031092E873F87E0
:10130E00F901EA0DFB1D80E28083F60140855185CF
:10131E00415051092E853F85421B530BB9016A0D71
:10132E007B1D9401C1010E94DF149C01F10180819B
:10133E00918190FF06C0F6018281938182179307F7
:0C134E000CF4C9012F96E2E10C94D117B9
:10135A002F923F924F925F926F927F928F929F92BB
:10136A00AF92BF92CF92DF92EF92FF920F931F93A9
:10137A00CF93DF930F2EF2E02F2EF0E43F2EF02DC5
:10138A0000E010E00F2EF2E4AF2EF2E8BF2EF02DAF
:10139A000F2EFCE5CF2EF2E8DF2EF02D0F2EF9E707
:1013AA00EF2EF2E8FF2EF02D0F2EF6E96F2EF2E85F
:1013BA007F2EF02D0F2EF3EB4F2EF2E85F2EF02D3D
:1013CA0078C00815190509F462C09F928F921F937D
:1013DA000F93BF92AF920E9489178B898F938A8944
:1013EA008F9389898F9388898F938B818F938A8131
:1013FA008F9389818F9388818F93DF92CF920E94F6
:10140A0089178B8D8F938A8D8F93898D8F93888D72
:10141A008F938B858F938A858F9389858F93888500
:10142A008F93FF92EF920E9489178F898F938E89EB
:10143A008F938D898F938C898F938F818F938E81D0
:10144A008F938D818F938C818F937F926F920E945D
:10145A0089178DB79EB784968DBF9EBF8F8D8F9348
:10146A008E8D8F938D8D8F938C8D8F938F858F9388
:10147A008E858F938D858F938C858F935F924F92F4
:10148A000E9489178DB79EB70A968DBF9EBF9FEFA0
:10149A00891A990AA09684E18816910409F091CFD5
:1014AA000F5F1F4F90E8291A9DEF390A0431110581
:1014BA0021F0E101812C912C84CFDF91CF911F91F2
:1014CA000F91FF90EF90DF90CF90BF90AF909F90D9
:1014DA008F907F906F905F904F903F902F900895DC
:1014EA000F931F93CF93DF93EC018B010E94FB0EA6
:1014FA00C8010E94FB0ECE010E942D0EC8010E9457
:10150A00C60D8C2F0E94251424E12C9FF0012D9FDB
:10151A00F00D1124E00FF11FEE0FFF1FE295F29577
:10152A00F07FFE27E07FFE27EE5FFF4B20853185A7
:10153A00428553850E94B7189F772DEC3CEC4CEC02
:10154A005DE30E94FC18181624F1802F0E942514CE
:10155A0024E12C9FF0012D9FF00D1124E00FF11FC3
:10156A00EE0FFF1FE295F295F07FFE27E07FFE2740
:10157A00EE5FFF4B208D318D428D538D0E94B7183F
:10158A009F772DEC3CEC4CEC5DE30E94FC1818169E
:10159A0034F48FE392E80E94841880E05BC0CE01A5
:1015AA000E94C60DC8010E942D0E8C2F0E94251480
:1015BA0024E12C9FF0012D9FF00D1124E00FF11F63
:1015CA00EE0FFF1FE295F295F07FFE27E07FFE27E0
:1015DA00EE5FFF4B24813581468157810E94B718FF
:1015EA009F772DEC3CEC4CEC5DE30E94FC1818163E
:1015FA0024F1802F0E94251424E12C9FF0012D9FB5
:10160A00F00D1124E00FF11FEE0FFF1FE295F29586
:10161A00F07FFE27E07FFE27EE5FFF4B24893589A6
:10162A00468957890E94B7189F772DEC3CEC4CEC01
:10163A005DE30E94FC18181634F48FE392E80E94C6
:10164A00841880E007C0CE010E94940EC8010E944F
:0E165A00940E81E0DF91CF911F910F910895C2
:101668008F929F92AF92BF92CF92DF92EF92FF92AA
:101678000F931F938B019C0157E13695279517957A
:1016880007955A95D1F71127A8014F5751094731A6
:1016980051050CF045C057FD2DC00FEF1FEF2FE788
:1016A80030E004C035952795179507954A95D2F7E8
:1016B8004801590186229722A822B92289288A2816
:1016C8008B2871F197FF07C0DC01CB01800F911FB8
:1016D800A21FB31F02C0DC01CB0100951095209515
:1016E800309580239123A223B323482F392F2A2F03
:1016F8005B2F1AC097FF0FC08B019C01000F111FB1
:10170800221F331F012B022B032B51F040E030E046
:1017180020E85FEB09C040E030E020E050E004C082
:10172800462F372F282F592F642F732F822F952F4D
:101738001F910F91FF90EF90DF90CF90BF90AF90E7
:061748009F908F900895B0
:10174E00A2E0B0E0EDEAFBE00C9470173C016B01F7
:10175E00FB0122813381A480B580808191818983B0
:10176E009A8386809780FA01208031804280538050
:10177E00B201A10157FE07C044275527BA014219ED
:10178E0053096409750937FD03C08D7F89839A83D8
:10179E00950157FC05C0898182FD02C083FF02C0FE
:1017AE0021503109CE0101967C010AE010E0C601FC
:1017BE000E94C90F57FC03C0298122FF0AC001975E
:1017CE00F401E80FF91F57FC02C02BE209C02DE20D
:1017DE0007C023FF06C00197F401E80FF91F20E2AE
:1017EE00208309811A81F6014085518541505109A6
:1017FE00481B590BB401680F791F9501C3010E9454
:10180E00DF149C01F3018081918190FF06C0F601E7
:10181E0082819381821793070CF4C9012296E2E12B
:04182E000C94D1172E
:1018320010C00E94C51858F00E94BE1840F029F44A
:101842005F3F29F00C94EC1851110C94CD180C94B4
:1018520011190E94B21668F39923B1F3552391F33B
:10186200951B550BBB27AA2762177307840738F00D
:101872009F5F5F4F220F331F441FAA1FA9F335D06A
:101882000E2E3AF0E0E832D091505040E695001C1E
:10189200CAF72BD0FE2F29D0660F771F881FBB1FD8
:1018A200261737074807AB07B0E809F0BB0B802DB6
:1018B200BF01FF2793585F4F3AF09E3F510578F0E2
:1018C2000C94EC180C94CD185F3FE4F3983ED4F3DB
:1018D200869577956795B795F7959F5FC9F7880FB6
:1018E200911D9695879597F90895E1E0660F771F08
:1018F200881FBB1F621773078407BA0720F0621B99
:0E190200730B840BBA0BEE1F88F7E095089567
:10191000EF92FF920F931F93CF93DF938617970752
:1019200009F45BC08B017C010E94FB0EC8010E9480
:10193000FB0E84E18E9DE0018F9DD00D1124C00F20
:10194000D11FCC0FDD1FC295D295D07FDC27C07F81
:10195000DC27CE5FDF4B188219821A821B82188A1D
:10196000198A1A8A1B8AC7010E942D0EC8010E947B
:10197000C60D8E2D0E942514688779878A879B87DC
:10198000802F0E942514688F798F8A8F9B8FC701C3
:101990000E94C60DC8010E942D0E8E2D0E94251496
:1019A0006C837D838E839F83802F0E9425146C8B94
:1019B0007D8B8E8B9F8B83E393E3A3E5B0E48C87D1
:1019C0009D87AE87BF878C8F9D8FAE8FBF8FC701DE
:1019D0000E94940EC8010E94940EDF91CF911F9136
:0819E0000F91FF90EF900895B4
:1019E8000FC00E94BE1838F00E94C51820F0952339
:1019F80011F00C94EC180C94111911240C94CD18B6
:101A08000E94B21670F3959FC1F3950F50E0551FD1
:101A1800629FF001729FBB27F00DB11D639FAA273B
:101A2800F00DB11DAA1F649F6627B00DA11D661F8A
:101A3800829F2227B00DA11D621F739FB00DA11DAB
:101A4800621F839FA00D611D221F749F3327A00D65
:101A5800611D231F849F600D211D822F762F6A2F01
:101A680011249F5750409AF0F1F088234AF0EE0F66
:101A7800FF1FBB1F661F771F881F91505040A9F793
:101A88009E3F510580F00C94EC180C94CD185F3FE4
:101A9800E4F3983ED4F3869577956795B795F795CF
:101AA800E7959F5FC1F7FE2B880F911D9695879547
:041AB80097F90895FD
:101ABC00CF93DF93DC01F90168387105F1F05CF428
:101ACC006138710561F164387105A1F160387105F7
:101ADC0009F051C02FC0603C710509F441C0603F52
:101AEC007105F1F1603A710509F045C0C081D181F1
:101AFC00CE0102968083918325C0C081D181CE0115
:101B0C00029680839183452B39F04881042E000C7A
:101B1C00550B660B770B1CC0488150E029C0C08167
:101B2C00D181CE01049680839183488159816A8149
:101B3C007B810EC0C081D181CE01029680839183BE
:101B4C00452BA1F048815981052E000C660B770BB3
:101B5C004D935D936D937C93139781E090E00DC052
:101B6C00C081D181CE0102968083918348815981B5
:101B7C0060E070E0EDCF80E090E0DF91CF910895D0
:101B8C00FC013197E431F10508F054C0EE57FF4FDA
:101B9C000C947B1880E880930604089584E080936D
:101BAC002604089588E080932604089580E18093AC
:101BBC002604089580E280932604089580E480939F
:101BCC002604089580E880932604089584E0809389
:101BDC004604089588E080934604089580E180933C
:101BEC004604089580E280934604089580E480932F
:101BFC004604089580E880934604089582E080931B
:101C0C00C604089584E08093C604089588E0809308
:101C1C00C604089580E18093C604089580E2809301
:101C2C00C604089580E48093C604089580E88093E8
:101C3C00C60408959F938F938CE292E89F938F93A1
:0E1C4C000E94A1170F900F900F900F90089517
:101C5A00FC013197E431F10508F054C0EA56FF4F10
:101C6A000C947B1880E880930504089584E080939F
:101C7A002504089588E080932504089580E18093DF
:101C8A002504089580E280932504089580E48093D2
:101C9A002504089580E880932504089584E08093BC
:101CAA004504089588E080934504089580E180936F
:101CBA004504089580E280934504089580E4809362
:101CCA004504089580E880934504089582E080934E
:101CDA00C504089584E08093C504089588E080933C
:101CEA00C504089580E18093C504089580E2809335
:101CFA00C504089580E48093C504089580E880931C
:101D0A00C50408959F938F938CE292E89F938F93D3
:0E1D1A000E94A1170F900F900F900F90089548
:101D2800FC013197E431F10508F054C0E655FF4F46
:101D38000C947B1880E880930204089584E08093D3
:101D48002204089588E080932204089580E1809316
:101D58002204089580E280932204089580E4809309
:101D68002204089580E880932204089584E08093F3
:101D78004204089588E080934204089580E18093A6
:101D88004204089580E280934204089580E4809399
:101D98004204089580E880934204089582E0809385
:101DA800C204089584E08093C204089588E0809373
:101DB800C204089580E18093C204089580E280936C
:101DC800C204089580E48093C204089580E8809353
:101DD800C20408959F938F938CE292E89F938F9308
:0E1DE8000E94A1170F900F900F900F9008957A
:101DF600FC013197E431F10508F054C0E254FF4F7D
:101E06000C947B1880E880930104089584E0809305
:101E16002104089588E080932104089580E1809349
:101E26002104089580E280932104089580E480933C
:101E36002104089580E880932104089584E0809326
:101E46004104089588E080934104089580E18093D9
:101E56004104089580E280934104089580E48093CC
:101E66004104089580E880934104089582E08093B8
:101E7600C104089584E08093C104089588E08093A6
:101E8600C104089580E18093C104089580E280939F
:101E9600C104089580E48093C104089580E8809386
:101EA600C10408959F938F938CE292E89F938F933A
:0E1EB6000E94A1170F900F900F900F900895AB
:101EC40011C00E94BE1838F00E94C51820F039F4E1
:101ED4009F3F19F426F40C9411190EF4E095E7FBD6
:101EE4000C94EC18E92F0E94B21658F3BA17620743
:101EF40073078407950720F079F4A6F50C94CC18A1
:101F04000EF4E0950B2EBA2FA02D0B01B901900110
:101F14000C01CA01A0011124FF27591B99F0593F54
:101F240050F4503E68F11A16F040A22F232F342F9C
:101F34004427585FF3CF469537952795A795F040EA
:101F44005395C9F77EF41F16BA0B620B730B840BFF
:101F5400BAF09150A1F0FF0FBB1F661F771F881FB7
:101F6400C2F70EC0BA0F621F731F841F48F487950F
:101F740077956795B795F7959E3F08F0B0CF939501
:0E1F8400880F08F09927EE0F9795879508951E
:101F9200A0E0B0E0EFECFFE00C947217DC01280146
:101FA2001696AD90BC901797F70180819181129699
:101FB200ED91FC9113971896CD91DC911997219789
:101FC200F7FF02C0E1E0F0E0CA0DDB1D18826901F3
:101FD200A1E0B0E08F01021B130B4C01F2E08F2253
:101FE2009924052C000C66087708CE018A199B09F2
:101FF200CA15DB0519F1411551056105710589F015
:10200200CB01BA01A30192010E94D416CA01A62FE4
:10201200B72F605D6A9341E0C41AD108A901BC01DF
:10202200E4CF98012C0D3D1D121613064CF31C141F
:102032001D0434F48114910419F702C080E090E089
:10204200AB2B31F4F701208131812F7E2083318344
:0A205200CDB7DEB7E0E10C94D31720
:10205C001F920F920FB60F9211240BB60F922F9363
:10206C003F934F935F936F937F938F939F93AF9314
:10207C00BF93EF93FF93399B05C0E0911373F091DD
:10208C0014730995389B05C0E0911173F09112738C
:10209C0009953A9B05C0E0910D73F0910E7309956B
:1020AC003B9B05C0E0910B73F0910C7309953C9B25
:1020BC0005C0E0910973F0910A7309953D9B05C029
:1020CC00E0910773F091087309953E9B05C0E09170
:1020DC000573F091067309953F9B05C0E09103735E
:1020EC00F091047309958FEF87B9FF91EF91BF9130
:1020FC00AF919F918F917F916F915F914F913F9194
:10210C002F910F900BBE0F900FBE0F901F90189534
:10211C001F920F920FB60F9211240BB60F922F93A2
:10212C003F934F935F936F937F938F939F93AF9353
:10213C00BF93EF93FF93789B05C0E091F572F091FC
:10214C00F6720995799B05C0E091F372F091F472E7
:10215C0009957A9B05C0E091F172F091F2720995A4
:10216C007B9B05C0E091EF72F091F07209957C9B1E
:10217C0005C0E091ED72F091EE7209957D9B05C062
:10218C00E091EB72F091EC7209957E9B05C0E091A9
:10219C00E972F091EA7209957F9B05C0E091E772B4
:1021AC00F091E87209958FEF8FB9FF91EF91BF9184
:1021BC00AF919F918F917F916F915F914F913F91D3
:1021CC002F910F900BBE0F900FBE0F901F90189574
:1021DC001F920F920FB60F9211240BB60F922F93E2
:1021EC003F934F935F936F937F938F939F93AF9393
:1021FC00BF93EF93FF93989B05C0E091E572F0912C
:10220C00E6720995999B05C0E091E372F091E47236
:10221C0009959A9B05C0E091E172F091E2720995E3
:10222C009B9B05C0E091DF72F091E07209959C9B3D
:10223C0005C0E091DD72F091DE7209959D9B05C0A1
:10224C00E091DB72F091DC7209959E9B05C0E091E8
:10225C00D972F091DA7209959F9B05C0E091D77203
:10226C00F091D87209958FEF83BBFF91EF91BF91DD
:10227C00AF919F918F917F916F915F914F913F9112
:10228C002F910F900BBE0F900FBE0F901F901895B3
:10229C00E0E0F2E080E8808B118A128A138A148ABB
:1022AC00158A168A178A108E118E81E0808381839D
:1022BC0084A710A211A212A213A214A215A216A2F4
:1022CC0017A210A611A612A613A615A616A617A637
:1022DC0010AA11AA12AA13AA10924B0210924D0224
:1022EC0010924C0210924A0210924F02109251021C
:1022FC001092500210924E021092530210925502FC
:10230C00109254021092520212AE13AE14AE15AECD
:10231C0016AE17AE10924002109241021092420279
:10232C0010924302109244021092450210924602FF
:10233C0010924702109248021092490214AA15AA50
:0C234C0016AA17AA10AE11AE80E008958A
:102358001F920F920FB60F9211240BB60F922F9364
:102368003F934F935F936F937F938F939F93AF9315
:10237800BF93EF93FF93D99B05C0E091CD72F09185
:10238800CE720995DA9B05C0E091CB72F091CC72C0
:102398000995DB9B05C0E091C972F091CA72099555
:1023A800DC9B05C0E091C772F091C8720995DD9B6E
:1023B80005C0E091C572F091C6720995DE9B05C013
:1023C800E091C372F091C4720995DF9B05C0E0915A
:1023D800C172F091C27209958FEF8BBBFF91EF919B
:1023E800BF91AF919F918F917F916F915F914F9125
:1023F8003F912F910F900BBE0F900FBE0F901F9023
:02240800189525
:10240A00A2E0B0E0EBE0F2E10C9474174C016B012E
:10241A00FB01228133816480758080819181898367
:10242A009A83A680B78037FD03C08D7F89839A83FC
:10243A00FA014081518162817381CE0101967C014A
:10244A0008E010E09301C6010E94C90F298124FF08
:10245A0006C00197F501E80FF91F20E320832981BF
:10246A0023FF06C00197F501E80FF91F20E2208338
:10247A0009811A81F6014085518541505109481B4D
:10248A00590BB501680F791F9301C4010E94DF142B
:10249A009C01F4018081918190FF06C0F60182813E
:1024AA009381821793070CF4C9012296EEE00C94EB
:0224BA00D51734
:1024BC0080E00E940E190E9428180E94DA18C1E0D0
:1024CC00D0E0CE010E94940E2196C531D105C9F7FA
:1024DC00C0E0D0E00DC0B801CE010E94880C0F5FA7
:1024EC001F4F04311105B9F72196C431D10519F0EC
:1024FC0000E010E0F0CF0F2EF0EDEF2EF2E8FF2E03
:10250C00F02D0E94AD0900E010E020C00C171D0753
:10251C00A1F0BE01C8010E94750A81110EC0DF93A3
:10252C00CF931F930F93FF92EF920E9489170F90F6
:10253C000F900F900F900F900F902196C431D105F2
:10254C0029F70F5F1F4F0431110519F0C0E0D0E0DF
:0C255C00DDCF83E193E80E948418D3CF08
:102568001F920F920FB60F9211240BB60F922F9352
:102578003F934F935F936F937F938F939F93AF9303
:10258800BF93EF93FF935A9B05C0E0910173F091BD
:10259800027309955B9B05C0E091FF72F09100738F
:1025A80009955C9B05C0E091FD72F091FE7209955A
:1025B8005D9B05C0E091FB72F091FC7209955E9BF2
:1025C80005C0E091F972F091FA7209955F9B05C018
:1025D800E091F772F091F87209958FEF8BB9FF913E
:1025E800EF91BF91AF919F918F917F916F915F9183
:1025F8004F913F912F910F900BBE0F900FBE0F90F0
:042608001F90189572
:10260C000F931F93CF93DF93DB01109719F48FEF88
:10261C009FEF3DC02D913C91119730FF25C0169630
:10262C004D915C91179714962D913C9115974217EB
:10263C00530778F41296ED91FC91139780831296C0
:10264C002D913C9113972F5F3F4F12962D933C93F6
:10265C00139716962D913C9117972F5F3F4F169617
:10266C002D933C93179713C01C96ED91FC911D97DD
:10267C00309769F2EB01092F182F0995892B39F640
:10268C008E819F8101968E839F83812F902FDF9166
:08269C00CF911F910F910895E9
:1026A40040E068ED80E690E00E94F71840E068EDB5
:1026B40081E690E00E94F71840E068ED88E790E03A
:1026C4000E94F71844E268ED88E690E00E94F7184B
:1026D40040E068ED89E690E00E94F71840E068ED7C
:1026E40080E790E00E94F71840E068ED8CE790E006
:1026F4000E94F71840E068ED82E690E00E94F71827
:1027040040E068ED83E690E00E94F71840E068ED51
:1027140084E690E00E94F71840E068ED80E890E0DD
:102724000E94F718E0E6F0E0858181FFFDCF08956F
:10273400A2E0B0E0E0EAF3E10C9474175C016B01F1
:10274400FB012281338184809580808191818983FA
:102754009A836680778037FD03C08D7F89839A834F
:10276400FA014081518162817381CE0101967C011D
:102774000AE010E09401C6010E94C90F09811A8180
:10278400F6014085518541505109481B590BB3014D
:10279400680F791F9401C5010E94DF149C01F501A3
:1027A4008081918190FF06C0F60182819381821716
:0E27B40093070CF4C9012296EEE00C94D517A1
:1027C2001F920F920FB60F9211240BB60F922F93F6
:1027D2003F934F935F936F937F938F939F93AF93A7
:1027E200BF93EF93FF93BA9B05C0E091D572F0912E
:1027F200D6720995BB9B05C0E091D372F091D47259
:102802000995BC9B05C0E091D172F091D2720995F5
:10281200BD9B05C0E091CF72F091D07209958FEF08
:1028220087BBFF91EF91BF91AF919F918F917F9164
:102832006F915F914F913F912F910F900BBE0F902F
:082842000FBE0F901F901895C6
:10284A00CF93C82FE0E0F6E0858580FFFDCF81E0D9
:10285A0080930D068C2F0E94E018E0E0F6E0858553
:10286A0080FFFDCF0E94F2182C2F30E0F901EE0F05
:10287A00FF1FDF01A20FB31FAA0FBB1FAE5FBD4828
:10288A001D921D921D921C921397FD0114821582AE
:10289A00929582958F7089279F708927BC0180E065
:1028AA0090E00E94661423E333E343E550E40E9478
:1028BA000A1920E030EF4FE755E40E940619CF913C
:0228CA0008956F
:1028CC00E89409C097FB3EF49095809570956195BE
:1028DC007F4F8F4F9F4F9923A9F0F92F96E9BB2774
:1028EC009395F695879577956795B795F111F8CFF0
:1028FC00FAF4BB0F11F460FF1BC06F5F7F4F8F4F5B
:10290C009F4F16C0882311F096E911C0772321F050
:10291C009EE8872F762F05C0662371F096E8862FE8
:10292C0070E060E02AF09A95660F771F881FDAF73F
:0A293C00880F9695879597F9089586
:10294600A2E8B0E0E9EAF4E10C9476175C014A01EA
:10295600CF57DF4F68837983C158D040C12CD12C23
:10296600CF57DF4FE881F981C158D0408081882355
:10297600E9F07401860120E830E0AE014F5F5F4F59
:10298600BE016F577F4FC5010E942C058C0D9D1D02
:102996008C159D054CF48FE490E080930040909355
:1029A60001408FEF9FEF03C06C01DACFC601CE570F
:0829B600DF4FECE00C94D71791
:1029BE00A0E0B0E0E5EEF4E10C9476176C015B015B
:1029CE007A01E901480181E08822992400FD03C0C3
:1029DE004217530750F0A701B501C6010E945317C5
:1029EE00EC16FD0610F0C70117C08E010E191F0957
:1029FE000115110541F0B60180E290E00E94061328
:102A0E0001501109F5CF8114910429F4A701B501E4
:102A1E00C6010E945317CE01CDB7DEB7ECE00C9481
:022A2E00D717B8
:102A30000F931F93CF93DF938C010F5F1F4FFC0108
:102A400080816115710519F48FEF9FEF1EC0FB01A6
:102A500024853585232BC1F3EB01EC85FD85BE0173
:102A6000882339F00995892B79F7F80181918F0135
:102A7000F4CF8AE0099521E030E0892B11F420E0C1
:102A800030E088279927821B930BDF91CF911F910C
:042A90000F91089505
:102A94001F920F920FB60F9211240BB60F922F9321
:102AA4003F934F935F936F937F938F939F93AF93D2
:102AB400BF93EF93FF9382E080930D06E091BF7282
:102AC400F091C072309709F00995FF91EF91BF9191
:102AD400AF919F918F917F916F915F914F913F91B2
:102AE4002F910F900BBE0F900FBE0F901F90189553
:102AF4001F920F920FB60F9211240BB60F922F93C1
:102B04003F934F935F936F937F938F939F93AF9371
:102B1400BF93EF93FF9381E080930D06E091BD7224
:102B2400F091BE72309709F00995FF91EF91BF9132
:102B3400AF919F918F917F916F915F914F913F9151
:102B44002F910F900BBE0F900FBE0F901F901895F2
:102B54001F920F920FB60F9211240BB60F922F9360
:102B64003F934F935F936F937F938F939F93AF9311
:102B7400BF93EF93FF931F9B05C0E0910F73F091F8
:102B8400107309958FEF83B9FF91EF91BF91AF91C6
:102B94009F918F917F916F915F914F913F912F9171
:0E2BA4000F900BBE0F900FBE0F901F90189554
:102BB2000E94BA1688F09F5798F0B92F9927B751FB
:102BC200B0F0E1F0660F771F881F991F1AF0BA95CF
:102BD200C9F714C0B13091F00E94CC18B1E0089549
:102BE2000C94CC18672F782F8827B85F39F0B93F3B
:102BF200CCF3869577956795B395D9F73EF4909582
:0E2C02008095709561957F4F8F4F9F4F08957D
:102C1000E0E6F8E080E197E280879187158280EC1A
:102C2000868383E08783138614861686158682E45E
:102C300099E18093197390931A7383E499E18093D7
:102C400017739093187384E499E1809315739093AC
:102C5000167310921B7310921C73E0911D73F09108
:0C2C60001E7380E992E780839183089541
:102C6C00DC01ED91FC91119780818A3221F080E09A
:102C7C0090E03AE00EC03196ED93FC93DB01ED91C0
:102C8C00FC911197CF0102968D939C938081918139
:102C9C000895ED91FC911197208120532A3068F40E
:102CAC00389FA001399F500D1124CA01820F911D2C
:0C2CBC003196ED93FC931197ECCF089536
:102CC800A0E0B0E0EAE6F6E10C9478177C01FB019D
:102CD800EA01C901A280B380C480D5800081118136
:102CE800209711F4C0EBD2E7009719F4CE010E94A7
:102CF8004A18B7FC04C0A816B90608F4C50196011D
:102D0800AC01BE01C7010E94DF14CDB7DEB7EAE00F
:042D18000C94D91727
:102D1C00990F0008550FAA0BE0E8FEEF16161706E0
:102D2C00E807F907C0F012161306E407F50798F048
:102D3C00621B730B840B950B39F40A2661F0232B61
:102D4C00242B252B21F408950A2609F4A140A695DD
:082D5C008FEF811D811D089518
:102D640057FD9058440F551F59F05F3F71F0479538
:102D7400880F97FB991F61F09F3F79F0879508951D
:102D8400121613061406551FF2CF4695F1DF08C03C
:102D9400161617061806991FF1CF86957105610559
:042DA40008940895F2
:102DA800A1E21A2EAA1BBB1BFD010DC0AA1FBB1F47
:102DB800EE1FFF1FA217B307E407F50720F0A21BB9
:102DC800B30BE40BF50B661F771F881F991F1A9426
:102DD80069F760957095809590959B01AC01BD0150
:042DE800CF0108957A
:102DEC00CF93DF93EC0190E0E92FF0E0EE0FFF1FA3
:102DFC00E658FD488081811102C081810EC0A881F6
:102E0C00B9812C91821305C091811196A883B98345
:102E1C0001C09F5F9B3040F3892FDF91CF910895C4
:102E2C00FA0160387105CCF0623871051CF063381A
:102E3C00710599F4A081B1819D012C5F3F4F2083D6
:102E4C0031834D915D916D917C91FC014083518357
:102E5C006283738381E090E0089580E090E00895B0
:102E6C00E0E0FAE010A611A612A613A614A615A669
:102E7C0010A211A211821282138214821582168260
:102E8C00178216861186128613868FEF9FEF86A304
:0A2E9C0097A3178689E0808308954C
:102EA600A0E0B0E0E9E5F7E10C947A176C01EB01DC
:102EB6008A017B01E40EF51ECE15DF0541F08991EE
:102EC600B601082E000C990B0E940613F5CFC80117
:0A2ED600CDB7DEB7E8E00C94DB177F
:102EE0002F923F924F925F926F927F928F929F921A
:102EF000AF92BF92CF92DF92EF92FF920F931F9308
:102F0000CF93DF93CDB7DEB7CA1BDB0BCDBFDEBFE0
:022F1000099422
:102F1200A0E0B0E0EFE8F7E10C948017AE014B5F60
:102F22005F4FFA0161917191AF01E0911D73F091D0
:102F32001E73808191810E94B917E2E00C94E1171F
:102F4200A0E0B0E0E7EAF7E10C948017AE014B5F36
:102F52005F4FFA0161917191AF01E0911D73F091A0
:102F62001E73808191810E94B917E2E00C94E117EF
:102F7200A2E0B0E0EFEBF7E10C947E178C014983FD
:102F82005A83AE014F5F5F4F0E94A314F801208164
:102F920024FF02C08FEF9FEF2296E4E00C94DF172C
:102FA2002A88398848885F846E847D848C849B84D7
:102FB200AA84B984C884DF80EE80FD800C811B81E5
:102FC200AA81B981CE0FD11DCDBFDEBFED0108951B
:102FD200E0E0F6E084E0818383E08283138214825E
:102FE200168613861486108615828FEF9FE0848BD7
:0E2FF200958B128A138A81E1808380E0089516
:1030000097FB072E16F4009407D077FD09D00E9495
:10301000141807FC05D03EF4909581959F4F0895B4
:08302000709561957F4F089542
:10302800AA1BBB1B51E107C0AA1FBB1FA617B707E6
:1030380010F0A61BB70B881F991F5A95A9F7809502
:083048009095BC01CD01089533
:103050000E9452130E942A070E9436170E94E91705
:103060000E944E110E9408160E949F180E94581834
:023070000895C1
:10307200092E0394000C11F4882352F0BB0F40F484
:10308200BF2B11F460FF04C06F5F7F4F8F4F9F4FC4
:0230920008959F
:10309400FC01AF014F5F5F4F2081222311F0FA0141
:0C30A400F8CF9F01281B390BC9010895CB
:1030B00040E068ED80E191E00E94F718E0E1F1E086
:0830C0001282138280E00895E2
:1030C800CF93C82F0E94E6188823E1F3C0936208C3
:0830D80080E090E0CF91089523
:1030E000EC010E9446190E944519CE010E94471921
:0630F000CE010E9416193A
:1030F600EE0FFF1F0024001C0BBE0790F691E02D7B
:0231060009942A
:10310800E0911D73F0911E73608171810E94181502
:02311800089518
:10311A00FC01480F591FE417F50711F06193FBCF23
:02312A00089506
:10312C009C01215631092A31310510F48F759927EC
:02313C000895F4
:10313E00E0EBF0E0148285E08083128280E0089557
:10314E00FC01DB012D91BD0121932111FACF0895D0
:10315E009C01215431092A31310508F48062089509
:0E316E005058BB27AA270E94620F0C943918F4
:0E317C0000240A941616170618060906089570
:0E318A0000240A941216130614060506089572
:0E319800E894BB2766277727CB0197F90895A7
:0E31A6000E94D9156894B1110C94CD180895AB
:0C31B400E0E0F6E08385816083870895E9
:0C31C000E0E0F6E0808781E0828708955F
:0C31CC008091640885FB882780F9089535
:0C31D80097F99F6780E870E060E00895C0
:0A31E40080911006909111060895E5
:0A31EE001BBEFC0164BF408308957E
:0A31F8000E948E1608F48FEF089570
:0A3202000E948E1608F481E0089582
:08320C000E94190C0C94391802
:083214000E94F40C0C9439181F
:06321C00809308060895EE
:063222009FEF80EC08950F
:043228000C94000002
:04322C000E941401E7
:023230000895FF
:023232000895FD
:023234000895FB
:023236000895F9
:023238000895F7
:02323A000895F5
:02323C000895F3
:02323E000895F1
:023240000895EF
:023242000895ED
:023244000895EB
:023246000895E9
:023248000895E7
:02324A000895E5
:02324C000895E3
:02324E000895E1
:023250000895DF
:023252000895DD
:023254000895DB
:023256000895D9
:023258000895D7
:02325A000895D5
:02325C000895D3
:02325E000895D1
:023260000895CF
:023262000895CD
:023264000895CB
:023266000895C9
:023268000895C7
:02326A000895C5
:02326C000895C3
:02326E000895C1
:023270000895BF
:023272000895BD
:023274000895BB
:023276000895B9
:023278000895B7
:02327A000895B5
:02327C000895B3
:02327E000895B1
:023280000895AF
:023282000895AD
:023284000895AB
:023286000895A9
:023288000895A7
:02328A000895A5
:02328C000895A3
:02328E000895A1
:1032900068076C094C836A9074A07AC000806888C3
:0632A00000846C82008135
:1032A6000300000000000000000000006418000099
:1032B600494E4600696E66004E414E006E616E00D4
:0732C600286E756C6C2900F5
:0632CD00286E696C290067
:0232D3001F7367
:02000004008278
:090000000000000000C00800002F
:00000001FF
