:100000000C9489000C9471310C9471310C94713101
:100010000C9471310C9471310C9471310C947131D8
:100020000C94972F0C94891F0C9471310C9471319E
:100030000C9471310C9471310C9471310C947131B8
:100040000C9471310C9471310C9471310C947131A8
:100050000C9471310C9471310C9471310C94713198
:100060000C9459270C9471310C944E2B0C941E2B2C
:100070000C9471310C9471310C9415270C947131DE
:100080000C9471310C9471310C9471310C94B32F28
:100090000C9471310C9471310C94771E0C94713165
:1000A0000C9471310C9471310C9471310C94713148
:1000B0000C9471310C94BE290C94A52F0C947131C1
:1000C0000C9471310C9471310C9471310C94713128
:1000D0000C9471310C9441260C9471310C94713153
:1000E0000C9471310C9471310C9471310C94713108
:1000F0000C94713140004506804506453900630E79
:100100004539455780455745590063414559456430
:100110008000809101108F7C806080688093011046
:1001200011241FBECFEFCDBFDFE7DEBFE4EFF0E06D
:1001300041E019C0B791A79137912791079107FD29
:100140000EC097918791EF01F92FE82F0BBF079011
:100150000D92A217B307D9F7FE011BBE04C01D9272
:10016000A217B307E1F7E131F40721F70E94E61D7A
:080170000C943D30F894FFCF20
:100178006765742025732E25732E257325632563E3
:1001880025630025732E25732E7478743D222573FC
:10019800222563256325630025732E25732E76613A
:1001A8006C3D2564256325632563007061676520C0
:1001B80025732563256325630076616C006E300026
:1001C8006D6375006E310074787400743200743396
:1001D800000000256C75006C6564206F6E006C650E
:1001E80064206F66660068656C7000676574206ED1
:1001F8003000496E76616C696420696E7075743A76
:100208002025640A0043617264206D6F756E746501
:10021800642E0A004C6F677320466F6C6465720029
:100228006C6F675F312E63737600436F756C642063
:100238006E6F74206F70656E20666F6C6465722EC9
:100248000A0052657475726E20636F64653A200007
:100258000A0A000A46696C65206F70656E3A2000CC
:1002680046696C652073697A653A20000A004C6F0C
:100278006767696E6720446174653A2032303234AA
:100288000A0046696C65206E65772073697A653A5D
:1002980020002062797465732E0A0046696C652017
:1002A800636F756C64206E6F7420626520666F756D
:1002B8006E642E0A0046696C6520636F756C642055
:1002C8006E6F74206265206F70656E65642E0A001B
:1002D80043617264206E6F74206D6F756E7465640F
:1002E8002E206865726530002052657475726E2024
:1002F800636F64653A20000A566F6C756D6520530C
:10030800657269616C204E756D6265722069732033
:10031800002D00566F6C756D65206C6162656C20F0
:1003280069733A2000466F6C646572206372656178
:100338007465642E0A00466F6C64657220636F757D
:100348006C64206E6F7420626520637265617465E9
:10035800642E0A0052657475726E206572726F722F
:1003680020636F64653A2000466F6C646572206F85
:1003780070656E3A20006C6F675F312E7478740078
:1003880046696C6520637265617465642E0A0A00AB
:1003980046696C6520636F756C64206E6F742062AB
:1003A8006520637265617465642E0A00466F6C642B
:1003B8006572206861732000206974656D733A0A5C
:1003C80000442C2000462C20004964783A20002C58
:1003D800200043617264206E6F74206D6F756E74B7
:1003E80065642E206865726531004E6578742074E6
:1003F80068696E6720697320746F74616C20627914
:100408007465730043617264206E6F74206D6F753C
:100418006E7465642E206865726532002C006F6BFF
:100428006179310074300073657474696E677300A4
:100438004361726420636F6E6E65637465640A005D
:100448006F6B6179320074310050696E2000426F21
:100458007468204C6F772054657374006F6B6179F2
:1004680033004361726420646973636F6E6E656301
:050478007465640A0038
:10047D005465726D696E616C2046756E6374696F3B
:10048D006E730A5F5F5F5F5F5F5F5F5F5F5F5F5FA1
:10049D005F5F5F5F5F5F5F5F5F5F5F5F5F5F5F5F5F
:1004AD005F5F5F5F5F5F5F5F5F5F5F5F5F5F5F5F4F
:1004BD005F5F5F5F5F5F5F5F5F5F5F5F5F5F5F5F3F
:1004CD005F5F5F5F5F5F5F5F0A6C6564206F6E20CB
:1004DD002020202020202020202D205475726E7386
:1004ED0020746865204C4544206F6E0A6C6564204D
:1004FD006F66662020202020202020202D2054757E
:10050D00726E7320746865204C4544206F66660AD0
:10051D0068656C70202020202020202020202020A5
:10052D002D20446973706C61792061206D656E7545
:10053D00206F66207465726D696E616C2066756ED4
:10054D006374696F6E730A73657474696E67732073
:10055D00202020202020202D20446973706C61798B
:10056D002063757272656E742073657474696E673D
:10057D00730A6765742074696D6528574950292081
:10058D0020202D20446973706C6179206C6F63613C
:10059D006C204D43552074696D650A636861722046
:1005AD00646F6E65202020202020202D2053696D42
:1005BD00756C6174652063686172616374657269DD
:1005CD007A6174696F6E2066696E6973682C206735
:1005DD006F20746F20726573706563746976652022
:1005ED00706167650A6661756C742020202020207B
:1005FD0020202020202D20476F20746F20746865E7
:10060D00206661756C745F64657465637465640AF6
:01061D0000DC
:10061E00303132333435363738394142434445462A
:02062E00780052
:05063000002D002E006A
:100636002F923F924F925F926F927F928F929F92EC
:10064600AF92BF92CF92DF92EF92FF920F931F93DA
:10065600CF93DF93CDB7DEB7A197CDBFDEBF7C01C9
:100666006A8B7B8BD42E1C86198A10910245DC017D
:100676005A968C9181110DC08091ED449091EE4473
:10068600A091EF44B091F044F70180839183A28357
:10069600B38340E050E0BA01C7010E948B2A6A8901
:1006A6007B8940E0C7010E948F13823009F044C362
:1006B60080E007C03196EA8BFB8B8F5F883F08F09E
:1006C6003DC3EA89FB8990819111F4CFD7011C962D
:1006D6006D907C901D976A8A7B8A09C08F3209F4D7
:1006E6002FC38C3509F42EC33196EA8BFB8BEA892E
:1006F600FB8980818111F2CF6A8A7B8AF70140816A
:10070600518162817381C7010E948B2A6A897B8924
:100716009E012F5E3F4FAE014F5F5F4FC7010E94A4
:10072600DF15823009F010C3D70150961D921C9236
:10073600519759968C91882309F408C30FE4809F3A
:10074600012D1124069506959989992361F0402F6C
:1007560050E06DE070E090E00E9448308E8F882374
:1007660019F00F5F01C01E8EB1E0B00FB98F0064A3
:100776000F8FCE0101960E94DA2E88A3F7014081E1
:10078600518162817381C7010E948B2A00E0C12CCE
:10079600A12CB12C212C312C2101812C912C1C8ACD
:1007A6001D8A1E8A1F8A088F6A8E7B8E7C2C098D75
:1007B600D9A2C12CD12C42C0FFEFAF1ABF0AFC014F
:1007C600EE0FFF1FE295F295F07FFE27E07FFE27F2
:1007D600EF5FFF4B2081222311F0253EE1F4739455
:1007E600211431044104510499F4D70118962D902F
:1007F6003D904D905C901B9750968D909C90519794
:10080600B1E08B1A9108F701C480D5808E8B9F8B3F
:10081600071105C00EC0712C212C312C2101019627
:1008260002C080E090E0212F30E08217930720F28B
:1008360002C0F1E0F88F288D211105C0C7010E9482
:100846005623882371F3CC8ADD8AC72C6A8C7B8C6D
:10085600D9A0398DC31609F43FC0F7018081918173
:10086600A281B3810297A105B105B0F1AB20A09496
:1008760099F183E00E94FC199B01AC016D877E878C
:100886008F87988B623071058105910508F460C2E7
:10089600D7016D917D918D919C9106E00E945D122C
:1008A600662309F457C22091E5443091E64440910D
:1008B600E7445091E8446D857E858F8598890E942E
:1008C6005D12662309F448C26D857E858F859889F9
:1008D60040E00E949B28C98CB98DCB123FC2EC899F
:1008E600FD89CF01A0E0B0E0F70184839583A6835C
:1008F600B7832086318642865386808A918AB4E001
:10090600DB1225C04091E5445091E6446091E744EE
:100916007091E844CE010D960E946025811120C297
:100926006D857E858F85988940E00E949B286D8520
:100936007E858F8598890E94D52B6A8F7B8F8C8FB9
:100946009D8F672B682B692B09F40CC208C01D8686
:100956001E861F86188A1A8E1B8E1C8E1D8EC70138
:100966000E945623811100C2812C1C8A188E312CBC
:10097600212C4E885F88BE8C982EA12EDE8A35C12A
:100986008A2D90E04816590639F4C7010E9456236D
:100996008111ECC1412C512C8201000F111F0295CF
:1009A6001295107F1027007F102740E060E270E06C
:1009B600C8010E94792FD988DD2009F476C0E1E0CC
:1009C600EC1508F072C06A8A7B8AF801EF5FFF4B6C
:1009D6002F8D20833EEF3C0D3F8FD70159964C91CA
:1009E6004E3098F0B98D2B2F30E02C19310953EF8A
:1009F6005203C001539F900D1124840F911D8B1932
:100A06009109860D971D8A8B9B8B22E0AE014E5E67
:100A16005F4F6AE070E0C80101960E945A2A22E000
:100A2600AE014E5E5F4F6CE070E0C8010E960E940C
:100A36005A2A22E0AE014E5E5F4F64E070E0C801C4
:100A46004C960E945A2ABB2029F1811023C0E4E06B
:100A5600EB1520F08B2C880C839411C0FAE0FB1563
:100A660030F08B2D90E00296882E880C08C02CE082
:100A76002B1528F08B2D90E00396882E880CC80144
:100A8600880D911DFC01EF5FFF4B1082FC01EE5FAC
:100A9600FF4B1082F801E45FFF4B8FE08083F80183
:100AA600E25FFF4B18A1108373C021E0C21270C031
:100AB6003E89343031F480E1F801E45FFF4B8083F6
:100AC60005C080E2F801E45FFF4B80830E9473312A
:100AD600F8013D96EF5FFF4B80830E945C31382E14
:100AE600292EF801E15FFF4B8083F801E05FFF4BA1
:100AF6009083F801E95EFF4B8083F801E85EFF4BC7
:100B060090830E945F318C8B988FF801EF5EFF4BCC
:100B16008083F801EE5EFF4B9083F801E75EFF4BA2
:100B26008083F801E65EFF4B90833D852E859F8589
:100B36008889F801E55EFF4B3083F801E45EFF4BE0
:100B4600208320910445223041F4F801EB5EFF4BEF
:100B56009083F801EA5EFF4B8083D11005C088E1DF
:100B6600F801E35FFF4B808340E010C0A42FB0E0A4
:100B7600FD01E00FF11F81E090E08C0F9D1FA80F93
:100B8600B91F8C91EF5FFF4B80834F5F4B3070F343
:100B96008A2D90E001974816590619F091E0C9127E
:100BA60020C0D70118964D915D916D917C911B9750
:100BB60050968D919C9151978A019B01080F191FA0
:100BC600211D311DC901B8016150710981099109C1
:100BD60041E050E40E94051F80910040853009F0F5
:100BE600C7C0CA941FEF411A510AC110C9CE092DB8
:100BF600DE8824E0D212BDC00F2EFDEDAF2EF4E448
:100C0600BF2EF02DD50158966D917C91599740E0F5
:100C160080E090E00E94792F0F2EF1E0CF2EF0E4D5
:100C2600DF2EF02D8EE2F601808340E26AE070E06E
:100C360081E090E00E94792F80E1D6011B968C938B
:100C46001B97832C56963C925697922C57962C922D
:100C560057971C8958961C935897388C59963C92EE
:100C660059973D852E859F8588895A963C935A9734
:100C76005B962C93D50197962C91223019F4F601A8
:100C8600948B858B0F2EF1E0CF2EF0E4DF2EF02D26
:100C96008EE2F60180A381A340E269E070E082E281
:100CA60090E00E94792F80E1D6019B968C939B97CA
:100CB600D6968C92D697D7969C92D797D8961C9311
:100CC600D897D9963C92809104458230F9F4F70181
:100CD60040815181628173818091ED449091EE440F
:100CE600A091EF44B091F044481759076A077B0773
:100CF60021F41082118212821382F7018281E1E0CF
:100D0600F0E484ABD70113968C9185ABF701808113
:100D1600E1E0F0E482AFD70111968C9183AFAF0189
:100D26006A8D7B8D8C8D9D8D0E94051F8091004064
:100D36008530F9F00CE01DC005E01BC008E019C0C5
:100D460003E017C003E015C005E013C007E011C0BB
:100D560004E00FC00CE00DC00CE00BC007E009C0BA
:100D6600082F07C007E005C00CE003C00CE001C077
:100D76000CE0802FA196CDBFDEBFDF91CF911F91F2
:100D86000F91FF90EF90DF90CF90BF90AF909F9024
:100D96008F907F906F905F904F903F902F90089527
:100DA600AAE9B0E0E9EDF6E00C94372E6C017A0181
:100DB600C756DF4F68837983C959D040A12CB12C1F
:100DC60066246A94762C90E8492E512C25E2222E30
:100DD600C756DF4F68817981C959D040FB018081B0
:100DE600882309F471C3CF57DF4F18821982C1587F
:100DF600D040CD57DF4F68827982C358D040CB5759
:100E0600DF4F18821982C558D04081E090E08C0FE0
:100E16009D1FC957DF4F88839983C758D040C7574E
:100E2600DF4F48825982C958D040FB0100E010E0EC
:100E36008191811116C001151105C1F0A801C601E5
:100E46000E94E52DC756DF4F88819981C959D04048
:100E5600800F911FC756DF4F88839983C959D040A9
:100E660005C0853241F30F5F1F4FE2CFC756DF4FF4
:100E7600E881F981C959D0408081853209F012C3D1
:100E86004F019FEF891A990AC756DF4F88829982C8
:100E9600C959D040C756DF4F88819981C959D0407A
:100EA600DC012C912B3241F4CF57DF4F2881398159
:100EB600C158D04024600BC02C32BCF02D3249F50D
:100EC600CF57DF4F28813981C158D0402160CF5795
:100ED600DF4F28833983C158D0400196C756DF4F6C
:100EE60088839983C959D040D5CF203241F4CF5752
:100EF600DF4F28813981C158D0402860E8CF23329E
:100F060091F4CF57DF4F28813981C158D0402061F5
:100F1600DECF203341F4CF57DF4F28813981C158C6
:100F2600D0402260D4CF2A3289F50196C756DF4FCA
:100F360088839983C959D040D701ED91FC911197C7
:100F4600CF0102968D939C9380819181CB57DF4F81
:100F560088839983C558D04097FF35C0CF57DF4F58
:100F660028813981C158D040B1E02B27CF57DF4FB8
:100F760028833983C158D040919581959109CB57E3
:100F8600DF4F88839983C558D0401DC00E944D29E4
:100F9600CB57DF4F88839983C558D040C756DF4F5C
:100FA600E881F981C959D0408081082E000C990B3F
:100FB600C0970A9740F43196C756DF4FE883F98306
:100FC600C959D040EBCFCF57DF4F88819981C1589F
:100FD600D04080FF07C08D7FCF57DF4F888399832E
:100FE600C158D040C756DF4FE881F981C959D04072
:100FF60080818E3209F046C0CD57DF4F18821982A4
:10100600C358D040CF010196C756DF4F88839983D6
:10101600C959D04021812A32C1F43296C756DF4FD2
:10102600E883F983C959D040D701ED91FC91119716
:10103600CF0102968D939C9380819181CD57DF4F8E
:1010460088839983C358D0401DC00E944D29CD572F
:10105600DF4F88839983C358D040C756DF4FE88156
:10106600F981C959D0408081082E000C990BC09790
:101076000A9740F43196C756DF4FE883F983C9597A
:10108600D040EBCFCE0187569F4F0E94302D382E91
:10109600C756DF4FE881F981C959D0408081082EB3
:1010A600000C990B0E9484308936910509F456C0CC
:1010B600B4F48336910509F46BC144F48532910585
:1010C60009F4A2C18136910529F1B4C1843691058E
:1010D60009F444C0883691050CF436C1ABC180379B
:1010E600910509F4C4C04CF48E36910509F420C16B
:1010F6008F36910509F47AC09DC18537910509F4AB
:1011060051C08837910509F495C08337910509F0D8
:1011160091C15DC1632D70E0A701CE0185579F4F38
:101126000E94502D892B09F4B0C1C756DF4FE881C4
:10113600F981C959D040CF010196C756DF4F888340
:101146009983C959D0402081AE0145575F4FBE01F2
:101156006F577F4FC6010E946E3194C1632D70E0B8
:10116600970141E050E0CE0185579F4F0E944319F9
:10117600892B09F48AC1C756DF4F88819981C959DD
:10118600D0400196C756DF4F88839983C959D0400E
:10119600AE0145575F4FBE016F577F4FC6010E9494
:1011A600841870C1632D70E0970140E050E0CE01D5
:1011B60085579F4F0E944319892B09F466C1C7566C
:1011C600DF4F88819981C959D0400196C756DF4FB4
:1011D60088839983C959D040AE0145575F4FBE01F8
:1011E6006F577F4FC6010E9412244CC1632D70E0D9
:1011F600970140E050E0CE0185579F4F0E9443196A
:10120600892B09F442C1C756DF4F88819981C95994
:10121600D0400196C756DF4F88839983C959D0407D
:10122600AE0145575F4FBE016F577F4FC6010E9403
:10123600212228C1632D70E0970140E050E0CE01E5
:1012460085579F4F0E944319892B09F41EC1C75623
:10125600DF4FE881F981C959D040CF010196C756C1
:10126600DF4F88839983C959D040208157C09701A1
:1012760040E050E060EF70E0CE0185579F4F0E943E
:101286004319892B09F401C1C756DF4F888199811B
:10129600C959D0400196C756DF4F88839983C959EB
:1012A600D04086E0E3E3F5E4DE01AD56BF4F0190A2
:1012B6000D928A95E1F7C557DF4F2881CB58D0406C
:1012C600C457DF4F3881CC58D040C357DF4F4881D1
:1012D600CD58D040C257DF4F5881CE58D040C15765
:1012E600DF4F6881CF58D040C057DF4F7881C05953
:1012F600D040CF56DF4F8881C159D040CE56DF4F00
:101306009881C259D040A0E00E94263031F420E0F6
:1013160030E0AE014D565F4FAFC028E7AE014557EE
:101326005F4FBE016F577F4FC6010E941D11AAC0B5
:10133600632D70E09701A501400F511FCE0185571F
:101346009F4F0E944B21A1C0632D70E0A701CE01E3
:1013560085579F4F0E94502D892B09F496C0C7567A
:10136600DF4FE881F981C959D040CF010196C756B0
:10137600DF4F88839983C959D0402081AE014557F4
:101386005F4FBE016F577F4FC6010E946E317AC014
:10139600B0E83B127AC0C756DF4F88819981C95998
:1013A600D0400196C756DF4F88839983C959D040EC
:1013B600D701ED91FC911197CF0102968D939C93E5
:1013C6008081C557DF4F8883CB58D04050C0B0E8E6
:1013D6003B125BC0C756DF4F88819981C959D040FF
:1013E6000196C756DF4F88839983C959D040D701E4
:1013F600ED91FC911197CF0102968D939C934081BC
:10140600518120E030E038C0B0E83B123EC0C756FC
:10141600DF4F88819981C959D0400196C756DF4F61
:1014260088839983C959D040C557DF4F2882CB5846
:10143600D0401DC0C557DF4F2882CB58D040C75675
:10144600DF4F88829982C959D040CF57DF4F188223
:101456001982C158D040CB57DF4F18821982C55820
:10146600D040CD57DF4F68827982C358D04021E003
:1014760030E0AE0145575F4FBE016F577F4FC60143
:101486000E94F429800F911F0EC0C756DF4F888136
:101496009981C959D0400196C756DF4F88839983F1
:1014A600C959D040C8018501080F191F0A151B0527
:1014B6004CF48FE490E08093DB439093DC438FEF12
:1014C6009FEF03C0580184CCC501C656DF4FE2E149
:0414D6000C94502EF4
:1014DA004F925F926F927F928F929F92AF92BF923A
:1014EA00CF92DF92EF92FF92CF93DF93CDB7DEB721
:1014FA006497CDBFDEBF2FEF85EA9EE02150804082
:10150A009040E1F700C000000E946B0C8093624596
:10151A008111B3C18DE092E80E94022E1D861E86BB
:10152A001F86188ABE01635F7F4FCE0101960E9413
:10153A00F122CD84DE84EF84F8884F2C552466246A
:10154A0077244701AA24BB24BB27AF2D9E2D8D2DBE
:10155A00898B9A8BAB8BBC8B8FEF92E80E94022E01
:10156A00842D0E94892C882D0E94892C89E193E878
:10157A000E94022E89890E94892C8C2D0E94892C16
:10158A0084E792E80E94022E8BE193E80E94022EE1
:10159A00CE0101960E94022E88E592E80E94022E50
:1015AA006CE172E88FE593E40E94483180936245CA
:1015BA00811105C08DE293E80E94022E17C08EE3C6
:1015CA0093E80E94022E8CE593E80E94022E209155
:1015DA00624530E040E050E060E070E080E090E09A
:1015EA000E94FA2B84E792E80E94022E6CE172E8CC
:1015FA008FE593E40E94BC2A80936245811195C0CD
:10160A0080E793E80E94022E0E9462310E94022E15
:10161A0088E592E80E94022E68E272E88FE593E478
:10162A000E944C3180936245811105C088E893E895
:10163A000E94022E17C088E993E80E94022E8CE5C8
:10164A0093E80E94022E2091624530E040E050E08B
:10165A0060E070E080E090E00E94FA2B88E592E872
:10166A000E94022E8FE593E40E94AB2D80933B45A6
:10167A0090933C4584EB93E80E94022E80903B4570
:10168A0090903C45282D392D40E050E060E070E014
:10169A0080E090E00E94FA2B80EC93E80E94022EF0
:1016AA00E12CF12C39C068E372E48FE593E40E94DF
:1016BA00B9148093624588E392E40E940731882333
:1016CA0029F089EC93E80E94022E04C08DEC93E87D
:1016DA000E94022E81ED93E80E94022E8FE593E488
:1016EA000E945031AC01242F352F40E050E060E0D9
:1016FA0070E080E090E00E94FA2B87ED93E80E9468
:10170A00022E0E9462310E94022E84E792E80E9411
:10171A00022E9FEFE91AF90A80913B4590913C45C8
:10172A00E816F90608F4BFCF17C082E392E80E94D0
:10173A00022E8AE492E80E94022E2091624530E04D
:10174A0040E050E060E070E080E090E00E94FA2B18
:10175A0088E592E80E94022E6CE172E88FE593E434
:10176A000E94BC2A48E252E868E372E48FE593E4F7
:10177A000E94D0268093624581114DC08BE592E884
:10178A000E94022E0E9462310E94022E88E592E88F
:10179A000E94022E88E692E80E94022E88E392E4D2
:1017AA000E94DF304B015C01262F392D4A2D5B2D1B
:1017BA0060E070E080E090E00E94FA2B84E792E813
:1017CA000E94022E88E392E40E94643088E392E445
:1017DA000E94E0278AE892E80E94022E88E392E4B7
:1017EA000E94DF304B015C01262F392D4A2D5B2DDB
:1017FA0060E070E080E090E00E94FA2B82EF93E8CC
:10180A000E94022E0E94EF2C0E94FA2B8AE992E88B
:10181A000E94022E49C08230C1F483EA92E80E94F3
:10182A00022E8AE492E80E94022E2091624530E05C
:10183A0040E050E060E070E080E090E00E94FA2B27
:10184A0088E592E80E94022E2FC08DEB92E80E9452
:10185A00022E8AE492E80E94022E2091624530E02C
:10186A0040E050E060E070E080E090E00E94FA2BF7
:10187A0088E592E80E94022E17C08CE094E80E9444
:10188A00022E80EF92E80E94022E2091624530E0FB
:10189A0040E050E060E070E080E090E00E94FA2BC7
:1018AA0088E592E80E94022E6496CDBFDEBFDF91E2
:1018BA00CF91FF90EF90DF90CF90BF90AF909F9025
:0C18CA008F907F906F905F904F9008957A
:1018D6002F923F924F925F926F927F928F929F923A
:1018E600AF92BF92CF92DF92EF92FF920F931F9328
:1018F600CF93DF93CDEDD4E4188A198A1A8A1B8A0E
:10190600188219821A821B821FA2212C312C0E9456
:10191600AE1A8EA38111ACC141E050E460E070E0E4
:10192600CB010E94FE1F809303458111A3C1309114
:1019360000422091FF41832F922FA0E0B0E08A3A27
:1019460025E59207A105B10509F096C13091BD4183
:101956002091BE41832F922F8A35EAE59E07A10585
:10196600B10599F0892B8A2B8B2B99F042C0FC018B
:10197600E295F295F07FFE27E07FFE27ED53FE4BC2
:10198600208121110CC0019607C080E090E020E084
:1019960003C080E090E020E08430910540F382951A
:1019A6009295907F9827807F9827FC01E953FE4BFC
:1019B600E081DC01A853BE4B3C91532FDC01A753B9
:1019C600BE4BEC01C653DE4B4E2F6C917881409393
:1019D600DD445093DE446093DF447093E044212C51
:1019E600312C222309F44AC1452B462B472B09F4F7
:1019F60047C10DED14E4F801608171818281938104
:101A060041E050E40E94FE1FF80186A381113AC10D
:101A1600309100422091FF41832F922FA22DB32DAA
:101A26008A3A9545A105B10509F02EC1E1E0F0E439
:101A360033852485632F722F3093F5442093F64423
:101A4600611522E0720709F021C18585D8019896B3
:101A56008C93989736852785E32EF22E4089318917
:101A66002289832F922FC388D4880C2D1D2D222DD9
:101A7600332D4801C688D7884C2C5D2C622C732CDC
:101A86005201C0A0D1A022A033A01496CC921497E4
:101A96001596DC92159716962C92169717963C92E9
:101AA600E114F10409F4F4C0880F991F8295929508
:101AB600907F9827807F98270E94EE2E6093F744A8
:101AC6007093F844AB2869F0D301C201AA27BB275B
:101AD6008093E9449093EA44A093EB44B093EC449A
:101AE6000CC0E1E0F0E474A165A196A187A1EDED3B
:101AF600F4E47487658796878787EDEDF4E444847C
:101B0600558466847784628D738D50E0449DC00150
:101B1600459D900D549D900D11248E0D9F1D860F91
:101B2600971F868F978F892839F022273327D02E43
:101B3600512F222E332E08C0EDEDF4E4D4805581CA
:101B4600D681C7812D2E3C2E0D2D152F222D332DFE
:101B560058016901A81AB90AC108D108C601B50118
:101B66000E945E284B015C01CDEDD4E468A570E0CF
:101B760080E090E00E9460289B01AC01C501B401A1
:101B86000E94543120E030E040E05FE30E94AF3035
:101B96000E947E2B6C8B7D8B8E8B9F8B653F2FE0FF
:101BA60072078105910518F41092044533C0653F0C
:101BB6007F4F8105910578F4EDEDF4E481E087A38C
:101BC60082E084A38FEF9FEFA0E0B0E0808791874B
:101BD600A287B3871FC0EDEDF4E482E087A384E01B
:101BE60084A38FEF9FEFAFEFBFE080879187A28737
:101BF600B387A1E0B0E49C963C919C979D962C916E
:101C06009D979E969C919E979F968C91308B218B4B
:101C1600928B838B8091044581508230D8F5EDED0F
:101C2600F4E4268D378D828D938D281B390B8081A8
:101C36009181A281B381280F391F248F358F8E0D94
:101C46009F1D80A391A34485558566857785480F9A
:101C5600591F42A353A3808D918D96958795929592
:101C660082958F7089279F70892785A380E013C08E
:101C760081E011C082E00FC084E00DC083E00BC09C
:101C860083E009C082E007C084E005C086E003C0A7
:101C960084E001C085E0DF91CF911F910F91FF9005
:101CA600EF90DF90CF90BF90AF909F908F907F90F6
:0C1CB6006F905F904F903F902F9008952A
:101CC2002F923F924F925F926F927F928F929F924A
:101CD200AF92BF92CF92DF92EF92FF920F931F9338
:101CE200CF93DF93CDB7DEB72A97CDBFDEBF1C01FE
:101CF2002B013A0129833A830E946B0C809362453F
:101D0200811124C16CE172E88FE593E40E94BC2A40
:101D12008093624581110DC080E793E80E94022EF4
:101D22000E9462310E94022E88E592E80E94022EF1
:101D320017C082E392E80E94022E8AE492E80E948F
:101D4200022E2091624530E040E050E060E070E019
:101D520080E090E00E94FA2B88E592E80E94022E31
:101D62006CE172E88FE593E40E94BC2A48E252E8F3
:101D720068E372E48FE593E40E94D0268093624583
:101D82008111B2C08BE592E80E94022E0E9462315C
:101D92000E94022E88E592E80E94022E88E692E8CE
:101DA2000E94022E88E392E40E94DF30AB01BC0164
:101DB2009A01AB0160E070E0CB012B833C834D8341
:101DC2005E836F83788789879A8760E070E080E01E
:101DD20090E00E94FA2B84E792E80E94022E88E3A8
:101DE20092E40E94643064E772E888E392E40E941D
:101DF200972EB10188E392E40E94972E64E772E87D
:101E020088E392E40E94972EB20188E392E40E9452
:101E1200972EB301770C880B990B0E946028AB01B7
:101E2200BC0120E088E392E40E94692464E274E841
:101E320088E392E40E94972E23E0B701A60188E38B
:101E420092E40E94692464E274E888E392E40E94C6
:101E5200972E64E772E888E392E40E94972E6981E4
:101E62007A8188E392E40E94972EB801110F880BC1
:101E7200990B0E946028AB01BC0120E088E392E448
:101E82000E94692464E274E888E392E40E94972E37
:101E920023E0B501A40188E392E40E94692488E367
:101EA20092E40E94E0278AE892E80E94022E88E3E8
:101EB20092E40E94DF304B015C01262F392D4A2D1E
:101EC2005B2D60E070E080E090E00E94FA2B82EFF0
:101ED20093E80E94022E0E94EF2C0E94FA2B8AE9BC
:101EE20092E80E94022E49C08230C1F483EA92E84D
:101EF2000E94022E8AE492E80E94022E20916245FC
:101F020030E040E050E060E070E080E090E00E946D
:101F1200FA2B88E592E80E94022E2FC08DEB92E800
:101F22000E94022E8AE492E80E94022E20916245CB
:101F320030E040E050E060E070E080E090E00E943D
:101F4200FA2B88E592E80E94022E17C08CE094E8F2
:101F52000E94022E80EF92E80E94022E209162459A
:101F620030E040E050E060E070E080E090E00E940D
:101F7200FA2B88E592E80E94022E2A96CDBFDEBF98
:101F8200DF91CF911F910F91FF90EF90DF90CF9053
:101F9200BF90AF909F908F907F906F905F904F9087
:061FA2003F902F9008950E
:101FA8004F925F926F927F928F929F92AF92BF9261
:101FB800CF92DF92EF92FF920F931F93CF93DF930D
:101FC80000D000D0CDB7DEB78C017B015A014901A2
:101FD80019821A821B821C82F90110821182FC016B
:101FE80084A1882309F40CC180859185A285B385D5
:101FF800892B8A2B8B2B89F54091E5445091E64437
:102008006091E7447091E844CE0101960E946025F2
:102018008111FBC049805A806B807C80F801408622
:102028005186628673864486558666867786C3019E
:10203800B2010E94D52BF801608F718F828F938F28
:10204800148E158E41E0C301B2010E949B286CE0FA
:10205800C8010E94DF208111D8C0F80185A188231A
:1020680099F015A2808D918DA28DB38D248D358D1B
:10207800BC01CD01620F731F811D911D41E050E429
:102088000E94FE1F8111BEC0F80186A18823D9F0E5
:102098004485558566857785CE0101960E94602521
:1020A8008111B3C0F80116A269817A818B819C8164
:1020B80064877587868797870E94D52BF801608F7C
:1020C800718F828F938FC12CD12C91C0F801868D8E
:1020D800978D8115924008F46AC0F801168E178E04
:1020E80013A2C8010E94E02781118FC0F801848DD6
:1020F800958D0196848F958F15A221E023A32091B9
:10210800054530E08217930750F184859585A685AB
:10211800B78589839A83AB83BC83C8010E949D27B6
:10212800F80186A18823D9F049815A816B817C8185
:10213800CE0101960E946025811167C0F80116A2A0
:1021480069817A818B819C81648775878687978767
:102158000E94D52BF801608F718F828F938FF801C1
:10216800408151816281738184819581A681B78183
:10217800481759076A077B0798F4808D918DA28DBF
:10218800B38D248D358DBC01CD01620F731F811D68
:10219800911D41E050E40E94FE1F882341F034C0A5
:1021A80040E060E072E080E090E00E94792FF80162
:1021B800868D978D9C012F5F3F4F268F378FF701B4
:1021C8002081FC01EF5FFF4B2083F8018081918122
:1021D800A281B3810196A11DB11D80839183A28341
:1021E800B383FFEFCF1ADF0AC70101967C01CA1437
:1021F800DB0408F46BCFF401C082D18280E005C013
:1022080087E003C08CE001C08CE02496CDBFDEBF20
:10221800DF91CF911F910F91FF90EF90DF90CF90BA
:10222800BF90AF909F908F907F906F905F904F90EE
:02223800089507
:10223A00A4E1B0E0E3E2F1E10C94372E8F839887B2
:10224A0069837A834B8B5C8B122FDB011296ED919B
:10225A00FC91139714962D913C9115972D833E83EB
:10226A00CD90DC90119716962D903C901797F7FD1C
:10227A0003C0E894C1F802C0E1E0F0E0C601807151
:10228A00992789879A87C4FE1FC0AB89BC892C917C
:10229A0011963C91119712964C91129713965C9154
:1022AA00139714966C91149715967C911597169618
:1022BA008C91169717969C91A0E00E94263021F0E7
:1022CA008D819E81029702C08D819E819601287020
:1022DA0033272B873C87C3FC0197AB89BC894C9079
:1022EA0011965C90119712966C90129713967C90A7
:1022FA00139714968C90149715969C90159716968A
:10230A00AC9016971796BC90A981BA811896ED9051
:10231A00FC901997B1E0EB1AF108D101AE0DBF1D7F
:10232A001C928B839C839F01281B390B2D873E8728
:10233A00C601827099278F87988B812F012E000CF6
:10234A00990BDC01A154B109A98BBA8B32E0E316CF
:10235A00F10434F489859A85892B09F04CC073C03D
:10236A009201A301B401C501A0E00E94263081F1C7
:10237A00B1E0EB1AF108C2018F7099278A309105F2
:10238A0014F4C09602C0895A9F4FE989FA897A974C
:10239A0048F49C012062215631092A31310510F492
:1023AA000E945B30F101EE0DFF1D80832B813C8181
:1023BA00215031092B833C839201A301B401C50149
:1023CA0004E00E94722D29013A014B015C01BECF43
:1023DA008D859E85AB81BC818A0F9B1F18161906B5
:1023EA003CF21A161B060CF0B5CFEF85F889EF2BD5
:1023FA0009F0BECFAFCFAB89BC892C9111963C9125
:10240A00119712964C91129713965C911397149602
:10241A006C91149715967C91159716968C91169730
:10242A0017969C91A0E00E94263069F0F101EE0D0A
:10243A00FF1D31971083B2E0EB1AF108F101EE0D9E
:10244A00FF1D80E38083EB85FC85EF2B41F0F1E0F3
:10245A00EF1AF108F101EE0DFF1D80E28083A981D8
:10246A00BA8118964D915C911997415051094E19AC
:10247A005F09B1016E0D7F1D86012D813E818F811D
:10248A0098850E94BD249C01EF81F8858081918105
:10249A0090FF09C0A981BA8112968D919C911397D8
:1024AA00821793070CF4C9016496E2E10C94502E4A
:1024BA003F924F925F926F927F928F929F92AF92CA
:1024CA00BF92CF92DF92EF92FF920F931F93CF9317
:1024DA00DF93CDB7DEB72897CDBFDEBF6B017C0196
:1024EA0029833A834B835C83302E2B013C01009075
:1024FA00044504C0440C551C661C771C0A94D2F788
:10250A000091F5441091F644980140E050E0C3016F
:10251A00B2010E94CD2C49015A01029FC001039FBA
:10252A00900D129F900D11248201081B190B109215
:10253A00394510923A456091FD447091FE44620F0C
:10254A00731F80E090E041E050E40E94FE1F811179
:10255A00BEC00F2EFDE04F2EF02D341431F00F2E99
:10256A00F7E05F2EF02D351033C0F801EF5FFF4B17
:10257A008081F801EE5FFF4BC080D12CDC2CCC248B
:10258A000D2C000CEE08FF08C82A80910445823001
:10259A00F9F4F801ED5FFF4B808190E0A0E0B0E034
:1025AA00DC0199278827C82AD92AEA2AFB2AF801AE
:1025BA00EC5FFF4B808190E0A0E0B0E0B82FAA2743
:1025CA0099278827C82AD92AEA2AFB2A8FE0F822DB
:1025DA009DE0391205C0C114D104E104F10431F4BB
:1025EA000F2EF6E04F2EF02D341076C08091044560
:1025FA00823009F040C0F801EF5FFF4B9081F8018B
:10260A00EE5FFF4B208130E0322F2227A901330FE2
:10261A00660B770B2A013B01492AF801ED5FFF4B54
:10262A009081492F50E060E070E0BA0155274427B5
:10263A00442A552A662A772AF801EC5FFF4B408123
:10264A0050E060E070E0742F66275527442744293C
:10265A00552966297729442755276627707F498097
:10266A005A806B807C80442A552A662A772A4982B6
:10267A005A826B827C82F801EF5FFF4B598050824D
:10268A00F801EE5FFF4B6A806082823051F4F801F4
:10269A00ED5FFF4B7B807082F801EC5FFF4B8C8112
:1026AA0080836091FD447091FE44860E971EB401AA
:1026BA0080E090E041E050E40E94051F80910040D4
:1026CA00853079F060E070E080E090E00EC060E074
:1026DA0070E080E090E009C06C2D7D2D8E2D9F2D3D
:1026EA0004C06C2D7D2D8E2D9F2D2896CDBFDEBF6B
:1026FA00DF91CF911F910F91FF90EF90DF90CF90D4
:10270A00BF90AF909F908F907F906F905F904F9007
:04271A003F9008954F
:10271E006F927F928F929F92AF92BF92CF92DF92E3
:10272E00EF92FF920F931F93CF93DF936C01EB0108
:10273E00A42E712C812CFC0164877587108A118A56
:10274E00128A138A00E0EBC0F0E21F9F7001112481
:10275E00F701EF5FFF4B8081882309F4EBC0853EC4
:10276E0009F4D4C08E3209F4D1C0F701E45FFF4BF7
:10277E00B08088E0B81609F4C9C0EFE0BE1211C0EF
:10278E00F1E0AF1609F4C2C089E0A81609F4BEC084
:10279E00612F70E08DED93E40E94F9256624639419
:1027AE00B5C0662019F0E1E0AE1206C04DED53E45F
:1027BE006A2D812F0E948629F9E0AF1207C0F6011B
:1027CE00848995890196848B958BA0C0F6018289A8
:1027DE0093890196828B938B88818F3211F08C3581
:1027EE00D9F4F6018485958501968487958789812C
:1027FE00811112C08091ED449091EE44A091EF446E
:10280E00B091F04480839183A283B383EDEDF3E422
:10281E008FE28083118296C0F601C485D58520E0B3
:10282E0018C03FEB380F3A3108F4805E3FEB390F9A
:10283E003A3108F4905E891317C02F5F2196888174
:10284E008F3219F001E08C3521F4219691E001E0F0
:10285E000FC08881882359F0E22FF0E0E352FC4B41
:10286E0090819111DECF04C090E000E001C090E0B5
:10287E00E22FF0E0E352FC4B8081811103C088818E
:10288E00882321F0911102C0011100E00023E9F12B
:10289E00F1E0AF16E1F08AE0A816C9F0F701E55EA7
:1028AE00FF4B9081F701E45EFF4B80812091044540
:1028BE00223041F4F701EB5EFF4B7080F701EA5EC8
:1028CE00FF4B8080F60190838183728283828881A0
:1028DE00811106C0F8E0AF1235C0B4FE2FC032C071
:1028EE00F601C487D587608171818281938164836B
:1028FE007583868397830E94D52BF6016087718737
:10290E0082879387108A118A0AC0612C1F5F01C0CB
:10291E0010E080910245181708F416CF01C0612C03
:10292E00C6010E945623982E882391F36894992409
:10293E0091F808C06894992491F804C00F2EF9E01C
:10294E009F2EF02D892DDF91CF911F910F91FF902A
:10295E00EF90DF90CF90BF90AF909F908F907F9031
:04296E006F900895C9
:10297200CF92DF92EF92FF920F931F93CF93DF9349
:102982007C016B01FC01808D882339F080913945EF
:1029920090913A45E816F906B9F0F70180859185DC
:1029A200A285B38520893189BC01CD01620F731FD5
:1029B200811D911D41E050E40E94FE1F8111EEC075
:1029C200E0923945F0923A45D0E0F701C08DC8C097
:1029D200F0E2CF9F80011124F801EF5FFF4B80816D
:1029E200882309F4DDC0853E09F4B9C08E3209F4AA
:1029F200B6C0F801E45FFF4B8081F60182A3883004
:102A020009F4ADC08F3089F5F7018689978900975F
:102A120039F02289338901972817390708F49FC0B2
:102A22006C2F70E08DED93E40E94F925D1111BC04B
:102A3200F70180859185A285B385F601808B918B04
:102A4200A28BB38BC0A3F70180899189F601848F91
:102A5200958FF70184819581A681B781F6018487DC
:102A62009587A687B787D1E07AC0D1110BC04DED0B
:102A720053E460E08C2F0E948629F601108A118AA5
:102A8200128A138AF701828993890196828B938B2A
:102A9200268937898217930708F460C0F801E35E3C
:102AA200FF4B3081F801E25EFF4B2081F801E15ECD
:102AB200FF4B9081F801E05EFF4B8081F601348389
:102AC20025839683878390E080E0F801E75EFF4BE1
:102AD2003081F801E65EFF4B2081F601368B278BB1
:102AE200F801E95EFF4B3081F801E85EFF4B20817F
:102AF200F601348B258BF801E55EFF4B3081F8013E
:102B0200E45EFF4B208140910445423041F4F801DC
:102B1200EB5EFF4B9081F801EA5EFF4B8081F7018B
:102B2200438D442321F03083218392838383F601F2
:102B32003087218792878387F701C08F868997899B
:102B4200009721F4CF5FC08F80E02FC0F701228968
:102B520033898217930731F1D0E001C0D0E0CF5F13
:102B620080910245C81708F433CFF7018089918913
:102B72000196808B918BC7010E945623811114C04C
:102B8200F701108E80899189009719F00197808B47
:102B9200918BE0923945F0923A4517CF8CE005C00F
:102BA20082E003C080E001C082E0DF91CF911F91FB
:0C2BB2000F91FF90EF90DF90CF900895FE
:102BBE00AF92BF92CF92DF92EF92FF920F931F933D
:102BCE00CF93DF935C01EA017901FB0100E010E095
:102BDE0030E040E090E02BC08E3211F44F5F8F0159
:102BEE00983018F58032E1F08F32D1F08C35C1F08B
:102BFE008E32B1F08032A0F02FE9280F2A3110F476
:102C0E00805207C02FEB280F2A3118F421E0D7018C
:102C1E002C936E01C90ED11CD6018C939F5F05C0FB
:102C2E008E3219F081E0D7018C933F5F319680810F
:102C3E00882311F03F3F81F6F501318F0115110503
:102C4E0039F09801261B370B283031050CF4922FE2
:102C5E00423018F081E0D7018C93423038F498302E
:102C6E0039F481E0F701808331E00AC030E008C01A
:102C7E0030E006C0FE01E90FF11D80E280839F5F08
:102C8E009B30C0F380E018C00F5F1F4F833098F465
:102C9E00D8019C91903221F491E0F70190830CC001
:102CAE002FE9290F2A3108F49052E82FF0E03896D8
:102CBE00EC0FFD1F90838F5FD8019C91992311F02B
:102CCE004111E2CF853018F081E0F7018083311198
:102CDE0044C041E0BE01C5010E948F134FC01A309F
:102CEE0019F4EA9402E004C0143611F4EA9403E0F5
:102CFE008EE7FE01EE0DF11D8083812F18C0E02FAF
:102D0E00F0E0EE0DF11DEC0FFD1F9DEC899F912D56
:102D1E001124969596959695392F330F232F220FC2
:102D2E00220F230F821B805D80830150892F01119A
:102D3E00E6CF87E0082F0E19D5014D915D916D916B
:102D4E007C91C5010E948B2A41E0BE01C5010E9403
:102D5E008F13823061F01F5F07C080E001E010E04A
:102D6E000F2EF6E0EF2EF02D1F3F09F0B8CF1F3FCC
:102D7E0021F0E11003C087E001C087E0DF91CF9121
:102D8E001F910F91FF90EF90DF90CF90BF90AF907B
:022D9E00089596
:102DA0002F923F924F925F926F927F928F929F925B
:102DB000AF92BF92CF92DF92EF92FF920F931F9349
:102DC000CF93DF93CDB7DEB72997CDBFDEBF298381
:102DD0003A834B835C83862E772E682E592E0D8383
:102DE0001E83EF82422E39874887B52FF62FE72FB3
:102DF000282E392E912C1EC093940F2EFAE0AF2E60
:102E0000F02DB12CC12CD12CE12CF12C00E010E0E4
:102E1000242D398548855B2F6F2F7E2F822D932D92
:102E20000E94EF2A422E39874887B52FF62FE72FC9
:102E3000282E392E242D398548855B2F6F2F7E2F24
:102E4000822D932DA0E00E942630B1F629813A818F
:102E50004B815C81682D772D862D952D0E94263023
:102E600011F4992493948F8189198F8388230CF40A
:102E70001F8229813A814B815C81682D772D862DB7
:102E8000952DA0E00E94263074F40E94692F2983BA
:102E90003A834B835C83862E772E682E592E93942B
:102EA000E1E0E88701C01886FF81F90DFF83FC305F
:102EB00008F045C0ED81FE818F81E80FF11D108281
:102EC0003EC0EF81E150EF83EC30E0F42D803E8096
:102ED0002E0E311C0F2EFAE0AF2EF02DB12CC12C8E
:102EE000D12CE12CF12C00E010E029813A814B81BA
:102EF0005C81682D772D862D952D0E94ED2A205D11
:102F0000F10120830F2EFAE0AF2EF02DB12CC12C51
:102F1000D12CE12CF12C00E010E029813A814B8189
:102F20005C81682D772D862D952D0E94EF2A2983AF
:102F30003A834B835C83862E772E682E592EFF8131
:102F4000F111BFCF8885882321F08DE2ED81FE81CC
:102F500080832996CDBFDEBFDF91CF911F910F9166
:102F6000FF90EF90DF90CF90BF90AF909F908F90A9
:0E2F70007F906F905F904F903F902F9008954C
:102F7E004F925F926F927F928F929F92AF92BF927B
:102F8E00CF92DF92EF92FF920F931F93CF93DF9327
:102F9E00CDB7DEB72A97CDBFDEBF89879A874A01A4
:102FAE005B01FC0184819581A681B7818417950709
:102FBE00A607B70708F48DC00DED14E4D801589696
:102FCE00ED90FC905997970140E050E0C501B40197
:102FDE000E94CD2C2D833E834F83588729833A83BD
:102FEE004B835C83ED81FE81EE9EC001EF9E900DC2
:102FFE00FE9E900D11249401281B390BA985BA85CC
:10300E005E962D933C935F97F80140A4512C612C52
:10301E00712C69817A818B819C81A30192010E941E
:10302E00CD2C622F732F842F952FC22ED32EE42EEC
:10303E00F52EC114D104E104F10481F0A301920133
:10304E000E94592F2D813E814F815885261B370BAB
:10305E00480B590B29833A834B835C83240135013A
:10306E0049855A85FA0180859185A285B385848725
:10307E009587A687B7871AC0A985BA851C968D90A5
:10308E009D90AD90BC901F97CD010E949D27E98524
:10309E00FA8586A1882329F084869586A686B7862A
:1030AE000AC0B1E0CB1AD108E108F108C114D1046D
:1030BE00E104F10409F781E0E985FA8585A3298108
:1030CE003A81248F358F408251826282738216A29A
:1030DE0011A22A96CDBFDEBFDF91CF911F910F9126
:1030EE00FF90EF90DF90CF90BF90AF909F908F901A
:0A30FE007F906F905F904F9008954F
:10310800ADE0B0E0EAE8F8E10C94372E89879A87B9
:103118006B837C83FA01DB011296CD90DC901397C8
:1031280014968D919C9115978D839E83ED90FC90BC
:103138001197E982FA8216960D90BC91A02DAF8363
:10314800B887208031804280538064807580868073
:1031580097808101B42DF52DE62D7B868C869D8682
:103168009101A201B301C401A0E00E9426304CF4F1
:103178000E94692F8901B42FF52FE62F7B878C8752
:103188009D87D7FC04C0E894E1F8E982FA829101AE
:10319800A201B301C401A0E0ED80FE800E942630A8
:1031A8001CF0898182FF04C081E0E81AF10805C09B
:1031B80083FF03C091E0E91AF108CE0101965C0192
:1031C8008AE0C82ED12C2B2F3F2F4E2F5B856C8584
:1031D8007D858B819C810E94AB1CFC019101A20121
:1031E800B301C401A0E00E9426301CF0898182FF4F
:1031F80012C031970F8118850E0F1F1F9101A20170
:10320800B301C401A0E00E94263014F08BE201C093
:103218008DE2D80108C083FF07C03197AF81B88518
:10322800AE0FBF1F80E28C9309811A81AB81BC81EC
:1032380018964D915C911997415051094E1B5F0B9F
:103248006F8178856E0F7F1F2D813E8189859A85D4
:103258000E94BD249C01E985FA858081918190FFB7
:1032680009C0AB81BC8112968D919C9113978217EE
:0E32780093070CF4C9012D96E2E10C94502E40
:103286000F931F93CF93DF93FC01D9016838710523
:1032960031F194F461387105B1F12CF4603871059F
:1032A60009F478C09FC06238710509F459C06438C2
:1032B600710509F46FC096C0603A710509F448C0FB
:1032C6002CF46039710509F44BC08CC0603C710563
:1032D60009F476C0603F710509F472C083C0CD91D0
:1032E600DC911197CE0102968D939C93452B39F074
:1032F6009881892F880F880B908381835BC0888192
:103306008083118268C0CD91DC911197CE0104961D
:103316008D939C93452B99F088819981AA81BB81D5
:10332600AC01BD01770F440B542FBA018083918302
:10333600A283B383448345834683478328C0088199
:1033460019812A813B81008311832283338345C0FF
:10335600CD91DC911197CE0102968D939C9323C05B
:10336600CD91DC911197CE0108968D939C9378812F
:1033760069815A814B813C812D819E818F81708329
:10338600618352834383348325839683878381E0D5
:1033960090E02AC0CD91DC911197CE0102968D93D3
:1033A6009C93452BA1F099812881892F880F880B42
:1033B6002083918382838383848385838683E6CF78
:1033C600CD91DC911197CE0102968D939C93088145
:1033D6001981008311831282138214821582168248
:1033E6001782D5CF80E090E0DF91CF911F910F91AA
:0233F600089538
:1033F8003F924F925F926F927F928F929F92AF927D
:10340800BF92CF92DF92EF92FF920F931F93CF93C9
:10341800DF93382EC091F544D091F644C12CD12CBD
:10342800760100E010E0812C912C5401412C512CA4
:1034380032015FC06091FD447091FE44600F711FBE
:1034480080E090E041E050E40E94FE1F811167C0D7
:1034580080E090E048C0209104452230A9F4FC01A6
:10346800EF5FFF4BC080FC01EE5FFF4BD080FC019B
:10347800ED5FFF4BE080FC013396EF5FFF4B049656
:10348800F0802FE0F2220CC0213051F4FC01EF5FF4
:10349800FF4BC080FC013196EF5FFF4B0296D08056
:1034A800C114D104E104F10441F42FEF421A520A85
:1034B800620A720A23E03216B9F12FEF821A920AD1
:1034C800A20AB20A4091F1445091F2446091F34447
:1034D8007091F4444E5F5F4F6F4F7F4F4815590509
:1034E8006A057B0520F08C179D0708F4B4CF0F5FA1
:1034F8001F4FC801A0E0B0E04091E9445091EA4470
:103508006091EB447091EC4484179507A607B707C0
:1035180008F490CF642D752D862D972D09C060E095
:1035280070E080E090E004C0682D792D8A2D9B2DF5
:10353800DF91CF911F910F91FF90EF90DF90CF9087
:10354800BF90AF909F908F907F906F905F904F90BB
:043558003F90089503
:10355C001F93CF93DF93CDB7DEB72597CDBFDEBFDB
:10356C000E948E2D8FE697E10197F1F700C00000C5
:10357C000E94F62F10E004C08FEF0E9402311F5FF3
:10358C001A30D0F310E018C00E94EA2F24E940E072
:10359C0050E0BA0180E00E94432C0E940E308983D7
:1035AC000E94F62F1F5F1B3038F0E0E8F4E08481B6
:1035BC008460848311E072C08981813029F70E9474
:1035CC00EA2F26E84AEA51E060E070E088E00E94C9
:1035DC00432CCE0101960E94802E0E94F62F8981E9
:1035EC00813009F042C0E0E4F9E08081897F80837A
:1035FC00E1E4F9E08081806180838C81813009F085
:10360C0042C08D818A3A09F040C00E94EA2F20E026
:10361C0040E050E0BA018AE30E94432CCE010196AF
:10362C000E94802E0E94F62F0E942028182F8111B4
:10363C002EC00E94EA2F20E040E050E0BA018AE35D
:10364C000E94432CCE0101960E94802E0E94F62FE0
:10365C008A818823F4F486FF04C083E080935B4561
:10366C001DC082E080935B4519C08530A1F481E0D8
:10367C0080935B450E942028182F82FD0EC0882362
:10368C0069F011E00BC014E009C013E007C011E0B1
:10369C0005C015E003C012E001C016E0812F25968D
:0C36AC00CDBFDEBFDF91CF911F910895CC
:1036B800DF92EF92FF920F931F93CF93DF93CDB7D3
:1036C800DEB7E297CDBFDEBF182FF92EE62ED72E34
:1036D800822F932F28E0209326040130D9F41F92DB
:1036E8008FEF8F931F928F931F928F935F934F93B8
:1036F8007F936F93FF921F9388E791E89F938F932F
:10370800CE0101969F938F930E94152FAC01CDBFD8
:10371800DEBF57C00230D9F41F924FEF4F931F926C
:103728004F931F924F933F938F937F936F93FF9283
:103738001F938BE891E89F938F93CE0101969F93F7
:103748008F930E94152FAC01CDBFDEBF3AC0033066
:10375800E9F40E944D291F922FEF2F931F922F9368
:103768001F922F939F938F93DF92EF92FF921F9355
:1037780080EA91E89F938F93CE0101969F938F9350
:103788000E94152FAC01CDBFDEBF1BC00430B9F4B9
:103798001F928FEF8F931F928F931F928F93FF9299
:1037A8001F9383EB91E89F938F93CE0101969F938C
:1037B8008F930E94152FAC01CDBFDEBF02C040E041
:1037C80050E020E030E00FC09091440895FFFCCF16
:1037D800E1E0F0E0EC0FFD1FE20FF31F9081909302
:1037E80042082F5F3F4F2417350774F3E296CDBF89
:1037F800DEBFDF91CF911F910F91FF90EF90DF9087
:02380800089521
:10380A000F931F93CF93DF9340E054E0FA011482A1
:10381A0020E234E0F901148280E494E0FC0114828D
:10382A00C0E6D4E01C82A0E8B4E014961C92149777
:10383A0000EA14E0F8011482FA01108261E0F90149
:10384A00608360EFFC01608318821C92F801108289
:10385A00FA01108A118A128A138A148A158A168A18
:10386A00178AF901108A118A128A138A148A158A08
:10387A00168A178AFC01108A118A128A138A24E08E
:10388A00248B258B268B278B288B298B2A8B2B8B9A
:10389A001C8A1D8A1E8A1F8A50961C92509751961E
:1038AA001C92519752961C92529753961C92539778
:1038BA0054961C92549755961C92559756961C925C
:1038CA00569757961C92F801108A118A128A138AFF
:1038DA00148A158A168A178AE0EEF5E01186118293
:1038EA00108214821682178210861582128213821F
:1038FA00128687E791E30E940C3188E791E30E94E0
:10390A00113189E791E30E9416318AE791E30E9417
:10391A001B318BE791E30E9420318CE791E30E94EF
:10392A0025318DE791E30E942A318EE791E30E94C7
:10393A002F318FE791E30E94343180E891E30E94AE
:0C394A003931DF91CF911F910F9108954A
:10395600A2E1B0E0E1EBFCE10C94372EFC010A8B0E
:103966001B832C83732E642E552E462E7D83CC8688
:10397600D886AE82BF82868197818A879B87D5014A
:103986004D915C91228133818085918501971C013F
:1039960037FF02C021E030E0EA85FB85E80FF91F1A
:1039A60010824701E1E0F0E0E983FA83C9018E194C
:1039B6009F098D879E87DA01A270BB27AF87B88BD8
:1039C600B885BB0FBB0BB98B1214130474F0A98115
:1039D600BA81AB2B09F05CC0AE81BF818D919C9101
:1039E60011978F7E8D939C9353C02A893B814C817E
:1039F600572D662D752D842D9D81A0E00E942630C1
:103A0600B1F1E1E02E1A3108FC85F987AF2EB884B2
:103A1600C988DC2CEC2CFC2C0C2D1C2D2A893B8116
:103A26004C81572D662D752D842D9D810E94C12FA9
:103A3600C90129839A83EA85FB85E20DF31D805D22
:103A4600808381E0881A91082A893B814C81572D11
:103A5600662D752D842D9D810E94C32F2A8B3B8355
:103A66004C83752E662E572E482E9D83ADCF8D85A1
:103A76009E85880D991D181619061CF2181419042E
:103A86000CF0A5CFEF85F889EF2B09F0BACF9FCFC1
:0A3A9600C1016296E2E10C94502E8B
:103AA0004F925F926F927F928F929F92AF92BF924E
:103AB000CF92DF92EF92FF920F931F93CF93DF93FA
:103AC000CDB7DEB72697CDBFDEBF4B015C014D837E
:103AD0005E836901FE2C1E2D0F2E412C512C612C72
:103AE000FFE37F2EF02D0BC020E030E040E251E4F8
:103AF000C301B2010E9454312B013C01115011113C
:103B0000F3CF20E030E0A901C501B4010E943E31AD
:103B1000882324F4B7FAB094B7F8B094A3019201C3
:103B2000C501B4010E94B0304B015C010E94B63067
:103B30002B013C010E9460289B01AC01C501B4012E
:103B40000E94AF304B015C011F2D0BC020E030E024
:103B500040E251E4C501B4010E9458314B015C01BF
:103B600011501111F3CFD301C201BB0F880B982F55
:103B7000DC0189839A83AB83BC83E02E0D811E8197
:103B8000242D352D462D572D6981762F862F962F82
:103B90000E94D016C501B4010E94D728EF2C8601DF
:103BA0000E94D0162696CDBFDEBFDF91CF911F9128
:103BB0000F91FF90EF90DF90CF90BF90AF909F90CC
:0C3BC0008F907F906F905F904F90089561
:103BCC00CF93DF9300D0CDB7DEB719821A8264E2AF
:103BDC0088E690E00E94F7300E946C300E94C52E5F
:103BEC000E94022F88E592E80E94022E8DE794E84D
:103BFC000E94662C80E00E9465310E94272F0E9453
:103C0C00E530E2E4F4E080E1808380E2808380E4CC
:103C1C00808380E880830E946D0A88E392E40E948E
:103C2C00DF306A3071058105910558F002E026E21B
:103C3C0034E840E050E06CE274E88FE294E80E94D3
:103C4C005C1B0E94D9308823B1F1898181112CC071
:103C5C0088E394E80E94022E02E028E434E840E075
:103C6C0050E06EE474E88FE294E80E945C1B812CB7
:103C7C00912C6894AA24A6F8BA2C0F2EFAE9CF2E10
:103C8C00F9E9DF2EF9E4EF2EF0E4FF2EF02D02E03F
:103C9C0010E021E534E841E050E0B90186E594E814
:103CAC000E94610E81E089838A81882311F01A8237
:103CBC00B2CF1A82C6CF8A818111C3CF02E024E62B
:103CCC0034E840E050E063ED71E88FE294E80E9444
:103CDC005C1B8AE694E80E94022E81E08A8319829A
:023CEC00B0CF57
:103CEE001F920F920FB60F9211240BB60F922F93B5
:103CFE003F934F935F936F937F938F939F93AF9366
:103D0E00BF93CF93DF93EF93FF9390914008992346
:103D1E0081F08091604581110CC01092614581E067
:103D2E008093604582E3EFE5F2E4DF011D928A9510
:103D3E00E9F780916045882309F44BC0E091614515
:103D4E0081E08E0F80936145F0E0E15AFD4B908348
:103D5E008330A0F190E0FC01E25AFD4B20812F3F11
:103D6E0069F5FC01E35AFD4B20812F3F39F5FC012B
:103D7E00E45AFD4B80818F3F09F5C0E4D8E08E8177
:103D8E008F778E838D818F778D8382E3E5EFF2E4DB
:103D9E00DF011D928A95E9F76FE572E4CF010E946B
:103DAE007C30109260451092614581E080935F45B2
:103DBE008E8180688E838D8180688D838091614530
:103DCE00823338F0109261451092604581E0809305
:103DDE005F45FF91EF91DF91CF91BF91AF919F9191
:103DEE008F917F916F915F914F913F912F910F9096
:0C3DFE000BBE0F900FBE0F901F90189589
:103E0A00BF92CF92DF92EF92FF920F931F93CF93BD
:103E1A00DF936B017C018A0180915B45813049F413
:103E2A000B2EB9E0CC0CDD1CEE1CFF1CBA95D1F7A9
:103E3A00B02D8FEF809300400E94EA2F20E0B70157
:103E4A00A60188E10E94432C0E940E30B82E8111EF
:103E5A004EC08EEF0E940231C0E0D0E007C0F801E8
:103E6A00EC0FFD1F80810E9402312196C11582E06C
:103E7A00D807A8F3C12CD12C760106C00E940230C3
:103E8A00B82E8FEFB81211C08FEFC81AD80AE80AF5
:103E9A00F80AC701B6010E945E2820E03BE147EB21
:103EAA0058E40E943E3188234CF38B2D8F71853064
:103EBA00F1F480930040C12CD12C760114C08FEF0D
:103ECA00C81AD80AE80AF80AC701B6010E945E2889
:103EDA0020E03BE147EB58E40E94433118161CF4FA
:103EEA001092004004C00E940230882341F30E94CD
:103EFA00F62F8B2DDF91CF911F910F91FF90EF90AD
:083F0A00DF90CF90BF900895F5
:103F12001F920F920FB60F9211240BB60F920F93AE
:103F22002F933F934F935F936F937F938F939F93BF
:103F3200AF93BF93EF93FF9380915E4591E0980F0B
:103F420090935E458370813091F028F08230D9F0F1
:103F5200833029F130C001E020E030E041EC51E84B
:103F620065EC71E888EC91E80E945C1B2FC001E0CF
:103F720020E030E041EC51E86CEC71E888EC91E82B
:103F82000E945C1B23C001E020E030E04FEC51E8CE
:103F920063ED71E888EC91E80E945C1B17C001E0B8
:103FA20020E030E04FEC51E866ED71E888EC91E8F2
:103FB2000E945C1B0BC001E020E030E041EC51E8C4
:103FC20065EC71E888EC91E80E945C1B81E08093CB
:103FD2000B0AFF91EF91BF91AF919F918F917F91CA
:103FE2006F915F914F913F912F910F910F900BBE67
:0A3FF2000F900FBE0F901F9018955E
:103FFC00AF92BF92CF92DF92EF92FF920F931F93EB
:10400C00CF93DF936B017C01EA0180915B4581309A
:10401C0049F40B2EB9E0CC0CDD1CEE1CFF1CBA9540
:10402C00D1F7B02D8FEF809300400E94EA2F20E053
:10403C00B701A60181E10E94432C0E940E30A82EEC
:10404C008FEFA81208C038C00E940230B82E8FEF34
:10405C00B81629F015C0C12CD12C7601B12C8FEFDC
:10406C00C81AD80AE80AF80AC701B6010E945E28E5
:10407C0020E03CE742E158E40E943E318111E4CF5C
:10408C008EEFB81217C00BC07E018FEFE81AF80A3A
:10409C000E94023088830F5F1F4FE70102C000E0CF
:1040AC0010E0011582E0180778F318820E940230A4
:1040BC000E940230B09200400E94F62F8A2DDF91B0
:1040CC00CF911F910F91FF90EF90DF90CF90BF9009
:0440DC00AF90089504
:1040E00010C00E94C43058F00E94BD3040F029F446
:1040F0005F3F29F00C94F13051110C94CC300C94AA
:104100006B310E94AB2C68F39923B1F3552391F3E3
:10411000951B550BBB27AA2762177307840738F036
:104120009F5F5F4F220F331F441FAA1FA9F335D093
:104130000E2E3AF0E0E832D091505040E695001C47
:10414000CAF72BD0FE2F29D0660F771F881FBB1F01
:10415000261737074807AB07B0E809F0BB0B802DDF
:10416000BF01FF2793585F4F3AF09E3F510578F00B
:104170000C94F1300C94CC305F3FE4F3983ED4F3D0
:10418000869577956795B795F7959F5FC9F7880FDF
:10419000911D9695879597F90895E1E0660F771F31
:1041A000881FBB1F621773078407BA0720F0621BC2
:0E41B000730B840BBA0BEE1F88F7E095089591
:1041BE001F93CF93DF93EC01162F688979898A8933
:1041CE009B8941E050E40E94FE1F811156C01B30B6
:1041DE0011F588A120E2829FC00111242881FC01E3
:1041EE00E35EFF4B20832981FC01E25EFF4B2083BF
:1041FE002A81FC01E15EFF4B20832B81FC01E05EF6
:10420E00FF4B208388819981AA81BB818C839D83FA
:10421E00AE83BF8324C01C3011F588A120E2829F9B
:10422E00C00111242885FC01E55EFF4B2083298502
:10423E00FC01E45EFF4B208380910445823079F4CB
:10424E0088A120E2829FC00111242A85FC01EB5E29
:10425E00FF4B20832B85FC01EA5EFF4B2083688990
:10426E0079898A899B8941E050E40E94051F8091DB
:10427E000040853021F08CE003C08CE001C080E06E
:08428E00DF91CF911F9108950B
:10429600CF93DF93DC01F90164387105D9F164F439
:1042A6006138710521F16238710509F440C0603842
:1042B600710509F054C02EC060397105C1F184F44E
:1042C6006838710509F04BC0C081D181CE010296D4
:1042D60080839183E881F981ED93FC9340833CC010
:1042E600603A7105B9F0603C7105A1F038C0C08133
:1042F600D181CE01029680839183E881F981ED9385
:10430600FC93052E000C660B770B4083518362836A
:10431600738322C0C081D181CE01029680839183AE
:10432600E881F981ED93FC934083518315C0C081E8
:10433600D181CE01029680839183E881F981ED9344
:10434600FC9340835183852F880F880B8283838358
:10435600848385838683878381E090E002C080E042
:0843660090E0DF91CF91089572
:10436E000FC00E94BD3038F00E94C43020F095235B
:10437E0011F00C94F1300C946B3111240C94CC3060
:10438E000E94AB2C70F3959FC1F3950F50E0551F13
:10439E00629FF001729FBB27F00DB11D639FAA278C
:1043AE00F00DB11DAA1F649F6627B00DA11D661FDB
:1043BE00829F2227B00DA11D621F739FB00DA11DFC
:1043CE00621F839FA00D611D221F749F3327A00DB6
:1043DE00611D231F849F600D211D822F762F6A2F52
:1043EE0011249F5750409AF0F1F088234AF0EE0FB7
:1043FE00FF1FBB1F661F771F881F91505040A9F7E4
:10440E009E3F510580F00C94F1300C94CC305F3F00
:10441E00E4F3983ED4F3869577956795B795F7951F
:10442E00E7959F5FC1F7FE2B880F911D9695879597
:04443E0097F908954D
:10444200A2E0B0E0E7E2F2E20C94372E1C014B014D
:10445200FA01DB0112962D913C91139714964D901F
:104462005C9015978D919C91119789839A831696EA
:104472006D907C90179737FD03C08D7F89839A8357
:104482000081118122813381448155816681778146
:10449200FE0131965F0188E0C82ED12C7201C40161
:1044A2000E94AB1C298124FF06C00197F301E80F8B
:1044B200F91F20E32083298123FF06C00197F3011E
:1044C200E80FF91F20E2208309811A81D40118968E
:1044D2004D915C91199741505109481B590BB301F9
:1044E200680F791F9201C1010E94BD249C01F10154
:1044F2008081918190FF08C0D40112968D919C9188
:104502001397821793070CF4C9012296E2E10C94E7
:02451200502E29
:1045140011C00E94BD3038F00E94C43020F039F43C
:104524009F3F19F426F40C946B310EF4E095E7FBED
:104534000C94F130E92F0E94AB2C58F3BA176207A0
:1045440073078407950720F079F4A6F50C94CB3013
:104554000EF4E0950B2EBA2FA02D0B01B90190019A
:104564000C01CA01A0011124FF27591B99F0593FDE
:1045740050F4503E68F11A16F040A22F232F342F26
:104584004427585FF3CF469537952795A795F04074
:104594005395C9F77EF41F16BA0B620B730B840B89
:1045A400BAF09150A1F0FF0FBB1F661F771F881F41
:1045B400C2F70EC0BA0F621F731F841F48F4879599
:1045C40077956795B795F7959E3F08F0B0CF93958B
:0E45D400880F08F09927EE0F979587950895A8
:1045E200CF92DF92EF92FF920F931F93CF93DF93BD
:1045F2008C01EB016091F9447091FA4480E090E003
:1046020041E050E40E94FE1F811146C09BE020E081
:1046120011C0E82FF0E0EF5FFF4B9081903211F470
:10462200222339F0F801E80FF11D9083211101C016
:10463200282F982F8FEF890F9111EBCFE22FF0E007
:104642003196E00FF11F10826091DD447091DE44DB
:104652008091DF449091E04441E050E40E94FE1FCB
:1046620081111AC080910445823049F4C0904440BF
:10467200D0904540E0904640F090474008C08130DD
:1046820031F4E1E0F0E4C7A0D0A4E1A4F2A4C8822E
:10469200D982EA82FB8280E0DF91CF911F910F9154
:0A46A200FF90EF90DF90CF90089595
:1046AC000F931F93CF93DF93EC0188819981AA819B
:1046BC00BB810297A105B10530F48091F74490912C
:1046CC00F84441E004C08091054590E040E0288921
:1046DC0039892817390728F141113CC06C817D813B
:1046EC008E819F8107E020E030E0A9010E945D12DD
:1046FC006C837D838E839F830091E5441091E64407
:10470C002091E7443091E8446017710782079307C2
:10471C0019F10E94D52B688779878A879B87188A1D
:10472C00198A88859985AA85BB8528893989BC0110
:10473C00CD01620F731F811D911D41E050E40E9459
:10474C00FE1F81110BC0888999890196888B998BE2
:10475C0080E005C081E003C081E001C08CE0DF9106
:08476C00CF911F910F910895F8
:10477400E0E0F2E080E8808B118A128A138A148ABE
:10478400158A168A178A108E118E81E080838183A0
:1047940084A710A211A212A213A214A215A216A2F7
:1047A40017A210A611A612A613A615A616A617A63A
:1047B40010AA11AA12AA10924B0210924D02109242
:1047C4004C0210924A0210924F021092510210921F
:1047D400500210924E0210925302109255021092FF
:1047E40054021092520212AE13AE14AE15AE16AEAF
:1047F40017AE10924002109241021092420210929F
:104804004302109244021092450210924802109200
:10481400490214AA15AA16AA17AA10AE80E0089590
:10482400A2E0B0E0E8E1F4E20C94372E3C014B0145
:10483400FA01DB0112962D913C91139714964D9039
:104844005C9015978D919C91119789839A83169604
:104854002D903C90179737FD03C08D7F89839A83F1
:104864000081118122813381448155816681778160
:10487400FE0131965F018AE0C82ED12C7201C40179
:104884000E94AB1C09811A81D40118964D915C9148
:10489400199741505109481B590BB101680F791FF1
:1048A4009201C3010E94BD249C01F3018081918186
:1048B40090FF08C0D40112968D919C911397821792
:0E48C40093070CF4C9012296E2E10C94502EE9
:1048D2008F929F92AF92BF92CF92DF92EF920F93FD
:1048E2001F93CF93DF93CDB7DEB76A97CDBFDEBFFD
:1048F2006C014A015B01E22E00E09E01225F3F4F04
:10490200AE014F5F5F4FC501B4010E94501D20E010
:1049120030E0A901C501B4010E943E3188232CF484
:1049220061E376E8C6010E94972EBE016F5F7F4F5A
:10493200C6010E94972E182F63E376E8C6010E94F3
:10494200972E182BBE01625F7F4FC6010E94972EE1
:10495200812B11F08CE001C080E06A96CDBFDEBFF2
:10496200DF91CF911F910F91EF90DF90CF90BF9089
:08497200AF909F908F90089513
:10497A00A0E1B0E0E3ECF4E20C94392E5C013B01D7
:10498A006A017901280181E04822552400FD14C0FA
:10499A00421753078CF487010C191D094801A80115
:1049AA000131110510F040E150E060E270E0CE0103
:1049BA0001960E9452300AC0A601B301C5010E94A5
:1049CA00E52DCE14DF043CF3C60120C000311105E9
:1049DA0058F040E150E0BE016F5F7F4FC5010E9471
:1049EA00E52D00511109F2CFA4014F705527BE01E0
:1049FA006F5F7F4FC5010E94E52D4114510429F4D0
:104A0A00A601B301C5010E94E52DC7016096E0E148
:044A1A000C94522E78
:104A1E0088249924F401E401B0E49F93AA279A15FF
:104A2E008B049C04ED05FE05CF05D007A10798F475
:104A3E00AD2FDC2FCF2FFE2FE92D982C892E982FFE
:104A4E00872F762F652F542F432F322F2227B850C2
:104A5E0031F7BF9127C01B2EBF91BB27220F331FEB
:104A6E00441F551F661F771F881F991F881C991C8E
:104A7E00EE1FFF1FCC1FDD1FAA1FBB1F8A149B0436
:104A8E00EC05FD05CE05DF05A007B10748F08A1835
:104A9E009B08EC09FD09CE09DF09A00BB10B2160C3
:104AAE001A94E1F62EF49401AF01BE01CD01000C73
:024ABE00089559
:104AC000CF92DF92EF92FF920F931F93CF93DF93DA
:104AD000EC016A017B0183E00E94FC196883798301
:104AE0008A839B83623071058105910558F100919D
:104AF000E5441091E6442091E7443091E8440C15D8
:104B00001D052E053F0589F006E09B01AC01C7019C
:104B1000B6010E945D126623B9F0C090E544D090C2
:104B2000E644E090E744F090E844688179818A8126
:104B30009B8106E0A70196010E945D12611106C0EB
:104B40008CE005C084E003C08CE001C080E0DF9110
:104B5000CF911F910F91FF90EF90DF90CF9008952C
:104B60000F931F93CF93DF93DB012D913C9111970E
:104B700030FF25C016964D915C91179714962D9194
:104B80003C9115974217530778F41296ED91FC91DA
:104B90001397808312962D913C9113972F5F3F4F6F
:104BA00012962D933C93139716962D913C9117973F
:104BB0002F5F3F4F16962D933C93179715C01C9669
:104BC000ED91FC911D97309719F48FEF9FEF0CC07A
:104BD0008B01EC010995892BC1F7F801868197813A
:104BE000019686839783CE01DF91CF911F910F911C
:024BF000089526
:104BF200EF92FF920F931F93CF93DF93EC017B0110
:104C0200FB01EE0FFF1FE295F295F07FFE27E07F9A
:104C1200FE27EF5FFF4B10811F7B212F30E02150D9
:104C220031098DE0289F202D11240AE0AB0161E0BB
:104C3200CE010E94282A0CE0282FA7016EE0CE01A7
:104C42000E94282A04E0282FA7016CE1CE010E94CD
:104C5200282A90915D45992341F010925D4591E09B
:104C620090935C45C80FD11D1882113011F4109237
:104C72005C45DF91CF911F910F91FF90EF900895C6
:104C82001F920F920FB60F9211240BB60F922F9311
:104C92003F934F935F936F937F938F939F93AF93C2
:104CA200BF93CF93EF93FF93C0E00E94A13091E0B6
:104CB2009C0F2C2F30E0F901ED54FC4B80838D309A
:104CC20019F0C92F903288F3F901ED54FC4B108290
:104CD200E0E6F8E086818F77868385818F7785830A
:104CE200108281E080936345FF91EF91CF91BF9154
:104CF200AF919F918F917F916F915F914F913F9172
:104D02002F910F900BBE0F900FBE0F901F90189512
:104D120060E070E080E690E00E94F73060E070E0D2
:104D220081E690E00E94F73060E070E088E790E072
:104D32000E94F73064E270E088E690E00E94F7306B
:104D420060E070E089E690E00E94F73060E070E099
:104D520080E790E00E94F73060E070E08CE790E03E
:104D62000E94F73060E070E082E690E00E94F73047
:104D720060E070E083E690E00E94F73060E070E06F
:104D820084E690E00E94F73060E070E080E890E016
:0E4D92000E94F7308091650081FFFCCF0895EC
:104DA000EF92FF920F931F93CF93DF93FB0114A217
:104DB000FC01228D222389F17A018B01EC014081D3
:104DC0005181628173810E948B2A4AE0B701CE0132
:104DD0000E948F13811122C04A895B89B801CE01DC
:104DE0000E941E2E81111AC088859985AA85BB85CF
:104DF00028893989820F931FA11DB11DF801808B6D
:104E0000918BA28BB38B888D80A381E085A383A334
:104E1000C8010E94102D80E001C087E0DF91CF9192
:0A4E20001F910F91FF90EF9008958D
:104E2A001F920F920FB60F9211240BB60F922F9367
:104E3A003F934F935F936F937F938F939F93AF9318
:104E4A00BF93EF93FF935C9B05C0E0914745F091B8
:104E5A00484509955D9B05C0E0914545F091464559
:104E6A0009955E9B05C0E0914345F091444509953B
:104E7A005F9B05C0E0914145F091424509958FEF4E
:104E8A008BB9FF91EF91BF91AF919F918F917F91D4
:104E9A006F915F914F913F912F910F900BBE0F90A1
:084EAA000FBE0F901F90189538
:104EB2001F920F920FB60F9211240BB60F922F93DF
:104EC2003F934F935F936F937F938F939F93AF9390
:104ED200BF93EF93FF93789B05C0E0914F45F0910C
:104EE20050450995799B05C0E0914D45F0914E459D
:104EF20009957A9B05C0E0914B45F0914C45099587
:104F02007B9B05C0E0914945F0914A4509958FEF99
:104F12008FB9FF91EF91BF91AF919F918F917F9147
:104F22006F915F914F913F912F910F900BBE0F9018
:084F32000FBE0F901F901895AF
:104F3A000F931F93CF93DF93FC0164857585868554
:104F4A009785623071058105910578F1EF0107E0D7
:104F5A0020E030E0A9010E945D126C877D878E8770
:104F6A009F871C8E1D8E0091E5441091E644209186
:104F7A00E7443091E844601771078207930721F4E8
:104F8A0081E08EA382E012C0611571058105910549
:104F9A0021F48CE089A383E009C00E94D52B688F95
:104FAA00798F8A8F9B8F80E001C081E0DF91CF915A
:064FBA001F910F91089504
:104FC000CF93DF93FC0124A1222391F125A121118C
:104FD00031C0EC01808D918DA28DB38D248D358DE6
:104FE000BC01CD01620F731F811D911D41E050E492
:104FF0000E94051F809100408530F1F48BA1882329
:1050000099F0488159816A817B818C819D81AE8133
:10501000BF8184179507A607B70730F46BE0CE0170
:105020000E94DF20811109C081E08DA380E005C0CE
:1050300087E003C087E001C08CE0DF91CF91089545
:10504000CF93DF93C4E60E94EA2F20E040E050E0D7
:10505000BA0187E30E94432C0E940E300E94F62F73
:105060000E94EA2F80915B45813041F420E040E0CE
:1050700050E0BA0189E20E94432C08C020E040E0E1
:1050800050E060E070E489E20E94432C0E940E3000
:10509000D82F0E94F62FC1508FE59AEE0197F1F7B5
:1050A00000C00000DD2311F0C111CDCFC11102C03D
:0C50B00081E001C08D2FDF91CF910895A9
:1050BC00E89409C097FB3EF49095809570956195A6
:1050CC007F4F8F4F9F4F9923A9F0F92F96E9BB275C
:1050DC009395F695879577956795B795F111F8CFD8
:1050EC00FAF4BB0F11F460FF1BC06F5F7F4F8F4F43
:1050FC009F4F16C0882311F096E911C0772321F039
:10510C009EE8872F762F05C0662371F096E8862FD0
:10511C0070E060E02AF09A95660F771F881FDAF727
:0A512C00880F9695879597F908956E
:10513600CF92DF92EF92FF921F93CF93DF936B0193
:105146007C01142F40E060E072E080E090E00E9475
:10515600792FC701B6010E94D52B6B017C01C0E0F7
:10516600D0E080E011C041E050E4C701B6016C0F09
:105176007D1F811D911D0E94051F90910040953055
:1051860051F4111109C021962091054530E0C2174E
:10519600D30748F301C08CE0DF91CF911F91FF90B8
:0851A600EF90DF90CF90089517
:1051AE00BEE304D008F490E80895BFE32227332726
:1051BE00A9010E94B32C60F19F5748F1B91740F135
:1051CE00BFE3B91B9927B8503AF4660F771F881FB3
:1051DE00991FB395D2F316C0B8504AF0232F342F2F
:1051EE00452F562F672F782F8827B850BAF7B85FFC
:1051FE0049F08695779567955795479537952795F5
:10520E00BA95B9F716F40E94492F88940895889498
:08521E0060E070E0CB0108958F
:10522600A0E1B0E0E9E1F9E20C94432EFB01BA01FA
:10523600AE014F5F5F4F7A0140E1D7011D924A955B
:10524600E9F742E051E049835A838B839C83F7FF59
:1052560009C08FE490E08093DB439093DC438FEFAB
:105266009FEF14C0A9018C013197ED83FE83C7011E
:105276000E94682E4F8158852D813E814217530723
:1052860008F49A01F801E20FF31F10826096E6E037
:045296000C945C2EEA
:10529A00AC01FA0190814F5F5F4F9032D1F3292F11
:1052AA00092E000C330B295031092530310588F3BA
:1052BA009B3209F540E050E0319602C040E050E0F0
:1052CA0080E090E06AE02191022E000C330B20531B
:1052DA0031092A30310548F4689FD001699FB00D21
:1052EA001124CD01821B930BEECF452B49F49195E6
:1052FA008195910908959D3209F741E050E0DCCF8C
:02530A00089504
:10530C00DA0190E030E023C0E92FF0E020E2829F48
:10531C00E00DF11D1124EF5FFF4B20815FEB520F6D
:10532C005A3108F4205E983041F4613031F0FD01BF
:10533C00E30FF11D4EE240833F5F203211F46130E8
:10534C0029F4FD01E30FF11D20833F5F9F5F9B302C
:10535C00D8F2832F90E0FC013197EA0FFB1F2081DC
:10536C002E3209F41082FD01E80FF91F1082089506
:10537C001F920F920FB60F9211240BB60F922F9310
:10538C003F934F935F936F937F938F939F93AF93C1
:10539C00BF93EF93FF93399B05C0E0915345F09178
:1053AC0054450995389B05C0E0915145F091524503
:1053BC0009958FEF87B9FF91EF91BF91AF919F91B5
:1053CC008F917F916F915F914F913F912F910F90A2
:0C53DC000BBE0F900FBE0F901F90189595
:1053E800A7E0B0E0EAEFF9E20C943D2E5C017A0107
:1053F800C90127E0ECE2F5E4DE01119601900D9277
:105408002A95E1F7FB01C280D380848095800081D2
:105418001181452B21F49E012F5F3F4F79010097A1
:1054280019F4C7010E94CF2FD7FC04C0C816D906AB
:1054380008F4C6019401AC01B701C5010E94BD245E
:085448002796ECE00C94562EAF
:105450000F93CF93DF93EC0190E025C0E92FF0E0AC
:10546000E60FF11DDA01AA0FBB1FA295B295B07F1E
:10547000BA27A07FBA27EA0FFB1FEF5FFF4B3081EF
:10548000332381F03F3F89F02F3F79F0FE01E20F97
:10549000F11D308380915C45811103C081E08093D0
:1054A0005D452F5F9E5F9017C8F2822FDF91CF91ED
:0454B0000F910895BB
:1054B4000F931F93CF93DF93EA01E0E0F0E021C064
:1054C400A881B9813C91332369F0DF01A80FB91F8A
:1054D400AF5FBF4B3C93488159814F5F5F4F488317
:1054E40059830DC08F01080F191FA8014F5F5F4B2F
:1054F4003FEFDA013C93D801AE5FBF4B3C93E20F20
:10550400F11DE617F707E0F2DF91CF911F910F919C
:025514000895F8
:10551600CF92DF92EF92FF92CF93DF93EC016A0175
:105526007B01423051056105710558F48091F944BB
:105536009091FA44A0E0B0E088879987AA87BB8754
:1055460008C0CB01BA010E94D52B688779878A8764
:105556009B87CC82DD82EE82FF82188A198A188E9A
:105566001A8A1B8ADF91CF91FF90EF90DF90CF9040
:02557600089596
:105578000F931F93CF93DF93EC018B011A8A1B8A39
:105588004091ED445091EE446091EF447091F044A5
:10559800488359836A837B831A8E1E8A1F8A1B8ECF
:1055A8000E948B2A48E0B801CE010E948F13182F61
:1055B800811109C0488159816A817B81CE010E948D
:1055C8008B2A81E08A8F812FDF91CF911F910F91D4
:0255D800089534
:1055DA00689401C0E894F92FF12B12F00C94C42FAF
:1055EA00A0E0B0E0EBEFFAE20C943D2E092E059410
:1055FA0022F40E94692F112392F4F0E80F26FFEF9C
:10560A00E094F09400951095B094C094D094A1942D
:10561A00BF0ACF0ADF0AEF0AFF0A0F0B1F0B0E940D
:10562A000F2507FC0E94692FCDB7DEB7ECE00C947A
:02563A00562EEA
:10563C001F920F920FB60F9211240BB60F922F934D
:10564C003F934F935F936F937F938F939F93AF93FE
:10565C00BF93EF93FF9382E080930D06E0913F455B
:10566C00F0914045309709F00995FF91EF91BF916A
:10567C00AF919F918F917F916F915F914F913F91DE
:10568C002F910F900BBE0F900FBE0F901F9018957F
:10569C001F920F920FB60F9211240BB60F922F93ED
:1056AC003F934F935F936F937F938F939F93AF939E
:1056BC00BF93EF93FF9381E080930D06E0913D45FE
:1056CC00F0913E45309709F00995FF91EF91BF910C
:1056DC00AF919F918F917F916F915F914F913F917E
:1056EC002F910F900BBE0F900FBE0F901F9018951F
:1056FC000E94B32C88F09F5798F0B92F9927B75177
:10570C00B0F0E1F0660F771F881F991F1AF0BA9559
:10571C00C9F714C0B13091F00E94CB30B1E00895BC
:10572C000C94CB30672F782F8827B85F39F0B93FAE
:10573C00CCF3869577956795B395D9F73EF490950C
:0E574C008095709561957F4F8F4F9F4F089508
:10575A00E0E6F8E080E197E280879187158280ECA5
:10576A00868383E08783138614861686158681E8E6
:10577A0091E30E948C3082E891E30E94933083E89F
:10578A0091E30E949A301092554510925645E09145
:10579A005745F09158458CE195E4808391830895AB
:1057AA000F931F939B01AC01225031094109510902
:1057BA00EDEDF4E4A0A5B0E00E943230268D378DDD
:1057CA00AB01BC01420F531F611D711D8081918184
:1057DA00A281B3818A019B01080F191F2A1F3B1F4F
:0A57EA00C901B8011F910F91089545
:1057F400CF92DF92EF920F931F93CF93DF93CDB7A6
:10580400DEB72D97CDBFDEBFDE0111966D01EDE051
:105814001D92EA95E9F7E12C86010E94D016C60193
:105824000E94022E2D96CDBFDEBFDF91CF911F9136
:0A5834000F91EF90DF90CF900895E0
:10583E00990F0008550FAA0BE0E8FEEF1616170693
:10584E00E807F907C0F012161306E407F50798F0FB
:10585E00621B730B840B950B39F40A2661F0232B14
:10586E00242B252B21F408950A2609F4A140A69590
:08587E008FEF811D811D0895CB
:10588600FF920F931F93CF93DF93D42F152F062FDD
:10589600F72EC22F80640E9402318F2D0E940231A2
:1058A600802F0E940231812F0E9402318D2F0E948B
:1058B60002318C2F81600E940231DF91CF911F91BE
:0658C6000F91FF90089510
:1058CC00DC0120E030E00CC09091640895FFFCCF27
:1058DC00FD01E40FF51F8081809362082F5F3F4F1D
:1058EC00FD0101900020E9F73197EA1BFB0BA901A0
:1058FC002E173F0748F38091640885FFFCCF8DE09D
:06590C008093620808957B
:10591200A4EDB3E490E39C9398E711969C931197BE
:10592200E82FE295EF70F0E0E25EF947908112967F
:105932009C9312978F70E82FF0E0E25EF947808126
:1059420013968C93139714961C921497CD010E9470
:04595200022E089584
:1059560057FD9058440F551F59F05F3F71F047951A
:10596600880F97FB991F61F09F3F79F087950895FF
:10597600121613061406551FF2CF4695F1DF08C01E
:10598600161617061806991FF1CF8695710561053B
:0459960008940895D4
:10599A00A1E21A2EAA1BBB1BFD010DC0AA1FBB1F29
:1059AA00EE1FFF1FA217B307E407F50720F0A21B9B
:1059BA00B30BE40BF50B661F771F881F991F1A9408
:1059CA0069F760957095809590959B01AC01BD0132
:0459DA00CF0108955C
:1059DE00CF93DF93EDEDF4E44481558166817781B9
:1059EE00868D978D9A01AB01281B390B4109510900
:1059FE00A08DB18D0E943230DC01CB01282F392FC2
:105A0E004A2F5B2F60E070E080E090E0DF91CF9155
:025A1E000895E9
:105A2000CF93DF93EC011E8E1F8E1EA281E08CA30C
