:100000000C947A000C9499000C9499000C9499002B
:100010000C9499000C9499000C9499000C949900FC
:100020000C9499000C9449010C9499000C9499003B
:100030000C9499000C9499000C9499000C949900DC
:100040000C9499000C9499000C9499000C949900CC
:100050000C9499000C9499000C9499000C949900BC
:100060000C9499000C9499000C9499000C949900AC
:100070000C9499000C9499000C9499000C9499009C
:100080000C9499000C9499000C9499000C9499008C
:100090000C9499000C9499000C943D020C949900D6
:1000A0000C9499000C9499000C9499000C9499006C
:1000B0000C9499000C9499000C9499000C9499005C
:1000C0000C9499000C9499000C9499000C9499004C
:1000D0000C9499000C94BE010C9499000C94990016
:1000E0000C9499000C9499000C9499000C9499002C
:1000F0000C94990011241FBECFEFCDBFDFE7DEBF08
:1001000011E4A0E0B0E4E2EFFDE000E00BBF02C0CC
:1001100007900D92A637B107D9F722E4A6E7B1E41C
:1001200001C01D92A93AB207E1F70E94D0030C94D6
:10013000F7060C940000E0E2F4E088E0818384811B
:10014000886084830895E0EEF5E082811282E0E227
:10015000F4E081E0818382E08283E0E6F8E080E100
:1001600097E28087918780EC868380E88583089575
:10017000DC0120E030E00CC09091640895FFFCCFDA
:10018000FD01E40FF51F8081809362082F5F3F4FD0
:10019000FD0101900020E9F73197EA1BFB0BA90153
:1001A0002E173F0748F38091640885FFFCCF8DE050
:1001B00080936208089580E18093E205E0EAF4E02C
:1001C000818380E28283E0E4F8E080E197E2808747
:1001D000918780EC868380E8858308950F93CF9381
:1001E000DF93CDB7DEB7E297CDBFDEBF0023D9F0F6
:1001F0001F922FEF2F931F922F931F922F935F9396
:100200004F937F936F939F938F9382E090E49F939C
:100210008F93CE0101969F938F930E941404AC019B
:10022000CDBFDEBF1AC01F924FEF4F931F924F9367
:100230001F924F933F932F937F936F939F938F932F
:1002400085E190E49F938F93CE0101969F938F93C6
:100250000E941404AC01CDBFDEBF20E030E00FC02F
:100260009091440895FFFCCFE1E0F0E0EC0FFD1F1A
:10027000E20FF31F9081909342082F5F3F4F2417A6
:10028000350774F3E296CDBFDEBFDF91CF910F91BA
:1002900008951F920F920FB60F9211240BB60F9272
:1002A0000F932F933F934F935F936F937F938F930E
:1002B0009F93AF93BF93EF93FF938091774191E02A
:1002C000980F909377418370813091F028F08230BD
:1002D000D9F0833029F130C001E020E030E04AE27B
:1002E00050E462E570E48EE290E40E94EE002FC0DC
:1002F00001E020E030E04AE250E469E570E48EE29B
:1003000090E40E94EE0023C001E020E030E042E3F0
:1003100050E460E670E48EE290E40E94EE0017C0C4
:1003200001E020E030E042E350E467E670E48EE272
:1003300090E40E94EE000BC001E020E030E04AE2D1
:1003400050E462E570E48EE290E40E94EE0081E009
:1003500080930B0AFF91EF91BF91AF919F918F9185
:100360007F916F915F914F913F912F910F910F90DE
:100370000BBE0F900FBE0F901F9018951F920F92FB
:100380000FB60F9211240BB60F922F933F934F93FA
:100390005F936F937F938F939F93AF93BF93CF930D
:1003A000DF93EF93FF9380916008882381F0909111
:1003B0007A4191110CC01092764191E090937A416C
:1003C00092E3EDE7F1E4DF011D929A95E9F7909150
:1003D0007A419923E9F1E091764191E09E0F909363
:1003E0007641F0E0E358FE4B80838D3031F5C0E676
:1003F000D8E08E818F778E838D818F778D83E92FE3
:10040000F0E0E458FE4B108210927A41109276414F
:1004100081E08093784182E3E3E1F2E4DF011D9221
:100420008A95E9F76DE771E4CF010E94FE038E81A2
:1004300080688E838D8180688D8380917641823340
:1004400038F01092764110927A4181E080937841A1
:10045000FF91EF91DF91CF91BF91AF919F918F91DC
:100460007F916F915F914F913F912F910F900BBEB4
:100470000F900FBE0F901F9018951F920F920FB6FE
:100480000F9211240BB60F922F933F934F935F93CC
:100490006F937F938F939F93AF93BF93CF93DF938C
:1004A000EF93FF9390914008992381F080917B41D5
:1004B00081110CC010927C4181E080937B4182E3EA
:1004C000EFEAF1E4DF011D928A95E9F780917B4123
:1004D000882309F44BC0E0917C4181E08E0F80932A
:1004E0007C41F0E0E155FE4B90838330A0F190E039
:1004F000FC01E255FE4B20812F3F69F5FC01E355DD
:10050000FE4B20812F3F39F5FC01E455FE4B8081E5
:100510008F3F09F5C0E4D8E08E818F778E838D817F
:100520008F778D8382E3E5E4F2E4DF011D928A9503
:10053000E9F76FEA71E4CF010E94FE0310927B415C
:1005400010927C4181E0809379418E8180688E8316
:100550008D8180688D8380917C41823338F0109248
:100560007C4110927B4181E080937941FF91EF9132
:10057000DF91CF91BF91AF919F918F917F916F91BB
:100580005F914F913F912F910F900BBE0F900FBE37
:100590000F901F901895AF92BF92CF92DF92EF927B
:1005A000FF920F931F93CF93DF93CDB7DEB7E29700
:1005B000CDBFDEBFDC01EDB6FEB6FC010190002030
:1005C000E9F731978F01081B190B9C919037E9F4DB
:1005D0008DB79EB7801B910B8DBF9EBF01966C019E
:1005E000A8014F5F5F4FBD016F5F7F4F0E94050401
:1005F000F8013497EC0DFD1D80E090E48083C60186
:100600000E94B800EDBEFEBE44C0913709F041C063
:1006100011968C91119712960C91129710E020E090
:1006200030E0322F212F102F0027082B13964C91EA
:10063000139750E060E070E0BA0155274427042B7F
:10064000152B262B372B14964C9150E060E070E070
:10065000742F662755274427D901C801842B952B71
:10066000A62BB72BBF93AF939F938F9386E390E412
:100670009F938F938E010F5F1F4F1F930F930E94C5
:100680001404C8010E94B8008DB79EB708968DBFAC
:100690009EBFEDBEFEBEE296CDBFDEBFDF91CF9125
:1006A0001F910F91FF90EF90DF90CF90BF90AF9090
:1006B00008950F936AE370E483E192E40E94F503E6
:1006C000892B21F488E08093260468C061E470E4FB
:1006D00083E192E40E94F503892B21F488E0809362
:1006E00025045CC069E470E483E192E40E94F503B0
:1006F000892B29F48AE690E40E94B8004FC06EE48A
:1007000070E483E192E40E94F503892B61F401E037
:1007100020E030E04AE250E462E570E48EE290E4EA
:100720000E94EE003BC065E570E483E192E40E9424
:10073000F503892B61F401E020E030E04AE250E467
:1007400069E570E48EE290E40E94EE0027C06CE55B
:1007500070E483E192E40E94F503892B61F401E0E7
:1007600020E030E042E350E460E670E48EE290E4A2
:100770000E94EE0013C063E670E483E192E40E94FD
:10078000F503892B59F401E020E030E042E350E426
:1007900067E670E48EE290E40E94EE000F91089507
:1007A00064E288E690E00E94F1060E949B000E94AD
:1007B000A3000E94DB0078948AE690E40E94B800CF
:1007C00080917941882331F085E492E40E94CB0244
:1007D0001092794180917841882391F383E192E4EA
:1007E0000E94590310927841EBCFFB01DC018D91FF
:1007F000019080190110D9F3990B0895FB01DC01D8
:1008000001900D920020E1F70895FB01DC014150B9
:10081000504048F001900D920020C9F701C01D9290
:1008200041505040E0F708950F931F93CF93DF930B
:10083000CDB7DEB72E97CDBFDEBF0D891E8986E00E
:100840008C8309831A838FEF9FE78D839E83AE018C
:10085000475E5F4F6F89788DCE0101960E943D04FF
:10086000EF81F885E00FF11F10822E96CDBFDEBF1D
:10087000DF91CF911F910F9108952F923F924F9248
:100880005F926F927F928F929F92AF92BF92CF9220
:10089000DF92EF92FF920F931F93CF93DF93CDB729
:1008A000DEB72B97CDBFDEBF6C017B018A01FC0157
:1008B00016821782838181FFCCC1CE0101963C0153
:1008C000F6019381F70193FD859193FF81917F015B
:1008D000882309F4BAC1853239F493FD859193FFD9
:1008E00081917F01853229F4B60190E00E9457067C
:1008F000E7CF912C212C312CFFE1F315D8F08B326E
:1009000079F038F4803279F08332A1F4232D20611C
:100910001DC08D3261F0803369F4232D216016C033
:10092000832D8260382EE32DE4603E2E2AC0F32D05
:10093000F8601DC037FC2DC020ED280F2A3040F094
:100940008E32B9F436FC81C1232D2064322E19C0B9
:1009500036FE06C08AE0989E200D1124922E11C00A
:10096000EAE02E9E200D1124222EF32DF0623F2E60
:1009700008C08C3621F4832D8068382E02C088365A
:1009800041F4F70193FD859193FF81917F018111DE
:10099000B3CF982F9F7D9554933028F40C5F1F4F51
:1009A0009FE399830DC0833631F0833771F083352F
:1009B00009F059C021C0F801808189830E5F1F4F63
:1009C00088248394912C530113C02801F2E04F0E28
:1009D000511CF801A080B18036FE03C0692D70E083
:1009E00002C06FEF7FEFC5010E944C064C018201EF
:1009F000F32DFF773F2E16C0280122E0420E511C36
:100A0000F801A080B18036FE03C0692D70E002C0FD
:100A10006FEF7FEFC5010E9441064C01F32DF06896
:100A20003F2E820133FC1BC0822D90E08816990670
:100A3000B0F4B60180E290E00E9457062A94F4CF09
:100A4000F50137FC859137FE81915F01B60190E099
:100A50000E94570621102A9421E0821A91088114DD
:100A6000910471F7E8C0843611F0893641F5F80138
:100A700037FE07C060817181828193810C5F1F4FB7
:100A800008C060817181072E000C880B990B0E5FE6
:100A90001F4FF32DFF763F2E97FF09C0909580954D
:100AA000709561957F4F8F4F9F4FF0683F2E2AE0E2
:100AB00030E0A3010E949306882E861845C0853732
:100AC00031F4232D2F7EB22E2AE030E025C0932D65
:100AD000997FB92E8F36C1F018F4883579F0B5C0FA
:100AE000803719F0883721F0B0C0E92FE061BE2EC1
:100AF000B4FE0DC0FB2DF460BF2E09C034FE0AC049
:100B0000292F2660B22E06C028E030E005C020E183
:100B100030E002C020E132E0F801B7FE07C060819A
:100B20007181828193810C5F1F4F06C0608171814A
:100B300080E090E00E5F1F4FA3010E949306882E75
:100B40008618FB2DFF773F2E36FE0DC0232D2E7FFE
:100B5000A22E891458F434FE0BC032FC09C0832D38
:100B60008E7EA82E05C0B82CA32C03C0B82C01C0C3
:100B7000B92CA4FE0FC0FE01E80DF11D8081803369
:100B800021F49A2D997EA92E09C0A2FE06C0B39425
:100B9000B39404C08A2D867809F0B394A3FC11C0E5
:100BA000A0FE06C0B21488F4280C922C9B180EC02C
:100BB000B21460F4B60180E290E00E945706B3944C
:100BC000F7CFB21418F42B1802C0982C212CA4FED5
:100BD00010C0B60180E390E00E945706A2FE17C045
:100BE000A1FC03C088E790E002C088E590E0B60170
:100BF0000CC08A2D867859F0A1FE02C08BE201C09C
:100C000080E2A7FC8DE2B60190E00E9457068914AD
:100C100038F4B60180E390E00E9457069A94F7CF2B
:100C20008A94F301E80DF11D8081B60190E00E94E5
:100C300057068110F5CF222009F442CEB60180E29A
:100C400090E00E9457062A94F6CFF601868197819C
:100C500002C08FEF9FEF2B96CDBFDEBFDF91CF910C
:100C60001F910F91FF90EF90DF90CF90BF90AF90CA
:100C70009F908F907F906F905F904F903F902F90BC
:100C80000895FC010590615070400110D8F78095DF
:100C900090958E0F9F1F0895FC0161507040019048
:100CA0000110D8F7809590958E0F9F1F08950F9390
:100CB0001F93CF93DF93FB01238121FD03C08FEFAF
:100CC0009FEF2CC022FF16C04681578124813581B9
:100CD0004217530744F4A081B1819D012F5F3F4F1C
:100CE000208331838C93268137812F5F3F4F26836A
:100CF000378314C08B01EC01FB010084F185E02DEA
:100D00000995892BE1F6D80116968D919C9117973C
:100D1000019616968D939C931797CE01DF91CF91F4
:100D20001F910F910895FA01AA27283051F120311F
:100D300081F1E8946F936E7F6E5F7F4F8F4F9F4F6F
:100D4000AF4FB1E03ED0B4E03CD0670F781F891FB1
:100D50009A1FA11D680F791F8A1F911DA11D6A0F7F
:100D6000711D811D911DA11D20D009F468943F9132
:100D70002AE0269F11243019305D3193DEF6CF0131
:100D80000895462F4770405D4193B3E00FD0C9F7F7
:100D9000F6CF462F4F70405D4A3318F0495D31FD64
:100DA0004052419302D0A9F7EACFB4E0A6959795B7
:100DB000879577956795BA95C9F70097610571058D
:100DC00008959B01AC010A2E0694579547953795D7
:100DD0002795BA95C9F7620F731F841F951FA01D31
:100DE0000895DC0128ED209334006C930895F89465
:020DF000FFCF33
:100DF20000006765742025732E25732E25732563E5
:100E0200256325630025732E25732E7478743D2285
:100E12002573222563256325630076616C006D636B
:100E2200750074787400256C75006C6564206F6EB3
:100E3200006C6564206F66660068656C70006765AB
:100E420074206E3000676574206E3100676574200F
:100E5200743200676574207433005465726D696E74
:100E6200616C2046756E6374696F6E730A5F5F5FB3
:100E72005F5F5F5F5F5F5F5F5F5F5F5F5F5F5F5F80
:100E82005F5F5F5F5F5F5F5F5F5F5F5F5F5F5F5F70
:100E92005F5F5F5F5F5F5F5F5F5F5F5F5F5F5F0AB5
:100EA2006C6564206F6E20202020202D20547572E6
:100EB2006E7320746865204C4544206F6E0A6C6521
:100EC20064206F6666202020202D205475726E7378
:100ED20020746865204C4544206F66660A68656C1C
:100EE20070202020202020202D20446973706C6106
:100EF200792061206D656E75206F66207465726D54
:100F0200696E616C2066756E6374696F6E730A67D1
:100F12006574205B6172675D20202D204765742017
:100F2200646174612066726F6D20746865204D4340
:100F3200552070616765206F6E2074686520484D8A
:100F4200490A092D2056616C696420617267756DCA
:100F5200656E74733A206E302C206E312C20743200
:060F62002C2074330A008C
:00000001FF
