S01900007265715F7265735F70726F746F747970652E73726563C5
S11300000C947A000C9499000C9499000C94990027
S11300100C9499000C9499000C9499000C949900F8
S11300200C9499000C946B010C9499000C94990015
S11300300C9499000C9499000C9499000C949900D8
S11300400C9499000C9499000C9499000C949900C8
S11300500C9499000C9499000C9499000C949900B8
S11300600C9499000C9499000C9499000C949900A8
S11300700C9499000C9499000C9499000C94990098
S11300800C9499000C9499000C9499000C94990088
S11300900C9499000C9499000C9413020C949900FC
S11300A00C9499000C9499000C9499000C94990068
S11300B00C9499000C9499000C9499000C94990058
S11300C00C9499000C9499000C9499000C94990048
S11300D00C9499000C94E0010C9499000C949900F0
S11300E00C9499000C9499000C9499000C94990028
S11300F00C94990011241FBECFEFCDBFDFE7DEBF04
S113010010E4A0E0B0E4E8E3FEE000E00BBF02C0CE
S113011007900D92A236B107D9F721E4A2E6B0E424
S113012001C01D92A730B207E1F70E94D2020C94DD
S11301301A070C940000E0E2F4E088E081838481F3
S1130140886084830895E0EEF5E082811282E0E223
S1130150F4E081E0818382E08283E0E6F8E080E1FC
S113016097E28087918780E4868380E88583089579
S1130170CF93DF93CDB7DEB7E297CDBFDEBF1F923B
S11301802FEF2F931F922F931F922F937F936F9391
S11301909F938F9386E090E49F938F93CE01019673
S11301A09F938F930E943704AC01CDBFDEBF20E044
S11301B030E00FC09091640895FFFCCFE1E0F0E0DF
S11301C0EC0FFD1FE20FF31F9081909362082F5FE5
S11301D03F4F2417350774F3E296CDBFDEBFDF919E
S11301E0CF91089580E18093E205E0EAF4E0818311
S11301F080E28283E0E4F8E080E197E280879187FF
S113020080EC868380E8858308950F93CF93DF93F2
S1130210CDB7DEB7E297CDBFDEBF0023D9F01F9282
S11302202FEF2F931F922F931F922F935F934F9330
S11302307F936F939F938F9389E190E49F938F9320
S1130240CE0101969F938F930E943704AC01CDBFDA
S1130250DEBF1AC01F924FEF4F931F924F931F920E
S11302604F933F932F937F936F939F938F938CE23E
S113027090E49F938F93CE0101969F938F930E9456
S11302803704AC01CDBFDEBF20E030E00FC0909159
S1130290440895FFFCCFE1E0F0E0EC0FFD1FE20F16
S11302A0F31F9081909342082F5F3F4F2417350727
S11302B074F3E296CDBFDEBFDF91CF910F91089525
S11302C0E0E0FAE08CE89BE586A397A381E08287CF
S11302D08FE0808308951F920F920FB60F9211241E
S11302E00BB60F920F932F933F934F935F936F939C
S11302F07F938F939F93AF93BF93EF93FF938091DB
S1130300634091E0980F909363408370813091F043
S113031028F08230D9F0833029F130C001E020E0A8
S113032030E041E450E465E470E488E490E40E9441
S113033005012FC001E020E030E041E450E46CE42A
S113034070E488E490E40E94050123C001E020E009
S113035030E04FE450E463E570E488E490E40E9404
S1130360050117C001E020E030E04FE450E466E509
S113037070E488E490E40E9405010BC001E020E0F1
S113038030E041E450E465E470E488E490E40E94E1
S1130390050181E080930B0AFF91EF91BF91AF912A
S11303A09F918F917F916F915F914F913F912F9189
S11303B00F910F900BBE0F900FBE0F901F901895CA
S11303C01F920F920FB60F9211240BB60F928F93B8
S11303D09F93EF93FF9380916240E82FF0E0909118
S11303E06008E759FF4B90838F5F809362408430AD
S11303F078F01092624080916940813321F481E069
S11304008093654002C01092654088E08093270481
S1130410FF91EF919F918F910F900BBE0F900FBEA4
S11304200F901F9018951F920F920FB60F921124E0
S11304300BB60F922F938F939F93AF93BF93EF932A
S1130440FF939091400880E9890F823090F4809165
S1130450674081110EC01092684081E0809367402C
S11304609093664082E3EDE6F0E4DF011D928A9505
S1130470E9F780916740882371F1E091684081E059
S11304808E0F80936840F0E0E359FF4B90838330F4
S1130490D0F090E0FC01E459FF4B20812F3F99F408
S11304A0FC01E559FF4B20812F3F69F4FC01E6591B
S11304B0FF4B80818F3F39F410926740109268405F
S11304C081E08093644080916840823320F01092F0
S11304D0684010926740FF91EF91BF91AF919F9157
S11304E08F912F910F900BBE0F900FBE0F901F9006
S11304F01895FF920F931F93CF93DF938C01FC0108
S113050001900020E9F73197E81BF90B0F2EFCEF5F
S1130510FF2EF02DFE0ECF2DD0E02196CE010E94AD
S11305201603AC0121E030E00BC0F9013197E40F70
S1130530F51FD801A20FB31F9C9190832F5F3F4FEB
S11305402C173D0794F3FA01EF0DF11D1082CA0137
S1130550DF91CF911F910F91FF900895FC012181AC
S113056043816481862F90E0A0E0B0E03281BA2F0D
S1130570A92F982F8827840F911DA11DB11DBA2F73
S1130580A92F982F8827830F911DA11DB11DBA2F64
S1130590A92F982F8827BC01CD01620F711D811DE1
S11305A0911D0895CF93DF93CDB7DEB7E297CDBF0A
S11305B0DEBF64E288E690E00E9414070E949B007C
S11305C00E94A3000E94F2000E946001789480912E
S11305D064408823E1F380916640803751F48DE6CE
S11305E090E40E947902BC0189E590E40E94B8007D
S11305F01AC08DE690E40E94AE029F938F937F937E
S11306006F938DE590E49F938F938E010F5F1F4F3F
S11306101F930F930E943704B80189E590E40E9468
S1130620B800CDBFDEBF10926440D1CF0F931F93AB
S1130630CF93DF938230910510F482E090E0E09153
S11306400541F091064120E030E0A0E0B0E03097B1
S113065019F1408151810281138148175907C8F06B
S11306608417950769F4109731F012960C9312973A
S113067013961C9327C0009305411093064122C092
S11306802115310519F04217530718F49A01BD01D9
S1130690EF01DF01F801DBCF21153105F9F0281B4B
S11306A0390B2430310580F48A819B8161157105F1
S11306B021F0FB018283938304C0809305419093CE
S11306C00641FE01329644C0FE01E20FF31F8193FE
S11306D0919322503109288339833AC020910341F0
S11306E030910441232B41F4209102403091034086
S11306F02093034130930441209100403091014004
S11307002115310541F42DB73EB740910440509175
S11307100540241B350BE0910341F0910441E2179D
S1130720F307A0F42E1B3F0B2817390778F0AC0110
S11307304E5F5F4F2417350748F04E0F5F1F4093FD
S11307400341509304418193919302C0E0E0F0E0AF
S1130750CF01DF91CF911F910F910895CF93DF9334
S1130760009709F481C0FC01329712821382A09190
S11307700541B0910641109781F420813181820FA7
S1130780931F20910341309104412817390751F5F3
S1130790E0930341F093044167C0ED0120E030E0B1
S11307A0CE17DF0740F44A815B819E014115510554
S11307B0F1F0EA01F5CFC283D38340815181840FE4
S11307C0951FC817D90759F488819981840F951FFB
S11307D00296808391838A819B81828393832115EE
S11307E0310529F4E0930541F09306413DC0E90148
S11307F0EA83FB8349915991C40FD51FEC17FD0778
S113080061F480819181840F951F0296E9018883A8
S11308109983828193818A839B83E0E0F0E012963E
S11308208D919C911397009719F0FD01DC01F7CF8E
S11308308D919C9111979D012E5F3F4F820F931FC5
S113084020910341309104412817390769F4309706
S113085029F4109205411092064102C012821382BB
S1130860A0930341B0930441DF91CF9108950F9376
S11308701F93CF93DF93CDB7DEB72E97CDBFDEBFE7
S11308800D891E8986E08C8309831A838FEF9FE785
S11308908D839E83AE01475E5F4F6F89788DCE0155
S11308A001960E946004EF81F885E00FF11F108229
S11308B02E96CDBFDEBFDF91CF911F910F9108958A
S11308C02F923F924F925F926F927F928F929F925C
S11308D0AF92BF92CF92DF92EF92FF920F931F934A
S11308E0CF93DF93CDB7DEB72B97CDBFDEBF6C01BF
S11308F07B018A01FC0116821782838181FFCCC1AE
S1130900CE0101963C01F6019381F70193FD859197
S113091093FF81917F01882309F4BAC1853239F4A8
S113092093FD859193FF81917F01853229F4B6016E
S113093090E00E947A06E7CF912C212C312CFFE124
S1130940F315D8F08B3279F038F4803279F08332B1
S1130950A1F4232D20611DC08D3261F0803369F430
S1130960232D216016C0832D8260382EE32DE46090
S11309703E2E2AC0F32DF8601DC037FC2DC020ED9B
S1130980280F2A3040F08E32B9F436FC81C1232D71
S11309902064322E19C036FE06C08AE0989E200DCF
S11309A01124922E11C0EAE02E9E200D1124222E35
S11309B0F32DF0623F2E08C08C3621F4832D80681D
S11309C0382E02C0883641F4F70193FD859193FFD8
S11309D081917F018111B3CF982F9F7D95549330DE
S11309E028F40C5F1F4F9FE399830DC0833631F0C9
S11309F0833771F0833509F059C021C0F801808133
S1130A0089830E5F1F4F88248394912C530113C054
S1130A102801F2E04F0E511CF801A080B18036FE8F
S1130A2003C0692D70E002C06FEF7FEFC5010E9423
S1130A306F064C018201F32DFF773F2E16C028016B
S1130A4022E0420E511CF801A080B18036FE03C0A2
S1130A50692D70E002C06FEF7FEFC5010E9464064C
S1130A604C01F32DF0683F2E820133FC1BC0822D14
S1130A7090E088169906B0F4B60180E290E00E94F6
S1130A807A062A94F4CFF50137FC859137FE8191DB
S1130A905F01B60190E00E947A0621102A9421E0B9
S1130AA0821A91088114910471F7E8C0843611F018
S1130AB0893641F5F80137FE07C060817181828172
S1130AC093810C5F1F4F08C060817181072E000C59
S1130AD0880B990B0E5F1F4FF32DFF763F2E97FF68
S1130AE009C090958095709561957F4F8F4F9F4F6A
S1130AF0F0683F2E2AE030E0A3010E94B606882E5B
S1130B00861845C0853731F4232D2F7EB22E2AE076
S1130B1030E025C0932D997FB92E8F36C1F018F49B
S1130B20883579F0B5C0803719F0883721F0B0C026
S1130B30E92FE061BE2EB4FE0DC0FB2DF460BF2E84
S1130B4009C034FE0AC0292F2660B22E06C028E050
S1130B5030E005C020E130E002C020E132E0F801DD
S1130B60B7FE07C060817181828193810C5F1F4F42
S1130B7006C06081718180E090E00E5F1F4FA30189
S1130B800E94B606882E8618FB2DFF773F2E36FE70
S1130B900DC0232D2E7FA22E891458F434FE0BC0D1
S1130BA032FC09C0832D8E7EA82E05C0B82CA32C40
S1130BB003C0B82C01C0B92CA4FE0FC0FE01E80D7F
S1130BC0F11D8081803321F49A2D997EA92E09C0CC
S1130BD0A2FE06C0B394B39404C08A2D867809F0AB
S1130BE0B394A3FC11C0A0FE06C0B21488F4280C70
S1130BF0922C9B180EC0B21460F4B60180E290E00F
S1130C000E947A06B394F7CFB21418F42B1802C0DA
S1130C10982C212CA4FE10C0B60180E390E00E9421
S1130C207A06A2FE17C0A1FC03C088E790E002C0C8
S1130C3088E590E0B6010CC08A2D867859F0A1FEB3
S1130C4002C08BE201C080E2A7FC8DE2B60190E015
S1130C500E947A06891438F4B60180E390E00E9479
S1130C607A069A94F7CF8A94F301E80DF11D8081F6
S1130C70B60190E00E947A068110F5CF222009F493
S1130C8042CEB60180E290E00E947A062A94F6CF22
S1130C90F6018681978102C08FEF9FEF2B96CDBF1F
S1130CA0DEBFDF91CF911F910F91FF90EF90DF9006
S1130CB0CF90BF90AF909F908F907F906F905F90F8
S1130CC04F903F902F900895FC0105906150704023
S1130CD00110D8F7809590958E0F9F1F0895FC0101
S1130CE06150704001900110D8F7809590958E0F57
S1130CF09F1F08950F931F93CF93DF93FB012381CD
S1130D0021FD03C08FEF9FEF2CC022FF16C0468148
S1130D105781248135814217530744F4A081B1815E
S1130D209D012F5F3F4F208331838C932681378130
S1130D302F5F3F4F2683378314C08B01EC01FB01E7
S1130D400084F185E02D0995892BE1F6D8011696EA
S1130D508D919C911797019616968D939C93179756
S1130D60CE01DF91CF911F910F910895FA01AA2727
S1130D70283051F1203181F1E8946F936E7F6E5FDA
S1130D807F4F8F4F9F4FAF4FB1E03ED0B4E03CD088
S1130D90670F781F891F9A1FA11D680F791F8A1F6B
S1130DA0911DA11D6A0F711D811D911DA11D20D0D2
S1130DB009F468943F912AE0269F11243019305D8C
S1130DC03193DEF6CF010895462F4770405D41937D
S1130DD0B3E00FD0C9F7F6CF462F4F70405D4A33CA
S1130DE018F0495D31FD4052419302D0A9F7EACF92
S1130DF0B4E0A6959795879577956795BA95C9F7C1
S1130E0000976105710508959B01AC010A2E0694B3
S1130E105795479537952795BA95C9F7620F731F6C
S1130E20841F951FA01D0895DC0128ED2093340034
S10B0E306C930895F894FFCFC0
S1130E3800000741200025732E7478743D22257321
S1130E48222563256325630A006765742025732EAC
S1130E5825732E25732563256325630025732E25A5
S1130E68732E7478743D22257322256325632563C4
S1130E780076616C006E30006D6375006E3100742D
S1130E887874007432007433006E657700256C75CD
S1050E98000054
S9030000FC
