S01900007265715F7265735F70726F746F747970652E73726563C5
S11300000C947A000C9499000C9499000C94990027
S11300100C9499000C9499000C9499000C949900F8
S11300200C9499000C9449010C9499000C94990037
S11300300C9499000C9499000C9499000C949900D8
S11300400C9499000C9499000C9499000C949900C8
S11300500C9499000C9499000C9499000C949900B8
S11300600C9499000C9499000C9499000C949900A8
S11300700C9499000C9499000C9499000C94990098
S11300800C9499000C9499000C9499000C94990088
S11300900C9499000C9499000C9410020C949900FF
S11300A00C9499000C9499000C9499000C94990068
S11300B00C9499000C9499000C9499000C94990058
S11300C00C9499000C9499000C9499000C94990048
S11300D00C9499000C94BE010C9499000C94990012
S11300E00C9499000C9499000C9499000C94990028
S11300F00C94990011241FBECFEFCDBFDFE7DEBF04
S113010010E4A0E0B0E4EEE5FCE000E00BBF02C0C8
S113011007900D92A435B107D9F721E4A4E5B0E422
S113012001C01D92A738B207E1F70E94FF020C94A8
S11301302D060C940000E0E2F4E088E081838481E1
S1130140886084830895E0EEF5E082811282E0E223
S1130150F4E081E0818382E08283E0E6F8E080E1FC
S113016097E28087918780EC868380E88583089571
S1130170DC0120E030E00CC09091640895FFFCCFD6
S1130180FD01E40FF51F8081809362082F5F3F4FCC
S1130190FD0101900020E9F73197EA1BFB0BA9014F
S11301A02E173F0748F38091640885FFFCCF8CE04D
S11301B080936208089580E18093E205E0EAF4E028
S11301C0818380E28283E0E4F8E080E197E2808743
S11301D0918780EC868380E8858308950F93CF937D
S11301E0DF93CDB7DEB7E297CDBFDEBF0023D9F0F2
S11301F01F922FEF2F931F922F931F922F935F9392
S11302004F937F936F939F938F9380E090E49F939A
S11302108F93CE0101969F938F930E944A03AC0162
S1130220CDBFDEBF1AC01F924FEF4F931F924F9363
S11302301F924F933F932F937F936F939F938F932B
S113024083E190E49F938F93CE0101969F938F93C4
S11302500E944A03AC01CDBFDEBF20E030E00FC0F6
S11302609091440895FFFCCFE1E0F0E0EC0FFD1F16
S1130270E20FF31F9081909342082F5F3F4F2417A2
S1130280350774F3E296CDBFDEBFDF91CF910F91B6
S113029008951F920F920FB60F9211240BB60F926E
S11302A00F932F933F934F935F936F937F938F930A
S11302B09F93AF93BF93EF93FF938091554091E049
S11302C0980F909355408370813091F028F08230DC
S11302D0D9F0833029F130C001E020E030E048E279
S11302E050E46CE270E48FE290E40E94EE002FC0D0
S11302F001E020E030E048E250E463E370E48FE2A0
S113030090E40E94EE0023C001E020E030E046E3E8
S113031050E46AE370E48FE290E40E94EE0017C0B8
S113032001E020E030E046E350E46DE370E48FE266
S113033090E40E94EE000BC001E020E030E048E2CF
S113034050E46CE270E48FE290E40E94EE0081E0FD
S113035080930B0AFF91EF91BF91AF919F918F9181
S11303607F916F915F914F913F912F910F910F90DA
S11303700BBE0F900FBE0F901F9018951F920F92F7
S11303800FB60F9211240BB60F928F939F93AF93D6
S1130390BF93EF93FF9380916008882381F090913D
S11303A0584091110CC01092544091E090935840E1
S11303B092E3EBE5F0E4DF011D929A95E9F7909161
S11303C05840992301F1E091544091E09E0F90939D
S11303D05440F0E0E55AFF4B80838D3061F4E92FFF
S11303E0F0E0E65AFF4B10821092584010925440AD
S11303F081E08093564080915440823320F01092E3
S1130400544010925840FF91EF91BF91AF919F914A
S11304108F910F900BBE0F900FBE0F901F901895E9
S11304201F920F920FB60F9211240BB60F922F93B7
S11304308F939F93AF93BF93EF93FF939091400853
S1130440992381F08091594081110CC010925A4037
S113045081E08093594082E3EDE8F0E4DF011D92EE
S11304608A95E9F780915940882371F1E0915A40C7
S113047081E08E0F80935A40F0E0E357FF4B908366
S11304808330D0F090E0FC01E457FF4B20812F3FF4
S113049099F4FC01E557FF4B20812F3F69F4FC01DF
S11304A0E657FF4B80818F3F39F4109259401092E8
S11304B05A4081E08093574080915A40823320F023
S11304C010925A4010925940FF91EF91BF91AF9111
S11304D09F918F912F910F900BBE0F900FBE0F9095
S11304E01F901895CF93DF93DC0182E3E3E2F1E4FC
S11304F0EF0119928A95E9F7FD0101900020E9F7CF
S11305003197BF016A1B7B0B8C918037B1F40BC010
S1130510FD01E20FF31F9081F901EE5DFE4B908324
S11305202F5F3F4F02C021E030E0AB01552744501C
S113053051094217530764F73CC08137D1F511962E
S11305402C9111971396EC91139714968C91149700
S1130550482F50E060E070E012963C91B62FA52F32
S1130560942F88278E0F911DA11DB11DBA2FA92F7D
S1130570982F8827830F911DA11DB11DBA2FA92F74
S1130580982F8827820F911DA11DB11DBF93AF9392
S11305909F938F9380E490E49F938F9383E291E4FD
S11305A09F938F930E944A038DB79EB708968DBF81
S11305B09EBFDF91CF91089522E3E1EFF0E4DF01E4
S11305C01D922A95E9F7BC01CF010E94430364E41C
S11305D070E481EF90E40E943A03892B21F488E0CF
S11305E08093260408956BE470E481EF90E40E9404
S11305F03A03892B19F488E080932504089564E272
S113060088E690E00E9427060E949B000E94A300B7
S11306100E94DB007894809157408823A9F0C0E4BD
S1130620D8E08E818F778E838D818F778D838DE84F
S113063090E40E94720283E291E40E94B800109256
S1130640574080E88E838D8380915640882319F328
S1130650C0E6D8E08E818F778E838D818F778D83EE
S11306608BE590E40E94DC021092564080E88E8371
S11306708D83D1CFFB01DC018D9101908019011094
S1130680D9F3990B0895FB01DC0101900D92002030
S1130690E1F708950F931F93CF93DF93CDB7DEB7A0
S11306A02E97CDBFDEBF0D891E8986E08C8309831A
S11306B01A838FEF9FE78D839E83AE01475E5F4F62
S11306C06F89788DCE0101960E947303EF81F885BE
S11306D0E00FF11F10822E96CDBFDEBFDF91CF91C8
S11306E01F910F9108952F923F924F925F926F92B4
S11306F07F928F929F92AF92BF92CF92DF92EF92AE
S1130700FF920F931F93CF93DF93CDB7DEB72B9751
S1130710CDBFDEBF6C017B018A01FC01168217820A
S1130720838181FFCCC1CE0101963C01F601938106
S1130730F70193FD859193FF81917F01882309F44B
S1130740BAC1853239F493FD859193FF81917F017C
S1130750853229F4B60190E00E948D05E7CF912CF3
S1130760212C312CFFE1F315D8F08B3279F038F4D9
S1130770803279F08332A1F4232D20611DC08D32A3
S113078061F0803369F4232D216016C0832D8260CB
S1130790382EE32DE4603E2E2AC0F32DF8601DC0F0
S11307A037FC2DC020ED280F2A3040F08E32B9F4EA
S11307B036FC81C1232D2064322E19C036FE06C0BA
S11307C08AE0989E200D1124922E11C0EAE02E9EFC
S11307D0200D1124222EF32DF0623F2E08C08C36FA
S11307E021F4832D8068382E02C0883641F4F70145
S11307F093FD859193FF81917F018111B3CF982F50
S11308009F7D9554933028F40C5F1F4F9FE3998389
S11308100DC0833631F0833771F0833509F059C048
S113082021C0F801808189830E5F1F4F882483943F
S1130830912C530113C02801F2E04F0E511CF80112
S1130840A080B18036FE03C0692D70E002C06FEF56
S11308507FEFC5010E9482054C018201F32DFF77D1
S11308603F2E16C0280122E0420E511CF801A08040
S1130870B18036FE03C0692D70E002C06FEF7FEFD8
S1130880C5010E9477054C01F32DF0683F2E8201CB
S113089033FC1BC0822D90E088169906B0F4B60193
S11308A080E290E00E948D052A94F4CFF50137FC94
S11308B0859137FE81915F01B60190E00E948D051C
S11308C021102A9421E0821A91088114910471F76D
S11308D0E8C0843611F0893641F5F80137FE07C0C7
S11308E060817181828193810C5F1F4F08C0608198
S11308F07181072E000C880B990B0E5F1F4FF32D8F
S1130900FF763F2E97FF09C090958095709561956D
S11309107F4F8F4F9F4FF0683F2E2AE030E0A301B6
S11309200E94C905882E861845C0853731F4232DC9
S11309302F7EB22E2AE030E025C0932D997FB92E68
S11309408F36C1F018F4883579F0B5C0803719F0C6
S1130950883721F0B0C0E92FE061BE2EB4FE0DC08F
S1130960FB2DF460BF2E09C034FE0AC0292F266077
S1130970B22E06C028E030E005C020E130E002C01D
S113098020E132E0F801B7FE07C060817181828105
S113099093810C5F1F4F06C06081718180E090E0FD
S11309A00E5F1F4FA3010E94C905882E8618FB2DD8
S11309B0FF773F2E36FE0DC0232D2E7FA22E8914E5
S11309C058F434FE0BC032FC09C0832D8E7EA82E51
S11309D005C0B82CA32C03C0B82C01C0B92CA4FEAC
S11309E00FC0FE01E80DF11D8081803321F49A2DA2
S11309F0997EA92E09C0A2FE06C0B394B39404C084
S1130A008A2D867809F0B394A3FC11C0A0FE06C019
S1130A10B21488F4280C922C9B180EC0B21460F403
S1130A20B60180E290E00E948D05B394F7CFB21432
S1130A3018F42B1802C0982C212CA4FE10C0B60167
S1130A4080E390E00E948D05A2FE17C0A1FC03C0C4
S1130A5088E790E002C088E590E0B6010CC08A2DDA
S1130A60867859F0A1FE02C08BE201C080E2A7FCA7
S1130A708DE2B60190E00E948D05891438F4B60128
S1130A8080E390E00E948D059A94F7CF8A94F30155
S1130A90E80DF11D8081B60190E00E948D05811062
S1130AA0F5CF222009F442CEB60180E290E00E9404
S1130AB08D052A94F6CFF6018681978102C08FEFC7
S1130AC09FEF2B96CDBFDEBFDF91CF911F910F918A
S1130AD0FF90EF90DF90CF90BF90AF909F908F905A
S1130AE07F906F905F904F903F902F900895FC01FE
S1130AF00590615070400110D8F7809590958E0F45
S1130B009F1F0895FC016150704001900110D8F7B7
S1130B10809590958E0F9F1F08950F931F93CF93E9
S1130B20DF93FB01238121FD03C08FEF9FEF2CC0D6
S1130B3022FF16C04681578124813581421753070D
S1130B4044F4A081B1819D012F5F3F4F2083318305
S1130B508C93268137812F5F3F4F2683378314C0C0
S1130B608B01EC01FB010084F185E02D0995892BB3
S1130B70E1F6D80116968D919C91179701961696D9
S1130B808D939C931797CE01DF91CF911F910F9175
S1130B900895FA01AA27283051F1203181F1E8940F
S1130BA06F936E7F6E5F7F4F8F4F9F4FAF4FB1E05C
S1130BB03ED0B4E03CD0670F781F891F9A1FA11D57
S1130BC0680F791F8A1F911DA11D6A0F711D811D58
S1130BD0911DA11D20D009F468943F912AE0269F1D
S1130BE011243019305D3193DEF6CF010895462F7C
S1130BF04770405D4193B3E00FD0C9F7F6CF462F5D
S1130C004F70405D4A3318F0495D31FD40524193C5
S1130C1002D0A9F7EACFB4E0A69597958795779582
S1130C206795BA95C9F700976105710508959B0109
S1130C30AC010A2E06945795479537952795BA9592
S1130C40C9F7620F731F841F951FA01D0895DC014F
S1110C5028ED209334006C930895F894FFCFA0
S1130C5E6765742025732E25732E257325632563EE
S1130C6E25630025732E25732E7478743D22257307
S1130C7E222563256325630076616C006E30006D5A
S1130C8E6375006E3100747874007432007433002E
S1130C9E256C75006C6564206F6E006C6564206F46
S1070CAE6666000072
S9030000FC
