S01900007265715F7265735F70726F746F747970652E73726563C5
S11300000C9482000C94A1000C94A1000C94A10007
S11300100C94A1000C94A1000C94A1000C94A100D8
S11300200C94A1000C94B6000C94A1000C94A100B3
S11300300C94A1000C94A1000C94A1000C94A100B8
S11300400C94A1000C94A1000C94A1000C94A100A8
S11300500C94A1000C94A1000C94A1000C94A10098
S11300600C94A1000C94A1000C94A1000C94A10088
S11300700C94A1000C94A1000C94A1000C94A10078
S11300800C9495060C94A1000C94A1000C94A1006E
S11300900C94A1000C94A1000C94A1000C94A10058
S11300A00C94A1000C94A1000C94A1000C94A10048
S11300B00C94A1000C94A1000C94A1000C94A10038
S11300C00C94A1000C94A1000C94A1000C94A10028
S11300D00C94A1000C949E030C94A1000C94A10018
S11300E00C94A1000C94A1000C94A1000C94A10008
S11300F00C94A1000C94A1000C94A1000C94A100F8
S11301000C94A10011241FBECFEFCDBFDFE7DEBFEB
S113011013E4A0E0B0E4E0E2F7E100E00BBF02C0CA
S113012007900D92AA30B107D9F724E4AAE0B3E40A
S113013001C01D92AD34B207E1F70E9417020C947E
S11301408E0B0C940000E0E2F4E088E0818384816B
S1130150886084830895E0E0FAE08CE89BE586A358
S113016097A381E082878FE0808308951F920F9286
S11301700FB60F9211240BB60F92CF92DF92EF922B
S1130180FF920F931F932F933F934F935F936F931C
S11301907F938F939F93AF93BF93EF93FF93C090FD
S11301A02740D0902840E0902940F0902A40D70181
S11301B0C60183709927AA27BB27892B8A2B8B2BEF
S11301C061F4C701B60124E630E040E050E00E944B
S11301D02307672B682B692B61F4C701B60120E95B
S11301E031E040E050E00E942307672B682B692B25
S11301F021F48DE18093084003C08CE18093084092
S11302008091134090911440A0911540B0911640F4
S11302100196A11DB11D8093134090931440A093A7
S11302201540B0931640CC97A105B105D8F0809144
S1130230174090911840A0911940B0911A4001962E
S1130240A11DB11D8093174090931840A0931940AD
S1130250B0931A401092134010921440109215401B
S1130260109216408091174090911840A091194027
S1130270B0911A40CC97A105B105D8F080911B40EC
S113028090911C40A0911D40B0911E400196A11D6B
S1130290B11D80931B4090931C40A0931D40B093CC
S11302A01E4010921740109218401092194010925C
S11302B01A4080911B4090911C40A0911D40B09128
S11302C01E404897A105B105D8F080911F40909138
S11302D02040A0912140B09122400196A11DB11D62
S11302E080931F4090932040A0932140B0932240DC
S11302F010921B4010921C4010921D4010921E4000
S113030040912340509124406091254070912640B3
S1130310FA01EA5FFF4B808190E0A0E0B0E0009139
S11303201F40109120402091214030912240081715
S113033019072A073B07C0F04F5F5F4F6F4F7F4F8E
S1130340409323405093244060932540709326406B
S113035081E090E0A0E0B0E080931F4090932040C3
S1130360A0932140B0932240809123409091244057
S1130370A0912540B09126400C97A105B105C8F085
S11303802FEFC21AD20AE20AF20AC0922740D09290
S11303902840E0922940F0922A4081E090E0A0E0D9
S11303A0B0E08093234090932440A0932540B093E1
S11303B0264080910A4390910B43A0910C43B09145
S11303C00D430196A11DB11D80930A4390930B43E5
S11303D0A0930C43B0930D4384389340A105B10519
S11303E050F00E94B10510920A4310920B431092F0
S11303F00C4310920D4381E080930B0AFF91EF911F
S1130400BF91AF919F918F917F916F915F914F9128
S11304103F912F911F910F91FF90EF90DF90CF901C
S11304200F900BBE0F900FBE0F901F90189564E2B3
S113043088E690E00E94880B0E94A3000E9451026B
S11304400E941D040E94AB00789483E091E40E9412
S1130450660280911943882331F085EE93E40E946B
S113046044051092194380911843882331F083EB9B
S113047093E40E94890210921843809117438823C1
S113048061F002E027E330E440E050E06AE370E426
S11304908DE390E40E943004DCCF81E08093C604B5
S11304A0D8CFE0EEF5E082811282E0E2F4E081E070
S11304B0818382E08283E0E6F8E080E197E280874E
S11304C0918780EC868380E885830895DC0120E0B1
S11304D030E00CC09091640895FFFCCFFD01E40F5F
S11304E0F51F8081809362082F5F3F4FFD010190CB
S11304F00020E9F73197EA1BFB0BA9012E173F07F0
S113050048F38091640885FFFCCF8DE080936208F6
S113051008950F931F93CF93DF93CDB7DEB7C456DF
S1130520D109CDBFDEBF62E470E483EB93E40E94A3
S11305308408892B21F488E080932604F6C069E4BA
S113054070E483EB93E40E948408892B21F488E00F
S113055080932504EAC061E570E483EB93E40E9490
S11305608408892B29F483E091E40E946602DDC0AB
S113057066E570E483EB93E40E948408892B69F5B3
S1130580809115438F93809114438F9380911343EB
S11305908F93809112438F938BE290E49F938F9378
S11305A0809136408F93809135408F938091344071
S11305B08F93809133408F938FE590E49F938F9333
S11305C08E010F5F1F4F1F930F930E94AB08C8014A
S11305D00E946602CDBFDEBFA8C060E870E483EB72
S11305E093E40E948408892B09F059C08091164035
S11305F08F93809115408F93809114408F938091B5
S113060013408F9380911A408F93809119408F9358
S1130610809118408F93809117408F9380911E4052
S11306208F9380911D408F9380911C408F93809174
S11306301B408F9380912A408F93809129408F9300
S1130640809128408F93809127408F9380912240FE
S11306508F93809121408F93809120408F9380913C
S11306601F408F93809126408F93809125408F93D4
S1130670809124408F93809123408F9389E890E464
S11306809F938F938E010F5F1F4F1F930F930E94B1
S1130690AB08C8010E946602CDBFDEBF46C06FEB47
S11306A070E483EB93E40E948408892B61F404E0F2
S11306B020E030E040E050E060E070E089EC90E45D
S11306C00E94300432C066ED70E483EB93E40E9430
S11306D08408892B61F404E020E030E040E050E03D
S11306E060E070E08CED90E40E9430041EC06BEE7C
S11306F070E483EB93E40E948408892B61F402E0A4
S113070021EF30E440E050E064EF70E48DE390E4E6
S11307100E9430040AC067EF70E483EB93E40E9404
S11307208408892B11F40E94B105CC59DF4FCDBF49
S1130730DEBFDF91CF911F910F9108951F920F9209
S11307400FB60F9211240BB60F922F933F934F9332
S11307505F936F937F938F939F93AF93BF93CF9345
S1130760DF93EF93FF9380916008882381F0909149
S11307701A4391110CC01092164391E090931A43BE
S113078092E3EDE1F3E4DF011D929A95E9F790918C
S11307901A439923E9F1E091164391E09E0F909357
S11307A01643F0E0E35EFC4B80838D3031F5C0E608
S11307B0D8E08E818F778E838D818F778D83E92F1B
S11307C0F0E0E45EFC4B108210921A431092164340
S11307D081E08093184382E3E3EBF3E4DF011D92AD
S11307E08A95E9F76DE173E4CF010E948D088E814B
S11307F080688E838D8180688D83809116438233D7
S113080038F01092164310921A4381E080931843F3
S1130810FF91EF91DF91CF91BF91AF919F918F9114
S11308207F916F915F914F913F912F910F900BBEEC
S11308300F900FBE0F901F9018951092E205E0E400
S1130840F4E081E0818382E08283E0E2F8E080E109
S113085097E28087918780EC868380E8858308957A
S1130860DF92EF92FF920F931F93CF93DF93CDB755
S1130870DEB7E297CDBFDEBFE82ED92E162FF72EB6
S1130880822F932F0130D9F41F928FEF8F931F92F1
S11308908F931F928F935F934F937F936F93DF9206
S11308A0EF9284EA92E49F938F93CE0101969F93F3
S11308B08F930E94AB08AC01CDBFDEBF70C0023085
S11308C0D9F41F924FEF4F931F924F931F924F9360
S11308D03F932F937F936F93DF92EF9287EB92E492
S11308E09F938F93CE0101969F938F930E94AB08A1
S11308F0AC01CDBFDEBF53C00330E9F40E946608EB
S11309001F922FEF2F931F922F931F922F939F933A
S11309108F93FF921F93DF92EF928CEC92E49F935C
S11309208F93CE0101969F938F930E94AB08AC01E5
S1130930CDBFDEBF34C00430B9F41F928FEF8F9364
S11309401F928F931F928F93DF92EF928FED92E419
S11309509F938F93CE0101969F938F930E94AB0830
S1130960AC01CDBFDEBF1BC00530B9F41F928FEFC1
S11309708F931F928F931F928F937F936F938DEE1C
S113098092E49F938F93CE0101969F938F930E943D
S1130990AB08AC01CDBFDEBF02C040E050E020E0B8
S11309A030E00FC09091240895FFFCCFE1E0F0E027
S11309B0EC0FFD1FE20FF31F9081909322082F5F2D
S11309C03F4F2417350774F3E296CDBFDEBFDF91A6
S11309D0CF911F910F91FF90EF90DF900895EF92C8
S11309E0FF920F931F93CF93DF938C01EC01099037
S11309F00020E9F72197C81BD90BCE0103970E9469
S1130A0045077C01AE014F5F5F4FB8016F5F7F4FB9
S1130A100E9494082497CE0DDF1D1882C701DF9130
S1130A20CF911F910F91FF90EF9008950F931F9313
S1130A30FC0121816281862F90E0A0E0B0E0BA2F12
S1130A40A92F982F8827822B038110E020E030E023
S1130A50980111270027AC01BD01402B512B622BBB
S1130A60732B848190E0A0E0B0E0B82FAA279927E7
S1130A7088278A019B01082B192B2A2B3B2BC901A0
S1130A80B8011F910F9108950F931F93CF93DF9394
S1130A90CDB7DEB7E297CDBFDEBFFC0190819037C2
S1130AA031F4CF010E94EF040E94660252C09137D4
S1130AB0C1F4CF010E9416059F938F937F936F9388
S1130AC080E093E49F938F938E010F5F1F4F1F93DA
S1130AD00F930E94AB08C8010E946602CDBFDEBF1F
S1130AE038C09033B1F1913321F481E080931743FE
S1130AF030C0923319F4109217432BC0933319F476
S1130B001092174326C0943361F4CF010E94160556
S1130B1060933340709334408093354090933640D3
S1130B2018C0953349F4CF010E94EF04BC018BE255
S1130B3090E40E948D080DC0963359F4CF010E94B1
S1130B401605609312437093134380931443909358
S1130B501543E296CDBFDEBFDF91CF911F910F9178
S1130B600895CF92DF92EF92FF920F931F93CF934A
S1130B70DF93CDB7DEB7E297CDBFDEBF81E090E073
S1130B80A0E0B0E080930E4390930F43A0931043F2
S1130B90B0931143E12CF12CAFC0809111438F939A
S1130BA0809110438F9380910F438F9380910E43D4
S1130BB08F938AEF92E49F938F93CE0101966C01F9
S1130BC09F938F930E94AB08C6010E946602FF9216
S1130BD0EF9284E093E49F938F93DF92CF920E94ED
S1130BE0AB0805E020E030E040E050E0B60180E0F2
S1130BF090E00E943004CDBFDEBF8091194388236A
S1130C00E1F38091E543813709F05EC085EE93E41A
S1130C100E94160500910E4310910F43209110433A
S1130C2030911143033011052105310551F158F478
S1130C30013011052105310591F00230110521051E
S1130C403105B1F041C0053011052105310559F1D7
S1130C5008F1063011052105310571F135C06093A5
S1130C602740709328408093294090932A402CC0B9
S1130C7060932340709324408093254090932640B2
S1130C8023C060931F407093204080932140909331
S1130C9022401AC060931B4070931C4080931D40F7
S1130CA090931E4011C06093174070931840809336
S1130CB0194090931A4008C06093134070931440F5
S1130CC080931540909316401092194380910E43DF
S1130CD090910F43A0911043B09111430196A11D2F
S1130CE0B11D80930E4390930F43A0931043B09390
S1130CF011439FEFE91AF90A86E0E816F1040CF4AF
S1130D004CCF10920E4310920F4310921043109246
S1130D101143E296CDBFDEBFDF91CF911F910F91BA
S1130D20FF90EF90DF90CF9008951F920F920FB62F
S1130D300F9211240BB60F922F933F934F935F930F
S1130D406F937F938F939F93AF93BF93CF93DF93CF
S1130D50EF93FF9390912008992381F080911B4396
S1130D6081110CC010921C4381E080931B4382E3E9
S1130D70EFE4F3E4DF011D928A95E9F780911B43C8
S1130D80882309F44BC0E0911C4381E08E0F8093CB
S1130D901C43F0E0E15BFC4B90838330A0F190E0D6
S1130DA0FC01E25BFC4B20812F3F69F5FC01E35B16
S1130DB0FC4B20812F3F39F5FC01E45BFC4B808127
S1130DC08F3F09F5C0E2D8E08E818F778E838D81C5
S1130DD08F778D8382E3E5EEF3E4DF011D928A953C
S1130DE0E9F76FE473E4CF010E948D0810921B436E
S1130DF010921C4381E0809319438E8180688E8316
S1130E008D8180688D8380911C43823338F01092E9
S1130E101C4310921B4381E080931943FF91EF918F
S1130E20DF91CF91BF91AF919F918F917F916F91FE
S1130E305F914F913F912F910F900BBE0F900FBE7A
S1130E400F901F901895A1E21A2EAA1BBB1BFD013F
S1130E500DC0AA1FBB1FEE1FFF1FA217B307E40795
S1130E60F50720F0A21BB30BE40BF50B661F771FED
S1130E70881F991F1A9469F76095709580959095CD
S1130E809B01AC01BD01CF0108950F931F93CF9334
S1130E90DF938230910510F482E090E0E0914B44BE
S1130EA0F0914C4420E030E0A0E0B0E0309719F13C
S1130EB0408151810281138148175907C8F0841772
S1130EC0950769F4109731F012960C9312971396C4
S1130ED01C9327C000934B4410934C4422C021150B
S1130EE0310519F04217530718F49A01BD01EF01B7
S1130EF0DF01F801DBCF21153105F9F0281B390B8F
S1130F002430310580F48A819B816115710521F0BB
S1130F10FB018283938304C080934B4490934C449D
S1130F20FE01329644C0FE01E20FF31F81939193B8
S1130F3022503109288339833AC0209149443091A1
S1130F404A44232B41F420910240309103402093E2
S1130F50494430934A442091004030910140211586
S1130F60310541F42DB73EB74091044050910540FE
S1130F70241B350BE0914944F0914A44E217F307EE
S1130F80A0F42E1B3F0B2817390778F0AC014E5FF5
S1130F905F4F2417350748F04E0F5F1F40934944B5
S1130FA050934A448193919302C0E0E0F0E0CF0172
S1130FB0DF91CF911F910F910895CF93DF93009705
S1130FC009F481C0FC01329712821382A0914B4430
S1130FD0B0914C44109781F420813181820F931F8A
S1130FE02091494430914A442817390751F5E09338
S1130FF04944F0934A4467C0ED0120E030E0CE1745
S1131000DF0740F44A815B819E0141155105F1F0EF
S1131010EA01F5CFC283D38340815181840F951FA8
S1131020C817D90759F488819981840F951F0296AE
S1131030808391838A819B818283938321153105E7
S113104029F4E0934B44F0934C443DC0E901EA8316
S1131050FB8349915991C40FD51FEC17FD0761F427
S113106080819181840F951F0296E9018883998379
S1131070828193818A839B83E0E0F0E012968D91D4
S11310809C911397009719F0FD01DC01F7CF8D9126
S11310909C9111979D012E5F3F4F820F931F2091CA
S11310A0494430914A442817390769F4309729F4A0
S11310B010924B4410924C4402C012821382A093AB
S11310C04944B0934A44DF91CF910895FC018827A5
S11310D09927E89421912032E9F3293010F02E3039
S11310E0C8F32B3241F02D3239F4689404C00E94C5
S11310F0A308820F911D219120532A30C0F31EF4BE
S1131100909581959F4F0895FB01DC018D9101908D
S113111080190110D9F3990B0895FB01DC010190AA
S11311200D920020E1F70895FB01DC01415050408D
S113113048F001900D920020C9F701C01D92415062
S11311405040E0F708957AE0979F902D879F802D77
S1131150910D112408950F931F93CF93DF93CDB76F
S1131160DEB72E97CDBFDEBF0D891E8986E08C8346
S113117009831A838FEF9FE78D839E83AE01475EB9
S11311805F4F6F89788DCE0101960E94D408EF815C
S1131190F885E00FF11F10822E96CDBFDEBFDF91E0
S11311A0CF911F910F9108952F923F924F925F928A
S11311B06F927F928F929F92AF92BF92CF92DF9263
S11311C0EF92FF920F931F93CF93DF93CDB7DEB7C8
S11311D02B97CDBFDEBF6C017B018A01FC01168217
S11311E01782838181FFCCC1CE0101963C01F601B7
S11311F09381F70193FD859193FF81917F0188236A
S113120009F4BAC1853239F493FD859193FF819134
S11312107F01853229F4B60190E00E94EE0AE7CFFF
S1131220912C212C312CFFE1F315D8F08B3279F07D
S113123038F4803279F08332A1F4232D20611DC06B
S11312408D3261F0803369F4232D216016C0832D23
S11312508260382EE32DE4603E2E2AC0F32DF86020
S11312601DC037FC2DC020ED280F2A3040F08E32EF
S1131270B9F436FC81C1232D2064322E19C036FE08
S113128006C08AE0989E200D1124922E11C0EAE037
S11312902E9E200D1124222EF32DF0623F2E08C025
S11312A08C3621F4832D8068382E02C0883641F4B0
S11312B0F70193FD859193FF81917F018111B3CF54
S11312C0982F9F7D9554933028F40C5F1F4F9FE314
S11312D099830DC0833631F0833771F0833509F07B
S11312E059C021C0F801808189830E5F1F4F882473
S11312F08394912C530113C02801F2E04F0E511C2A
S1131300F801A080B18036FE03C0692D70E002C0F0
S11313106FEF7FEFC5010E94E30A4C018201F32DB8
S1131320FF773F2E16C0280122E0420E511CF8011F
S1131330A080B18036FE03C0692D70E002C06FEF5B
S11313407FEFC5010E94D80A4C01F32DF0683F2EAF
S1131350820133FC1BC0822D90E088169906B0F4FC
S1131360B60180E290E00E94EE0A2A94F4CFF501DF
S113137037FC859137FE81915F01B60190E00E94B0
S1131380EE0A21102A9421E0821A91088114910412
S113139071F7E8C0843611F0893641F5F80137FE5B
S11313A007C060817181828193810C5F1F4F08C0E7
S11313B060817181072E000C880B990B0E5F1F4F03
S11313C0F32DFF763F2E97FF09C090958095709579
S11313D061957F4F8F4F9F4FF0683F2E2AE030E09A
S11313E0A3010E942A0B882E861845C0853731F444
S11313F0232D2F7EB22E2AE030E025C0932D997F35
S1131400B92E8F36C1F018F4883579F0B5C080371D
S113141019F0883721F0B0C0E92FE061BE2EB4FE88
S11314200DC0FB2DF460BF2E09C034FE0AC0292F65
S11314302660B22E06C028E030E005C020E130E08E
S113144002C020E132E0F801B7FE07C0608171817B
S1131450828193810C5F1F4F06C06081718180E09F
S113146090E00E5F1F4FA3010E942A0B882E86185E
S1131470FB2DFF773F2E36FE0DC0232D2E7FA22E8F
S1131480891458F434FE0BC032FC09C0832D8E7EBF
S1131490A82E05C0B82CA32C03C0B82C01C0B92CAD
S11314A0A4FE0FC0FE01E80DF11D8081803321F4FC
S11314B09A2D997EA92E09C0A2FE06C0B394B394B6
S11314C004C08A2D867809F0B394A3FC11C0A0FE51
S11314D006C0B21488F4280C922C9B180EC0B214C7
S11314E060F4B60180E290E00E94EE0AB394F7CF74
S11314F0B21418F42B1802C0982C212CA4FE10C08E
S1131500B60180E390E00E94EE0AA2FE17C0A1FC9F
S113151003C088E790E002C088E590E0B6010CC003
S11315208A2D867859F0A1FE02C08BE201C080E2C8
S1131530A7FC8DE2B60190E00E94EE0A891438F40B
S1131540B60180E390E00E94EE0A9A94F7CF8A9461
S1131550F301E80DF11D8081B60190E00E94EE0ACE
S11315608110F5CF222009F442CEB60180E290E04A
S11315700E94EE0A2A94F6CFF6018681978102C072
S11315808FEF9FEF2B96CDBFDEBFDF91CF911F91E1
S11315900F91FF90EF90DF90CF90BF90AF909F900E
S11315A08F907F906F905F904F903F902F90089511
S11315B0FC010590615070400110D8F7809590951A
S11315C08E0F9F1F0895FC0161507040019001101F
S11315D0D8F7809590958E0F9F1F08950F931F93B2
S11315E0CF93DF93FB01238121FD03C08FEF9FEF96
S11315F02CC022FF16C046815781248135814217B1
S1131600530744F4A081B1819D012F5F3F4F208394
S113161031838C93268137812F5F3F4F2683378315
S113162014C08B01EC01FB010084F185E02D0995C8
S1131630892BE1F6D80116968D919C911797019606
S113164016968D939C931797CE01DF91CF911F919E
S11316500F910895FA01AA27283051F1203181F120
S1131660E8946F936E7F6E5F7F4F8F4F9F4FAF4FA6
S1131670B1E03ED0B4E03CD0670F781F891F9A1FB9
S1131680A11D680F791F8A1F911DA11D6A0F711D6D
S1131690811D911DA11D20D009F468943F912AE079
S11316A0269F11243019305D3193DEF6CF01089561
S11316B0462F4770405D4193B3E00FD0C9F7F6CF92
S11316C0462F4F70405D4A3318F0495D31FD40525A
S11316D0419302D0A9F7EACFB4E0A69597958795F0
S11316E077956795BA95C9F70097610571050895CF
S11316F09B01AC010A2E069457954795379527957B
S1131700BA95C9F7620F731F841F951FA01D089512
S1131710DC0128ED209334006C930895F894FFCFF6
S113172000004D442000001F1C1F1E1F1E1F1F1EF3
S11317301F1E1F0100000001000000010000000145
S113174000000001000000E90700002F736563003A
S11317500000000A000000686900743500686F6DBD
S113176065006C6564206F6E006C6564206F66664E
S11317700068656C700073657474696E67730052F9
S113178065636F7264696E6720526174653A2025DF
S11317906C752025730A4D6F64653A20256C7500BD
S11317A06765742074696D65004C6F63616C2074A7
S11317B0696D653A2025302E326C752F25302E3216
S11317C06C752F25302E346C752025302E326C75B7
S11317D03A25302E326C753A25302E326C75006302
S11317E068617220646F6E6500636861725F73750F
S11317F06363657373006661756C74006661756C10
S1131800745F6465746563746564006C6162656CBF
S1131810006F6B00743000757064617465207469C6
S11318206D65005465726D696E616C2046756E63FA
S113183074696F6E730A5F5F5F5F5F5F5F5F5F5FB7
S11318405F5F5F5F5F5F5F5F5F5F5F5F5F5F5F5FA4
S11318505F5F5F5F5F5F5F5F5F5F5F5F5F5F5F5F94
S11318605F5F5F5F5F5F5F5F5F5F5F5F5F5F5F5F84
S11318705F5F5F5F5F5F5F5F5F5F5F0A6C656420F0
S11318806F6E202020202020202020202D20547521
S1131890726E7320746865204C4544206F6E0A6C28
S11318A06564206F66662020202020202020202DC3
S11318B0205475726E7320746865204C4544206F03
S11318C066660A68656C7020202020202020202075
S11318D02020202D20446973706C61792061206D73
S11318E0656E75206F66207465726D696E616C201B
S11318F066756E6374696F6E730A73657474696E6A
S1131900677320202020202020202D20446973701C
S11319106C61792063757272656E7420736574747A
S1131920696E67730A6765742074696D6528574921
S113193050292020202D20446973706C6179206C1B
S11319406F63616C204D43552074696D650A63684B
S1131950617220646F6E65202020202020202D20BD
S113196053696D756C617465206368617261637439
S11319706572697A6174696F6E2066696E697368ED
S11319802C20676F20746F207265737065637469AF
S1131990766520706167650A6661756C7420202025
S11319A020202020202020202D20476F20746F200D
S11319B0746865206661756C745F646574656374CE
S11319C065640A006765742025732E25732E2573BC
S11319D02563256325630025732E25732E7478747F
S11319E03D222573222563256325630025732E2557
S11319F0732E76616C3D2564256325632563007031
S1131A006167652025732563256325630067657415
S1131A102025732563256325630066756E633A206C
S10D1A20256C7500727463256400E0
S9030000FC
