:100000000C947A000C9499000C9499000C9499002B
:100010000C9499000C9499000C9499000C949900FC
:100020000C9499000C94A3000C9499000C949900E2
:100030000C9499000C9499000C9499000C949900DC
:100040000C9499000C9499000C9499000C949900CC
:100050000C9499000C9499000C9499000C949900BC
:100060000C9499000C9499000C9499000C949900AC
:100070000C9499000C9499000C9499000C9499009C
:100080000C9499000C9499000C9499000C9499008C
:100090000C9499000C9499000C94A2030C94990070
:1000A0000C9499000C9499000C9499000C9499006C
:1000B0000C9499000C9499000C9499000C9499005C
:1000C0000C9499000C9499000C9499000C9499004C
:1000D0000C9499000C94A2010C9499000C94990032
:1000E0000C9499000C9499000C9499000C9499002C
:1000F0000C94990011241FBECFEFCDBFDFE7DEBF08
:1001000012E4A0E0B0E4E6EFF0E100E00BBF02C0D3
:1001100007900D92AC32B107D9F723E4ACE2B2E418
:1001200001C01D92A736B207E1F70E94B2000C94FD
:1001300079080C940000E0E2F4E088E08183848197
:100140008860848308951F920F920FB60F92112436
:100150008F9381E080930B0A8F910F900FBE0F90C9
:100160001F90189564E288E690E00E9473080E9450
:100170009B000E94E2000E94210278948DE690E4A8
:100180000E94F70080913342882331F08FEF92E490
:100190000E942F031092334280913242882331F023
:1001A0008DEC92E40E941A01109232428091314209
:1001B000882321F088E080932604E4CF88E08093B0
:1001C0002504E0CFE0EEF5E082811282E0E2F4E087
:1001D00081E0818382E08283E0E6F8E080E197E2DB
:1001E0008087918780EC868380E885830895DC0191
:1001F00020E030E00CC09091640895FFFCCFFD0139
:10020000E40FF51F8081809362082F5F3F4FFD014F
:1002100001900020E9F73197EA1BFB0BA9012E178B
:100220003F0748F38091640885FFFCCF8DE0809301
:10023000620808950F931F93CF93DF93CDB7DEB776
:10024000C456D109CDBFDEBF62E170E48DEC92E40B
:100250000E946F05892B21F488E08093260469C0F1
:1002600069E170E48DEC92E40E946F05892B21F422
:1002700088E0809325045DC061E270E48DEC92E437
:100280000E946F05892B29F48DE690E40E94F70007
:1002900050C066E270E48DEC92E40E946F05892BF9
:1002A00069F580912F428F9380912E428F93809198
:1002B0002D428F9380912C428F9386E090E49F9300
:1002C0008F93809111408F93809110408F938091F4
:1002D0000F408F9380910E408F938FE290E49F9315
:1002E0008F938E010F5F1F4F1F930F930E949605F0
:1002F000C8010E94F700CDBFDEBF1BC060E570E4FF
:100300008DEC92E40E946F05892B99F069E570E409
:100310008DEC92E40E946F05892B59F404E020E0F3
:1003200030E040E050E060E070E083E690E40E945E
:100330003402CC59DF4FCDBFDEBFDF91CF911F918B
:100340000F9108951F920F920FB60F9211240BB6C2
:100350000F922F933F934F935F936F937F938F935E
:100360009F93AF93BF93CF93DF93EF93FF938091CE
:100370006008882381F09091344291110CC0109252
:10038000304291E09093344292E3E7E3F2E4DF01FC
:100390001D929A95E9F7909134429923E9F1E09101
:1003A000304291E09E0F90933042F0E0E95CFD4BCB
:1003B00080838D3031F5C0E6D8E08E818F778E83D3
:1003C0008D818F778D83E92FF0E0EA5CFD4B108201
:1003D000109234421092304281E08093324282E3A4
:1003E000EDECF2E4DF011D928A95E9F767E372E430
:1003F000CF010E9478058E8180688E838D81806810
:100400008D8380913042823338F0109230421092C6
:10041000344281E080933242FF91EF91DF91CF919E
:10042000BF91AF919F918F917F916F915F914F910C
:100430003F912F910F900BBE0F900FBE0F901F900A
:10044000189580E18093E205E0EAF4E0818380E2A0
:100450008283E0E4F8E080E197E28087918780EC96
:10046000868380E885830895DF92EF92FF920F9351
:100470001F93CF93DF93CDB7DEB7E297CDBFDEBF3B
:10048000182FF92EE62ED72E822F932F0130D9F474
:100490001F928FEF8F931F928F931F928F935F9373
:1004A0004F937F936F93FF921F9382EE91E49F93FC
:1004B0008F93CE0101969F938F930E949605AC0176
:1004C000CDBFDEBF57C00230D9F41F924FEF4F931C
:1004D0001F924F931F924F933F932F937F936F934E
:1004E000FF921F9385EF91E49F938F93CE01019626
:1004F0009F938F930E949605AC01CDBFDEBF3AC09B
:100500000330E9F40E9451051F922FEF2F931F92A1
:100510002F931F922F939F938F93DF92EF92FF92CF
:100520001F938AE092E49F938F93CE0101969F934D
:100530008F930E949605AC01CDBFDEBF1BC0043077
:10054000B9F41F928FEF8F931F928F931F928F9307
:10055000FF921F938DE192E49F938F93CE010196BA
:100560009F938F930E949605AC01CDBFDEBF02C062
:1005700040E050E020E030E00FC09091440895FF4B
:10058000FCCFE1E0F0E0EC0FFD1FE20FF31F9081E4
:10059000909342082F5F3F4F2417350774F3E2967C
:1005A000CDBFDEBFDF91CF911F910F91FF90EF90F4
:1005B000DF900895EF92FF920F931F93CF93DF93F5
:1005C0008C01EC0109900020E9F72197C81BD90B99
:1005D000CE0103970E9430047C01AE014F5F5F4F54
:1005E000B8016F5F7F4F0E947F052497CE0DDF1DFE
:1005F0001882C701DF91CF911F910F91FF90EF906B
:1006000008950F931F93FC0121816281862F90E052
:10061000A0E0B0E0BA2FA92F982F8827822B038162
:1006200010E020E030E0980111270027AC01BD0167
:10063000402B512B622B732B848190E0A0E0B0E023
:10064000B82FAA27992788278A019B01082B192BE5
:100650002A2B3B2BC901B8011F910F9108950F93CD
:100660001F93CF93DF93CDB7DEB7E297CDBFDEBF49
:100670008C01FC01808190E00E94F700F8018081EC
:10068000803731F4C8010E94DA020E94F70052C09C
:100690008137C1F4C8010E9401039F938F937F9318
:1006A0006F938CE490E49F938F938E010F5F1F4FA5
:1006B0001F930F930E949605C8010E94F700CDBFBB
:1006C000DEBF38C08033B1F1813321F481E0809303
:1006D000314230C0823319F4109231422BC083333F
:1006E00019F41092314226C0843361F4C8010E948B
:1006F000010360930E4070930F40809310409093DD
:10070000114018C0853349F4C8010E94DA02BC01C7
:1007100086E090E40E9478050DC0863359F4C80144
:100720000E94010360932C4270932D4280932E42CD
:1007300090932F42E296CDBFDEBFDF91CF911F9104
:100740000F9108951F920F920FB60F9211240BB6BE
:100750000F922F933F934F935F936F937F938F935A
:100760009F93AF93BF93CF93DF93EF93FF939091BA
:100770004008992381F08091354281110CC010927C
:10078000364281E08093354282E3E9E6F2E4DF011C
:100790001D928A95E9F780913542882309F44BC070
:1007A000E091364281E08E0F80933642F0E0E759C7
:1007B000FD4B90838330A0F190E0FC01E859FD4BA4
:1007C00020812F3F69F5FC01E959FD4B20812F3F26
:1007D00039F5FC01EA59FD4B80818F3F09F5C0E4F2
:1007E000D8E08E818F778E838D818F778D8382E3A2
:1007F000EFEFF2E4DF011D928A95E9F769E672E412
:10080000CF010E947805109235421092364281E065
:10081000809333428E8180688E838D8180688D8342
:1008200080913642823338F010923642109235422F
:1008300081E080933342FF91EF91DF91CF91BF919F
:10084000AF919F918F917F916F915F914F913F9168
:100850002F910F900BBE0F900FBE0F901F90189509
:100860000F931F93CF93DF938230910510F482E0B2
:1008700090E0E0916543F091664320E030E0A0E035
:10088000B0E0309719F140815181028113814817FE
:100890005907C8F08417950769F4109731F012963C
:1008A0000C93129713961C9327C0009365431093E3
:1008B000664322C02115310519F04217530718F479
:1008C0009A01BD01EF01DF01F801DBCF21153105F0
:1008D000F9F0281B390B2430310580F48A819B8183
:1008E0006115710521F0FB018283938304C080931D
:1008F000654390936643FE01329644C0FE01E20FC9
:10090000F31F8193919322503109288339833AC090
:100910002091634330916443232B41F420910240A2
:10092000309103402093634330936443209100400F
:10093000309101402115310541F42DB73EB740916A
:10094000044050910540241B350BE0916343F09126
:100950006443E217F307A0F42E1B3F0B2817390757
:1009600078F0AC014E5F5F4F2417350748F04E0F0B
:100970005F1F40936343509364438193919302C0FC
:10098000E0E0F0E0CF01DF91CF911F910F9108954A
:10099000CF93DF93009709F481C0FC013297128254
:1009A0001382A0916543B0916643109781F4208132
:1009B0003181820F931F2091634330916443281744
:1009C000390751F5E0936343F093644367C0ED0149
:1009D00020E030E0CE17DF0740F44A815B819E01C2
:1009E00041155105F1F0EA01F5CFC283D38340816F
:1009F0005181840F951FC817D90759F488819981AF
:100A0000840F951F0296808391838A819B818283C4
:100A100093832115310529F4E0936543F0936643F0
:100A20003DC0E901EA83FB8349915991C40FD51F69
:100A3000EC17FD0761F480819181840F951F029668
:100A4000E90188839983828193818A839B83E0E093
:100A5000F0E012968D919C911397009719F0FD018B
:100A6000DC01F7CF8D919C9111979D012E5F3F4F37
:100A7000820F931F209163433091644328173907F5
:100A800069F4309729F4109265431092664302C0CE
:100A900012821382A0936343B0936443DF91CF919A
:100AA0000895FC0188279927E89421912032E9F3E1
:100AB000293010F02E30C8F32B3241F02D3239F4AA
:100AC000689404C00E948E05820F911D21912053CD
:100AD0002A30C0F31EF4909581959F4F0895FB0135
:100AE000DC018D91019080190110D9F3990B0895C3
:100AF000FB01DC0101900D920020E1F70895FB015C
:100B0000DC014150504048F001900D920020C9F79F
:100B100001C01D9241505040E0F708957AE0979F40
:100B2000902D879F802D910D112408950F931F9371
:100B3000CF93DF93CDB7DEB72E97CDBFDEBF0D8944
:100B40001E8986E08C8309831A838FEF9FE78D834C
:100B50009E83AE01475E5F4F6F89788DCE0101960F
:100B60000E94BF05EF81F885E00FF11F10822E96DD
:100B7000CDBFDEBFDF91CF911F910F9108952F92CE
:100B80003F924F925F926F927F928F929F92AF921D
:100B9000BF92CF92DF92EF92FF920F931F93CF936A
:100BA000DF93CDB7DEB72B97CDBFDEBF6C017B01E6
:100BB0008A01FC0116821782838181FFCCC1CE019C
:100BC00001963C01F6019381F70193FD859193FF16
:100BD00081917F01882309F4BAC1853239F493FDEC
:100BE000859193FF81917F01853229F4B60190E0D0
:100BF0000E94D907E7CF912C212C312CFFE1F3156E
:100C0000D8F08B3279F038F4803279F08332A1F465
:100C1000232D20611DC08D3261F0803369F4232DB6
:100C2000216016C0832D8260382EE32DE4603E2EB5
:100C30002AC0F32DF8601DC037FC2DC020ED280F11
:100C40002A3040F08E32B9F436FC81C1232D206465
:100C5000322E19C036FE06C08AE0989E200D11245F
:100C6000922E11C0EAE02E9E200D1124222EF32D8B
:100C7000F0623F2E08C08C3621F4832D8068382E18
:100C800002C0883641F4F70193FD859193FF81916D
:100C90007F018111B3CF982F9F7D9554933028F415
:100CA0000C5F1F4F9FE399830DC0833631F083376C
:100CB00071F0833509F059C021C0F8018081898322
:100CC0000E5F1F4F88248394912C530113C0280179
:100CD000F2E04F0E511CF801A080B18036FE03C037
:100CE000692D70E002C06FEF7FEFC5010E94CE0753
:100CF0004C018201F32DFF773F2E16C0280122E020
:100D0000420E511CF801A080B18036FE03C0692D4F
:100D100070E002C06FEF7FEFC5010E94C3074C0176
:100D2000F32DF0683F2E820133FC1BC0822D90E032
:100D300088169906B0F4B60180E290E00E94D907C7
:100D40002A94F4CFF50137FC859137FE81915F013C
:100D5000B60190E00E94D90721102A9421E0821A5E
:100D600091088114910471F7E8C0843611F0893636
:100D700041F5F80137FE07C060817181828193815E
:100D80000C5F1F4F08C060817181072E000C880B1B
:100D9000990B0E5F1F4FF32DFF763F2E97FF09C073
:100DA00090958095709561957F4F8F4F9F4FF0681C
:100DB0003F2E2AE030E0A3010E941508882E8618F5
:100DC00045C0853731F4232D2F7EB22E2AE030E046
:100DD00025C0932D997FB92E8F36C1F018F4883530
:100DE00079F0B5C0803719F0883721F0B0C0E92F0D
:100DF000E061BE2EB4FE0DC0FB2DF460BF2E09C015
:100E000034FE0AC0292F2660B22E06C028E030E04A
:100E100005C020E130E002C020E132E0F801B7FE79
:100E200007C060817181828193810C5F1F4F06C072
:100E30006081718180E090E00E5F1F4FA3010E94EE
:100E40001508882E8618FB2DFF773F2E36FE0DC025
:100E5000232D2E7FA22E891458F434FE0BC032FCB1
:100E600009C0832D8E7EA82E05C0B82CA32C03C0EC
:100E7000B82C01C0B92CA4FE0FC0FE01E80DF11D75
:100E80008081803321F49A2D997EA92E09C0A2FE7B
:100E900006C0B394B39404C08A2D867809F0B39445
:100EA000A3FC11C0A0FE06C0B21488F4280C922C3A
:100EB0009B180EC0B21460F4B60180E290E00E946C
:100EC000D907B394F7CFB21418F42B1802C0982C9A
:100ED000212CA4FE10C0B60180E390E00E94D90747
:100EE000A2FE17C0A1FC03C088E790E002C088E51D
:100EF00090E0B6010CC08A2D867859F0A1FE02C0A0
:100F00008BE201C080E2A7FC8DE2B60190E00E9476
:100F1000D907891438F4B60180E390E00E94D9071C
:100F20009A94F7CF8A94F301E80DF11D8081B60100
:100F300090E00E94D9078110F5CF222009F442CE1B
:100F4000B60180E290E00E94D9072A94F6CFF6011C
:100F50008681978102C08FEF9FEF2B96CDBFDEBFBA
:100F6000DF91CF911F910F91FF90EF90DF90CF9085
:100F7000BF90AF909F908F907F906F905F904F90B9
:100F80003F902F900895FC01059061507040011032
:100F9000D8F7809590958E0F9F1F0895FC016150A2
:100FA000704001900110D8F7809590958E0F9F1F8B
:100FB00008950F931F93CF93DF93FB01238121FDAE
:100FC00003C08FEF9FEF2CC022FF16C046815781D0
:100FD000248135814217530744F4A081B1819D01DA
:100FE0002F5F3F4F208331838C93268137812F5F82
:100FF0003F4F2683378314C08B01EC01FB01008433
:10100000F185E02D0995892BE1F6D80116968D9191
:101010009C911797019616968D939C931797CE01E6
:10102000DF91CF911F910F910895FA01AA272830DF
:1010300051F1203181F1E8946F936E7F6E5F7F4FA5
:101040008F4F9F4FAF4FB1E03ED0B4E03CD0670F21
:10105000781F891F9A1FA11D680F791F8A1F911D74
:10106000A11D6A0F711D811D911DA11D20D009F4C4
:1010700068943F912AE0269F11243019305D319306
:10108000DEF6CF010895462F4770405D4193B3E0EF
:101090000FD0C9F7F6CF462F4F70405D4A3318F096
:1010A000495D31FD4052419302D0A9F7EACFB4E047
:1010B000A6959795879577956795BA95C9F70097FF
:1010C0006105710508959B01AC010A2E06945795A0
:1010D000479537952795BA95C9F7620F731F841FF7
:1010E000951FA01D0895DC0128ED209334006C931A
:0610F0000895F894FFCF03
:1010F6000000674320002F736563000000000A00AC
:1011060000006C6564206F6E006C6564206F666617
:101116000068656C700073657474696E677300525D
:1011260065636F7264696E6720526174653A202543
:101136006C752025730A4D6F64653A20256C750021
:101146006765742074696D65006368617220646FF9
:101156006E6500636861725F6661696C00546572F2
:101166006D696E616C2046756E6374696F6E730A85
:101176005F5F5F5F5F5F5F5F5F5F5F5F5F5F5F5F79
:101186005F5F5F5F5F5F5F5F5F5F5F5F5F5F5F5F69
:101196005F5F5F5F5F5F5F5F5F5F5F5F5F5F5F5F59
:1011A6005F5F5F5F5F5F5F5F5F5F5F5F5F5F5F5F49
:1011B6005F5F5F5F5F0A6C6564206F6E2020202092
:1011C6002020202020202D205475726E73207468F4
:1011D60065204C4544206F6E0A6C6564206F666618
:1011E6002020202020202020202D205475726E7370
:1011F60020746865204C4544206F66660A68656CF5
:10120600702020202020202020202020202D204457
:101216006973706C61792061206D656E75206F66EB
:10122600207465726D696E616C2066756E63746993
:101236006F6E730A73657474696E6773202020205D
:10124600202020202D20446973706C6179206375FD
:101256007272656E742073657474696E67730A675B
:1012660065742074696D6528574950292020202D02
:1012760020446973706C6179206C6F63616C204DDA
:1012860043552074696D650A6368617220646F6EE8
:1012960065202020202020202D2053696D756C614B
:1012A600746520636861726163746572697A6174DA
:1012B600696F6E2066696E6973682C20676F20748B
:1012C6006F207265737065637469766520706167F7
:1012D60065006765742025732E25732E2573256397
:1012E600256325630025732E25732E7478743D229D
:1012F6002573222563256325630025732E25732E0A
:1013060076616C3D256425632563256300706167FE
:0C13160065202573256325632563000016
:00000001FF
